{
	"contracts/Call/delegatecall.sol": {
		"DelegateCallFunction": {
			"abi": [
				{
					"inputs": [
						{
							"internalType": "address payable",
							"name": "_address",
							"type": "address"
						},
						{
							"internalType": "uint256",
							"name": "_a",
							"type": "uint256"
						},
						{
							"internalType": "uint256",
							"name": "_b",
							"type": "uint256"
						}
					],
					"name": "callFunc",
					"outputs": [
						{
							"internalType": "bytes",
							"name": "",
							"type": "bytes"
						}
					],
					"stateMutability": "nonpayable",
					"type": "function"
				},
				{
					"inputs": [
						{
							"internalType": "address payable",
							"name": "_address",
							"type": "address"
						},
						{
							"internalType": "uint256",
							"name": "_a",
							"type": "uint256"
						},
						{
							"internalType": "uint256",
							"name": "_b",
							"type": "uint256"
						}
					],
					"name": "callNotExisFunc",
					"outputs": [
						{
							"internalType": "bytes",
							"name": "",
							"type": "bytes"
						}
					],
					"stateMutability": "nonpayable",
					"type": "function"
				}
			],
			"devdoc": {
				"kind": "dev",
				"methods": {},
				"version": 1
			},
			"evm": {
				"assembly": "    /* \"contracts/Call/delegatecall.sol\":351:1396  contract DelegateCallFunction{\r... */\n  mstore(0x40, 0x80)\n  callvalue\n  dup1\n  iszero\n  tag_1\n  jumpi\n  0x00\n  dup1\n  revert\ntag_1:\n  pop\n  dataSize(sub_0)\n  dup1\n  dataOffset(sub_0)\n  0x00\n  codecopy\n  0x00\n  return\nstop\n\nsub_0: assembly {\n        /* \"contracts/Call/delegatecall.sol\":351:1396  contract DelegateCallFunction{\r... */\n      mstore(0x40, 0x80)\n      callvalue\n      dup1\n      iszero\n      tag_1\n      jumpi\n      0x00\n      dup1\n      revert\n    tag_1:\n      pop\n      jumpi(tag_2, lt(calldatasize, 0x04))\n      shr(0xe0, calldataload(0x00))\n      dup1\n      0xa72d2473\n      eq\n      tag_3\n      jumpi\n      dup1\n      0xa850bca5\n      eq\n      tag_4\n      jumpi\n    tag_2:\n      0x00\n      dup1\n      revert\n        /* \"contracts/Call/delegatecall.sol\":610:993  function callFunc(address payable _address, uint _a, uint _b) public returns(bytes memory){\r... */\n    tag_3:\n      tag_5\n      0x04\n      dup1\n      calldatasize\n      sub\n      dup2\n      add\n      swap1\n      tag_6\n      swap2\n      swap1\n      tag_7\n      jump\t// in\n    tag_6:\n      tag_8\n      jump\t// in\n    tag_5:\n      mload(0x40)\n      tag_9\n      swap2\n      swap1\n      tag_10\n      jump\t// in\n    tag_9:\n      mload(0x40)\n      dup1\n      swap2\n      sub\n      swap1\n      return\n        /* \"contracts/Call/delegatecall.sol\":999:1393  function callNotExisFunc(address payable _address, uint _a, uint _b) public returns(bytes memory){\r... */\n    tag_4:\n      tag_11\n      0x04\n      dup1\n      calldatasize\n      sub\n      dup2\n      add\n      swap1\n      tag_12\n      swap2\n      swap1\n      tag_7\n      jump\t// in\n    tag_12:\n      tag_13\n      jump\t// in\n    tag_11:\n      mload(0x40)\n      tag_14\n      swap2\n      swap1\n      tag_10\n      jump\t// in\n    tag_14:\n      mload(0x40)\n      dup1\n      swap2\n      sub\n      swap1\n      return\n        /* \"contracts/Call/delegatecall.sol\":610:993  function callFunc(address payable _address, uint _a, uint _b) public returns(bytes memory){\r... */\n    tag_8:\n        /* \"contracts/Call/delegatecall.sol\":687:699  bytes memory */\n      0x60\n        /* \"contracts/Call/delegatecall.sol\":711:737  bytes memory callFuncBytes */\n      0x00\n        /* \"contracts/Call/delegatecall.sol\":792:794  _a */\n      dup4\n        /* \"contracts/Call/delegatecall.sol\":795:797  _b */\n      dup4\n        /* \"contracts/Call/delegatecall.sol\":740:798  abi.encodeWithSignature(\"plusData(uint256,uint256)\",_a,_b) */\n      add(0x24, mload(0x40))\n      tag_16\n      swap3\n      swap2\n      swap1\n      tag_17\n      jump\t// in\n    tag_16:\n      mload(0x40)\n      0x20\n      dup2\n      dup4\n      sub\n      sub\n      dup2\n      mstore\n      swap1\n      0x40\n      mstore\n      and(not(0xffffffffffffffffffffffffffffffffffffffffffffffffffffffff), 0x69280dd100000000000000000000000000000000000000000000000000000000)\n      0x20\n      dup3\n      add\n      dup1\n      mload\n      0xffffffffffffffffffffffffffffffffffffffffffffffffffffffff\n      dup4\n      dup2\n      dup4\n      and\n      or\n      dup4\n      mstore\n      pop\n      pop\n      pop\n      pop\n        /* \"contracts/Call/delegatecall.sol\":711:798  bytes memory callFuncBytes = abi.encodeWithSignature(\"plusData(uint256,uint256)\",_a,_b) */\n      swap1\n      pop\n        /* \"contracts/Call/delegatecall.sol\":812:832  isContract(_address) */\n      tag_18\n        /* \"contracts/Call/delegatecall.sol\":823:831  _address */\n      dup6\n        /* \"contracts/Call/delegatecall.sol\":812:822  isContract */\n      tag_19\n        /* \"contracts/Call/delegatecall.sol\":812:832  isContract(_address) */\n      jump\t// in\n    tag_18:\n        /* \"contracts/Call/delegatecall.sol\":809:986  if(isContract(_address)){\r... */\n      iszero\n      tag_20\n      jumpi\n        /* \"contracts/Call/delegatecall.sol\":849:860  bool result */\n      0x00\n        /* \"contracts/Call/delegatecall.sol\":862:878  bytes memory sum */\n      dup1\n        /* \"contracts/Call/delegatecall.sol\":882:890  _address */\n      dup7\n        /* \"contracts/Call/delegatecall.sol\":882:895  _address.call */\n      0xffffffffffffffffffffffffffffffffffffffff\n      and\n        /* \"contracts/Call/delegatecall.sol\":896:909  callFuncBytes */\n      dup4\n        /* \"contracts/Call/delegatecall.sol\":882:910  _address.call(callFuncBytes) */\n      mload(0x40)\n      tag_21\n      swap2\n      swap1\n      tag_22\n      jump\t// in\n    tag_21:\n      0x00\n      mload(0x40)\n      dup1\n      dup4\n      sub\n      dup2\n      0x00\n      dup7\n      gas\n      call\n      swap2\n      pop\n      pop\n      returndatasize\n      dup1\n      0x00\n      dup2\n      eq\n      tag_25\n      jumpi\n      mload(0x40)\n      swap2\n      pop\n      and(add(returndatasize, 0x3f), not(0x1f))\n      dup3\n      add\n      0x40\n      mstore\n      returndatasize\n      dup3\n      mstore\n      returndatasize\n      0x00\n      0x20\n      dup5\n      add\n      returndatacopy\n      jump(tag_24)\n    tag_25:\n      0x60\n      swap2\n      pop\n    tag_24:\n      pop\n        /* \"contracts/Call/delegatecall.sol\":848:910  (bool result, bytes memory sum) = _address.call(callFuncBytes) */\n      swap2\n      pop\n      swap2\n      pop\n        /* \"contracts/Call/delegatecall.sol\":932:935  sum */\n      dup1\n        /* \"contracts/Call/delegatecall.sol\":925:935  return sum */\n      swap4\n      pop\n      pop\n      pop\n      pop\n      jump(tag_15)\n        /* \"contracts/Call/delegatecall.sol\":809:986  if(isContract(_address)){\r... */\n    tag_20:\n        /* \"contracts/Call/delegatecall.sol\":966:974  revert() */\n      0x00\n      dup1\n      revert\n        /* \"contracts/Call/delegatecall.sol\":610:993  function callFunc(address payable _address, uint _a, uint _b) public returns(bytes memory){\r... */\n    tag_15:\n      swap4\n      swap3\n      pop\n      pop\n      pop\n      jump\t// out\n        /* \"contracts/Call/delegatecall.sol\":999:1393  function callNotExisFunc(address payable _address, uint _a, uint _b) public returns(bytes memory){\r... */\n    tag_13:\n        /* \"contracts/Call/delegatecall.sol\":1083:1095  bytes memory */\n      0x60\n        /* \"contracts/Call/delegatecall.sol\":1107:1133  bytes memory callFuncBytes */\n      0x00\n        /* \"contracts/Call/delegatecall.sol\":1192:1194  _a */\n      dup4\n        /* \"contracts/Call/delegatecall.sol\":1195:1197  _b */\n      dup4\n        /* \"contracts/Call/delegatecall.sol\":1136:1198  abi.encodeWithSignature(\"NotExistFunc(uint256,uint256)\",_a,_b) */\n      add(0x24, mload(0x40))\n      tag_28\n      swap3\n      swap2\n      swap1\n      tag_17\n      jump\t// in\n    tag_28:\n      mload(0x40)\n      0x20\n      dup2\n      dup4\n      sub\n      sub\n      dup2\n      mstore\n      swap1\n      0x40\n      mstore\n      and(not(0xffffffffffffffffffffffffffffffffffffffffffffffffffffffff), 0xb8d2a4c500000000000000000000000000000000000000000000000000000000)\n      0x20\n      dup3\n      add\n      dup1\n      mload\n      0xffffffffffffffffffffffffffffffffffffffffffffffffffffffff\n      dup4\n      dup2\n      dup4\n      and\n      or\n      dup4\n      mstore\n      pop\n      pop\n      pop\n      pop\n        /* \"contracts/Call/delegatecall.sol\":1107:1198  bytes memory callFuncBytes = abi.encodeWithSignature(\"NotExistFunc(uint256,uint256)\",_a,_b) */\n      swap1\n      pop\n        /* \"contracts/Call/delegatecall.sol\":1212:1232  isContract(_address) */\n      tag_29\n        /* \"contracts/Call/delegatecall.sol\":1223:1231  _address */\n      dup6\n        /* \"contracts/Call/delegatecall.sol\":1212:1222  isContract */\n      tag_19\n        /* \"contracts/Call/delegatecall.sol\":1212:1232  isContract(_address) */\n      jump\t// in\n    tag_29:\n        /* \"contracts/Call/delegatecall.sol\":1209:1386  if(isContract(_address)){\r... */\n      iszero\n      tag_30\n      jumpi\n        /* \"contracts/Call/delegatecall.sol\":1249:1260  bool result */\n      0x00\n        /* \"contracts/Call/delegatecall.sol\":1262:1278  bytes memory sum */\n      dup1\n        /* \"contracts/Call/delegatecall.sol\":1282:1290  _address */\n      dup7\n        /* \"contracts/Call/delegatecall.sol\":1282:1295  _address.call */\n      0xffffffffffffffffffffffffffffffffffffffff\n      and\n        /* \"contracts/Call/delegatecall.sol\":1296:1309  callFuncBytes */\n      dup4\n        /* \"contracts/Call/delegatecall.sol\":1282:1310  _address.call(callFuncBytes) */\n      mload(0x40)\n      tag_31\n      swap2\n      swap1\n      tag_22\n      jump\t// in\n    tag_31:\n      0x00\n      mload(0x40)\n      dup1\n      dup4\n      sub\n      dup2\n      0x00\n      dup7\n      gas\n      call\n      swap2\n      pop\n      pop\n      returndatasize\n      dup1\n      0x00\n      dup2\n      eq\n      tag_34\n      jumpi\n      mload(0x40)\n      swap2\n      pop\n      and(add(returndatasize, 0x3f), not(0x1f))\n      dup3\n      add\n      0x40\n      mstore\n      returndatasize\n      dup3\n      mstore\n      returndatasize\n      0x00\n      0x20\n      dup5\n      add\n      returndatacopy\n      jump(tag_33)\n    tag_34:\n      0x60\n      swap2\n      pop\n    tag_33:\n      pop\n        /* \"contracts/Call/delegatecall.sol\":1248:1310  (bool result, bytes memory sum) = _address.call(callFuncBytes) */\n      swap2\n      pop\n      swap2\n      pop\n        /* \"contracts/Call/delegatecall.sol\":1332:1335  sum */\n      dup1\n        /* \"contracts/Call/delegatecall.sol\":1325:1335  return sum */\n      swap4\n      pop\n      pop\n      pop\n      pop\n      jump(tag_27)\n        /* \"contracts/Call/delegatecall.sol\":1209:1386  if(isContract(_address)){\r... */\n    tag_30:\n        /* \"contracts/Call/delegatecall.sol\":1366:1374  revert() */\n      0x00\n      dup1\n      revert\n        /* \"contracts/Call/delegatecall.sol\":999:1393  function callNotExisFunc(address payable _address, uint _a, uint _b) public returns(bytes memory){\r... */\n    tag_27:\n      swap4\n      swap3\n      pop\n      pop\n      pop\n      jump\t// out\n        /* \"contracts/Call/delegatecall.sol\":387:602  function isContract(address _addr) private returns(bool isContract){\r... */\n    tag_19:\n        /* \"contracts/Call/delegatecall.sol\":438:453  bool isContract */\n      0x00\n        /* \"contracts/Call/delegatecall.sol\":467:478  uint32 size */\n      dup1\n        /* \"contracts/Call/delegatecall.sol\":532:537  _addr */\n      dup3\n        /* \"contracts/Call/delegatecall.sol\":520:538  extcodesize(_addr) */\n      extcodesize\n        /* \"contracts/Call/delegatecall.sol\":512:538  size := extcodesize(_addr) */\n      swap1\n      pop\n        /* \"contracts/Call/delegatecall.sol\":574:575  0 */\n      0x00\n        /* \"contracts/Call/delegatecall.sol\":567:571  size */\n      dup2\n        /* \"contracts/Call/delegatecall.sol\":567:575  size > 0 */\n      0xffffffff\n      and\n      gt\n        /* \"contracts/Call/delegatecall.sol\":559:576  return (size > 0) */\n      swap2\n      pop\n      pop\n        /* \"contracts/Call/delegatecall.sol\":387:602  function isContract(address _addr) private returns(bool isContract){\r... */\n      swap2\n      swap1\n      pop\n      jump\t// out\n        /* \"#utility.yul\":7:162   */\n    tag_38:\n        /* \"#utility.yul\":61:66   */\n      0x00\n        /* \"#utility.yul\":99:105   */\n      dup2\n        /* \"#utility.yul\":86:106   */\n      calldataload\n        /* \"#utility.yul\":77:106   */\n      swap1\n      pop\n        /* \"#utility.yul\":115:156   */\n      tag_40\n        /* \"#utility.yul\":150:155   */\n      dup2\n        /* \"#utility.yul\":115:156   */\n      tag_41\n      jump\t// in\n    tag_40:\n        /* \"#utility.yul\":7:162   */\n      swap3\n      swap2\n      pop\n      pop\n      jump\t// out\n        /* \"#utility.yul\":168:307   */\n    tag_42:\n        /* \"#utility.yul\":214:219   */\n      0x00\n        /* \"#utility.yul\":252:258   */\n      dup2\n        /* \"#utility.yul\":239:259   */\n      calldataload\n        /* \"#utility.yul\":230:259   */\n      swap1\n      pop\n        /* \"#utility.yul\":268:301   */\n      tag_44\n        /* \"#utility.yul\":295:300   */\n      dup2\n        /* \"#utility.yul\":268:301   */\n      tag_45\n      jump\t// in\n    tag_44:\n        /* \"#utility.yul\":168:307   */\n      swap3\n      swap2\n      pop\n      pop\n      jump\t// out\n        /* \"#utility.yul\":313:948   */\n    tag_7:\n        /* \"#utility.yul\":398:404   */\n      0x00\n        /* \"#utility.yul\":406:412   */\n      dup1\n        /* \"#utility.yul\":414:420   */\n      0x00\n        /* \"#utility.yul\":463:465   */\n      0x60\n        /* \"#utility.yul\":451:460   */\n      dup5\n        /* \"#utility.yul\":442:449   */\n      dup7\n        /* \"#utility.yul\":438:461   */\n      sub\n        /* \"#utility.yul\":434:466   */\n      slt\n        /* \"#utility.yul\":431:550   */\n      iszero\n      tag_47\n      jumpi\n        /* \"#utility.yul\":469:548   */\n      tag_48\n      tag_49\n      jump\t// in\n    tag_48:\n        /* \"#utility.yul\":431:550   */\n    tag_47:\n        /* \"#utility.yul\":589:590   */\n      0x00\n        /* \"#utility.yul\":614:675   */\n      tag_50\n        /* \"#utility.yul\":667:674   */\n      dup7\n        /* \"#utility.yul\":658:664   */\n      dup3\n        /* \"#utility.yul\":647:656   */\n      dup8\n        /* \"#utility.yul\":643:665   */\n      add\n        /* \"#utility.yul\":614:675   */\n      tag_38\n      jump\t// in\n    tag_50:\n        /* \"#utility.yul\":604:675   */\n      swap4\n      pop\n        /* \"#utility.yul\":560:685   */\n      pop\n        /* \"#utility.yul\":724:726   */\n      0x20\n        /* \"#utility.yul\":750:803   */\n      tag_51\n        /* \"#utility.yul\":795:802   */\n      dup7\n        /* \"#utility.yul\":786:792   */\n      dup3\n        /* \"#utility.yul\":775:784   */\n      dup8\n        /* \"#utility.yul\":771:793   */\n      add\n        /* \"#utility.yul\":750:803   */\n      tag_42\n      jump\t// in\n    tag_51:\n        /* \"#utility.yul\":740:803   */\n      swap3\n      pop\n        /* \"#utility.yul\":695:813   */\n      pop\n        /* \"#utility.yul\":852:854   */\n      0x40\n        /* \"#utility.yul\":878:931   */\n      tag_52\n        /* \"#utility.yul\":923:930   */\n      dup7\n        /* \"#utility.yul\":914:920   */\n      dup3\n        /* \"#utility.yul\":903:912   */\n      dup8\n        /* \"#utility.yul\":899:921   */\n      add\n        /* \"#utility.yul\":878:931   */\n      tag_42\n      jump\t// in\n    tag_52:\n        /* \"#utility.yul\":868:931   */\n      swap2\n      pop\n        /* \"#utility.yul\":823:941   */\n      pop\n        /* \"#utility.yul\":313:948   */\n      swap3\n      pop\n      swap3\n      pop\n      swap3\n      jump\t// out\n        /* \"#utility.yul\":954:1314   */\n    tag_53:\n        /* \"#utility.yul\":1040:1043   */\n      0x00\n        /* \"#utility.yul\":1068:1106   */\n      tag_55\n        /* \"#utility.yul\":1100:1105   */\n      dup3\n        /* \"#utility.yul\":1068:1106   */\n      tag_56\n      jump\t// in\n    tag_55:\n        /* \"#utility.yul\":1122:1192   */\n      tag_57\n        /* \"#utility.yul\":1185:1191   */\n      dup2\n        /* \"#utility.yul\":1180:1183   */\n      dup6\n        /* \"#utility.yul\":1122:1192   */\n      tag_58\n      jump\t// in\n    tag_57:\n        /* \"#utility.yul\":1115:1192   */\n      swap4\n      pop\n        /* \"#utility.yul\":1201:1253   */\n      tag_59\n        /* \"#utility.yul\":1246:1252   */\n      dup2\n        /* \"#utility.yul\":1241:1244   */\n      dup6\n        /* \"#utility.yul\":1234:1238   */\n      0x20\n        /* \"#utility.yul\":1227:1232   */\n      dup7\n        /* \"#utility.yul\":1223:1239   */\n      add\n        /* \"#utility.yul\":1201:1253   */\n      tag_60\n      jump\t// in\n    tag_59:\n        /* \"#utility.yul\":1278:1307   */\n      tag_61\n        /* \"#utility.yul\":1300:1306   */\n      dup2\n        /* \"#utility.yul\":1278:1307   */\n      tag_62\n      jump\t// in\n    tag_61:\n        /* \"#utility.yul\":1273:1276   */\n      dup5\n        /* \"#utility.yul\":1269:1308   */\n      add\n        /* \"#utility.yul\":1262:1308   */\n      swap2\n      pop\n        /* \"#utility.yul\":1044:1314   */\n      pop\n        /* \"#utility.yul\":954:1314   */\n      swap3\n      swap2\n      pop\n      pop\n      jump\t// out\n        /* \"#utility.yul\":1320:1693   */\n    tag_63:\n        /* \"#utility.yul\":1424:1427   */\n      0x00\n        /* \"#utility.yul\":1452:1490   */\n      tag_65\n        /* \"#utility.yul\":1484:1489   */\n      dup3\n        /* \"#utility.yul\":1452:1490   */\n      tag_56\n      jump\t// in\n    tag_65:\n        /* \"#utility.yul\":1506:1594   */\n      tag_66\n        /* \"#utility.yul\":1587:1593   */\n      dup2\n        /* \"#utility.yul\":1582:1585   */\n      dup6\n        /* \"#utility.yul\":1506:1594   */\n      tag_67\n      jump\t// in\n    tag_66:\n        /* \"#utility.yul\":1499:1594   */\n      swap4\n      pop\n        /* \"#utility.yul\":1603:1655   */\n      tag_68\n        /* \"#utility.yul\":1648:1654   */\n      dup2\n        /* \"#utility.yul\":1643:1646   */\n      dup6\n        /* \"#utility.yul\":1636:1640   */\n      0x20\n        /* \"#utility.yul\":1629:1634   */\n      dup7\n        /* \"#utility.yul\":1625:1641   */\n      add\n        /* \"#utility.yul\":1603:1655   */\n      tag_60\n      jump\t// in\n    tag_68:\n        /* \"#utility.yul\":1680:1686   */\n      dup1\n        /* \"#utility.yul\":1675:1678   */\n      dup5\n        /* \"#utility.yul\":1671:1687   */\n      add\n        /* \"#utility.yul\":1664:1687   */\n      swap2\n      pop\n        /* \"#utility.yul\":1428:1693   */\n      pop\n        /* \"#utility.yul\":1320:1693   */\n      swap3\n      swap2\n      pop\n      pop\n      jump\t// out\n        /* \"#utility.yul\":1699:1817   */\n    tag_69:\n        /* \"#utility.yul\":1786:1810   */\n      tag_71\n        /* \"#utility.yul\":1804:1809   */\n      dup2\n        /* \"#utility.yul\":1786:1810   */\n      tag_72\n      jump\t// in\n    tag_71:\n        /* \"#utility.yul\":1781:1784   */\n      dup3\n        /* \"#utility.yul\":1774:1811   */\n      mstore\n        /* \"#utility.yul\":1699:1817   */\n      pop\n      pop\n      jump\t// out\n        /* \"#utility.yul\":1823:2094   */\n    tag_22:\n        /* \"#utility.yul\":1953:1956   */\n      0x00\n        /* \"#utility.yul\":1975:2068   */\n      tag_74\n        /* \"#utility.yul\":2064:2067   */\n      dup3\n        /* \"#utility.yul\":2055:2061   */\n      dup5\n        /* \"#utility.yul\":1975:2068   */\n      tag_63\n      jump\t// in\n    tag_74:\n        /* \"#utility.yul\":1968:2068   */\n      swap2\n      pop\n        /* \"#utility.yul\":2085:2088   */\n      dup2\n        /* \"#utility.yul\":2078:2088   */\n      swap1\n      pop\n        /* \"#utility.yul\":1823:2094   */\n      swap3\n      swap2\n      pop\n      pop\n      jump\t// out\n        /* \"#utility.yul\":2100:2409   */\n    tag_10:\n        /* \"#utility.yul\":2211:2215   */\n      0x00\n        /* \"#utility.yul\":2249:2251   */\n      0x20\n        /* \"#utility.yul\":2238:2247   */\n      dup3\n        /* \"#utility.yul\":2234:2252   */\n      add\n        /* \"#utility.yul\":2226:2252   */\n      swap1\n      pop\n        /* \"#utility.yul\":2298:2307   */\n      dup2\n        /* \"#utility.yul\":2292:2296   */\n      dup2\n        /* \"#utility.yul\":2288:2308   */\n      sub\n        /* \"#utility.yul\":2284:2285   */\n      0x00\n        /* \"#utility.yul\":2273:2282   */\n      dup4\n        /* \"#utility.yul\":2269:2286   */\n      add\n        /* \"#utility.yul\":2262:2309   */\n      mstore\n        /* \"#utility.yul\":2326:2402   */\n      tag_76\n        /* \"#utility.yul\":2397:2401   */\n      dup2\n        /* \"#utility.yul\":2388:2394   */\n      dup5\n        /* \"#utility.yul\":2326:2402   */\n      tag_53\n      jump\t// in\n    tag_76:\n        /* \"#utility.yul\":2318:2402   */\n      swap1\n      pop\n        /* \"#utility.yul\":2100:2409   */\n      swap3\n      swap2\n      pop\n      pop\n      jump\t// out\n        /* \"#utility.yul\":2415:2747   */\n    tag_17:\n        /* \"#utility.yul\":2536:2540   */\n      0x00\n        /* \"#utility.yul\":2574:2576   */\n      0x40\n        /* \"#utility.yul\":2563:2572   */\n      dup3\n        /* \"#utility.yul\":2559:2577   */\n      add\n        /* \"#utility.yul\":2551:2577   */\n      swap1\n      pop\n        /* \"#utility.yul\":2587:2658   */\n      tag_78\n        /* \"#utility.yul\":2655:2656   */\n      0x00\n        /* \"#utility.yul\":2644:2653   */\n      dup4\n        /* \"#utility.yul\":2640:2657   */\n      add\n        /* \"#utility.yul\":2631:2637   */\n      dup6\n        /* \"#utility.yul\":2587:2658   */\n      tag_69\n      jump\t// in\n    tag_78:\n        /* \"#utility.yul\":2668:2740   */\n      tag_79\n        /* \"#utility.yul\":2736:2738   */\n      0x20\n        /* \"#utility.yul\":2725:2734   */\n      dup4\n        /* \"#utility.yul\":2721:2739   */\n      add\n        /* \"#utility.yul\":2712:2718   */\n      dup5\n        /* \"#utility.yul\":2668:2740   */\n      tag_69\n      jump\t// in\n    tag_79:\n        /* \"#utility.yul\":2415:2747   */\n      swap4\n      swap3\n      pop\n      pop\n      pop\n      jump\t// out\n        /* \"#utility.yul\":2834:2932   */\n    tag_56:\n        /* \"#utility.yul\":2885:2891   */\n      0x00\n        /* \"#utility.yul\":2919:2924   */\n      dup2\n        /* \"#utility.yul\":2913:2925   */\n      mload\n        /* \"#utility.yul\":2903:2925   */\n      swap1\n      pop\n        /* \"#utility.yul\":2834:2932   */\n      swap2\n      swap1\n      pop\n      jump\t// out\n        /* \"#utility.yul\":2938:3106   */\n    tag_58:\n        /* \"#utility.yul\":3021:3032   */\n      0x00\n        /* \"#utility.yul\":3055:3061   */\n      dup3\n        /* \"#utility.yul\":3050:3053   */\n      dup3\n        /* \"#utility.yul\":3043:3062   */\n      mstore\n        /* \"#utility.yul\":3095:3099   */\n      0x20\n        /* \"#utility.yul\":3090:3093   */\n      dup3\n        /* \"#utility.yul\":3086:3100   */\n      add\n        /* \"#utility.yul\":3071:3100   */\n      swap1\n      pop\n        /* \"#utility.yul\":2938:3106   */\n      swap3\n      swap2\n      pop\n      pop\n      jump\t// out\n        /* \"#utility.yul\":3112:3259   */\n    tag_67:\n        /* \"#utility.yul\":3213:3224   */\n      0x00\n        /* \"#utility.yul\":3250:3253   */\n      dup2\n        /* \"#utility.yul\":3235:3253   */\n      swap1\n      pop\n        /* \"#utility.yul\":3112:3259   */\n      swap3\n      swap2\n      pop\n      pop\n      jump\t// out\n        /* \"#utility.yul\":3265:3369   */\n    tag_85:\n        /* \"#utility.yul\":3310:3317   */\n      0x00\n        /* \"#utility.yul\":3339:3363   */\n      tag_87\n        /* \"#utility.yul\":3357:3362   */\n      dup3\n        /* \"#utility.yul\":3339:3363   */\n      tag_88\n      jump\t// in\n    tag_87:\n        /* \"#utility.yul\":3328:3363   */\n      swap1\n      pop\n        /* \"#utility.yul\":3265:3369   */\n      swap2\n      swap1\n      pop\n      jump\t// out\n        /* \"#utility.yul\":3375:3501   */\n    tag_88:\n        /* \"#utility.yul\":3412:3419   */\n      0x00\n        /* \"#utility.yul\":3452:3494   */\n      0xffffffffffffffffffffffffffffffffffffffff\n        /* \"#utility.yul\":3445:3450   */\n      dup3\n        /* \"#utility.yul\":3441:3495   */\n      and\n        /* \"#utility.yul\":3430:3495   */\n      swap1\n      pop\n        /* \"#utility.yul\":3375:3501   */\n      swap2\n      swap1\n      pop\n      jump\t// out\n        /* \"#utility.yul\":3507:3584   */\n    tag_72:\n        /* \"#utility.yul\":3544:3551   */\n      0x00\n        /* \"#utility.yul\":3573:3578   */\n      dup2\n        /* \"#utility.yul\":3562:3578   */\n      swap1\n      pop\n        /* \"#utility.yul\":3507:3584   */\n      swap2\n      swap1\n      pop\n      jump\t// out\n        /* \"#utility.yul\":3590:3897   */\n    tag_60:\n        /* \"#utility.yul\":3658:3659   */\n      0x00\n        /* \"#utility.yul\":3668:3781   */\n    tag_92:\n        /* \"#utility.yul\":3682:3688   */\n      dup4\n        /* \"#utility.yul\":3679:3680   */\n      dup2\n        /* \"#utility.yul\":3676:3689   */\n      lt\n        /* \"#utility.yul\":3668:3781   */\n      iszero\n      tag_94\n      jumpi\n        /* \"#utility.yul\":3767:3768   */\n      dup1\n        /* \"#utility.yul\":3762:3765   */\n      dup3\n        /* \"#utility.yul\":3758:3769   */\n      add\n        /* \"#utility.yul\":3752:3770   */\n      mload\n        /* \"#utility.yul\":3748:3749   */\n      dup2\n        /* \"#utility.yul\":3743:3746   */\n      dup5\n        /* \"#utility.yul\":3739:3750   */\n      add\n        /* \"#utility.yul\":3732:3771   */\n      mstore\n        /* \"#utility.yul\":3704:3706   */\n      0x20\n        /* \"#utility.yul\":3701:3702   */\n      dup2\n        /* \"#utility.yul\":3697:3707   */\n      add\n        /* \"#utility.yul\":3692:3707   */\n      swap1\n      pop\n        /* \"#utility.yul\":3668:3781   */\n      jump(tag_92)\n    tag_94:\n        /* \"#utility.yul\":3799:3805   */\n      dup4\n        /* \"#utility.yul\":3796:3797   */\n      dup2\n        /* \"#utility.yul\":3793:3806   */\n      gt\n        /* \"#utility.yul\":3790:3891   */\n      iszero\n      tag_95\n      jumpi\n        /* \"#utility.yul\":3879:3880   */\n      0x00\n        /* \"#utility.yul\":3870:3876   */\n      dup5\n        /* \"#utility.yul\":3865:3868   */\n      dup5\n        /* \"#utility.yul\":3861:3877   */\n      add\n        /* \"#utility.yul\":3854:3881   */\n      mstore\n        /* \"#utility.yul\":3790:3891   */\n    tag_95:\n        /* \"#utility.yul\":3639:3897   */\n      pop\n        /* \"#utility.yul\":3590:3897   */\n      pop\n      pop\n      pop\n      jump\t// out\n        /* \"#utility.yul\":4026:4143   */\n    tag_49:\n        /* \"#utility.yul\":4135:4136   */\n      0x00\n        /* \"#utility.yul\":4132:4133   */\n      dup1\n        /* \"#utility.yul\":4125:4137   */\n      revert\n        /* \"#utility.yul\":4149:4251   */\n    tag_62:\n        /* \"#utility.yul\":4190:4196   */\n      0x00\n        /* \"#utility.yul\":4241:4243   */\n      0x1f\n        /* \"#utility.yul\":4237:4244   */\n      not\n        /* \"#utility.yul\":4232:4234   */\n      0x1f\n        /* \"#utility.yul\":4225:4230   */\n      dup4\n        /* \"#utility.yul\":4221:4235   */\n      add\n        /* \"#utility.yul\":4217:4245   */\n      and\n        /* \"#utility.yul\":4207:4245   */\n      swap1\n      pop\n        /* \"#utility.yul\":4149:4251   */\n      swap2\n      swap1\n      pop\n      jump\t// out\n        /* \"#utility.yul\":4257:4395   */\n    tag_41:\n        /* \"#utility.yul\":4338:4370   */\n      tag_101\n        /* \"#utility.yul\":4364:4369   */\n      dup2\n        /* \"#utility.yul\":4338:4370   */\n      tag_85\n      jump\t// in\n    tag_101:\n        /* \"#utility.yul\":4331:4336   */\n      dup2\n        /* \"#utility.yul\":4328:4371   */\n      eq\n        /* \"#utility.yul\":4318:4389   */\n      tag_102\n      jumpi\n        /* \"#utility.yul\":4385:4386   */\n      0x00\n        /* \"#utility.yul\":4382:4383   */\n      dup1\n        /* \"#utility.yul\":4375:4387   */\n      revert\n        /* \"#utility.yul\":4318:4389   */\n    tag_102:\n        /* \"#utility.yul\":4257:4395   */\n      pop\n      jump\t// out\n        /* \"#utility.yul\":4401:4523   */\n    tag_45:\n        /* \"#utility.yul\":4474:4498   */\n      tag_104\n        /* \"#utility.yul\":4492:4497   */\n      dup2\n        /* \"#utility.yul\":4474:4498   */\n      tag_72\n      jump\t// in\n    tag_104:\n        /* \"#utility.yul\":4467:4472   */\n      dup2\n        /* \"#utility.yul\":4464:4499   */\n      eq\n        /* \"#utility.yul\":4454:4517   */\n      tag_105\n      jumpi\n        /* \"#utility.yul\":4513:4514   */\n      0x00\n        /* \"#utility.yul\":4510:4511   */\n      dup1\n        /* \"#utility.yul\":4503:4515   */\n      revert\n        /* \"#utility.yul\":4454:4517   */\n    tag_105:\n        /* \"#utility.yul\":4401:4523   */\n      pop\n      jump\t// out\n\n    auxdata: 0xa2646970667358221220a2650f0f39b33e60ae973197e69b23bb9a6a1451501fdd48b4495106a8d18b9264736f6c63430008070033\n}\n",
				"bytecode": {
					"linkReferences": {},
					"object": "608060405234801561001057600080fd5b50610570806100206000396000f3fe608060405234801561001057600080fd5b50600436106100365760003560e01c8063a72d24731461003b578063a850bca51461006b575b600080fd5b61005560048036038101906100509190610332565b61009b565b6040516100629190610415565b60405180910390f35b61008560048036038101906100809190610332565b6101c5565b6040516100929190610415565b60405180910390f35b6060600083836040516024016100b2929190610437565b6040516020818303038152906040527f69280dd1000000000000000000000000000000000000000000000000000000007bffffffffffffffffffffffffffffffffffffffffffffffffffffffff19166020820180517bffffffffffffffffffffffffffffffffffffffffffffffffffffffff8381831617835250505050905061013a856102ef565b156101b9576000808673ffffffffffffffffffffffffffffffffffffffff168360405161016791906103fe565b6000604051808303816000865af19150503d80600081146101a4576040519150601f19603f3d011682016040523d82523d6000602084013e6101a9565b606091505b50915091508093505050506101be565b600080fd5b9392505050565b6060600083836040516024016101dc929190610437565b6040516020818303038152906040527fb8d2a4c5000000000000000000000000000000000000000000000000000000007bffffffffffffffffffffffffffffffffffffffffffffffffffffffff19166020820180517bffffffffffffffffffffffffffffffffffffffffffffffffffffffff83818316178352505050509050610264856102ef565b156102e3576000808673ffffffffffffffffffffffffffffffffffffffff168360405161029191906103fe565b6000604051808303816000865af19150503d80600081146102ce576040519150601f19603f3d011682016040523d82523d6000602084013e6102d3565b606091505b50915091508093505050506102e8565b600080fd5b9392505050565b600080823b905060008163ffffffff1611915050919050565b6000813590506103178161050c565b92915050565b60008135905061032c81610523565b92915050565b60008060006060848603121561034b5761034a6104f6565b5b600061035986828701610308565b935050602061036a8682870161031d565b925050604061037b8682870161031d565b9150509250925092565b600061039082610460565b61039a818561046b565b93506103aa8185602086016104c3565b6103b3816104fb565b840191505092915050565b60006103c982610460565b6103d3818561047c565b93506103e38185602086016104c3565b80840191505092915050565b6103f8816104b9565b82525050565b600061040a82846103be565b915081905092915050565b6000602082019050818103600083015261042f8184610385565b905092915050565b600060408201905061044c60008301856103ef565b61045960208301846103ef565b9392505050565b600081519050919050565b600082825260208201905092915050565b600081905092915050565b600061049282610499565b9050919050565b600073ffffffffffffffffffffffffffffffffffffffff82169050919050565b6000819050919050565b60005b838110156104e15780820151818401526020810190506104c6565b838111156104f0576000848401525b50505050565b600080fd5b6000601f19601f8301169050919050565b61051581610487565b811461052057600080fd5b50565b61052c816104b9565b811461053757600080fd5b5056fea2646970667358221220a2650f0f39b33e60ae973197e69b23bb9a6a1451501fdd48b4495106a8d18b9264736f6c63430008070033",
					"opcodes": "PUSH1 0x80 PUSH1 0x40 MSTORE CALLVALUE DUP1 ISZERO PUSH2 0x10 JUMPI PUSH1 0x0 DUP1 REVERT JUMPDEST POP PUSH2 0x570 DUP1 PUSH2 0x20 PUSH1 0x0 CODECOPY PUSH1 0x0 RETURN INVALID PUSH1 0x80 PUSH1 0x40 MSTORE CALLVALUE DUP1 ISZERO PUSH2 0x10 JUMPI PUSH1 0x0 DUP1 REVERT JUMPDEST POP PUSH1 0x4 CALLDATASIZE LT PUSH2 0x36 JUMPI PUSH1 0x0 CALLDATALOAD PUSH1 0xE0 SHR DUP1 PUSH4 0xA72D2473 EQ PUSH2 0x3B JUMPI DUP1 PUSH4 0xA850BCA5 EQ PUSH2 0x6B JUMPI JUMPDEST PUSH1 0x0 DUP1 REVERT JUMPDEST PUSH2 0x55 PUSH1 0x4 DUP1 CALLDATASIZE SUB DUP2 ADD SWAP1 PUSH2 0x50 SWAP2 SWAP1 PUSH2 0x332 JUMP JUMPDEST PUSH2 0x9B JUMP JUMPDEST PUSH1 0x40 MLOAD PUSH2 0x62 SWAP2 SWAP1 PUSH2 0x415 JUMP JUMPDEST PUSH1 0x40 MLOAD DUP1 SWAP2 SUB SWAP1 RETURN JUMPDEST PUSH2 0x85 PUSH1 0x4 DUP1 CALLDATASIZE SUB DUP2 ADD SWAP1 PUSH2 0x80 SWAP2 SWAP1 PUSH2 0x332 JUMP JUMPDEST PUSH2 0x1C5 JUMP JUMPDEST PUSH1 0x40 MLOAD PUSH2 0x92 SWAP2 SWAP1 PUSH2 0x415 JUMP JUMPDEST PUSH1 0x40 MLOAD DUP1 SWAP2 SUB SWAP1 RETURN JUMPDEST PUSH1 0x60 PUSH1 0x0 DUP4 DUP4 PUSH1 0x40 MLOAD PUSH1 0x24 ADD PUSH2 0xB2 SWAP3 SWAP2 SWAP1 PUSH2 0x437 JUMP JUMPDEST PUSH1 0x40 MLOAD PUSH1 0x20 DUP2 DUP4 SUB SUB DUP2 MSTORE SWAP1 PUSH1 0x40 MSTORE PUSH32 0x69280DD100000000000000000000000000000000000000000000000000000000 PUSH28 0xFFFFFFFFFFFFFFFFFFFFFFFFFFFFFFFFFFFFFFFFFFFFFFFFFFFFFFFF NOT AND PUSH1 0x20 DUP3 ADD DUP1 MLOAD PUSH28 0xFFFFFFFFFFFFFFFFFFFFFFFFFFFFFFFFFFFFFFFFFFFFFFFFFFFFFFFF DUP4 DUP2 DUP4 AND OR DUP4 MSTORE POP POP POP POP SWAP1 POP PUSH2 0x13A DUP6 PUSH2 0x2EF JUMP JUMPDEST ISZERO PUSH2 0x1B9 JUMPI PUSH1 0x0 DUP1 DUP7 PUSH20 0xFFFFFFFFFFFFFFFFFFFFFFFFFFFFFFFFFFFFFFFF AND DUP4 PUSH1 0x40 MLOAD PUSH2 0x167 SWAP2 SWAP1 PUSH2 0x3FE JUMP JUMPDEST PUSH1 0x0 PUSH1 0x40 MLOAD DUP1 DUP4 SUB DUP2 PUSH1 0x0 DUP7 GAS CALL SWAP2 POP POP RETURNDATASIZE DUP1 PUSH1 0x0 DUP2 EQ PUSH2 0x1A4 JUMPI PUSH1 0x40 MLOAD SWAP2 POP PUSH1 0x1F NOT PUSH1 0x3F RETURNDATASIZE ADD AND DUP3 ADD PUSH1 0x40 MSTORE RETURNDATASIZE DUP3 MSTORE RETURNDATASIZE PUSH1 0x0 PUSH1 0x20 DUP5 ADD RETURNDATACOPY PUSH2 0x1A9 JUMP JUMPDEST PUSH1 0x60 SWAP2 POP JUMPDEST POP SWAP2 POP SWAP2 POP DUP1 SWAP4 POP POP POP POP PUSH2 0x1BE JUMP JUMPDEST PUSH1 0x0 DUP1 REVERT JUMPDEST SWAP4 SWAP3 POP POP POP JUMP JUMPDEST PUSH1 0x60 PUSH1 0x0 DUP4 DUP4 PUSH1 0x40 MLOAD PUSH1 0x24 ADD PUSH2 0x1DC SWAP3 SWAP2 SWAP1 PUSH2 0x437 JUMP JUMPDEST PUSH1 0x40 MLOAD PUSH1 0x20 DUP2 DUP4 SUB SUB DUP2 MSTORE SWAP1 PUSH1 0x40 MSTORE PUSH32 0xB8D2A4C500000000000000000000000000000000000000000000000000000000 PUSH28 0xFFFFFFFFFFFFFFFFFFFFFFFFFFFFFFFFFFFFFFFFFFFFFFFFFFFFFFFF NOT AND PUSH1 0x20 DUP3 ADD DUP1 MLOAD PUSH28 0xFFFFFFFFFFFFFFFFFFFFFFFFFFFFFFFFFFFFFFFFFFFFFFFFFFFFFFFF DUP4 DUP2 DUP4 AND OR DUP4 MSTORE POP POP POP POP SWAP1 POP PUSH2 0x264 DUP6 PUSH2 0x2EF JUMP JUMPDEST ISZERO PUSH2 0x2E3 JUMPI PUSH1 0x0 DUP1 DUP7 PUSH20 0xFFFFFFFFFFFFFFFFFFFFFFFFFFFFFFFFFFFFFFFF AND DUP4 PUSH1 0x40 MLOAD PUSH2 0x291 SWAP2 SWAP1 PUSH2 0x3FE JUMP JUMPDEST PUSH1 0x0 PUSH1 0x40 MLOAD DUP1 DUP4 SUB DUP2 PUSH1 0x0 DUP7 GAS CALL SWAP2 POP POP RETURNDATASIZE DUP1 PUSH1 0x0 DUP2 EQ PUSH2 0x2CE JUMPI PUSH1 0x40 MLOAD SWAP2 POP PUSH1 0x1F NOT PUSH1 0x3F RETURNDATASIZE ADD AND DUP3 ADD PUSH1 0x40 MSTORE RETURNDATASIZE DUP3 MSTORE RETURNDATASIZE PUSH1 0x0 PUSH1 0x20 DUP5 ADD RETURNDATACOPY PUSH2 0x2D3 JUMP JUMPDEST PUSH1 0x60 SWAP2 POP JUMPDEST POP SWAP2 POP SWAP2 POP DUP1 SWAP4 POP POP POP POP PUSH2 0x2E8 JUMP JUMPDEST PUSH1 0x0 DUP1 REVERT JUMPDEST SWAP4 SWAP3 POP POP POP JUMP JUMPDEST PUSH1 0x0 DUP1 DUP3 EXTCODESIZE SWAP1 POP PUSH1 0x0 DUP2 PUSH4 0xFFFFFFFF AND GT SWAP2 POP POP SWAP2 SWAP1 POP JUMP JUMPDEST PUSH1 0x0 DUP2 CALLDATALOAD SWAP1 POP PUSH2 0x317 DUP2 PUSH2 0x50C JUMP JUMPDEST SWAP3 SWAP2 POP POP JUMP JUMPDEST PUSH1 0x0 DUP2 CALLDATALOAD SWAP1 POP PUSH2 0x32C DUP2 PUSH2 0x523 JUMP JUMPDEST SWAP3 SWAP2 POP POP JUMP JUMPDEST PUSH1 0x0 DUP1 PUSH1 0x0 PUSH1 0x60 DUP5 DUP7 SUB SLT ISZERO PUSH2 0x34B JUMPI PUSH2 0x34A PUSH2 0x4F6 JUMP JUMPDEST JUMPDEST PUSH1 0x0 PUSH2 0x359 DUP7 DUP3 DUP8 ADD PUSH2 0x308 JUMP JUMPDEST SWAP4 POP POP PUSH1 0x20 PUSH2 0x36A DUP7 DUP3 DUP8 ADD PUSH2 0x31D JUMP JUMPDEST SWAP3 POP POP PUSH1 0x40 PUSH2 0x37B DUP7 DUP3 DUP8 ADD PUSH2 0x31D JUMP JUMPDEST SWAP2 POP POP SWAP3 POP SWAP3 POP SWAP3 JUMP JUMPDEST PUSH1 0x0 PUSH2 0x390 DUP3 PUSH2 0x460 JUMP JUMPDEST PUSH2 0x39A DUP2 DUP6 PUSH2 0x46B JUMP JUMPDEST SWAP4 POP PUSH2 0x3AA DUP2 DUP6 PUSH1 0x20 DUP7 ADD PUSH2 0x4C3 JUMP JUMPDEST PUSH2 0x3B3 DUP2 PUSH2 0x4FB JUMP JUMPDEST DUP5 ADD SWAP2 POP POP SWAP3 SWAP2 POP POP JUMP JUMPDEST PUSH1 0x0 PUSH2 0x3C9 DUP3 PUSH2 0x460 JUMP JUMPDEST PUSH2 0x3D3 DUP2 DUP6 PUSH2 0x47C JUMP JUMPDEST SWAP4 POP PUSH2 0x3E3 DUP2 DUP6 PUSH1 0x20 DUP7 ADD PUSH2 0x4C3 JUMP JUMPDEST DUP1 DUP5 ADD SWAP2 POP POP SWAP3 SWAP2 POP POP JUMP JUMPDEST PUSH2 0x3F8 DUP2 PUSH2 0x4B9 JUMP JUMPDEST DUP3 MSTORE POP POP JUMP JUMPDEST PUSH1 0x0 PUSH2 0x40A DUP3 DUP5 PUSH2 0x3BE JUMP JUMPDEST SWAP2 POP DUP2 SWAP1 POP SWAP3 SWAP2 POP POP JUMP JUMPDEST PUSH1 0x0 PUSH1 0x20 DUP3 ADD SWAP1 POP DUP2 DUP2 SUB PUSH1 0x0 DUP4 ADD MSTORE PUSH2 0x42F DUP2 DUP5 PUSH2 0x385 JUMP JUMPDEST SWAP1 POP SWAP3 SWAP2 POP POP JUMP JUMPDEST PUSH1 0x0 PUSH1 0x40 DUP3 ADD SWAP1 POP PUSH2 0x44C PUSH1 0x0 DUP4 ADD DUP6 PUSH2 0x3EF JUMP JUMPDEST PUSH2 0x459 PUSH1 0x20 DUP4 ADD DUP5 PUSH2 0x3EF JUMP JUMPDEST SWAP4 SWAP3 POP POP POP JUMP JUMPDEST PUSH1 0x0 DUP2 MLOAD SWAP1 POP SWAP2 SWAP1 POP JUMP JUMPDEST PUSH1 0x0 DUP3 DUP3 MSTORE PUSH1 0x20 DUP3 ADD SWAP1 POP SWAP3 SWAP2 POP POP JUMP JUMPDEST PUSH1 0x0 DUP2 SWAP1 POP SWAP3 SWAP2 POP POP JUMP JUMPDEST PUSH1 0x0 PUSH2 0x492 DUP3 PUSH2 0x499 JUMP JUMPDEST SWAP1 POP SWAP2 SWAP1 POP JUMP JUMPDEST PUSH1 0x0 PUSH20 0xFFFFFFFFFFFFFFFFFFFFFFFFFFFFFFFFFFFFFFFF DUP3 AND SWAP1 POP SWAP2 SWAP1 POP JUMP JUMPDEST PUSH1 0x0 DUP2 SWAP1 POP SWAP2 SWAP1 POP JUMP JUMPDEST PUSH1 0x0 JUMPDEST DUP4 DUP2 LT ISZERO PUSH2 0x4E1 JUMPI DUP1 DUP3 ADD MLOAD DUP2 DUP5 ADD MSTORE PUSH1 0x20 DUP2 ADD SWAP1 POP PUSH2 0x4C6 JUMP JUMPDEST DUP4 DUP2 GT ISZERO PUSH2 0x4F0 JUMPI PUSH1 0x0 DUP5 DUP5 ADD MSTORE JUMPDEST POP POP POP POP JUMP JUMPDEST PUSH1 0x0 DUP1 REVERT JUMPDEST PUSH1 0x0 PUSH1 0x1F NOT PUSH1 0x1F DUP4 ADD AND SWAP1 POP SWAP2 SWAP1 POP JUMP JUMPDEST PUSH2 0x515 DUP2 PUSH2 0x487 JUMP JUMPDEST DUP2 EQ PUSH2 0x520 JUMPI PUSH1 0x0 DUP1 REVERT JUMPDEST POP JUMP JUMPDEST PUSH2 0x52C DUP2 PUSH2 0x4B9 JUMP JUMPDEST DUP2 EQ PUSH2 0x537 JUMPI PUSH1 0x0 DUP1 REVERT JUMPDEST POP JUMP INVALID LOG2 PUSH5 0x6970667358 0x22 SLT KECCAK256 LOG2 PUSH6 0xF0F39B33E60 0xAE SWAP8 BALANCE SWAP8 0xE6 SWAP12 0x23 0xBB SWAP11 PUSH11 0x1451501FDD48B4495106A8 0xD1 DUP12 SWAP3 PUSH5 0x736F6C6343 STOP ADDMOD SMOD STOP CALLER "
				},
				"gasEstimates": {
					"creation": {
						"codeDepositCost": "278400",
						"executionCost": "318",
						"totalCost": "278718"
					},
					"external": {
						"callFunc(address,uint256,uint256)": "infinite",
						"callNotExisFunc(address,uint256,uint256)": "infinite"
					},
					"internal": {
						"isContract(address)": "2653"
					}
				},
				"methodIdentifiers": {
					"callFunc(address,uint256,uint256)": "a72d2473",
					"callNotExisFunc(address,uint256,uint256)": "a850bca5"
				}
			},
			"storageLayout": {
				"storage": [],
				"types": null
			},
			"userdoc": {
				"kind": "user",
				"methods": {},
				"version": 1
			}
		}
	}
}