{
	"contracts/Call/delegatecall.sol": {
		"Calculation": {
			"abi": [
				{
					"anonymous": false,
					"inputs": [],
					"name": "Transfer",
					"type": "event"
				},
				{
					"stateMutability": "payable",
					"type": "fallback"
				},
				{
					"inputs": [],
					"name": "owner",
					"outputs": [
						{
							"internalType": "address",
							"name": "",
							"type": "address"
						}
					],
					"stateMutability": "view",
					"type": "function"
				},
				{
					"inputs": [
						{
							"internalType": "uint256",
							"name": "a",
							"type": "uint256"
						},
						{
							"internalType": "uint256",
							"name": "b",
							"type": "uint256"
						}
					],
					"name": "plusData",
					"outputs": [
						{
							"internalType": "uint256",
							"name": "",
							"type": "uint256"
						}
					],
					"stateMutability": "nonpayable",
					"type": "function"
				}
			],
			"devdoc": {
				"kind": "dev",
				"methods": {},
				"version": 1
			},
			"evm": {
				"assembly": "    /* \"contracts/Call/delegatecall.sol\":107:347  contract Calculation{\r... */\n  mstore(0x40, 0x80)\n  callvalue\n  dup1\n  iszero\n  tag_1\n  jumpi\n  0x00\n  dup1\n  revert\ntag_1:\n  pop\n  dataSize(sub_0)\n  dup1\n  dataOffset(sub_0)\n  0x00\n  codecopy\n  0x00\n  return\nstop\n\nsub_0: assembly {\n        /* \"contracts/Call/delegatecall.sol\":107:347  contract Calculation{\r... */\n      mstore(0x40, 0x80)\n      jumpi(tag_1, lt(calldatasize, 0x04))\n      shr(0xe0, calldataload(0x00))\n      dup1\n      0x69280dd1\n      eq\n      tag_3\n      jumpi\n      dup1\n      0x8da5cb5b\n      eq\n      tag_4\n      jumpi\n      jump(tag_2)\n    tag_1:\n    tag_2:\n        /* \"contracts/Call/delegatecall.sol\":326:336  Transfer() */\n      0x406dade31f7ae4b5dbc276258c28dde5ae6d5c2773c5745802c493a2360e55e0\n      mload(0x40)\n      mload(0x40)\n      dup1\n      swap2\n      sub\n      swap1\n      log1\n        /* \"contracts/Call/delegatecall.sol\":107:347  contract Calculation{\r... */\n      stop\n        /* \"contracts/Call/delegatecall.sol\":190:275  function plusData(uint a, uint b) external returns(uint){\r... */\n    tag_3:\n      callvalue\n      dup1\n      iszero\n      tag_7\n      jumpi\n      0x00\n      dup1\n      revert\n    tag_7:\n      pop\n      tag_8\n      0x04\n      dup1\n      calldatasize\n      sub\n      dup2\n      add\n      swap1\n      tag_9\n      swap2\n      swap1\n      tag_10\n      jump\t// in\n    tag_9:\n      tag_11\n      jump\t// in\n    tag_8:\n      mload(0x40)\n      tag_12\n      swap2\n      swap1\n      tag_13\n      jump\t// in\n    tag_12:\n      mload(0x40)\n      dup1\n      swap2\n      sub\n      swap1\n      return\n        /* \"contracts/Call/delegatecall.sol\":134:154  address public owner */\n    tag_4:\n      callvalue\n      dup1\n      iszero\n      tag_14\n      jumpi\n      0x00\n      dup1\n      revert\n    tag_14:\n      pop\n      tag_15\n      tag_16\n      jump\t// in\n    tag_15:\n      mload(0x40)\n      tag_17\n      swap2\n      swap1\n      tag_18\n      jump\t// in\n    tag_17:\n      mload(0x40)\n      dup1\n      swap2\n      sub\n      swap1\n      return\n        /* \"contracts/Call/delegatecall.sol\":190:275  function plusData(uint a, uint b) external returns(uint){\r... */\n    tag_11:\n        /* \"contracts/Call/delegatecall.sol\":241:245  uint */\n      0x00\n        /* \"contracts/Call/delegatecall.sol\":266:267  b */\n      dup2\n        /* \"contracts/Call/delegatecall.sol\":264:265  a */\n      dup4\n        /* \"contracts/Call/delegatecall.sol\":264:267  a+b */\n      tag_20\n      swap2\n      swap1\n      tag_21\n      jump\t// in\n    tag_20:\n        /* \"contracts/Call/delegatecall.sol\":257:267  return a+b */\n      swap1\n      pop\n        /* \"contracts/Call/delegatecall.sol\":190:275  function plusData(uint a, uint b) external returns(uint){\r... */\n      swap3\n      swap2\n      pop\n      pop\n      jump\t// out\n        /* \"contracts/Call/delegatecall.sol\":134:154  address public owner */\n    tag_16:\n      0x00\n      dup1\n      sload\n      swap1\n      0x0100\n      exp\n      swap1\n      div\n      0xffffffffffffffffffffffffffffffffffffffff\n      and\n      dup2\n      jump\t// out\n        /* \"#utility.yul\":7:146   */\n    tag_23:\n        /* \"#utility.yul\":53:58   */\n      0x00\n        /* \"#utility.yul\":91:97   */\n      dup2\n        /* \"#utility.yul\":78:98   */\n      calldataload\n        /* \"#utility.yul\":69:98   */\n      swap1\n      pop\n        /* \"#utility.yul\":107:140   */\n      tag_25\n        /* \"#utility.yul\":134:139   */\n      dup2\n        /* \"#utility.yul\":107:140   */\n      tag_26\n      jump\t// in\n    tag_25:\n        /* \"#utility.yul\":7:146   */\n      swap3\n      swap2\n      pop\n      pop\n      jump\t// out\n        /* \"#utility.yul\":152:626   */\n    tag_10:\n        /* \"#utility.yul\":220:226   */\n      0x00\n        /* \"#utility.yul\":228:234   */\n      dup1\n        /* \"#utility.yul\":277:279   */\n      0x40\n        /* \"#utility.yul\":265:274   */\n      dup4\n        /* \"#utility.yul\":256:263   */\n      dup6\n        /* \"#utility.yul\":252:275   */\n      sub\n        /* \"#utility.yul\":248:280   */\n      slt\n        /* \"#utility.yul\":245:364   */\n      iszero\n      tag_28\n      jumpi\n        /* \"#utility.yul\":283:362   */\n      tag_29\n      tag_30\n      jump\t// in\n    tag_29:\n        /* \"#utility.yul\":245:364   */\n    tag_28:\n        /* \"#utility.yul\":403:404   */\n      0x00\n        /* \"#utility.yul\":428:481   */\n      tag_31\n        /* \"#utility.yul\":473:480   */\n      dup6\n        /* \"#utility.yul\":464:470   */\n      dup3\n        /* \"#utility.yul\":453:462   */\n      dup7\n        /* \"#utility.yul\":449:471   */\n      add\n        /* \"#utility.yul\":428:481   */\n      tag_23\n      jump\t// in\n    tag_31:\n        /* \"#utility.yul\":418:481   */\n      swap3\n      pop\n        /* \"#utility.yul\":374:491   */\n      pop\n        /* \"#utility.yul\":530:532   */\n      0x20\n        /* \"#utility.yul\":556:609   */\n      tag_32\n        /* \"#utility.yul\":601:608   */\n      dup6\n        /* \"#utility.yul\":592:598   */\n      dup3\n        /* \"#utility.yul\":581:590   */\n      dup7\n        /* \"#utility.yul\":577:599   */\n      add\n        /* \"#utility.yul\":556:609   */\n      tag_23\n      jump\t// in\n    tag_32:\n        /* \"#utility.yul\":546:609   */\n      swap2\n      pop\n        /* \"#utility.yul\":501:619   */\n      pop\n        /* \"#utility.yul\":152:626   */\n      swap3\n      pop\n      swap3\n      swap1\n      pop\n      jump\t// out\n        /* \"#utility.yul\":632:750   */\n    tag_33:\n        /* \"#utility.yul\":719:743   */\n      tag_35\n        /* \"#utility.yul\":737:742   */\n      dup2\n        /* \"#utility.yul\":719:743   */\n      tag_36\n      jump\t// in\n    tag_35:\n        /* \"#utility.yul\":714:717   */\n      dup3\n        /* \"#utility.yul\":707:744   */\n      mstore\n        /* \"#utility.yul\":632:750   */\n      pop\n      pop\n      jump\t// out\n        /* \"#utility.yul\":756:874   */\n    tag_37:\n        /* \"#utility.yul\":843:867   */\n      tag_39\n        /* \"#utility.yul\":861:866   */\n      dup2\n        /* \"#utility.yul\":843:867   */\n      tag_40\n      jump\t// in\n    tag_39:\n        /* \"#utility.yul\":838:841   */\n      dup3\n        /* \"#utility.yul\":831:868   */\n      mstore\n        /* \"#utility.yul\":756:874   */\n      pop\n      pop\n      jump\t// out\n        /* \"#utility.yul\":880:1102   */\n    tag_18:\n        /* \"#utility.yul\":973:977   */\n      0x00\n        /* \"#utility.yul\":1011:1013   */\n      0x20\n        /* \"#utility.yul\":1000:1009   */\n      dup3\n        /* \"#utility.yul\":996:1014   */\n      add\n        /* \"#utility.yul\":988:1014   */\n      swap1\n      pop\n        /* \"#utility.yul\":1024:1095   */\n      tag_42\n        /* \"#utility.yul\":1092:1093   */\n      0x00\n        /* \"#utility.yul\":1081:1090   */\n      dup4\n        /* \"#utility.yul\":1077:1094   */\n      add\n        /* \"#utility.yul\":1068:1074   */\n      dup5\n        /* \"#utility.yul\":1024:1095   */\n      tag_33\n      jump\t// in\n    tag_42:\n        /* \"#utility.yul\":880:1102   */\n      swap3\n      swap2\n      pop\n      pop\n      jump\t// out\n        /* \"#utility.yul\":1108:1330   */\n    tag_13:\n        /* \"#utility.yul\":1201:1205   */\n      0x00\n        /* \"#utility.yul\":1239:1241   */\n      0x20\n        /* \"#utility.yul\":1228:1237   */\n      dup3\n        /* \"#utility.yul\":1224:1242   */\n      add\n        /* \"#utility.yul\":1216:1242   */\n      swap1\n      pop\n        /* \"#utility.yul\":1252:1323   */\n      tag_44\n        /* \"#utility.yul\":1320:1321   */\n      0x00\n        /* \"#utility.yul\":1309:1318   */\n      dup4\n        /* \"#utility.yul\":1305:1322   */\n      add\n        /* \"#utility.yul\":1296:1302   */\n      dup5\n        /* \"#utility.yul\":1252:1323   */\n      tag_37\n      jump\t// in\n    tag_44:\n        /* \"#utility.yul\":1108:1330   */\n      swap3\n      swap2\n      pop\n      pop\n      jump\t// out\n        /* \"#utility.yul\":1417:1722   */\n    tag_21:\n        /* \"#utility.yul\":1457:1460   */\n      0x00\n        /* \"#utility.yul\":1476:1496   */\n      tag_48\n        /* \"#utility.yul\":1494:1495   */\n      dup3\n        /* \"#utility.yul\":1476:1496   */\n      tag_40\n      jump\t// in\n    tag_48:\n        /* \"#utility.yul\":1471:1496   */\n      swap2\n      pop\n        /* \"#utility.yul\":1510:1530   */\n      tag_49\n        /* \"#utility.yul\":1528:1529   */\n      dup4\n        /* \"#utility.yul\":1510:1530   */\n      tag_40\n      jump\t// in\n    tag_49:\n        /* \"#utility.yul\":1505:1530   */\n      swap3\n      pop\n        /* \"#utility.yul\":1664:1665   */\n      dup3\n        /* \"#utility.yul\":1596:1662   */\n      0xffffffffffffffffffffffffffffffffffffffffffffffffffffffffffffffff\n        /* \"#utility.yul\":1592:1666   */\n      sub\n        /* \"#utility.yul\":1589:1590   */\n      dup3\n        /* \"#utility.yul\":1586:1667   */\n      gt\n        /* \"#utility.yul\":1583:1690   */\n      iszero\n      tag_50\n      jumpi\n        /* \"#utility.yul\":1670:1688   */\n      tag_51\n      tag_52\n      jump\t// in\n    tag_51:\n        /* \"#utility.yul\":1583:1690   */\n    tag_50:\n        /* \"#utility.yul\":1714:1715   */\n      dup3\n        /* \"#utility.yul\":1711:1712   */\n      dup3\n        /* \"#utility.yul\":1707:1716   */\n      add\n        /* \"#utility.yul\":1700:1716   */\n      swap1\n      pop\n        /* \"#utility.yul\":1417:1722   */\n      swap3\n      swap2\n      pop\n      pop\n      jump\t// out\n        /* \"#utility.yul\":1728:1824   */\n    tag_36:\n        /* \"#utility.yul\":1765:1772   */\n      0x00\n        /* \"#utility.yul\":1794:1818   */\n      tag_54\n        /* \"#utility.yul\":1812:1817   */\n      dup3\n        /* \"#utility.yul\":1794:1818   */\n      tag_55\n      jump\t// in\n    tag_54:\n        /* \"#utility.yul\":1783:1818   */\n      swap1\n      pop\n        /* \"#utility.yul\":1728:1824   */\n      swap2\n      swap1\n      pop\n      jump\t// out\n        /* \"#utility.yul\":1830:1956   */\n    tag_55:\n        /* \"#utility.yul\":1867:1874   */\n      0x00\n        /* \"#utility.yul\":1907:1949   */\n      0xffffffffffffffffffffffffffffffffffffffff\n        /* \"#utility.yul\":1900:1905   */\n      dup3\n        /* \"#utility.yul\":1896:1950   */\n      and\n        /* \"#utility.yul\":1885:1950   */\n      swap1\n      pop\n        /* \"#utility.yul\":1830:1956   */\n      swap2\n      swap1\n      pop\n      jump\t// out\n        /* \"#utility.yul\":1962:2039   */\n    tag_40:\n        /* \"#utility.yul\":1999:2006   */\n      0x00\n        /* \"#utility.yul\":2028:2033   */\n      dup2\n        /* \"#utility.yul\":2017:2033   */\n      swap1\n      pop\n        /* \"#utility.yul\":1962:2039   */\n      swap2\n      swap1\n      pop\n      jump\t// out\n        /* \"#utility.yul\":2045:2225   */\n    tag_52:\n        /* \"#utility.yul\":2093:2170   */\n      0x4e487b7100000000000000000000000000000000000000000000000000000000\n        /* \"#utility.yul\":2090:2091   */\n      0x00\n        /* \"#utility.yul\":2083:2171   */\n      mstore\n        /* \"#utility.yul\":2190:2194   */\n      0x11\n        /* \"#utility.yul\":2187:2188   */\n      0x04\n        /* \"#utility.yul\":2180:2195   */\n      mstore\n        /* \"#utility.yul\":2214:2218   */\n      0x24\n        /* \"#utility.yul\":2211:2212   */\n      0x00\n        /* \"#utility.yul\":2204:2219   */\n      revert\n        /* \"#utility.yul\":2354:2471   */\n    tag_30:\n        /* \"#utility.yul\":2463:2464   */\n      0x00\n        /* \"#utility.yul\":2460:2461   */\n      dup1\n        /* \"#utility.yul\":2453:2465   */\n      revert\n        /* \"#utility.yul\":2477:2599   */\n    tag_26:\n        /* \"#utility.yul\":2550:2574   */\n      tag_63\n        /* \"#utility.yul\":2568:2573   */\n      dup2\n        /* \"#utility.yul\":2550:2574   */\n      tag_40\n      jump\t// in\n    tag_63:\n        /* \"#utility.yul\":2543:2548   */\n      dup2\n        /* \"#utility.yul\":2540:2575   */\n      eq\n        /* \"#utility.yul\":2530:2593   */\n      tag_64\n      jumpi\n        /* \"#utility.yul\":2589:2590   */\n      0x00\n        /* \"#utility.yul\":2586:2587   */\n      dup1\n        /* \"#utility.yul\":2579:2591   */\n      revert\n        /* \"#utility.yul\":2530:2593   */\n    tag_64:\n        /* \"#utility.yul\":2477:2599   */\n      pop\n      jump\t// out\n\n    auxdata: 0xa2646970667358221220968a4b5908e35f81ee101891110889eb4434a979c860fc60eb5acbca61a5298864736f6c63430008070033\n}\n",
				"bytecode": {
					"linkReferences": {},
					"object": "608060405234801561001057600080fd5b506102ba806100206000396000f3fe60806040526004361061002d5760003560e01c806369280dd11461005c5780638da5cb5b146100995761002e565b5b7f406dade31f7ae4b5dbc276258c28dde5ae6d5c2773c5745802c493a2360e55e060405160405180910390a1005b34801561006857600080fd5b50610083600480360381019061007e9190610113565b6100c4565b604051610090919061018c565b60405180910390f35b3480156100a557600080fd5b506100ae6100da565b6040516100bb9190610171565b60405180910390f35b600081836100d291906101a7565b905092915050565b60008054906101000a900473ffffffffffffffffffffffffffffffffffffffff1681565b60008135905061010d8161026d565b92915050565b6000806040838503121561012a57610129610268565b5b6000610138858286016100fe565b9250506020610149858286016100fe565b9150509250929050565b61015c816101fd565b82525050565b61016b8161022f565b82525050565b60006020820190506101866000830184610153565b92915050565b60006020820190506101a16000830184610162565b92915050565b60006101b28261022f565b91506101bd8361022f565b9250827fffffffffffffffffffffffffffffffffffffffffffffffffffffffffffffffff038211156101f2576101f1610239565b5b828201905092915050565b60006102088261020f565b9050919050565b600073ffffffffffffffffffffffffffffffffffffffff82169050919050565b6000819050919050565b7f4e487b7100000000000000000000000000000000000000000000000000000000600052601160045260246000fd5b600080fd5b6102768161022f565b811461028157600080fd5b5056fea2646970667358221220968a4b5908e35f81ee101891110889eb4434a979c860fc60eb5acbca61a5298864736f6c63430008070033",
					"opcodes": "PUSH1 0x80 PUSH1 0x40 MSTORE CALLVALUE DUP1 ISZERO PUSH2 0x10 JUMPI PUSH1 0x0 DUP1 REVERT JUMPDEST POP PUSH2 0x2BA DUP1 PUSH2 0x20 PUSH1 0x0 CODECOPY PUSH1 0x0 RETURN INVALID PUSH1 0x80 PUSH1 0x40 MSTORE PUSH1 0x4 CALLDATASIZE LT PUSH2 0x2D JUMPI PUSH1 0x0 CALLDATALOAD PUSH1 0xE0 SHR DUP1 PUSH4 0x69280DD1 EQ PUSH2 0x5C JUMPI DUP1 PUSH4 0x8DA5CB5B EQ PUSH2 0x99 JUMPI PUSH2 0x2E JUMP JUMPDEST JUMPDEST PUSH32 0x406DADE31F7AE4B5DBC276258C28DDE5AE6D5C2773C5745802C493A2360E55E0 PUSH1 0x40 MLOAD PUSH1 0x40 MLOAD DUP1 SWAP2 SUB SWAP1 LOG1 STOP JUMPDEST CALLVALUE DUP1 ISZERO PUSH2 0x68 JUMPI PUSH1 0x0 DUP1 REVERT JUMPDEST POP PUSH2 0x83 PUSH1 0x4 DUP1 CALLDATASIZE SUB DUP2 ADD SWAP1 PUSH2 0x7E SWAP2 SWAP1 PUSH2 0x113 JUMP JUMPDEST PUSH2 0xC4 JUMP JUMPDEST PUSH1 0x40 MLOAD PUSH2 0x90 SWAP2 SWAP1 PUSH2 0x18C JUMP JUMPDEST PUSH1 0x40 MLOAD DUP1 SWAP2 SUB SWAP1 RETURN JUMPDEST CALLVALUE DUP1 ISZERO PUSH2 0xA5 JUMPI PUSH1 0x0 DUP1 REVERT JUMPDEST POP PUSH2 0xAE PUSH2 0xDA JUMP JUMPDEST PUSH1 0x40 MLOAD PUSH2 0xBB SWAP2 SWAP1 PUSH2 0x171 JUMP JUMPDEST PUSH1 0x40 MLOAD DUP1 SWAP2 SUB SWAP1 RETURN JUMPDEST PUSH1 0x0 DUP2 DUP4 PUSH2 0xD2 SWAP2 SWAP1 PUSH2 0x1A7 JUMP JUMPDEST SWAP1 POP SWAP3 SWAP2 POP POP JUMP JUMPDEST PUSH1 0x0 DUP1 SLOAD SWAP1 PUSH2 0x100 EXP SWAP1 DIV PUSH20 0xFFFFFFFFFFFFFFFFFFFFFFFFFFFFFFFFFFFFFFFF AND DUP2 JUMP JUMPDEST PUSH1 0x0 DUP2 CALLDATALOAD SWAP1 POP PUSH2 0x10D DUP2 PUSH2 0x26D JUMP JUMPDEST SWAP3 SWAP2 POP POP JUMP JUMPDEST PUSH1 0x0 DUP1 PUSH1 0x40 DUP4 DUP6 SUB SLT ISZERO PUSH2 0x12A JUMPI PUSH2 0x129 PUSH2 0x268 JUMP JUMPDEST JUMPDEST PUSH1 0x0 PUSH2 0x138 DUP6 DUP3 DUP7 ADD PUSH2 0xFE JUMP JUMPDEST SWAP3 POP POP PUSH1 0x20 PUSH2 0x149 DUP6 DUP3 DUP7 ADD PUSH2 0xFE JUMP JUMPDEST SWAP2 POP POP SWAP3 POP SWAP3 SWAP1 POP JUMP JUMPDEST PUSH2 0x15C DUP2 PUSH2 0x1FD JUMP JUMPDEST DUP3 MSTORE POP POP JUMP JUMPDEST PUSH2 0x16B DUP2 PUSH2 0x22F JUMP JUMPDEST DUP3 MSTORE POP POP JUMP JUMPDEST PUSH1 0x0 PUSH1 0x20 DUP3 ADD SWAP1 POP PUSH2 0x186 PUSH1 0x0 DUP4 ADD DUP5 PUSH2 0x153 JUMP JUMPDEST SWAP3 SWAP2 POP POP JUMP JUMPDEST PUSH1 0x0 PUSH1 0x20 DUP3 ADD SWAP1 POP PUSH2 0x1A1 PUSH1 0x0 DUP4 ADD DUP5 PUSH2 0x162 JUMP JUMPDEST SWAP3 SWAP2 POP POP JUMP JUMPDEST PUSH1 0x0 PUSH2 0x1B2 DUP3 PUSH2 0x22F JUMP JUMPDEST SWAP2 POP PUSH2 0x1BD DUP4 PUSH2 0x22F JUMP JUMPDEST SWAP3 POP DUP3 PUSH32 0xFFFFFFFFFFFFFFFFFFFFFFFFFFFFFFFFFFFFFFFFFFFFFFFFFFFFFFFFFFFFFFFF SUB DUP3 GT ISZERO PUSH2 0x1F2 JUMPI PUSH2 0x1F1 PUSH2 0x239 JUMP JUMPDEST JUMPDEST DUP3 DUP3 ADD SWAP1 POP SWAP3 SWAP2 POP POP JUMP JUMPDEST PUSH1 0x0 PUSH2 0x208 DUP3 PUSH2 0x20F JUMP JUMPDEST SWAP1 POP SWAP2 SWAP1 POP JUMP JUMPDEST PUSH1 0x0 PUSH20 0xFFFFFFFFFFFFFFFFFFFFFFFFFFFFFFFFFFFFFFFF DUP3 AND SWAP1 POP SWAP2 SWAP1 POP JUMP JUMPDEST PUSH1 0x0 DUP2 SWAP1 POP SWAP2 SWAP1 POP JUMP JUMPDEST PUSH32 0x4E487B7100000000000000000000000000000000000000000000000000000000 PUSH1 0x0 MSTORE PUSH1 0x11 PUSH1 0x4 MSTORE PUSH1 0x24 PUSH1 0x0 REVERT JUMPDEST PUSH1 0x0 DUP1 REVERT JUMPDEST PUSH2 0x276 DUP2 PUSH2 0x22F JUMP JUMPDEST DUP2 EQ PUSH2 0x281 JUMPI PUSH1 0x0 DUP1 REVERT JUMPDEST POP JUMP INVALID LOG2 PUSH5 0x6970667358 0x22 SLT KECCAK256 SWAP7 DUP11 0x4B MSIZE ADDMOD 0xE3 0x5F DUP2 0xEE LT XOR SWAP2 GT ADDMOD DUP10 0xEB DIFFICULTY CALLVALUE 0xA9 PUSH26 0xC860FC60EB5ACBCA61A5298864736F6C63430008070033000000 "
				},
				"gasEstimates": {
					"creation": {
						"codeDepositCost": "139600",
						"executionCost": "183",
						"totalCost": "139783"
					},
					"external": {
						"": "884",
						"owner()": "2511",
						"plusData(uint256,uint256)": "infinite"
					}
				},
				"methodIdentifiers": {
					"owner()": "8da5cb5b",
					"plusData(uint256,uint256)": "69280dd1"
				}
			},
			"storageLayout": {
				"storage": [
					{
						"astId": 3,
						"contract": "contracts/Call/delegatecall.sol:Calculation",
						"label": "owner",
						"offset": 0,
						"slot": "0",
						"type": "t_address"
					}
				],
				"types": {
					"t_address": {
						"encoding": "inplace",
						"label": "address",
						"numberOfBytes": "20"
					}
				}
			},
			"userdoc": {
				"kind": "user",
				"methods": {},
				"version": 1
			}
		}
	}
}