{
	"contracts/Call/checkContract.sol": {
		"EthTransfer": {
			"abi": [
				{
					"inputs": [
						{
							"internalType": "address payable",
							"name": "to",
							"type": "address"
						}
					],
					"name": "sendSend",
					"outputs": [],
					"stateMutability": "payable",
					"type": "function"
				},
				{
					"inputs": [
						{
							"internalType": "address payable",
							"name": "to",
							"type": "address"
						}
					],
					"name": "sendTransfer",
					"outputs": [],
					"stateMutability": "payable",
					"type": "function"
				}
			],
			"devdoc": {
				"kind": "dev",
				"methods": {},
				"version": 1
			},
			"evm": {
				"assembly": "    /* \"contracts/Call/checkContract.sol\":125:900  contract EthTransfer{\r... */\n  mstore(0x40, 0x80)\n  callvalue\n  dup1\n  iszero\n  tag_1\n  jumpi\n  0x00\n  dup1\n  revert\ntag_1:\n  pop\n  dataSize(sub_0)\n  dup1\n  dataOffset(sub_0)\n  0x00\n  codecopy\n  0x00\n  return\nstop\n\nsub_0: assembly {\n        /* \"contracts/Call/checkContract.sol\":125:900  contract EthTransfer{\r... */\n      mstore(0x40, 0x80)\n      jumpi(tag_1, lt(calldatasize, 0x04))\n      shr(0xe0, calldataload(0x00))\n      dup1\n      0x3a0216eb\n      eq\n      tag_2\n      jumpi\n      dup1\n      0xb41932c2\n      eq\n      tag_3\n      jumpi\n    tag_1:\n      0x00\n      dup1\n      revert\n        /* \"contracts/Call/checkContract.sol\":692:897  function sendSend(address payable to) public payable{\r... */\n    tag_2:\n      tag_4\n      0x04\n      dup1\n      calldatasize\n      sub\n      dup2\n      add\n      swap1\n      tag_5\n      swap2\n      swap1\n      tag_6\n      jump\t// in\n    tag_5:\n      tag_7\n      jump\t// in\n    tag_4:\n      stop\n        /* \"contracts/Call/checkContract.sol\":513:610  function sendTransfer(address payable to) public payable{\r... */\n    tag_3:\n      tag_8\n      0x04\n      dup1\n      calldatasize\n      sub\n      dup2\n      add\n      swap1\n      tag_9\n      swap2\n      swap1\n      tag_6\n      jump\t// in\n    tag_9:\n      tag_10\n      jump\t// in\n    tag_8:\n      stop\n        /* \"contracts/Call/checkContract.sol\":692:897  function sendSend(address payable to) public payable{\r... */\n    tag_7:\n        /* \"contracts/Call/checkContract.sol\":755:766  bool result */\n      0x00\n        /* \"contracts/Call/checkContract.sol\":769:771  to */\n      dup2\n        /* \"contracts/Call/checkContract.sol\":769:776  to.send */\n      0xffffffffffffffffffffffffffffffffffffffff\n      and\n        /* \"contracts/Call/checkContract.sol\":769:787  to.send(msg.value) */\n      0x08fc\n        /* \"contracts/Call/checkContract.sol\":777:786  msg.value */\n      callvalue\n        /* \"contracts/Call/checkContract.sol\":769:787  to.send(msg.value) */\n      swap1\n      dup2\n      iszero\n      mul\n      swap1\n      mload(0x40)\n      0x00\n      mload(0x40)\n      dup1\n      dup4\n      sub\n      dup2\n      dup6\n      dup9\n      dup9\n      call\n      swap4\n      pop\n      pop\n      pop\n      pop\n        /* \"contracts/Call/checkContract.sol\":755:787  bool result = to.send(msg.value) */\n      swap1\n      pop\n        /* \"contracts/Call/checkContract.sol\":811:815  true */\n      0x01\n        /* \"contracts/Call/checkContract.sol\":801:815  result == true */\n      iszero\n      iszero\n        /* \"contracts/Call/checkContract.sol\":801:807  result */\n      dup2\n        /* \"contracts/Call/checkContract.sol\":801:815  result == true */\n      iszero\n      iszero\n      eq\n        /* \"contracts/Call/checkContract.sol\":798:890  if(result == true){\r... */\n      iszero\n      tag_13\n      jumpi\n        /* \"contracts/Call/checkContract.sol\":831:839  revert() */\n      0x00\n      dup1\n      revert\n        /* \"contracts/Call/checkContract.sol\":798:890  if(result == true){\r... */\n    tag_13:\n        /* \"contracts/Call/checkContract.sol\":870:878  revert() */\n      0x00\n      dup1\n      revert\n        /* \"contracts/Call/checkContract.sol\":513:610  function sendTransfer(address payable to) public payable{\r... */\n    tag_10:\n        /* \"contracts/Call/checkContract.sol\":580:582  to */\n      dup1\n        /* \"contracts/Call/checkContract.sol\":580:591  to.transfer */\n      0xffffffffffffffffffffffffffffffffffffffff\n      and\n        /* \"contracts/Call/checkContract.sol\":580:602  to.transfer(msg.value) */\n      0x08fc\n        /* \"contracts/Call/checkContract.sol\":592:601  msg.value */\n      callvalue\n        /* \"contracts/Call/checkContract.sol\":580:602  to.transfer(msg.value) */\n      swap1\n      dup2\n      iszero\n      mul\n      swap1\n      mload(0x40)\n      0x00\n      mload(0x40)\n      dup1\n      dup4\n      sub\n      dup2\n      dup6\n      dup9\n      dup9\n      call\n      swap4\n      pop\n      pop\n      pop\n      pop\n      iszero\n      dup1\n      iszero\n      tag_17\n      jumpi\n      returndatasize\n      0x00\n      dup1\n      returndatacopy\n      revert(0x00, returndatasize)\n    tag_17:\n      pop\n        /* \"contracts/Call/checkContract.sol\":513:610  function sendTransfer(address payable to) public payable{\r... */\n      pop\n      jump\t// out\n        /* \"#utility.yul\":7:162   */\n    tag_19:\n        /* \"#utility.yul\":61:66   */\n      0x00\n        /* \"#utility.yul\":99:105   */\n      dup2\n        /* \"#utility.yul\":86:106   */\n      calldataload\n        /* \"#utility.yul\":77:106   */\n      swap1\n      pop\n        /* \"#utility.yul\":115:156   */\n      tag_21\n        /* \"#utility.yul\":150:155   */\n      dup2\n        /* \"#utility.yul\":115:156   */\n      tag_22\n      jump\t// in\n    tag_21:\n        /* \"#utility.yul\":7:162   */\n      swap3\n      swap2\n      pop\n      pop\n      jump\t// out\n        /* \"#utility.yul\":168:513   */\n    tag_6:\n        /* \"#utility.yul\":235:241   */\n      0x00\n        /* \"#utility.yul\":284:286   */\n      0x20\n        /* \"#utility.yul\":272:281   */\n      dup3\n        /* \"#utility.yul\":263:270   */\n      dup5\n        /* \"#utility.yul\":259:282   */\n      sub\n        /* \"#utility.yul\":255:287   */\n      slt\n        /* \"#utility.yul\":252:371   */\n      iszero\n      tag_24\n      jumpi\n        /* \"#utility.yul\":290:369   */\n      tag_25\n      tag_26\n      jump\t// in\n    tag_25:\n        /* \"#utility.yul\":252:371   */\n    tag_24:\n        /* \"#utility.yul\":410:411   */\n      0x00\n        /* \"#utility.yul\":435:496   */\n      tag_27\n        /* \"#utility.yul\":488:495   */\n      dup5\n        /* \"#utility.yul\":479:485   */\n      dup3\n        /* \"#utility.yul\":468:477   */\n      dup6\n        /* \"#utility.yul\":464:486   */\n      add\n        /* \"#utility.yul\":435:496   */\n      tag_19\n      jump\t// in\n    tag_27:\n        /* \"#utility.yul\":425:496   */\n      swap2\n      pop\n        /* \"#utility.yul\":381:506   */\n      pop\n        /* \"#utility.yul\":168:513   */\n      swap3\n      swap2\n      pop\n      pop\n      jump\t// out\n        /* \"#utility.yul\":600:704   */\n    tag_30:\n        /* \"#utility.yul\":645:652   */\n      0x00\n        /* \"#utility.yul\":674:698   */\n      tag_32\n        /* \"#utility.yul\":692:697   */\n      dup3\n        /* \"#utility.yul\":674:698   */\n      tag_33\n      jump\t// in\n    tag_32:\n        /* \"#utility.yul\":663:698   */\n      swap1\n      pop\n        /* \"#utility.yul\":600:704   */\n      swap2\n      swap1\n      pop\n      jump\t// out\n        /* \"#utility.yul\":710:836   */\n    tag_33:\n        /* \"#utility.yul\":747:754   */\n      0x00\n        /* \"#utility.yul\":787:829   */\n      0xffffffffffffffffffffffffffffffffffffffff\n        /* \"#utility.yul\":780:785   */\n      dup3\n        /* \"#utility.yul\":776:830   */\n      and\n        /* \"#utility.yul\":765:830   */\n      swap1\n      pop\n        /* \"#utility.yul\":710:836   */\n      swap2\n      swap1\n      pop\n      jump\t// out\n        /* \"#utility.yul\":965:1082   */\n    tag_26:\n        /* \"#utility.yul\":1074:1075   */\n      0x00\n        /* \"#utility.yul\":1071:1072   */\n      dup1\n        /* \"#utility.yul\":1064:1076   */\n      revert\n        /* \"#utility.yul\":1088:1226   */\n    tag_22:\n        /* \"#utility.yul\":1169:1201   */\n      tag_39\n        /* \"#utility.yul\":1195:1200   */\n      dup2\n        /* \"#utility.yul\":1169:1201   */\n      tag_30\n      jump\t// in\n    tag_39:\n        /* \"#utility.yul\":1162:1167   */\n      dup2\n        /* \"#utility.yul\":1159:1202   */\n      eq\n        /* \"#utility.yul\":1149:1220   */\n      tag_40\n      jumpi\n        /* \"#utility.yul\":1216:1217   */\n      0x00\n        /* \"#utility.yul\":1213:1214   */\n      dup1\n        /* \"#utility.yul\":1206:1218   */\n      revert\n        /* \"#utility.yul\":1149:1220   */\n    tag_40:\n        /* \"#utility.yul\":1088:1226   */\n      pop\n      jump\t// out\n\n    auxdata: 0xa264697066735822122074607e802e3f1eb8356c985669a38c87c54561943515cb991b63baeff53ea5b764736f6c63430008070033\n}\n",
				"bytecode": {
					"linkReferences": {},
					"object": "608060405234801561001057600080fd5b506101c6806100206000396000f3fe6080604052600436106100295760003560e01c80633a0216eb1461002e578063b41932c21461004a575b600080fd5b61004860048036038101906100439190610115565b610066565b005b610064600480360381019061005f9190610115565b6100b6565b005b60008173ffffffffffffffffffffffffffffffffffffffff166108fc349081150290604051600060405180830381858888f1935050505090506001151581151514156100b157600080fd5b600080fd5b8073ffffffffffffffffffffffffffffffffffffffff166108fc349081150290604051600060405180830381858888f193505050501580156100fc573d6000803e3d6000fd5b5050565b60008135905061010f81610179565b92915050565b60006020828403121561012b5761012a610174565b5b600061013984828501610100565b91505092915050565b600061014d82610154565b9050919050565b600073ffffffffffffffffffffffffffffffffffffffff82169050919050565b600080fd5b61018281610142565b811461018d57600080fd5b5056fea264697066735822122074607e802e3f1eb8356c985669a38c87c54561943515cb991b63baeff53ea5b764736f6c63430008070033",
					"opcodes": "PUSH1 0x80 PUSH1 0x40 MSTORE CALLVALUE DUP1 ISZERO PUSH2 0x10 JUMPI PUSH1 0x0 DUP1 REVERT JUMPDEST POP PUSH2 0x1C6 DUP1 PUSH2 0x20 PUSH1 0x0 CODECOPY PUSH1 0x0 RETURN INVALID PUSH1 0x80 PUSH1 0x40 MSTORE PUSH1 0x4 CALLDATASIZE LT PUSH2 0x29 JUMPI PUSH1 0x0 CALLDATALOAD PUSH1 0xE0 SHR DUP1 PUSH4 0x3A0216EB EQ PUSH2 0x2E JUMPI DUP1 PUSH4 0xB41932C2 EQ PUSH2 0x4A JUMPI JUMPDEST PUSH1 0x0 DUP1 REVERT JUMPDEST PUSH2 0x48 PUSH1 0x4 DUP1 CALLDATASIZE SUB DUP2 ADD SWAP1 PUSH2 0x43 SWAP2 SWAP1 PUSH2 0x115 JUMP JUMPDEST PUSH2 0x66 JUMP JUMPDEST STOP JUMPDEST PUSH2 0x64 PUSH1 0x4 DUP1 CALLDATASIZE SUB DUP2 ADD SWAP1 PUSH2 0x5F SWAP2 SWAP1 PUSH2 0x115 JUMP JUMPDEST PUSH2 0xB6 JUMP JUMPDEST STOP JUMPDEST PUSH1 0x0 DUP2 PUSH20 0xFFFFFFFFFFFFFFFFFFFFFFFFFFFFFFFFFFFFFFFF AND PUSH2 0x8FC CALLVALUE SWAP1 DUP2 ISZERO MUL SWAP1 PUSH1 0x40 MLOAD PUSH1 0x0 PUSH1 0x40 MLOAD DUP1 DUP4 SUB DUP2 DUP6 DUP9 DUP9 CALL SWAP4 POP POP POP POP SWAP1 POP PUSH1 0x1 ISZERO ISZERO DUP2 ISZERO ISZERO EQ ISZERO PUSH2 0xB1 JUMPI PUSH1 0x0 DUP1 REVERT JUMPDEST PUSH1 0x0 DUP1 REVERT JUMPDEST DUP1 PUSH20 0xFFFFFFFFFFFFFFFFFFFFFFFFFFFFFFFFFFFFFFFF AND PUSH2 0x8FC CALLVALUE SWAP1 DUP2 ISZERO MUL SWAP1 PUSH1 0x40 MLOAD PUSH1 0x0 PUSH1 0x40 MLOAD DUP1 DUP4 SUB DUP2 DUP6 DUP9 DUP9 CALL SWAP4 POP POP POP POP ISZERO DUP1 ISZERO PUSH2 0xFC JUMPI RETURNDATASIZE PUSH1 0x0 DUP1 RETURNDATACOPY RETURNDATASIZE PUSH1 0x0 REVERT JUMPDEST POP POP JUMP JUMPDEST PUSH1 0x0 DUP2 CALLDATALOAD SWAP1 POP PUSH2 0x10F DUP2 PUSH2 0x179 JUMP JUMPDEST SWAP3 SWAP2 POP POP JUMP JUMPDEST PUSH1 0x0 PUSH1 0x20 DUP3 DUP5 SUB SLT ISZERO PUSH2 0x12B JUMPI PUSH2 0x12A PUSH2 0x174 JUMP JUMPDEST JUMPDEST PUSH1 0x0 PUSH2 0x139 DUP5 DUP3 DUP6 ADD PUSH2 0x100 JUMP JUMPDEST SWAP2 POP POP SWAP3 SWAP2 POP POP JUMP JUMPDEST PUSH1 0x0 PUSH2 0x14D DUP3 PUSH2 0x154 JUMP JUMPDEST SWAP1 POP SWAP2 SWAP1 POP JUMP JUMPDEST PUSH1 0x0 PUSH20 0xFFFFFFFFFFFFFFFFFFFFFFFFFFFFFFFFFFFFFFFF DUP3 AND SWAP1 POP SWAP2 SWAP1 POP JUMP JUMPDEST PUSH1 0x0 DUP1 REVERT JUMPDEST PUSH2 0x182 DUP2 PUSH2 0x142 JUMP JUMPDEST DUP2 EQ PUSH2 0x18D JUMPI PUSH1 0x0 DUP1 REVERT JUMPDEST POP JUMP INVALID LOG2 PUSH5 0x6970667358 0x22 SLT KECCAK256 PUSH21 0x607E802E3F1EB8356C985669A38C87C54561943515 0xCB SWAP10 SHL PUSH4 0xBAEFF53E 0xA5 0xB7 PUSH5 0x736F6C6343 STOP ADDMOD SMOD STOP CALLER "
				},
				"gasEstimates": {
					"creation": {
						"codeDepositCost": "90800",
						"executionCost": "141",
						"totalCost": "90941"
					},
					"external": {
						"sendSend(address)": "infinite",
						"sendTransfer(address)": "infinite"
					},
					"internal": {
						"isContract(address)": "infinite"
					}
				},
				"methodIdentifiers": {
					"sendSend(address)": "3a0216eb",
					"sendTransfer(address)": "b41932c2"
				}
			},
			"storageLayout": {
				"storage": [],
				"types": null
			},
			"userdoc": {
				"kind": "user",
				"methods": {},
				"version": 1
			}
		}
	}
}