{
	"contracts/Call/delegatecall.sol": {
		"DelegateCaller": {
			"abi": [
				{
					"inputs": [
						{
							"internalType": "address payable",
							"name": "_address",
							"type": "address"
						},
						{
							"internalType": "uint256",
							"name": "_a",
							"type": "uint256"
						},
						{
							"internalType": "uint256",
							"name": "_b",
							"type": "uint256"
						}
					],
					"name": "callFunc",
					"outputs": [
						{
							"internalType": "bytes",
							"name": "",
							"type": "bytes"
						}
					],
					"stateMutability": "nonpayable",
					"type": "function"
				},
				{
					"inputs": [
						{
							"internalType": "address payable",
							"name": "_address",
							"type": "address"
						},
						{
							"internalType": "uint256",
							"name": "_a",
							"type": "uint256"
						},
						{
							"internalType": "uint256",
							"name": "_b",
							"type": "uint256"
						}
					],
					"name": "callNotExisFunc",
					"outputs": [
						{
							"internalType": "bytes",
							"name": "",
							"type": "bytes"
						}
					],
					"stateMutability": "payable",
					"type": "function"
				},
				{
					"inputs": [],
					"name": "owner",
					"outputs": [
						{
							"internalType": "address",
							"name": "",
							"type": "address"
						}
					],
					"stateMutability": "view",
					"type": "function"
				},
				{
					"inputs": [],
					"name": "value",
					"outputs": [
						{
							"internalType": "uint256",
							"name": "",
							"type": "uint256"
						}
					],
					"stateMutability": "view",
					"type": "function"
				}
			],
			"devdoc": {
				"kind": "dev",
				"methods": {},
				"version": 1
			},
			"evm": {
				"assembly": "    /* \"contracts/Call/delegatecall.sol\":402:1535  contract DelegateCaller{\r... */\n  mstore(0x40, 0x80)\n  callvalue\n  dup1\n  iszero\n  tag_1\n  jumpi\n  0x00\n  dup1\n  revert\ntag_1:\n  pop\n  dataSize(sub_0)\n  dup1\n  dataOffset(sub_0)\n  0x00\n  codecopy\n  0x00\n  return\nstop\n\nsub_0: assembly {\n        /* \"contracts/Call/delegatecall.sol\":402:1535  contract DelegateCaller{\r... */\n      mstore(0x40, 0x80)\n      jumpi(tag_1, lt(calldatasize, 0x04))\n      shr(0xe0, calldataload(0x00))\n      dup1\n      0x3fa4f245\n      eq\n      tag_2\n      jumpi\n      dup1\n      0x8da5cb5b\n      eq\n      tag_3\n      jumpi\n      dup1\n      0xa72d2473\n      eq\n      tag_4\n      jumpi\n      dup1\n      0xa850bca5\n      eq\n      tag_5\n      jumpi\n    tag_1:\n      0x00\n      dup1\n      revert\n        /* \"contracts/Call/delegatecall.sol\":467:484  uint public value */\n    tag_2:\n      callvalue\n      dup1\n      iszero\n      tag_6\n      jumpi\n      0x00\n      dup1\n      revert\n    tag_6:\n      pop\n      tag_7\n      tag_8\n      jump\t// in\n    tag_7:\n      mload(0x40)\n      tag_9\n      swap2\n      swap1\n      tag_10\n      jump\t// in\n    tag_9:\n      mload(0x40)\n      dup1\n      swap2\n      sub\n      swap1\n      return\n        /* \"contracts/Call/delegatecall.sol\":436:456  address public owner */\n    tag_3:\n      callvalue\n      dup1\n      iszero\n      tag_11\n      jumpi\n      0x00\n      dup1\n      revert\n    tag_11:\n      pop\n      tag_12\n      tag_13\n      jump\t// in\n    tag_12:\n      mload(0x40)\n      tag_14\n      swap2\n      swap1\n      tag_15\n      jump\t// in\n    tag_14:\n      mload(0x40)\n      dup1\n      swap2\n      sub\n      swap1\n      return\n        /* \"contracts/Call/delegatecall.sol\":733:1124  function callFunc(address payable _address, uint _a, uint _b) public returns(bytes memory){\r... */\n    tag_4:\n      callvalue\n      dup1\n      iszero\n      tag_16\n      jumpi\n      0x00\n      dup1\n      revert\n    tag_16:\n      pop\n      tag_17\n      0x04\n      dup1\n      calldatasize\n      sub\n      dup2\n      add\n      swap1\n      tag_18\n      swap2\n      swap1\n      tag_19\n      jump\t// in\n    tag_18:\n      tag_20\n      jump\t// in\n    tag_17:\n      mload(0x40)\n      tag_21\n      swap2\n      swap1\n      tag_22\n      jump\t// in\n    tag_21:\n      mload(0x40)\n      dup1\n      swap2\n      sub\n      swap1\n      return\n        /* \"contracts/Call/delegatecall.sol\":1130:1532  function callNotExisFunc(address payable _address, uint _a, uint _b) public payable returns(bytes memory){\r... */\n    tag_5:\n      tag_23\n      0x04\n      dup1\n      calldatasize\n      sub\n      dup2\n      add\n      swap1\n      tag_24\n      swap2\n      swap1\n      tag_19\n      jump\t// in\n    tag_24:\n      tag_25\n      jump\t// in\n    tag_23:\n      mload(0x40)\n      tag_26\n      swap2\n      swap1\n      tag_22\n      jump\t// in\n    tag_26:\n      mload(0x40)\n      dup1\n      swap2\n      sub\n      swap1\n      return\n        /* \"contracts/Call/delegatecall.sol\":467:484  uint public value */\n    tag_8:\n      sload(0x01)\n      dup2\n      jump\t// out\n        /* \"contracts/Call/delegatecall.sol\":436:456  address public owner */\n    tag_13:\n      0x00\n      dup1\n      sload\n      swap1\n      0x0100\n      exp\n      swap1\n      div\n      0xffffffffffffffffffffffffffffffffffffffff\n      and\n      dup2\n      jump\t// out\n        /* \"contracts/Call/delegatecall.sol\":733:1124  function callFunc(address payable _address, uint _a, uint _b) public returns(bytes memory){\r... */\n    tag_20:\n        /* \"contracts/Call/delegatecall.sol\":810:822  bytes memory */\n      0x60\n        /* \"contracts/Call/delegatecall.sol\":834:860  bytes memory callFuncBytes */\n      0x00\n        /* \"contracts/Call/delegatecall.sol\":915:917  _a */\n      dup4\n        /* \"contracts/Call/delegatecall.sol\":918:920  _b */\n      dup4\n        /* \"contracts/Call/delegatecall.sol\":863:921  abi.encodeWithSignature(\"plusData(uint256,uint256)\",_a,_b) */\n      add(0x24, mload(0x40))\n      tag_28\n      swap3\n      swap2\n      swap1\n      tag_29\n      jump\t// in\n    tag_28:\n      mload(0x40)\n      0x20\n      dup2\n      dup4\n      sub\n      sub\n      dup2\n      mstore\n      swap1\n      0x40\n      mstore\n      and(not(0xffffffffffffffffffffffffffffffffffffffffffffffffffffffff), 0x69280dd100000000000000000000000000000000000000000000000000000000)\n      0x20\n      dup3\n      add\n      dup1\n      mload\n      0xffffffffffffffffffffffffffffffffffffffffffffffffffffffff\n      dup4\n      dup2\n      dup4\n      and\n      or\n      dup4\n      mstore\n      pop\n      pop\n      pop\n      pop\n        /* \"contracts/Call/delegatecall.sol\":834:921  bytes memory callFuncBytes = abi.encodeWithSignature(\"plusData(uint256,uint256)\",_a,_b) */\n      swap1\n      pop\n        /* \"contracts/Call/delegatecall.sol\":935:955  isContract(_address) */\n      tag_30\n        /* \"contracts/Call/delegatecall.sol\":946:954  _address */\n      dup6\n        /* \"contracts/Call/delegatecall.sol\":935:945  isContract */\n      tag_31\n        /* \"contracts/Call/delegatecall.sol\":935:955  isContract(_address) */\n      jump\t// in\n    tag_30:\n        /* \"contracts/Call/delegatecall.sol\":932:1117  if(isContract(_address)){\r... */\n      iszero\n      tag_32\n      jumpi\n        /* \"contracts/Call/delegatecall.sol\":972:983  bool result */\n      0x00\n        /* \"contracts/Call/delegatecall.sol\":985:1001  bytes memory sum */\n      dup1\n        /* \"contracts/Call/delegatecall.sol\":1005:1013  _address */\n      dup7\n        /* \"contracts/Call/delegatecall.sol\":1005:1026  _address.delegatecall */\n      0xffffffffffffffffffffffffffffffffffffffff\n      and\n        /* \"contracts/Call/delegatecall.sol\":1027:1040  callFuncBytes */\n      dup4\n        /* \"contracts/Call/delegatecall.sol\":1005:1041  _address.delegatecall(callFuncBytes) */\n      mload(0x40)\n      tag_33\n      swap2\n      swap1\n      tag_34\n      jump\t// in\n    tag_33:\n      0x00\n      mload(0x40)\n      dup1\n      dup4\n      sub\n      dup2\n      dup6\n      gas\n      delegatecall\n      swap2\n      pop\n      pop\n      returndatasize\n      dup1\n      0x00\n      dup2\n      eq\n      tag_37\n      jumpi\n      mload(0x40)\n      swap2\n      pop\n      and(add(returndatasize, 0x3f), not(0x1f))\n      dup3\n      add\n      0x40\n      mstore\n      returndatasize\n      dup3\n      mstore\n      returndatasize\n      0x00\n      0x20\n      dup5\n      add\n      returndatacopy\n      jump(tag_36)\n    tag_37:\n      0x60\n      swap2\n      pop\n    tag_36:\n      pop\n        /* \"contracts/Call/delegatecall.sol\":971:1041  (bool result, bytes memory sum) = _address.delegatecall(callFuncBytes) */\n      swap2\n      pop\n      swap2\n      pop\n        /* \"contracts/Call/delegatecall.sol\":1063:1066  sum */\n      dup1\n        /* \"contracts/Call/delegatecall.sol\":1056:1066  return sum */\n      swap4\n      pop\n      pop\n      pop\n      pop\n      jump(tag_27)\n        /* \"contracts/Call/delegatecall.sol\":932:1117  if(isContract(_address)){\r... */\n    tag_32:\n        /* \"contracts/Call/delegatecall.sol\":1097:1105  revert() */\n      0x00\n      dup1\n      revert\n        /* \"contracts/Call/delegatecall.sol\":733:1124  function callFunc(address payable _address, uint _a, uint _b) public returns(bytes memory){\r... */\n    tag_27:\n      swap4\n      swap3\n      pop\n      pop\n      pop\n      jump\t// out\n        /* \"contracts/Call/delegatecall.sol\":1130:1532  function callNotExisFunc(address payable _address, uint _a, uint _b) public payable returns(bytes memory){\r... */\n    tag_25:\n        /* \"contracts/Call/delegatecall.sol\":1222:1234  bytes memory */\n      0x60\n        /* \"contracts/Call/delegatecall.sol\":1246:1272  bytes memory callFuncBytes */\n      0x00\n        /* \"contracts/Call/delegatecall.sol\":1331:1333  _a */\n      dup4\n        /* \"contracts/Call/delegatecall.sol\":1334:1336  _b */\n      dup4\n        /* \"contracts/Call/delegatecall.sol\":1275:1337  abi.encodeWithSignature(\"NotExistFunc(uint256,uint256)\",_a,_b) */\n      add(0x24, mload(0x40))\n      tag_40\n      swap3\n      swap2\n      swap1\n      tag_29\n      jump\t// in\n    tag_40:\n      mload(0x40)\n      0x20\n      dup2\n      dup4\n      sub\n      sub\n      dup2\n      mstore\n      swap1\n      0x40\n      mstore\n      and(not(0xffffffffffffffffffffffffffffffffffffffffffffffffffffffff), 0xb8d2a4c500000000000000000000000000000000000000000000000000000000)\n      0x20\n      dup3\n      add\n      dup1\n      mload\n      0xffffffffffffffffffffffffffffffffffffffffffffffffffffffff\n      dup4\n      dup2\n      dup4\n      and\n      or\n      dup4\n      mstore\n      pop\n      pop\n      pop\n      pop\n        /* \"contracts/Call/delegatecall.sol\":1246:1337  bytes memory callFuncBytes = abi.encodeWithSignature(\"NotExistFunc(uint256,uint256)\",_a,_b) */\n      swap1\n      pop\n        /* \"contracts/Call/delegatecall.sol\":1351:1371  isContract(_address) */\n      tag_41\n        /* \"contracts/Call/delegatecall.sol\":1362:1370  _address */\n      dup6\n        /* \"contracts/Call/delegatecall.sol\":1351:1361  isContract */\n      tag_31\n        /* \"contracts/Call/delegatecall.sol\":1351:1371  isContract(_address) */\n      jump\t// in\n    tag_41:\n        /* \"contracts/Call/delegatecall.sol\":1348:1525  if(isContract(_address)){\r... */\n      iszero\n      tag_42\n      jumpi\n        /* \"contracts/Call/delegatecall.sol\":1388:1399  bool result */\n      0x00\n        /* \"contracts/Call/delegatecall.sol\":1401:1417  bytes memory sum */\n      dup1\n        /* \"contracts/Call/delegatecall.sol\":1421:1429  _address */\n      dup7\n        /* \"contracts/Call/delegatecall.sol\":1421:1434  _address.call */\n      0xffffffffffffffffffffffffffffffffffffffff\n      and\n        /* \"contracts/Call/delegatecall.sol\":1435:1448  callFuncBytes */\n      dup4\n        /* \"contracts/Call/delegatecall.sol\":1421:1449  _address.call(callFuncBytes) */\n      mload(0x40)\n      tag_43\n      swap2\n      swap1\n      tag_34\n      jump\t// in\n    tag_43:\n      0x00\n      mload(0x40)\n      dup1\n      dup4\n      sub\n      dup2\n      0x00\n      dup7\n      gas\n      call\n      swap2\n      pop\n      pop\n      returndatasize\n      dup1\n      0x00\n      dup2\n      eq\n      tag_46\n      jumpi\n      mload(0x40)\n      swap2\n      pop\n      and(add(returndatasize, 0x3f), not(0x1f))\n      dup3\n      add\n      0x40\n      mstore\n      returndatasize\n      dup3\n      mstore\n      returndatasize\n      0x00\n      0x20\n      dup5\n      add\n      returndatacopy\n      jump(tag_45)\n    tag_46:\n      0x60\n      swap2\n      pop\n    tag_45:\n      pop\n        /* \"contracts/Call/delegatecall.sol\":1387:1449  (bool result, bytes memory sum) = _address.call(callFuncBytes) */\n      swap2\n      pop\n      swap2\n      pop\n        /* \"contracts/Call/delegatecall.sol\":1471:1474  sum */\n      dup1\n        /* \"contracts/Call/delegatecall.sol\":1464:1474  return sum */\n      swap4\n      pop\n      pop\n      pop\n      pop\n      jump(tag_39)\n        /* \"contracts/Call/delegatecall.sol\":1348:1525  if(isContract(_address)){\r... */\n    tag_42:\n        /* \"contracts/Call/delegatecall.sol\":1505:1513  revert() */\n      0x00\n      dup1\n      revert\n        /* \"contracts/Call/delegatecall.sol\":1130:1532  function callNotExisFunc(address payable _address, uint _a, uint _b) public payable returns(bytes memory){\r... */\n    tag_39:\n      swap4\n      swap3\n      pop\n      pop\n      pop\n      jump\t// out\n        /* \"contracts/Call/delegatecall.sol\":493:706  function isContract(address _addr) private returns(bool isContract){\r... */\n    tag_31:\n        /* \"contracts/Call/delegatecall.sol\":544:559  bool isContract */\n      0x00\n        /* \"contracts/Call/delegatecall.sol\":571:582  uint32 size */\n      dup1\n        /* \"contracts/Call/delegatecall.sol\":636:641  _addr */\n      dup3\n        /* \"contracts/Call/delegatecall.sol\":624:642  extcodesize(_addr) */\n      extcodesize\n        /* \"contracts/Call/delegatecall.sol\":616:642  size := extcodesize(_addr) */\n      swap1\n      pop\n        /* \"contracts/Call/delegatecall.sol\":678:679  0 */\n      0x00\n        /* \"contracts/Call/delegatecall.sol\":671:675  size */\n      dup2\n        /* \"contracts/Call/delegatecall.sol\":671:679  size > 0 */\n      0xffffffff\n      and\n      gt\n        /* \"contracts/Call/delegatecall.sol\":663:680  return (size > 0) */\n      swap2\n      pop\n      pop\n        /* \"contracts/Call/delegatecall.sol\":493:706  function isContract(address _addr) private returns(bool isContract){\r... */\n      swap2\n      swap1\n      pop\n      jump\t// out\n        /* \"#utility.yul\":7:162   */\n    tag_50:\n        /* \"#utility.yul\":61:66   */\n      0x00\n        /* \"#utility.yul\":99:105   */\n      dup2\n        /* \"#utility.yul\":86:106   */\n      calldataload\n        /* \"#utility.yul\":77:106   */\n      swap1\n      pop\n        /* \"#utility.yul\":115:156   */\n      tag_52\n        /* \"#utility.yul\":150:155   */\n      dup2\n        /* \"#utility.yul\":115:156   */\n      tag_53\n      jump\t// in\n    tag_52:\n        /* \"#utility.yul\":7:162   */\n      swap3\n      swap2\n      pop\n      pop\n      jump\t// out\n        /* \"#utility.yul\":168:307   */\n    tag_54:\n        /* \"#utility.yul\":214:219   */\n      0x00\n        /* \"#utility.yul\":252:258   */\n      dup2\n        /* \"#utility.yul\":239:259   */\n      calldataload\n        /* \"#utility.yul\":230:259   */\n      swap1\n      pop\n        /* \"#utility.yul\":268:301   */\n      tag_56\n        /* \"#utility.yul\":295:300   */\n      dup2\n        /* \"#utility.yul\":268:301   */\n      tag_57\n      jump\t// in\n    tag_56:\n        /* \"#utility.yul\":168:307   */\n      swap3\n      swap2\n      pop\n      pop\n      jump\t// out\n        /* \"#utility.yul\":313:948   */\n    tag_19:\n        /* \"#utility.yul\":398:404   */\n      0x00\n        /* \"#utility.yul\":406:412   */\n      dup1\n        /* \"#utility.yul\":414:420   */\n      0x00\n        /* \"#utility.yul\":463:465   */\n      0x60\n        /* \"#utility.yul\":451:460   */\n      dup5\n        /* \"#utility.yul\":442:449   */\n      dup7\n        /* \"#utility.yul\":438:461   */\n      sub\n        /* \"#utility.yul\":434:466   */\n      slt\n        /* \"#utility.yul\":431:550   */\n      iszero\n      tag_59\n      jumpi\n        /* \"#utility.yul\":469:548   */\n      tag_60\n      tag_61\n      jump\t// in\n    tag_60:\n        /* \"#utility.yul\":431:550   */\n    tag_59:\n        /* \"#utility.yul\":589:590   */\n      0x00\n        /* \"#utility.yul\":614:675   */\n      tag_62\n        /* \"#utility.yul\":667:674   */\n      dup7\n        /* \"#utility.yul\":658:664   */\n      dup3\n        /* \"#utility.yul\":647:656   */\n      dup8\n        /* \"#utility.yul\":643:665   */\n      add\n        /* \"#utility.yul\":614:675   */\n      tag_50\n      jump\t// in\n    tag_62:\n        /* \"#utility.yul\":604:675   */\n      swap4\n      pop\n        /* \"#utility.yul\":560:685   */\n      pop\n        /* \"#utility.yul\":724:726   */\n      0x20\n        /* \"#utility.yul\":750:803   */\n      tag_63\n        /* \"#utility.yul\":795:802   */\n      dup7\n        /* \"#utility.yul\":786:792   */\n      dup3\n        /* \"#utility.yul\":775:784   */\n      dup8\n        /* \"#utility.yul\":771:793   */\n      add\n        /* \"#utility.yul\":750:803   */\n      tag_54\n      jump\t// in\n    tag_63:\n        /* \"#utility.yul\":740:803   */\n      swap3\n      pop\n        /* \"#utility.yul\":695:813   */\n      pop\n        /* \"#utility.yul\":852:854   */\n      0x40\n        /* \"#utility.yul\":878:931   */\n      tag_64\n        /* \"#utility.yul\":923:930   */\n      dup7\n        /* \"#utility.yul\":914:920   */\n      dup3\n        /* \"#utility.yul\":903:912   */\n      dup8\n        /* \"#utility.yul\":899:921   */\n      add\n        /* \"#utility.yul\":878:931   */\n      tag_54\n      jump\t// in\n    tag_64:\n        /* \"#utility.yul\":868:931   */\n      swap2\n      pop\n        /* \"#utility.yul\":823:941   */\n      pop\n        /* \"#utility.yul\":313:948   */\n      swap3\n      pop\n      swap3\n      pop\n      swap3\n      jump\t// out\n        /* \"#utility.yul\":954:1072   */\n    tag_65:\n        /* \"#utility.yul\":1041:1065   */\n      tag_67\n        /* \"#utility.yul\":1059:1064   */\n      dup2\n        /* \"#utility.yul\":1041:1065   */\n      tag_68\n      jump\t// in\n    tag_67:\n        /* \"#utility.yul\":1036:1039   */\n      dup3\n        /* \"#utility.yul\":1029:1066   */\n      mstore\n        /* \"#utility.yul\":954:1072   */\n      pop\n      pop\n      jump\t// out\n        /* \"#utility.yul\":1078:1438   */\n    tag_69:\n        /* \"#utility.yul\":1164:1167   */\n      0x00\n        /* \"#utility.yul\":1192:1230   */\n      tag_71\n        /* \"#utility.yul\":1224:1229   */\n      dup3\n        /* \"#utility.yul\":1192:1230   */\n      tag_72\n      jump\t// in\n    tag_71:\n        /* \"#utility.yul\":1246:1316   */\n      tag_73\n        /* \"#utility.yul\":1309:1315   */\n      dup2\n        /* \"#utility.yul\":1304:1307   */\n      dup6\n        /* \"#utility.yul\":1246:1316   */\n      tag_74\n      jump\t// in\n    tag_73:\n        /* \"#utility.yul\":1239:1316   */\n      swap4\n      pop\n        /* \"#utility.yul\":1325:1377   */\n      tag_75\n        /* \"#utility.yul\":1370:1376   */\n      dup2\n        /* \"#utility.yul\":1365:1368   */\n      dup6\n        /* \"#utility.yul\":1358:1362   */\n      0x20\n        /* \"#utility.yul\":1351:1356   */\n      dup7\n        /* \"#utility.yul\":1347:1363   */\n      add\n        /* \"#utility.yul\":1325:1377   */\n      tag_76\n      jump\t// in\n    tag_75:\n        /* \"#utility.yul\":1402:1431   */\n      tag_77\n        /* \"#utility.yul\":1424:1430   */\n      dup2\n        /* \"#utility.yul\":1402:1431   */\n      tag_78\n      jump\t// in\n    tag_77:\n        /* \"#utility.yul\":1397:1400   */\n      dup5\n        /* \"#utility.yul\":1393:1432   */\n      add\n        /* \"#utility.yul\":1386:1432   */\n      swap2\n      pop\n        /* \"#utility.yul\":1168:1438   */\n      pop\n        /* \"#utility.yul\":1078:1438   */\n      swap3\n      swap2\n      pop\n      pop\n      jump\t// out\n        /* \"#utility.yul\":1444:1817   */\n    tag_79:\n        /* \"#utility.yul\":1548:1551   */\n      0x00\n        /* \"#utility.yul\":1576:1614   */\n      tag_81\n        /* \"#utility.yul\":1608:1613   */\n      dup3\n        /* \"#utility.yul\":1576:1614   */\n      tag_72\n      jump\t// in\n    tag_81:\n        /* \"#utility.yul\":1630:1718   */\n      tag_82\n        /* \"#utility.yul\":1711:1717   */\n      dup2\n        /* \"#utility.yul\":1706:1709   */\n      dup6\n        /* \"#utility.yul\":1630:1718   */\n      tag_83\n      jump\t// in\n    tag_82:\n        /* \"#utility.yul\":1623:1718   */\n      swap4\n      pop\n        /* \"#utility.yul\":1727:1779   */\n      tag_84\n        /* \"#utility.yul\":1772:1778   */\n      dup2\n        /* \"#utility.yul\":1767:1770   */\n      dup6\n        /* \"#utility.yul\":1760:1764   */\n      0x20\n        /* \"#utility.yul\":1753:1758   */\n      dup7\n        /* \"#utility.yul\":1749:1765   */\n      add\n        /* \"#utility.yul\":1727:1779   */\n      tag_76\n      jump\t// in\n    tag_84:\n        /* \"#utility.yul\":1804:1810   */\n      dup1\n        /* \"#utility.yul\":1799:1802   */\n      dup5\n        /* \"#utility.yul\":1795:1811   */\n      add\n        /* \"#utility.yul\":1788:1811   */\n      swap2\n      pop\n        /* \"#utility.yul\":1552:1817   */\n      pop\n        /* \"#utility.yul\":1444:1817   */\n      swap3\n      swap2\n      pop\n      pop\n      jump\t// out\n        /* \"#utility.yul\":1823:1941   */\n    tag_85:\n        /* \"#utility.yul\":1910:1934   */\n      tag_87\n        /* \"#utility.yul\":1928:1933   */\n      dup2\n        /* \"#utility.yul\":1910:1934   */\n      tag_88\n      jump\t// in\n    tag_87:\n        /* \"#utility.yul\":1905:1908   */\n      dup3\n        /* \"#utility.yul\":1898:1935   */\n      mstore\n        /* \"#utility.yul\":1823:1941   */\n      pop\n      pop\n      jump\t// out\n        /* \"#utility.yul\":1947:2218   */\n    tag_34:\n        /* \"#utility.yul\":2077:2080   */\n      0x00\n        /* \"#utility.yul\":2099:2192   */\n      tag_90\n        /* \"#utility.yul\":2188:2191   */\n      dup3\n        /* \"#utility.yul\":2179:2185   */\n      dup5\n        /* \"#utility.yul\":2099:2192   */\n      tag_79\n      jump\t// in\n    tag_90:\n        /* \"#utility.yul\":2092:2192   */\n      swap2\n      pop\n        /* \"#utility.yul\":2209:2212   */\n      dup2\n        /* \"#utility.yul\":2202:2212   */\n      swap1\n      pop\n        /* \"#utility.yul\":1947:2218   */\n      swap3\n      swap2\n      pop\n      pop\n      jump\t// out\n        /* \"#utility.yul\":2224:2446   */\n    tag_15:\n        /* \"#utility.yul\":2317:2321   */\n      0x00\n        /* \"#utility.yul\":2355:2357   */\n      0x20\n        /* \"#utility.yul\":2344:2353   */\n      dup3\n        /* \"#utility.yul\":2340:2358   */\n      add\n        /* \"#utility.yul\":2332:2358   */\n      swap1\n      pop\n        /* \"#utility.yul\":2368:2439   */\n      tag_92\n        /* \"#utility.yul\":2436:2437   */\n      0x00\n        /* \"#utility.yul\":2425:2434   */\n      dup4\n        /* \"#utility.yul\":2421:2438   */\n      add\n        /* \"#utility.yul\":2412:2418   */\n      dup5\n        /* \"#utility.yul\":2368:2439   */\n      tag_65\n      jump\t// in\n    tag_92:\n        /* \"#utility.yul\":2224:2446   */\n      swap3\n      swap2\n      pop\n      pop\n      jump\t// out\n        /* \"#utility.yul\":2452:2761   */\n    tag_22:\n        /* \"#utility.yul\":2563:2567   */\n      0x00\n        /* \"#utility.yul\":2601:2603   */\n      0x20\n        /* \"#utility.yul\":2590:2599   */\n      dup3\n        /* \"#utility.yul\":2586:2604   */\n      add\n        /* \"#utility.yul\":2578:2604   */\n      swap1\n      pop\n        /* \"#utility.yul\":2650:2659   */\n      dup2\n        /* \"#utility.yul\":2644:2648   */\n      dup2\n        /* \"#utility.yul\":2640:2660   */\n      sub\n        /* \"#utility.yul\":2636:2637   */\n      0x00\n        /* \"#utility.yul\":2625:2634   */\n      dup4\n        /* \"#utility.yul\":2621:2638   */\n      add\n        /* \"#utility.yul\":2614:2661   */\n      mstore\n        /* \"#utility.yul\":2678:2754   */\n      tag_94\n        /* \"#utility.yul\":2749:2753   */\n      dup2\n        /* \"#utility.yul\":2740:2746   */\n      dup5\n        /* \"#utility.yul\":2678:2754   */\n      tag_69\n      jump\t// in\n    tag_94:\n        /* \"#utility.yul\":2670:2754   */\n      swap1\n      pop\n        /* \"#utility.yul\":2452:2761   */\n      swap3\n      swap2\n      pop\n      pop\n      jump\t// out\n        /* \"#utility.yul\":2767:2989   */\n    tag_10:\n        /* \"#utility.yul\":2860:2864   */\n      0x00\n        /* \"#utility.yul\":2898:2900   */\n      0x20\n        /* \"#utility.yul\":2887:2896   */\n      dup3\n        /* \"#utility.yul\":2883:2901   */\n      add\n        /* \"#utility.yul\":2875:2901   */\n      swap1\n      pop\n        /* \"#utility.yul\":2911:2982   */\n      tag_96\n        /* \"#utility.yul\":2979:2980   */\n      0x00\n        /* \"#utility.yul\":2968:2977   */\n      dup4\n        /* \"#utility.yul\":2964:2981   */\n      add\n        /* \"#utility.yul\":2955:2961   */\n      dup5\n        /* \"#utility.yul\":2911:2982   */\n      tag_85\n      jump\t// in\n    tag_96:\n        /* \"#utility.yul\":2767:2989   */\n      swap3\n      swap2\n      pop\n      pop\n      jump\t// out\n        /* \"#utility.yul\":2995:3327   */\n    tag_29:\n        /* \"#utility.yul\":3116:3120   */\n      0x00\n        /* \"#utility.yul\":3154:3156   */\n      0x40\n        /* \"#utility.yul\":3143:3152   */\n      dup3\n        /* \"#utility.yul\":3139:3157   */\n      add\n        /* \"#utility.yul\":3131:3157   */\n      swap1\n      pop\n        /* \"#utility.yul\":3167:3238   */\n      tag_98\n        /* \"#utility.yul\":3235:3236   */\n      0x00\n        /* \"#utility.yul\":3224:3233   */\n      dup4\n        /* \"#utility.yul\":3220:3237   */\n      add\n        /* \"#utility.yul\":3211:3217   */\n      dup6\n        /* \"#utility.yul\":3167:3238   */\n      tag_85\n      jump\t// in\n    tag_98:\n        /* \"#utility.yul\":3248:3320   */\n      tag_99\n        /* \"#utility.yul\":3316:3318   */\n      0x20\n        /* \"#utility.yul\":3305:3314   */\n      dup4\n        /* \"#utility.yul\":3301:3319   */\n      add\n        /* \"#utility.yul\":3292:3298   */\n      dup5\n        /* \"#utility.yul\":3248:3320   */\n      tag_85\n      jump\t// in\n    tag_99:\n        /* \"#utility.yul\":2995:3327   */\n      swap4\n      swap3\n      pop\n      pop\n      pop\n      jump\t// out\n        /* \"#utility.yul\":3414:3512   */\n    tag_72:\n        /* \"#utility.yul\":3465:3471   */\n      0x00\n        /* \"#utility.yul\":3499:3504   */\n      dup2\n        /* \"#utility.yul\":3493:3505   */\n      mload\n        /* \"#utility.yul\":3483:3505   */\n      swap1\n      pop\n        /* \"#utility.yul\":3414:3512   */\n      swap2\n      swap1\n      pop\n      jump\t// out\n        /* \"#utility.yul\":3518:3686   */\n    tag_74:\n        /* \"#utility.yul\":3601:3612   */\n      0x00\n        /* \"#utility.yul\":3635:3641   */\n      dup3\n        /* \"#utility.yul\":3630:3633   */\n      dup3\n        /* \"#utility.yul\":3623:3642   */\n      mstore\n        /* \"#utility.yul\":3675:3679   */\n      0x20\n        /* \"#utility.yul\":3670:3673   */\n      dup3\n        /* \"#utility.yul\":3666:3680   */\n      add\n        /* \"#utility.yul\":3651:3680   */\n      swap1\n      pop\n        /* \"#utility.yul\":3518:3686   */\n      swap3\n      swap2\n      pop\n      pop\n      jump\t// out\n        /* \"#utility.yul\":3692:3839   */\n    tag_83:\n        /* \"#utility.yul\":3793:3804   */\n      0x00\n        /* \"#utility.yul\":3830:3833   */\n      dup2\n        /* \"#utility.yul\":3815:3833   */\n      swap1\n      pop\n        /* \"#utility.yul\":3692:3839   */\n      swap3\n      swap2\n      pop\n      pop\n      jump\t// out\n        /* \"#utility.yul\":3845:3941   */\n    tag_68:\n        /* \"#utility.yul\":3882:3889   */\n      0x00\n        /* \"#utility.yul\":3911:3935   */\n      tag_106\n        /* \"#utility.yul\":3929:3934   */\n      dup3\n        /* \"#utility.yul\":3911:3935   */\n      tag_107\n      jump\t// in\n    tag_106:\n        /* \"#utility.yul\":3900:3935   */\n      swap1\n      pop\n        /* \"#utility.yul\":3845:3941   */\n      swap2\n      swap1\n      pop\n      jump\t// out\n        /* \"#utility.yul\":3947:4051   */\n    tag_108:\n        /* \"#utility.yul\":3992:3999   */\n      0x00\n        /* \"#utility.yul\":4021:4045   */\n      tag_110\n        /* \"#utility.yul\":4039:4044   */\n      dup3\n        /* \"#utility.yul\":4021:4045   */\n      tag_107\n      jump\t// in\n    tag_110:\n        /* \"#utility.yul\":4010:4045   */\n      swap1\n      pop\n        /* \"#utility.yul\":3947:4051   */\n      swap2\n      swap1\n      pop\n      jump\t// out\n        /* \"#utility.yul\":4057:4183   */\n    tag_107:\n        /* \"#utility.yul\":4094:4101   */\n      0x00\n        /* \"#utility.yul\":4134:4176   */\n      0xffffffffffffffffffffffffffffffffffffffff\n        /* \"#utility.yul\":4127:4132   */\n      dup3\n        /* \"#utility.yul\":4123:4177   */\n      and\n        /* \"#utility.yul\":4112:4177   */\n      swap1\n      pop\n        /* \"#utility.yul\":4057:4183   */\n      swap2\n      swap1\n      pop\n      jump\t// out\n        /* \"#utility.yul\":4189:4266   */\n    tag_88:\n        /* \"#utility.yul\":4226:4233   */\n      0x00\n        /* \"#utility.yul\":4255:4260   */\n      dup2\n        /* \"#utility.yul\":4244:4260   */\n      swap1\n      pop\n        /* \"#utility.yul\":4189:4266   */\n      swap2\n      swap1\n      pop\n      jump\t// out\n        /* \"#utility.yul\":4272:4579   */\n    tag_76:\n        /* \"#utility.yul\":4340:4341   */\n      0x00\n        /* \"#utility.yul\":4350:4463   */\n    tag_114:\n        /* \"#utility.yul\":4364:4370   */\n      dup4\n        /* \"#utility.yul\":4361:4362   */\n      dup2\n        /* \"#utility.yul\":4358:4371   */\n      lt\n        /* \"#utility.yul\":4350:4463   */\n      iszero\n      tag_116\n      jumpi\n        /* \"#utility.yul\":4449:4450   */\n      dup1\n        /* \"#utility.yul\":4444:4447   */\n      dup3\n        /* \"#utility.yul\":4440:4451   */\n      add\n        /* \"#utility.yul\":4434:4452   */\n      mload\n        /* \"#utility.yul\":4430:4431   */\n      dup2\n        /* \"#utility.yul\":4425:4428   */\n      dup5\n        /* \"#utility.yul\":4421:4432   */\n      add\n        /* \"#utility.yul\":4414:4453   */\n      mstore\n        /* \"#utility.yul\":4386:4388   */\n      0x20\n        /* \"#utility.yul\":4383:4384   */\n      dup2\n        /* \"#utility.yul\":4379:4389   */\n      add\n        /* \"#utility.yul\":4374:4389   */\n      swap1\n      pop\n        /* \"#utility.yul\":4350:4463   */\n      jump(tag_114)\n    tag_116:\n        /* \"#utility.yul\":4481:4487   */\n      dup4\n        /* \"#utility.yul\":4478:4479   */\n      dup2\n        /* \"#utility.yul\":4475:4488   */\n      gt\n        /* \"#utility.yul\":4472:4573   */\n      iszero\n      tag_117\n      jumpi\n        /* \"#utility.yul\":4561:4562   */\n      0x00\n        /* \"#utility.yul\":4552:4558   */\n      dup5\n        /* \"#utility.yul\":4547:4550   */\n      dup5\n        /* \"#utility.yul\":4543:4559   */\n      add\n        /* \"#utility.yul\":4536:4563   */\n      mstore\n        /* \"#utility.yul\":4472:4573   */\n    tag_117:\n        /* \"#utility.yul\":4321:4579   */\n      pop\n        /* \"#utility.yul\":4272:4579   */\n      pop\n      pop\n      pop\n      jump\t// out\n        /* \"#utility.yul\":4708:4825   */\n    tag_61:\n        /* \"#utility.yul\":4817:4818   */\n      0x00\n        /* \"#utility.yul\":4814:4815   */\n      dup1\n        /* \"#utility.yul\":4807:4819   */\n      revert\n        /* \"#utility.yul\":4831:4933   */\n    tag_78:\n        /* \"#utility.yul\":4872:4878   */\n      0x00\n        /* \"#utility.yul\":4923:4925   */\n      0x1f\n        /* \"#utility.yul\":4919:4926   */\n      not\n        /* \"#utility.yul\":4914:4916   */\n      0x1f\n        /* \"#utility.yul\":4907:4912   */\n      dup4\n        /* \"#utility.yul\":4903:4917   */\n      add\n        /* \"#utility.yul\":4899:4927   */\n      and\n        /* \"#utility.yul\":4889:4927   */\n      swap1\n      pop\n        /* \"#utility.yul\":4831:4933   */\n      swap2\n      swap1\n      pop\n      jump\t// out\n        /* \"#utility.yul\":4939:5077   */\n    tag_53:\n        /* \"#utility.yul\":5020:5052   */\n      tag_123\n        /* \"#utility.yul\":5046:5051   */\n      dup2\n        /* \"#utility.yul\":5020:5052   */\n      tag_108\n      jump\t// in\n    tag_123:\n        /* \"#utility.yul\":5013:5018   */\n      dup2\n        /* \"#utility.yul\":5010:5053   */\n      eq\n        /* \"#utility.yul\":5000:5071   */\n      tag_124\n      jumpi\n        /* \"#utility.yul\":5067:5068   */\n      0x00\n        /* \"#utility.yul\":5064:5065   */\n      dup1\n        /* \"#utility.yul\":5057:5069   */\n      revert\n        /* \"#utility.yul\":5000:5071   */\n    tag_124:\n        /* \"#utility.yul\":4939:5077   */\n      pop\n      jump\t// out\n        /* \"#utility.yul\":5083:5205   */\n    tag_57:\n        /* \"#utility.yul\":5156:5180   */\n      tag_126\n        /* \"#utility.yul\":5174:5179   */\n      dup2\n        /* \"#utility.yul\":5156:5180   */\n      tag_88\n      jump\t// in\n    tag_126:\n        /* \"#utility.yul\":5149:5154   */\n      dup2\n        /* \"#utility.yul\":5146:5181   */\n      eq\n        /* \"#utility.yul\":5136:5199   */\n      tag_127\n      jumpi\n        /* \"#utility.yul\":5195:5196   */\n      0x00\n        /* \"#utility.yul\":5192:5193   */\n      dup1\n        /* \"#utility.yul\":5185:5197   */\n      revert\n        /* \"#utility.yul\":5136:5199   */\n    tag_127:\n        /* \"#utility.yul\":5083:5205   */\n      pop\n      jump\t// out\n\n    auxdata: 0xa26469706673582212208112693f50c424ce50424996947aefd5526c0c3a34b6f8e8c1c87ef1fa0e50a264736f6c63430008070033\n}\n",
				"bytecode": {
					"linkReferences": {},
					"object": "608060405234801561001057600080fd5b5061065b806100206000396000f3fe60806040526004361061003f5760003560e01c80633fa4f245146100445780638da5cb5b1461006f578063a72d24731461009a578063a850bca5146100d7575b600080fd5b34801561005057600080fd5b50610059610107565b60405161006691906104f5565b60405180910390f35b34801561007b57600080fd5b5061008461010d565b60405161009191906104b8565b60405180910390f35b3480156100a657600080fd5b506100c160048036038101906100bc91906103c6565b610131565b6040516100ce91906104d3565b60405180910390f35b6100f160048036038101906100ec91906103c6565b610259565b6040516100fe91906104d3565b60405180910390f35b60015481565b60008054906101000a900473ffffffffffffffffffffffffffffffffffffffff1681565b606060008383604051602401610148929190610510565b6040516020818303038152906040527f69280dd1000000000000000000000000000000000000000000000000000000007bffffffffffffffffffffffffffffffffffffffffffffffffffffffff19166020820180517bffffffffffffffffffffffffffffffffffffffffffffffffffffffff838183161783525050505090506101d085610383565b1561024d576000808673ffffffffffffffffffffffffffffffffffffffff16836040516101fd91906104a1565b600060405180830381855af49150503d8060008114610238576040519150601f19603f3d011682016040523d82523d6000602084013e61023d565b606091505b5091509150809350505050610252565b600080fd5b9392505050565b606060008383604051602401610270929190610510565b6040516020818303038152906040527fb8d2a4c5000000000000000000000000000000000000000000000000000000007bffffffffffffffffffffffffffffffffffffffffffffffffffffffff19166020820180517bffffffffffffffffffffffffffffffffffffffffffffffffffffffff838183161783525050505090506102f885610383565b15610377576000808673ffffffffffffffffffffffffffffffffffffffff168360405161032591906104a1565b6000604051808303816000865af19150503d8060008114610362576040519150601f19603f3d011682016040523d82523d6000602084013e610367565b606091505b509150915080935050505061037c565b600080fd5b9392505050565b600080823b905060008163ffffffff1611915050919050565b6000813590506103ab816105f7565b92915050565b6000813590506103c08161060e565b92915050565b6000806000606084860312156103df576103de6105e1565b5b60006103ed8682870161039c565b93505060206103fe868287016103b1565b925050604061040f868287016103b1565b9150509250925092565b61042281610560565b82525050565b600061043382610539565b61043d8185610544565b935061044d8185602086016105ae565b610456816105e6565b840191505092915050565b600061046c82610539565b6104768185610555565b93506104868185602086016105ae565b80840191505092915050565b61049b816105a4565b82525050565b60006104ad8284610461565b915081905092915050565b60006020820190506104cd6000830184610419565b92915050565b600060208201905081810360008301526104ed8184610428565b905092915050565b600060208201905061050a6000830184610492565b92915050565b60006040820190506105256000830185610492565b6105326020830184610492565b9392505050565b600081519050919050565b600082825260208201905092915050565b600081905092915050565b600061056b82610584565b9050919050565b600061057d82610584565b9050919050565b600073ffffffffffffffffffffffffffffffffffffffff82169050919050565b6000819050919050565b60005b838110156105cc5780820151818401526020810190506105b1565b838111156105db576000848401525b50505050565b600080fd5b6000601f19601f8301169050919050565b61060081610572565b811461060b57600080fd5b50565b610617816105a4565b811461062257600080fd5b5056fea26469706673582212208112693f50c424ce50424996947aefd5526c0c3a34b6f8e8c1c87ef1fa0e50a264736f6c63430008070033",
					"opcodes": "PUSH1 0x80 PUSH1 0x40 MSTORE CALLVALUE DUP1 ISZERO PUSH2 0x10 JUMPI PUSH1 0x0 DUP1 REVERT JUMPDEST POP PUSH2 0x65B DUP1 PUSH2 0x20 PUSH1 0x0 CODECOPY PUSH1 0x0 RETURN INVALID PUSH1 0x80 PUSH1 0x40 MSTORE PUSH1 0x4 CALLDATASIZE LT PUSH2 0x3F JUMPI PUSH1 0x0 CALLDATALOAD PUSH1 0xE0 SHR DUP1 PUSH4 0x3FA4F245 EQ PUSH2 0x44 JUMPI DUP1 PUSH4 0x8DA5CB5B EQ PUSH2 0x6F JUMPI DUP1 PUSH4 0xA72D2473 EQ PUSH2 0x9A JUMPI DUP1 PUSH4 0xA850BCA5 EQ PUSH2 0xD7 JUMPI JUMPDEST PUSH1 0x0 DUP1 REVERT JUMPDEST CALLVALUE DUP1 ISZERO PUSH2 0x50 JUMPI PUSH1 0x0 DUP1 REVERT JUMPDEST POP PUSH2 0x59 PUSH2 0x107 JUMP JUMPDEST PUSH1 0x40 MLOAD PUSH2 0x66 SWAP2 SWAP1 PUSH2 0x4F5 JUMP JUMPDEST PUSH1 0x40 MLOAD DUP1 SWAP2 SUB SWAP1 RETURN JUMPDEST CALLVALUE DUP1 ISZERO PUSH2 0x7B JUMPI PUSH1 0x0 DUP1 REVERT JUMPDEST POP PUSH2 0x84 PUSH2 0x10D JUMP JUMPDEST PUSH1 0x40 MLOAD PUSH2 0x91 SWAP2 SWAP1 PUSH2 0x4B8 JUMP JUMPDEST PUSH1 0x40 MLOAD DUP1 SWAP2 SUB SWAP1 RETURN JUMPDEST CALLVALUE DUP1 ISZERO PUSH2 0xA6 JUMPI PUSH1 0x0 DUP1 REVERT JUMPDEST POP PUSH2 0xC1 PUSH1 0x4 DUP1 CALLDATASIZE SUB DUP2 ADD SWAP1 PUSH2 0xBC SWAP2 SWAP1 PUSH2 0x3C6 JUMP JUMPDEST PUSH2 0x131 JUMP JUMPDEST PUSH1 0x40 MLOAD PUSH2 0xCE SWAP2 SWAP1 PUSH2 0x4D3 JUMP JUMPDEST PUSH1 0x40 MLOAD DUP1 SWAP2 SUB SWAP1 RETURN JUMPDEST PUSH2 0xF1 PUSH1 0x4 DUP1 CALLDATASIZE SUB DUP2 ADD SWAP1 PUSH2 0xEC SWAP2 SWAP1 PUSH2 0x3C6 JUMP JUMPDEST PUSH2 0x259 JUMP JUMPDEST PUSH1 0x40 MLOAD PUSH2 0xFE SWAP2 SWAP1 PUSH2 0x4D3 JUMP JUMPDEST PUSH1 0x40 MLOAD DUP1 SWAP2 SUB SWAP1 RETURN JUMPDEST PUSH1 0x1 SLOAD DUP2 JUMP JUMPDEST PUSH1 0x0 DUP1 SLOAD SWAP1 PUSH2 0x100 EXP SWAP1 DIV PUSH20 0xFFFFFFFFFFFFFFFFFFFFFFFFFFFFFFFFFFFFFFFF AND DUP2 JUMP JUMPDEST PUSH1 0x60 PUSH1 0x0 DUP4 DUP4 PUSH1 0x40 MLOAD PUSH1 0x24 ADD PUSH2 0x148 SWAP3 SWAP2 SWAP1 PUSH2 0x510 JUMP JUMPDEST PUSH1 0x40 MLOAD PUSH1 0x20 DUP2 DUP4 SUB SUB DUP2 MSTORE SWAP1 PUSH1 0x40 MSTORE PUSH32 0x69280DD100000000000000000000000000000000000000000000000000000000 PUSH28 0xFFFFFFFFFFFFFFFFFFFFFFFFFFFFFFFFFFFFFFFFFFFFFFFFFFFFFFFF NOT AND PUSH1 0x20 DUP3 ADD DUP1 MLOAD PUSH28 0xFFFFFFFFFFFFFFFFFFFFFFFFFFFFFFFFFFFFFFFFFFFFFFFFFFFFFFFF DUP4 DUP2 DUP4 AND OR DUP4 MSTORE POP POP POP POP SWAP1 POP PUSH2 0x1D0 DUP6 PUSH2 0x383 JUMP JUMPDEST ISZERO PUSH2 0x24D JUMPI PUSH1 0x0 DUP1 DUP7 PUSH20 0xFFFFFFFFFFFFFFFFFFFFFFFFFFFFFFFFFFFFFFFF AND DUP4 PUSH1 0x40 MLOAD PUSH2 0x1FD SWAP2 SWAP1 PUSH2 0x4A1 JUMP JUMPDEST PUSH1 0x0 PUSH1 0x40 MLOAD DUP1 DUP4 SUB DUP2 DUP6 GAS DELEGATECALL SWAP2 POP POP RETURNDATASIZE DUP1 PUSH1 0x0 DUP2 EQ PUSH2 0x238 JUMPI PUSH1 0x40 MLOAD SWAP2 POP PUSH1 0x1F NOT PUSH1 0x3F RETURNDATASIZE ADD AND DUP3 ADD PUSH1 0x40 MSTORE RETURNDATASIZE DUP3 MSTORE RETURNDATASIZE PUSH1 0x0 PUSH1 0x20 DUP5 ADD RETURNDATACOPY PUSH2 0x23D JUMP JUMPDEST PUSH1 0x60 SWAP2 POP JUMPDEST POP SWAP2 POP SWAP2 POP DUP1 SWAP4 POP POP POP POP PUSH2 0x252 JUMP JUMPDEST PUSH1 0x0 DUP1 REVERT JUMPDEST SWAP4 SWAP3 POP POP POP JUMP JUMPDEST PUSH1 0x60 PUSH1 0x0 DUP4 DUP4 PUSH1 0x40 MLOAD PUSH1 0x24 ADD PUSH2 0x270 SWAP3 SWAP2 SWAP1 PUSH2 0x510 JUMP JUMPDEST PUSH1 0x40 MLOAD PUSH1 0x20 DUP2 DUP4 SUB SUB DUP2 MSTORE SWAP1 PUSH1 0x40 MSTORE PUSH32 0xB8D2A4C500000000000000000000000000000000000000000000000000000000 PUSH28 0xFFFFFFFFFFFFFFFFFFFFFFFFFFFFFFFFFFFFFFFFFFFFFFFFFFFFFFFF NOT AND PUSH1 0x20 DUP3 ADD DUP1 MLOAD PUSH28 0xFFFFFFFFFFFFFFFFFFFFFFFFFFFFFFFFFFFFFFFFFFFFFFFFFFFFFFFF DUP4 DUP2 DUP4 AND OR DUP4 MSTORE POP POP POP POP SWAP1 POP PUSH2 0x2F8 DUP6 PUSH2 0x383 JUMP JUMPDEST ISZERO PUSH2 0x377 JUMPI PUSH1 0x0 DUP1 DUP7 PUSH20 0xFFFFFFFFFFFFFFFFFFFFFFFFFFFFFFFFFFFFFFFF AND DUP4 PUSH1 0x40 MLOAD PUSH2 0x325 SWAP2 SWAP1 PUSH2 0x4A1 JUMP JUMPDEST PUSH1 0x0 PUSH1 0x40 MLOAD DUP1 DUP4 SUB DUP2 PUSH1 0x0 DUP7 GAS CALL SWAP2 POP POP RETURNDATASIZE DUP1 PUSH1 0x0 DUP2 EQ PUSH2 0x362 JUMPI PUSH1 0x40 MLOAD SWAP2 POP PUSH1 0x1F NOT PUSH1 0x3F RETURNDATASIZE ADD AND DUP3 ADD PUSH1 0x40 MSTORE RETURNDATASIZE DUP3 MSTORE RETURNDATASIZE PUSH1 0x0 PUSH1 0x20 DUP5 ADD RETURNDATACOPY PUSH2 0x367 JUMP JUMPDEST PUSH1 0x60 SWAP2 POP JUMPDEST POP SWAP2 POP SWAP2 POP DUP1 SWAP4 POP POP POP POP PUSH2 0x37C JUMP JUMPDEST PUSH1 0x0 DUP1 REVERT JUMPDEST SWAP4 SWAP3 POP POP POP JUMP JUMPDEST PUSH1 0x0 DUP1 DUP3 EXTCODESIZE SWAP1 POP PUSH1 0x0 DUP2 PUSH4 0xFFFFFFFF AND GT SWAP2 POP POP SWAP2 SWAP1 POP JUMP JUMPDEST PUSH1 0x0 DUP2 CALLDATALOAD SWAP1 POP PUSH2 0x3AB DUP2 PUSH2 0x5F7 JUMP JUMPDEST SWAP3 SWAP2 POP POP JUMP JUMPDEST PUSH1 0x0 DUP2 CALLDATALOAD SWAP1 POP PUSH2 0x3C0 DUP2 PUSH2 0x60E JUMP JUMPDEST SWAP3 SWAP2 POP POP JUMP JUMPDEST PUSH1 0x0 DUP1 PUSH1 0x0 PUSH1 0x60 DUP5 DUP7 SUB SLT ISZERO PUSH2 0x3DF JUMPI PUSH2 0x3DE PUSH2 0x5E1 JUMP JUMPDEST JUMPDEST PUSH1 0x0 PUSH2 0x3ED DUP7 DUP3 DUP8 ADD PUSH2 0x39C JUMP JUMPDEST SWAP4 POP POP PUSH1 0x20 PUSH2 0x3FE DUP7 DUP3 DUP8 ADD PUSH2 0x3B1 JUMP JUMPDEST SWAP3 POP POP PUSH1 0x40 PUSH2 0x40F DUP7 DUP3 DUP8 ADD PUSH2 0x3B1 JUMP JUMPDEST SWAP2 POP POP SWAP3 POP SWAP3 POP SWAP3 JUMP JUMPDEST PUSH2 0x422 DUP2 PUSH2 0x560 JUMP JUMPDEST DUP3 MSTORE POP POP JUMP JUMPDEST PUSH1 0x0 PUSH2 0x433 DUP3 PUSH2 0x539 JUMP JUMPDEST PUSH2 0x43D DUP2 DUP6 PUSH2 0x544 JUMP JUMPDEST SWAP4 POP PUSH2 0x44D DUP2 DUP6 PUSH1 0x20 DUP7 ADD PUSH2 0x5AE JUMP JUMPDEST PUSH2 0x456 DUP2 PUSH2 0x5E6 JUMP JUMPDEST DUP5 ADD SWAP2 POP POP SWAP3 SWAP2 POP POP JUMP JUMPDEST PUSH1 0x0 PUSH2 0x46C DUP3 PUSH2 0x539 JUMP JUMPDEST PUSH2 0x476 DUP2 DUP6 PUSH2 0x555 JUMP JUMPDEST SWAP4 POP PUSH2 0x486 DUP2 DUP6 PUSH1 0x20 DUP7 ADD PUSH2 0x5AE JUMP JUMPDEST DUP1 DUP5 ADD SWAP2 POP POP SWAP3 SWAP2 POP POP JUMP JUMPDEST PUSH2 0x49B DUP2 PUSH2 0x5A4 JUMP JUMPDEST DUP3 MSTORE POP POP JUMP JUMPDEST PUSH1 0x0 PUSH2 0x4AD DUP3 DUP5 PUSH2 0x461 JUMP JUMPDEST SWAP2 POP DUP2 SWAP1 POP SWAP3 SWAP2 POP POP JUMP JUMPDEST PUSH1 0x0 PUSH1 0x20 DUP3 ADD SWAP1 POP PUSH2 0x4CD PUSH1 0x0 DUP4 ADD DUP5 PUSH2 0x419 JUMP JUMPDEST SWAP3 SWAP2 POP POP JUMP JUMPDEST PUSH1 0x0 PUSH1 0x20 DUP3 ADD SWAP1 POP DUP2 DUP2 SUB PUSH1 0x0 DUP4 ADD MSTORE PUSH2 0x4ED DUP2 DUP5 PUSH2 0x428 JUMP JUMPDEST SWAP1 POP SWAP3 SWAP2 POP POP JUMP JUMPDEST PUSH1 0x0 PUSH1 0x20 DUP3 ADD SWAP1 POP PUSH2 0x50A PUSH1 0x0 DUP4 ADD DUP5 PUSH2 0x492 JUMP JUMPDEST SWAP3 SWAP2 POP POP JUMP JUMPDEST PUSH1 0x0 PUSH1 0x40 DUP3 ADD SWAP1 POP PUSH2 0x525 PUSH1 0x0 DUP4 ADD DUP6 PUSH2 0x492 JUMP JUMPDEST PUSH2 0x532 PUSH1 0x20 DUP4 ADD DUP5 PUSH2 0x492 JUMP JUMPDEST SWAP4 SWAP3 POP POP POP JUMP JUMPDEST PUSH1 0x0 DUP2 MLOAD SWAP1 POP SWAP2 SWAP1 POP JUMP JUMPDEST PUSH1 0x0 DUP3 DUP3 MSTORE PUSH1 0x20 DUP3 ADD SWAP1 POP SWAP3 SWAP2 POP POP JUMP JUMPDEST PUSH1 0x0 DUP2 SWAP1 POP SWAP3 SWAP2 POP POP JUMP JUMPDEST PUSH1 0x0 PUSH2 0x56B DUP3 PUSH2 0x584 JUMP JUMPDEST SWAP1 POP SWAP2 SWAP1 POP JUMP JUMPDEST PUSH1 0x0 PUSH2 0x57D DUP3 PUSH2 0x584 JUMP JUMPDEST SWAP1 POP SWAP2 SWAP1 POP JUMP JUMPDEST PUSH1 0x0 PUSH20 0xFFFFFFFFFFFFFFFFFFFFFFFFFFFFFFFFFFFFFFFF DUP3 AND SWAP1 POP SWAP2 SWAP1 POP JUMP JUMPDEST PUSH1 0x0 DUP2 SWAP1 POP SWAP2 SWAP1 POP JUMP JUMPDEST PUSH1 0x0 JUMPDEST DUP4 DUP2 LT ISZERO PUSH2 0x5CC JUMPI DUP1 DUP3 ADD MLOAD DUP2 DUP5 ADD MSTORE PUSH1 0x20 DUP2 ADD SWAP1 POP PUSH2 0x5B1 JUMP JUMPDEST DUP4 DUP2 GT ISZERO PUSH2 0x5DB JUMPI PUSH1 0x0 DUP5 DUP5 ADD MSTORE JUMPDEST POP POP POP POP JUMP JUMPDEST PUSH1 0x0 DUP1 REVERT JUMPDEST PUSH1 0x0 PUSH1 0x1F NOT PUSH1 0x1F DUP4 ADD AND SWAP1 POP SWAP2 SWAP1 POP JUMP JUMPDEST PUSH2 0x600 DUP2 PUSH2 0x572 JUMP JUMPDEST DUP2 EQ PUSH2 0x60B JUMPI PUSH1 0x0 DUP1 REVERT JUMPDEST POP JUMP JUMPDEST PUSH2 0x617 DUP2 PUSH2 0x5A4 JUMP JUMPDEST DUP2 EQ PUSH2 0x622 JUMPI PUSH1 0x0 DUP1 REVERT JUMPDEST POP JUMP INVALID LOG2 PUSH5 0x6970667358 0x22 SLT KECCAK256 DUP2 SLT PUSH10 0x3F50C424CE5042499694 PUSH27 0xEFD5526C0C3A34B6F8E8C1C87EF1FA0E50A264736F6C6343000807 STOP CALLER "
				},
				"gasEstimates": {
					"creation": {
						"codeDepositCost": "325400",
						"executionCost": "362",
						"totalCost": "325762"
					},
					"external": {
						"callFunc(address,uint256,uint256)": "infinite",
						"callNotExisFunc(address,uint256,uint256)": "infinite",
						"owner()": "2511",
						"value()": "2407"
					},
					"internal": {
						"isContract(address)": "2653"
					}
				},
				"methodIdentifiers": {
					"callFunc(address,uint256,uint256)": "a72d2473",
					"callNotExisFunc(address,uint256,uint256)": "a850bca5",
					"owner()": "8da5cb5b",
					"value()": "3fa4f245"
				}
			},
			"storageLayout": {
				"storage": [
					{
						"astId": 38,
						"contract": "contracts/Call/delegatecall.sol:DelegateCaller",
						"label": "owner",
						"offset": 0,
						"slot": "0",
						"type": "t_address"
					},
					{
						"astId": 40,
						"contract": "contracts/Call/delegatecall.sol:DelegateCaller",
						"label": "value",
						"offset": 0,
						"slot": "1",
						"type": "t_uint256"
					}
				],
				"types": {
					"t_address": {
						"encoding": "inplace",
						"label": "address",
						"numberOfBytes": "20"
					},
					"t_uint256": {
						"encoding": "inplace",
						"label": "uint256",
						"numberOfBytes": "32"
					}
				}
			},
			"userdoc": {
				"kind": "user",
				"methods": {},
				"version": 1
			}
		}
	}
}