{
	"contracts/Call/checkContract.sol": {
		"EthTransfer": {
			"abi": [
				{
					"anonymous": false,
					"inputs": [],
					"name": "Trnasfer",
					"type": "event"
				},
				{
					"inputs": [
						{
							"internalType": "address payable",
							"name": "to",
							"type": "address"
						}
					],
					"name": "call",
					"outputs": [],
					"stateMutability": "payable",
					"type": "function"
				},
				{
					"inputs": [
						{
							"internalType": "address payable",
							"name": "to",
							"type": "address"
						}
					],
					"name": "sendSend",
					"outputs": [],
					"stateMutability": "payable",
					"type": "function"
				},
				{
					"inputs": [
						{
							"internalType": "address payable",
							"name": "to",
							"type": "address"
						}
					],
					"name": "sendTransfer",
					"outputs": [],
					"stateMutability": "payable",
					"type": "function"
				}
			],
			"devdoc": {
				"kind": "dev",
				"methods": {},
				"version": 1
			},
			"evm": {
				"assembly": "    /* \"contracts/Call/checkContract.sol\":125:1166  contract EthTransfer{\r... */\n  mstore(0x40, 0x80)\n  callvalue\n  dup1\n  iszero\n  tag_1\n  jumpi\n  0x00\n  dup1\n  revert\ntag_1:\n  pop\n  dataSize(sub_0)\n  dup1\n  dataOffset(sub_0)\n  0x00\n  codecopy\n  0x00\n  return\nstop\n\nsub_0: assembly {\n        /* \"contracts/Call/checkContract.sol\":125:1166  contract EthTransfer{\r... */\n      mstore(0x40, 0x80)\n      jumpi(tag_1, lt(calldatasize, 0x04))\n      shr(0xe0, calldataload(0x00))\n      dup1\n      0x3a0216eb\n      eq\n      tag_2\n      jumpi\n      dup1\n      0xb41932c2\n      eq\n      tag_3\n      jumpi\n      dup1\n      0xf55332ab\n      eq\n      tag_4\n      jumpi\n    tag_1:\n      0x00\n      dup1\n      revert\n        /* \"contracts/Call/checkContract.sol\":717:922  function sendSend(address payable to) public payable{\r... */\n    tag_2:\n      tag_5\n      0x04\n      dup1\n      calldatasize\n      sub\n      dup2\n      add\n      swap1\n      tag_6\n      swap2\n      swap1\n      tag_7\n      jump\t// in\n    tag_6:\n      tag_8\n      jump\t// in\n    tag_5:\n      stop\n        /* \"contracts/Call/checkContract.sol\":538:635  function sendTransfer(address payable to) public payable{\r... */\n    tag_3:\n      tag_9\n      0x04\n      dup1\n      calldatasize\n      sub\n      dup2\n      add\n      swap1\n      tag_10\n      swap2\n      swap1\n      tag_7\n      jump\t// in\n    tag_10:\n      tag_11\n      jump\t// in\n    tag_9:\n      stop\n        /* \"contracts/Call/checkContract.sol\":930:1163  function call(address payable to) public payable{\r... */\n    tag_4:\n      tag_12\n      0x04\n      dup1\n      calldatasize\n      sub\n      dup2\n      add\n      swap1\n      tag_13\n      swap2\n      swap1\n      tag_7\n      jump\t// in\n    tag_13:\n      tag_14\n      jump\t// in\n    tag_12:\n      stop\n        /* \"contracts/Call/checkContract.sol\":717:922  function sendSend(address payable to) public payable{\r... */\n    tag_8:\n        /* \"contracts/Call/checkContract.sol\":780:791  bool result */\n      0x00\n        /* \"contracts/Call/checkContract.sol\":794:796  to */\n      dup2\n        /* \"contracts/Call/checkContract.sol\":794:801  to.send */\n      0xffffffffffffffffffffffffffffffffffffffff\n      and\n        /* \"contracts/Call/checkContract.sol\":794:812  to.send(msg.value) */\n      0x08fc\n        /* \"contracts/Call/checkContract.sol\":802:811  msg.value */\n      callvalue\n        /* \"contracts/Call/checkContract.sol\":794:812  to.send(msg.value) */\n      swap1\n      dup2\n      iszero\n      mul\n      swap1\n      mload(0x40)\n      0x00\n      mload(0x40)\n      dup1\n      dup4\n      sub\n      dup2\n      dup6\n      dup9\n      dup9\n      call\n      swap4\n      pop\n      pop\n      pop\n      pop\n        /* \"contracts/Call/checkContract.sol\":780:812  bool result = to.send(msg.value) */\n      swap1\n      pop\n        /* \"contracts/Call/checkContract.sol\":836:840  true */\n      0x01\n        /* \"contracts/Call/checkContract.sol\":826:840  result == true */\n      iszero\n      iszero\n        /* \"contracts/Call/checkContract.sol\":826:832  result */\n      dup2\n        /* \"contracts/Call/checkContract.sol\":826:840  result == true */\n      iszero\n      iszero\n      eq\n        /* \"contracts/Call/checkContract.sol\":823:915  if(result == true){\r... */\n      iszero\n      tag_17\n      jumpi\n        /* \"contracts/Call/checkContract.sol\":856:864  revert() */\n      0x00\n      dup1\n      revert\n        /* \"contracts/Call/checkContract.sol\":823:915  if(result == true){\r... */\n    tag_17:\n        /* \"contracts/Call/checkContract.sol\":895:903  revert() */\n      0x00\n      dup1\n      revert\n        /* \"contracts/Call/checkContract.sol\":538:635  function sendTransfer(address payable to) public payable{\r... */\n    tag_11:\n        /* \"contracts/Call/checkContract.sol\":605:607  to */\n      dup1\n        /* \"contracts/Call/checkContract.sol\":605:616  to.transfer */\n      0xffffffffffffffffffffffffffffffffffffffff\n      and\n        /* \"contracts/Call/checkContract.sol\":605:627  to.transfer(msg.value) */\n      0x08fc\n        /* \"contracts/Call/checkContract.sol\":617:626  msg.value */\n      callvalue\n        /* \"contracts/Call/checkContract.sol\":605:627  to.transfer(msg.value) */\n      swap1\n      dup2\n      iszero\n      mul\n      swap1\n      mload(0x40)\n      0x00\n      mload(0x40)\n      dup1\n      dup4\n      sub\n      dup2\n      dup6\n      dup9\n      dup9\n      call\n      swap4\n      pop\n      pop\n      pop\n      pop\n      iszero\n      dup1\n      iszero\n      tag_21\n      jumpi\n      returndatasize\n      0x00\n      dup1\n      returndatacopy\n      revert(0x00, returndatasize)\n    tag_21:\n      pop\n        /* \"contracts/Call/checkContract.sol\":538:635  function sendTransfer(address payable to) public payable{\r... */\n      pop\n      jump\t// out\n        /* \"contracts/Call/checkContract.sol\":930:1163  function call(address payable to) public payable{\r... */\n    tag_14:\n        /* \"contracts/Call/checkContract.sol\":990:1001  bool result */\n      0x00\n        /* \"contracts/Call/checkContract.sol\":1003:1020  bytes memory data */\n      dup1\n        /* \"contracts/Call/checkContract.sol\":1024:1026  to */\n      dup3\n        /* \"contracts/Call/checkContract.sol\":1024:1031  to.call */\n      0xffffffffffffffffffffffffffffffffffffffff\n      and\n        /* \"contracts/Call/checkContract.sol\":1038:1047  msg.value */\n      callvalue\n        /* \"contracts/Call/checkContract.sol\":1024:1053  to.call{value:msg.value }(\"\") */\n      mload(0x40)\n      tag_23\n      swap1\n      tag_24\n      jump\t// in\n    tag_23:\n      0x00\n      mload(0x40)\n      dup1\n      dup4\n      sub\n      dup2\n      dup6\n      dup8\n      gas\n      call\n      swap3\n      pop\n      pop\n      pop\n      returndatasize\n      dup1\n      0x00\n      dup2\n      eq\n      tag_27\n      jumpi\n      mload(0x40)\n      swap2\n      pop\n      and(add(returndatasize, 0x3f), not(0x1f))\n      dup3\n      add\n      0x40\n      mstore\n      returndatasize\n      dup3\n      mstore\n      returndatasize\n      0x00\n      0x20\n      dup5\n      add\n      returndatacopy\n      jump(tag_26)\n    tag_27:\n      0x60\n      swap2\n      pop\n    tag_26:\n      pop\n        /* \"contracts/Call/checkContract.sol\":989:1053  (bool result, bytes memory data) = to.call{value:msg.value }(\"\") */\n      swap2\n      pop\n      swap2\n      pop\n        /* \"contracts/Call/checkContract.sol\":1077:1081  true */\n      0x01\n        /* \"contracts/Call/checkContract.sol\":1067:1081  result == true */\n      iszero\n      iszero\n        /* \"contracts/Call/checkContract.sol\":1067:1073  result */\n      dup3\n        /* \"contracts/Call/checkContract.sol\":1067:1081  result == true */\n      iszero\n      iszero\n      eq\n        /* \"contracts/Call/checkContract.sol\":1064:1156  if(result == true){\r... */\n      iszero\n      tag_28\n      jumpi\n        /* \"contracts/Call/checkContract.sol\":1097:1105  revert() */\n      0x00\n      dup1\n      revert\n        /* \"contracts/Call/checkContract.sol\":1064:1156  if(result == true){\r... */\n    tag_28:\n        /* \"contracts/Call/checkContract.sol\":1136:1144  revert() */\n      0x00\n      dup1\n      revert\n        /* \"#utility.yul\":7:162   */\n    tag_31:\n        /* \"#utility.yul\":61:66   */\n      0x00\n        /* \"#utility.yul\":99:105   */\n      dup2\n        /* \"#utility.yul\":86:106   */\n      calldataload\n        /* \"#utility.yul\":77:106   */\n      swap1\n      pop\n        /* \"#utility.yul\":115:156   */\n      tag_33\n        /* \"#utility.yul\":150:155   */\n      dup2\n        /* \"#utility.yul\":115:156   */\n      tag_34\n      jump\t// in\n    tag_33:\n        /* \"#utility.yul\":7:162   */\n      swap3\n      swap2\n      pop\n      pop\n      jump\t// out\n        /* \"#utility.yul\":168:513   */\n    tag_7:\n        /* \"#utility.yul\":235:241   */\n      0x00\n        /* \"#utility.yul\":284:286   */\n      0x20\n        /* \"#utility.yul\":272:281   */\n      dup3\n        /* \"#utility.yul\":263:270   */\n      dup5\n        /* \"#utility.yul\":259:282   */\n      sub\n        /* \"#utility.yul\":255:287   */\n      slt\n        /* \"#utility.yul\":252:371   */\n      iszero\n      tag_36\n      jumpi\n        /* \"#utility.yul\":290:369   */\n      tag_37\n      tag_38\n      jump\t// in\n    tag_37:\n        /* \"#utility.yul\":252:371   */\n    tag_36:\n        /* \"#utility.yul\":410:411   */\n      0x00\n        /* \"#utility.yul\":435:496   */\n      tag_39\n        /* \"#utility.yul\":488:495   */\n      dup5\n        /* \"#utility.yul\":479:485   */\n      dup3\n        /* \"#utility.yul\":468:477   */\n      dup6\n        /* \"#utility.yul\":464:486   */\n      add\n        /* \"#utility.yul\":435:496   */\n      tag_31\n      jump\t// in\n    tag_39:\n        /* \"#utility.yul\":425:496   */\n      swap2\n      pop\n        /* \"#utility.yul\":381:506   */\n      pop\n        /* \"#utility.yul\":168:513   */\n      swap3\n      swap2\n      pop\n      pop\n      jump\t// out\n        /* \"#utility.yul\":519:917   */\n    tag_40:\n        /* \"#utility.yul\":678:681   */\n      0x00\n        /* \"#utility.yul\":699:782   */\n      tag_42\n        /* \"#utility.yul\":780:781   */\n      0x00\n        /* \"#utility.yul\":775:778   */\n      dup4\n        /* \"#utility.yul\":699:782   */\n      tag_43\n      jump\t// in\n    tag_42:\n        /* \"#utility.yul\":692:782   */\n      swap2\n      pop\n        /* \"#utility.yul\":791:884   */\n      tag_44\n        /* \"#utility.yul\":880:883   */\n      dup3\n        /* \"#utility.yul\":791:884   */\n      tag_45\n      jump\t// in\n    tag_44:\n        /* \"#utility.yul\":909:910   */\n      0x00\n        /* \"#utility.yul\":904:907   */\n      dup3\n        /* \"#utility.yul\":900:911   */\n      add\n        /* \"#utility.yul\":893:911   */\n      swap1\n      pop\n        /* \"#utility.yul\":519:917   */\n      swap2\n      swap1\n      pop\n      jump\t// out\n        /* \"#utility.yul\":923:1302   */\n    tag_24:\n        /* \"#utility.yul\":1107:1110   */\n      0x00\n        /* \"#utility.yul\":1129:1276   */\n      tag_47\n        /* \"#utility.yul\":1272:1275   */\n      dup3\n        /* \"#utility.yul\":1129:1276   */\n      tag_40\n      jump\t// in\n    tag_47:\n        /* \"#utility.yul\":1122:1276   */\n      swap2\n      pop\n        /* \"#utility.yul\":1293:1296   */\n      dup2\n        /* \"#utility.yul\":1286:1296   */\n      swap1\n      pop\n        /* \"#utility.yul\":923:1302   */\n      swap2\n      swap1\n      pop\n      jump\t// out\n        /* \"#utility.yul\":1389:1536   */\n    tag_43:\n        /* \"#utility.yul\":1490:1501   */\n      0x00\n        /* \"#utility.yul\":1527:1530   */\n      dup2\n        /* \"#utility.yul\":1512:1530   */\n      swap1\n      pop\n        /* \"#utility.yul\":1389:1536   */\n      swap3\n      swap2\n      pop\n      pop\n      jump\t// out\n        /* \"#utility.yul\":1542:1646   */\n    tag_51:\n        /* \"#utility.yul\":1587:1594   */\n      0x00\n        /* \"#utility.yul\":1616:1640   */\n      tag_53\n        /* \"#utility.yul\":1634:1639   */\n      dup3\n        /* \"#utility.yul\":1616:1640   */\n      tag_54\n      jump\t// in\n    tag_53:\n        /* \"#utility.yul\":1605:1640   */\n      swap1\n      pop\n        /* \"#utility.yul\":1542:1646   */\n      swap2\n      swap1\n      pop\n      jump\t// out\n        /* \"#utility.yul\":1652:1778   */\n    tag_54:\n        /* \"#utility.yul\":1689:1696   */\n      0x00\n        /* \"#utility.yul\":1729:1771   */\n      0xffffffffffffffffffffffffffffffffffffffff\n        /* \"#utility.yul\":1722:1727   */\n      dup3\n        /* \"#utility.yul\":1718:1772   */\n      and\n        /* \"#utility.yul\":1707:1772   */\n      swap1\n      pop\n        /* \"#utility.yul\":1652:1778   */\n      swap2\n      swap1\n      pop\n      jump\t// out\n        /* \"#utility.yul\":1907:2024   */\n    tag_38:\n        /* \"#utility.yul\":2016:2017   */\n      0x00\n        /* \"#utility.yul\":2013:2014   */\n      dup1\n        /* \"#utility.yul\":2006:2018   */\n      revert\n        /* \"#utility.yul\":2030:2144   */\n    tag_45:\n      pop\n      jump\t// out\n        /* \"#utility.yul\":2150:2288   */\n    tag_34:\n        /* \"#utility.yul\":2231:2263   */\n      tag_61\n        /* \"#utility.yul\":2257:2262   */\n      dup2\n        /* \"#utility.yul\":2231:2263   */\n      tag_51\n      jump\t// in\n    tag_61:\n        /* \"#utility.yul\":2224:2229   */\n      dup2\n        /* \"#utility.yul\":2221:2264   */\n      eq\n        /* \"#utility.yul\":2211:2282   */\n      tag_62\n      jumpi\n        /* \"#utility.yul\":2278:2279   */\n      0x00\n        /* \"#utility.yul\":2275:2276   */\n      dup1\n        /* \"#utility.yul\":2268:2280   */\n      revert\n        /* \"#utility.yul\":2211:2282   */\n    tag_62:\n        /* \"#utility.yul\":2150:2288   */\n      pop\n      jump\t// out\n\n    auxdata: 0xa264697066735822122085b105aaa11735c5fa2c55c6ed9996129c0cf00fab96d3f0e15a88687d0726ef64736f6c63430008070033\n}\n",
				"bytecode": {
					"linkReferences": {},
					"object": "608060405234801561001057600080fd5b506102b8806100206000396000f3fe6080604052600436106100345760003560e01c80633a0216eb14610039578063b41932c214610055578063f55332ab14610071575b600080fd5b610053600480360381019061004e91906101c1565b61008d565b005b61006f600480360381019061006a91906101c1565b6100dd565b005b61008b600480360381019061008691906101c1565b610127565b005b60008173ffffffffffffffffffffffffffffffffffffffff166108fc349081150290604051600060405180830381858888f1935050505090506001151581151514156100d857600080fd5b600080fd5b8073ffffffffffffffffffffffffffffffffffffffff166108fc349081150290604051600060405180830381858888f19350505050158015610123573d6000803e3d6000fd5b5050565b6000808273ffffffffffffffffffffffffffffffffffffffff163460405161014e90610211565b60006040518083038185875af1925050503d806000811461018b576040519150601f19603f3d011682016040523d82523d6000602084013e610190565b606091505b50915091506001151582151514156101a757600080fd5b600080fd5b6000813590506101bb8161026b565b92915050565b6000602082840312156101d7576101d6610263565b5b60006101e5848285016101ac565b91505092915050565b60006101fb600083610226565b915061020682610268565b600082019050919050565b600061021c826101ee565b9150819050919050565b600081905092915050565b600061023c82610243565b9050919050565b600073ffffffffffffffffffffffffffffffffffffffff82169050919050565b600080fd5b50565b61027481610231565b811461027f57600080fd5b5056fea264697066735822122085b105aaa11735c5fa2c55c6ed9996129c0cf00fab96d3f0e15a88687d0726ef64736f6c63430008070033",
					"opcodes": "PUSH1 0x80 PUSH1 0x40 MSTORE CALLVALUE DUP1 ISZERO PUSH2 0x10 JUMPI PUSH1 0x0 DUP1 REVERT JUMPDEST POP PUSH2 0x2B8 DUP1 PUSH2 0x20 PUSH1 0x0 CODECOPY PUSH1 0x0 RETURN INVALID PUSH1 0x80 PUSH1 0x40 MSTORE PUSH1 0x4 CALLDATASIZE LT PUSH2 0x34 JUMPI PUSH1 0x0 CALLDATALOAD PUSH1 0xE0 SHR DUP1 PUSH4 0x3A0216EB EQ PUSH2 0x39 JUMPI DUP1 PUSH4 0xB41932C2 EQ PUSH2 0x55 JUMPI DUP1 PUSH4 0xF55332AB EQ PUSH2 0x71 JUMPI JUMPDEST PUSH1 0x0 DUP1 REVERT JUMPDEST PUSH2 0x53 PUSH1 0x4 DUP1 CALLDATASIZE SUB DUP2 ADD SWAP1 PUSH2 0x4E SWAP2 SWAP1 PUSH2 0x1C1 JUMP JUMPDEST PUSH2 0x8D JUMP JUMPDEST STOP JUMPDEST PUSH2 0x6F PUSH1 0x4 DUP1 CALLDATASIZE SUB DUP2 ADD SWAP1 PUSH2 0x6A SWAP2 SWAP1 PUSH2 0x1C1 JUMP JUMPDEST PUSH2 0xDD JUMP JUMPDEST STOP JUMPDEST PUSH2 0x8B PUSH1 0x4 DUP1 CALLDATASIZE SUB DUP2 ADD SWAP1 PUSH2 0x86 SWAP2 SWAP1 PUSH2 0x1C1 JUMP JUMPDEST PUSH2 0x127 JUMP JUMPDEST STOP JUMPDEST PUSH1 0x0 DUP2 PUSH20 0xFFFFFFFFFFFFFFFFFFFFFFFFFFFFFFFFFFFFFFFF AND PUSH2 0x8FC CALLVALUE SWAP1 DUP2 ISZERO MUL SWAP1 PUSH1 0x40 MLOAD PUSH1 0x0 PUSH1 0x40 MLOAD DUP1 DUP4 SUB DUP2 DUP6 DUP9 DUP9 CALL SWAP4 POP POP POP POP SWAP1 POP PUSH1 0x1 ISZERO ISZERO DUP2 ISZERO ISZERO EQ ISZERO PUSH2 0xD8 JUMPI PUSH1 0x0 DUP1 REVERT JUMPDEST PUSH1 0x0 DUP1 REVERT JUMPDEST DUP1 PUSH20 0xFFFFFFFFFFFFFFFFFFFFFFFFFFFFFFFFFFFFFFFF AND PUSH2 0x8FC CALLVALUE SWAP1 DUP2 ISZERO MUL SWAP1 PUSH1 0x40 MLOAD PUSH1 0x0 PUSH1 0x40 MLOAD DUP1 DUP4 SUB DUP2 DUP6 DUP9 DUP9 CALL SWAP4 POP POP POP POP ISZERO DUP1 ISZERO PUSH2 0x123 JUMPI RETURNDATASIZE PUSH1 0x0 DUP1 RETURNDATACOPY RETURNDATASIZE PUSH1 0x0 REVERT JUMPDEST POP POP JUMP JUMPDEST PUSH1 0x0 DUP1 DUP3 PUSH20 0xFFFFFFFFFFFFFFFFFFFFFFFFFFFFFFFFFFFFFFFF AND CALLVALUE PUSH1 0x40 MLOAD PUSH2 0x14E SWAP1 PUSH2 0x211 JUMP JUMPDEST PUSH1 0x0 PUSH1 0x40 MLOAD DUP1 DUP4 SUB DUP2 DUP6 DUP8 GAS CALL SWAP3 POP POP POP RETURNDATASIZE DUP1 PUSH1 0x0 DUP2 EQ PUSH2 0x18B JUMPI PUSH1 0x40 MLOAD SWAP2 POP PUSH1 0x1F NOT PUSH1 0x3F RETURNDATASIZE ADD AND DUP3 ADD PUSH1 0x40 MSTORE RETURNDATASIZE DUP3 MSTORE RETURNDATASIZE PUSH1 0x0 PUSH1 0x20 DUP5 ADD RETURNDATACOPY PUSH2 0x190 JUMP JUMPDEST PUSH1 0x60 SWAP2 POP JUMPDEST POP SWAP2 POP SWAP2 POP PUSH1 0x1 ISZERO ISZERO DUP3 ISZERO ISZERO EQ ISZERO PUSH2 0x1A7 JUMPI PUSH1 0x0 DUP1 REVERT JUMPDEST PUSH1 0x0 DUP1 REVERT JUMPDEST PUSH1 0x0 DUP2 CALLDATALOAD SWAP1 POP PUSH2 0x1BB DUP2 PUSH2 0x26B JUMP JUMPDEST SWAP3 SWAP2 POP POP JUMP JUMPDEST PUSH1 0x0 PUSH1 0x20 DUP3 DUP5 SUB SLT ISZERO PUSH2 0x1D7 JUMPI PUSH2 0x1D6 PUSH2 0x263 JUMP JUMPDEST JUMPDEST PUSH1 0x0 PUSH2 0x1E5 DUP5 DUP3 DUP6 ADD PUSH2 0x1AC JUMP JUMPDEST SWAP2 POP POP SWAP3 SWAP2 POP POP JUMP JUMPDEST PUSH1 0x0 PUSH2 0x1FB PUSH1 0x0 DUP4 PUSH2 0x226 JUMP JUMPDEST SWAP2 POP PUSH2 0x206 DUP3 PUSH2 0x268 JUMP JUMPDEST PUSH1 0x0 DUP3 ADD SWAP1 POP SWAP2 SWAP1 POP JUMP JUMPDEST PUSH1 0x0 PUSH2 0x21C DUP3 PUSH2 0x1EE JUMP JUMPDEST SWAP2 POP DUP2 SWAP1 POP SWAP2 SWAP1 POP JUMP JUMPDEST PUSH1 0x0 DUP2 SWAP1 POP SWAP3 SWAP2 POP POP JUMP JUMPDEST PUSH1 0x0 PUSH2 0x23C DUP3 PUSH2 0x243 JUMP JUMPDEST SWAP1 POP SWAP2 SWAP1 POP JUMP JUMPDEST PUSH1 0x0 PUSH20 0xFFFFFFFFFFFFFFFFFFFFFFFFFFFFFFFFFFFFFFFF DUP3 AND SWAP1 POP SWAP2 SWAP1 POP JUMP JUMPDEST PUSH1 0x0 DUP1 REVERT JUMPDEST POP JUMP JUMPDEST PUSH2 0x274 DUP2 PUSH2 0x231 JUMP JUMPDEST DUP2 EQ PUSH2 0x27F JUMPI PUSH1 0x0 DUP1 REVERT JUMPDEST POP JUMP INVALID LOG2 PUSH5 0x6970667358 0x22 SLT KECCAK256 DUP6 0xB1 SDIV 0xAA LOG1 OR CALLDATALOAD 0xC5 STATICCALL 0x2C SSTORE 0xC6 0xED SWAP10 SWAP7 SLT SWAP13 0xC CREATE 0xF 0xAB SWAP7 0xD3 CREATE 0xE1 GAS DUP9 PUSH9 0x7D0726EF64736F6C63 NUMBER STOP ADDMOD SMOD STOP CALLER "
				},
				"gasEstimates": {
					"creation": {
						"codeDepositCost": "139200",
						"executionCost": "183",
						"totalCost": "139383"
					},
					"external": {
						"call(address)": "infinite",
						"sendSend(address)": "infinite",
						"sendTransfer(address)": "infinite"
					},
					"internal": {
						"isContract(address)": "infinite"
					}
				},
				"methodIdentifiers": {
					"call(address)": "f55332ab",
					"sendSend(address)": "3a0216eb",
					"sendTransfer(address)": "b41932c2"
				}
			},
			"storageLayout": {
				"storage": [],
				"types": null
			},
			"userdoc": {
				"kind": "user",
				"methods": {},
				"version": 1
			}
		}
	}
}