{
	"contracts/Call/call.sol": {
		"caller": {
			"abi": [
				{
					"inputs": [
						{
							"internalType": "address payable",
							"name": "_address",
							"type": "address"
						},
						{
							"internalType": "uint256",
							"name": "_a",
							"type": "uint256"
						},
						{
							"internalType": "uint256",
							"name": "_b",
							"type": "uint256"
						}
					],
					"name": "callFunc",
					"outputs": [
						{
							"internalType": "bytes",
							"name": "",
							"type": "bytes"
						}
					],
					"stateMutability": "nonpayable",
					"type": "function"
				}
			],
			"devdoc": {
				"kind": "dev",
				"methods": {},
				"version": 1
			},
			"evm": {
				"assembly": "    /* \"contracts/Call/call.sol\":226:670  contract caller{\r... */\n  mstore(0x40, 0x80)\n  callvalue\n  dup1\n  iszero\n  tag_1\n  jumpi\n  0x00\n  dup1\n  revert\ntag_1:\n  pop\n  dataSize(sub_0)\n  dup1\n  dataOffset(sub_0)\n  0x00\n  codecopy\n  0x00\n  return\nstop\n\nsub_0: assembly {\n        /* \"contracts/Call/call.sol\":226:670  contract caller{\r... */\n      mstore(0x40, 0x80)\n      callvalue\n      dup1\n      iszero\n      tag_1\n      jumpi\n      0x00\n      dup1\n      revert\n    tag_1:\n      pop\n      jumpi(tag_2, lt(calldatasize, 0x04))\n      shr(0xe0, calldataload(0x00))\n      dup1\n      0xa72d2473\n      eq\n      tag_3\n      jumpi\n    tag_2:\n      0x00\n      dup1\n      revert\n        /* \"contracts/Call/call.sol\":471:667  function callFunc(address payable _address, uint _a, uint _b) public returns(bytes memory){\r... */\n    tag_3:\n      tag_4\n      0x04\n      dup1\n      calldatasize\n      sub\n      dup2\n      add\n      swap1\n      tag_5\n      swap2\n      swap1\n      tag_6\n      jump\t// in\n    tag_5:\n      tag_7\n      jump\t// in\n    tag_4:\n      mload(0x40)\n      tag_8\n      swap2\n      swap1\n      tag_9\n      jump\t// in\n    tag_8:\n      mload(0x40)\n      dup1\n      swap2\n      sub\n      swap1\n      return\n    tag_7:\n        /* \"contracts/Call/call.sol\":548:560  bytes memory */\n      0x60\n        /* \"contracts/Call/call.sol\":572:598  bytes memory callFuncBytes */\n      0x00\n        /* \"contracts/Call/call.sol\":653:655  _a */\n      dup4\n        /* \"contracts/Call/call.sol\":656:658  _b */\n      dup4\n        /* \"contracts/Call/call.sol\":601:659  abi.encodeWithSignature(\"plusData(uint256,uint256)\",_a,_b) */\n      add(0x24, mload(0x40))\n      tag_11\n      swap3\n      swap2\n      swap1\n      tag_12\n      jump\t// in\n    tag_11:\n      mload(0x40)\n      0x20\n      dup2\n      dup4\n      sub\n      sub\n      dup2\n      mstore\n      swap1\n      0x40\n      mstore\n      and(not(0xffffffffffffffffffffffffffffffffffffffffffffffffffffffff), 0x69280dd100000000000000000000000000000000000000000000000000000000)\n      0x20\n      dup3\n      add\n      dup1\n      mload\n      0xffffffffffffffffffffffffffffffffffffffffffffffffffffffff\n      dup4\n      dup2\n      dup4\n      and\n      or\n      dup4\n      mstore\n      pop\n      pop\n      pop\n      pop\n        /* \"contracts/Call/call.sol\":572:659  bytes memory callFuncBytes = abi.encodeWithSignature(\"plusData(uint256,uint256)\",_a,_b) */\n      swap1\n      pop\n        /* \"contracts/Call/call.sol\":561:667  {\r... */\n      pop\n        /* \"contracts/Call/call.sol\":471:667  function callFunc(address payable _address, uint _a, uint _b) public returns(bytes memory){\r... */\n      swap4\n      swap3\n      pop\n      pop\n      pop\n      jump\t// out\n        /* \"#utility.yul\":7:162   */\n    tag_14:\n        /* \"#utility.yul\":61:66   */\n      0x00\n        /* \"#utility.yul\":99:105   */\n      dup2\n        /* \"#utility.yul\":86:106   */\n      calldataload\n        /* \"#utility.yul\":77:106   */\n      swap1\n      pop\n        /* \"#utility.yul\":115:156   */\n      tag_16\n        /* \"#utility.yul\":150:155   */\n      dup2\n        /* \"#utility.yul\":115:156   */\n      tag_17\n      jump\t// in\n    tag_16:\n        /* \"#utility.yul\":7:162   */\n      swap3\n      swap2\n      pop\n      pop\n      jump\t// out\n        /* \"#utility.yul\":168:307   */\n    tag_18:\n        /* \"#utility.yul\":214:219   */\n      0x00\n        /* \"#utility.yul\":252:258   */\n      dup2\n        /* \"#utility.yul\":239:259   */\n      calldataload\n        /* \"#utility.yul\":230:259   */\n      swap1\n      pop\n        /* \"#utility.yul\":268:301   */\n      tag_20\n        /* \"#utility.yul\":295:300   */\n      dup2\n        /* \"#utility.yul\":268:301   */\n      tag_21\n      jump\t// in\n    tag_20:\n        /* \"#utility.yul\":168:307   */\n      swap3\n      swap2\n      pop\n      pop\n      jump\t// out\n        /* \"#utility.yul\":313:948   */\n    tag_6:\n        /* \"#utility.yul\":398:404   */\n      0x00\n        /* \"#utility.yul\":406:412   */\n      dup1\n        /* \"#utility.yul\":414:420   */\n      0x00\n        /* \"#utility.yul\":463:465   */\n      0x60\n        /* \"#utility.yul\":451:460   */\n      dup5\n        /* \"#utility.yul\":442:449   */\n      dup7\n        /* \"#utility.yul\":438:461   */\n      sub\n        /* \"#utility.yul\":434:466   */\n      slt\n        /* \"#utility.yul\":431:550   */\n      iszero\n      tag_23\n      jumpi\n        /* \"#utility.yul\":469:548   */\n      tag_24\n      tag_25\n      jump\t// in\n    tag_24:\n        /* \"#utility.yul\":431:550   */\n    tag_23:\n        /* \"#utility.yul\":589:590   */\n      0x00\n        /* \"#utility.yul\":614:675   */\n      tag_26\n        /* \"#utility.yul\":667:674   */\n      dup7\n        /* \"#utility.yul\":658:664   */\n      dup3\n        /* \"#utility.yul\":647:656   */\n      dup8\n        /* \"#utility.yul\":643:665   */\n      add\n        /* \"#utility.yul\":614:675   */\n      tag_14\n      jump\t// in\n    tag_26:\n        /* \"#utility.yul\":604:675   */\n      swap4\n      pop\n        /* \"#utility.yul\":560:685   */\n      pop\n        /* \"#utility.yul\":724:726   */\n      0x20\n        /* \"#utility.yul\":750:803   */\n      tag_27\n        /* \"#utility.yul\":795:802   */\n      dup7\n        /* \"#utility.yul\":786:792   */\n      dup3\n        /* \"#utility.yul\":775:784   */\n      dup8\n        /* \"#utility.yul\":771:793   */\n      add\n        /* \"#utility.yul\":750:803   */\n      tag_18\n      jump\t// in\n    tag_27:\n        /* \"#utility.yul\":740:803   */\n      swap3\n      pop\n        /* \"#utility.yul\":695:813   */\n      pop\n        /* \"#utility.yul\":852:854   */\n      0x40\n        /* \"#utility.yul\":878:931   */\n      tag_28\n        /* \"#utility.yul\":923:930   */\n      dup7\n        /* \"#utility.yul\":914:920   */\n      dup3\n        /* \"#utility.yul\":903:912   */\n      dup8\n        /* \"#utility.yul\":899:921   */\n      add\n        /* \"#utility.yul\":878:931   */\n      tag_18\n      jump\t// in\n    tag_28:\n        /* \"#utility.yul\":868:931   */\n      swap2\n      pop\n        /* \"#utility.yul\":823:941   */\n      pop\n        /* \"#utility.yul\":313:948   */\n      swap3\n      pop\n      swap3\n      pop\n      swap3\n      jump\t// out\n        /* \"#utility.yul\":954:1314   */\n    tag_29:\n        /* \"#utility.yul\":1040:1043   */\n      0x00\n        /* \"#utility.yul\":1068:1106   */\n      tag_31\n        /* \"#utility.yul\":1100:1105   */\n      dup3\n        /* \"#utility.yul\":1068:1106   */\n      tag_32\n      jump\t// in\n    tag_31:\n        /* \"#utility.yul\":1122:1192   */\n      tag_33\n        /* \"#utility.yul\":1185:1191   */\n      dup2\n        /* \"#utility.yul\":1180:1183   */\n      dup6\n        /* \"#utility.yul\":1122:1192   */\n      tag_34\n      jump\t// in\n    tag_33:\n        /* \"#utility.yul\":1115:1192   */\n      swap4\n      pop\n        /* \"#utility.yul\":1201:1253   */\n      tag_35\n        /* \"#utility.yul\":1246:1252   */\n      dup2\n        /* \"#utility.yul\":1241:1244   */\n      dup6\n        /* \"#utility.yul\":1234:1238   */\n      0x20\n        /* \"#utility.yul\":1227:1232   */\n      dup7\n        /* \"#utility.yul\":1223:1239   */\n      add\n        /* \"#utility.yul\":1201:1253   */\n      tag_36\n      jump\t// in\n    tag_35:\n        /* \"#utility.yul\":1278:1307   */\n      tag_37\n        /* \"#utility.yul\":1300:1306   */\n      dup2\n        /* \"#utility.yul\":1278:1307   */\n      tag_38\n      jump\t// in\n    tag_37:\n        /* \"#utility.yul\":1273:1276   */\n      dup5\n        /* \"#utility.yul\":1269:1308   */\n      add\n        /* \"#utility.yul\":1262:1308   */\n      swap2\n      pop\n        /* \"#utility.yul\":1044:1314   */\n      pop\n        /* \"#utility.yul\":954:1314   */\n      swap3\n      swap2\n      pop\n      pop\n      jump\t// out\n        /* \"#utility.yul\":1320:1438   */\n    tag_39:\n        /* \"#utility.yul\":1407:1431   */\n      tag_41\n        /* \"#utility.yul\":1425:1430   */\n      dup2\n        /* \"#utility.yul\":1407:1431   */\n      tag_42\n      jump\t// in\n    tag_41:\n        /* \"#utility.yul\":1402:1405   */\n      dup3\n        /* \"#utility.yul\":1395:1432   */\n      mstore\n        /* \"#utility.yul\":1320:1438   */\n      pop\n      pop\n      jump\t// out\n        /* \"#utility.yul\":1444:1753   */\n    tag_9:\n        /* \"#utility.yul\":1555:1559   */\n      0x00\n        /* \"#utility.yul\":1593:1595   */\n      0x20\n        /* \"#utility.yul\":1582:1591   */\n      dup3\n        /* \"#utility.yul\":1578:1596   */\n      add\n        /* \"#utility.yul\":1570:1596   */\n      swap1\n      pop\n        /* \"#utility.yul\":1642:1651   */\n      dup2\n        /* \"#utility.yul\":1636:1640   */\n      dup2\n        /* \"#utility.yul\":1632:1652   */\n      sub\n        /* \"#utility.yul\":1628:1629   */\n      0x00\n        /* \"#utility.yul\":1617:1626   */\n      dup4\n        /* \"#utility.yul\":1613:1630   */\n      add\n        /* \"#utility.yul\":1606:1653   */\n      mstore\n        /* \"#utility.yul\":1670:1746   */\n      tag_44\n        /* \"#utility.yul\":1741:1745   */\n      dup2\n        /* \"#utility.yul\":1732:1738   */\n      dup5\n        /* \"#utility.yul\":1670:1746   */\n      tag_29\n      jump\t// in\n    tag_44:\n        /* \"#utility.yul\":1662:1746   */\n      swap1\n      pop\n        /* \"#utility.yul\":1444:1753   */\n      swap3\n      swap2\n      pop\n      pop\n      jump\t// out\n        /* \"#utility.yul\":1759:2091   */\n    tag_12:\n        /* \"#utility.yul\":1880:1884   */\n      0x00\n        /* \"#utility.yul\":1918:1920   */\n      0x40\n        /* \"#utility.yul\":1907:1916   */\n      dup3\n        /* \"#utility.yul\":1903:1921   */\n      add\n        /* \"#utility.yul\":1895:1921   */\n      swap1\n      pop\n        /* \"#utility.yul\":1931:2002   */\n      tag_46\n        /* \"#utility.yul\":1999:2000   */\n      0x00\n        /* \"#utility.yul\":1988:1997   */\n      dup4\n        /* \"#utility.yul\":1984:2001   */\n      add\n        /* \"#utility.yul\":1975:1981   */\n      dup6\n        /* \"#utility.yul\":1931:2002   */\n      tag_39\n      jump\t// in\n    tag_46:\n        /* \"#utility.yul\":2012:2084   */\n      tag_47\n        /* \"#utility.yul\":2080:2082   */\n      0x20\n        /* \"#utility.yul\":2069:2078   */\n      dup4\n        /* \"#utility.yul\":2065:2083   */\n      add\n        /* \"#utility.yul\":2056:2062   */\n      dup5\n        /* \"#utility.yul\":2012:2084   */\n      tag_39\n      jump\t// in\n    tag_47:\n        /* \"#utility.yul\":1759:2091   */\n      swap4\n      swap3\n      pop\n      pop\n      pop\n      jump\t// out\n        /* \"#utility.yul\":2178:2276   */\n    tag_32:\n        /* \"#utility.yul\":2229:2235   */\n      0x00\n        /* \"#utility.yul\":2263:2268   */\n      dup2\n        /* \"#utility.yul\":2257:2269   */\n      mload\n        /* \"#utility.yul\":2247:2269   */\n      swap1\n      pop\n        /* \"#utility.yul\":2178:2276   */\n      swap2\n      swap1\n      pop\n      jump\t// out\n        /* \"#utility.yul\":2282:2450   */\n    tag_34:\n        /* \"#utility.yul\":2365:2376   */\n      0x00\n        /* \"#utility.yul\":2399:2405   */\n      dup3\n        /* \"#utility.yul\":2394:2397   */\n      dup3\n        /* \"#utility.yul\":2387:2406   */\n      mstore\n        /* \"#utility.yul\":2439:2443   */\n      0x20\n        /* \"#utility.yul\":2434:2437   */\n      dup3\n        /* \"#utility.yul\":2430:2444   */\n      add\n        /* \"#utility.yul\":2415:2444   */\n      swap1\n      pop\n        /* \"#utility.yul\":2282:2450   */\n      swap3\n      swap2\n      pop\n      pop\n      jump\t// out\n        /* \"#utility.yul\":2456:2560   */\n    tag_52:\n        /* \"#utility.yul\":2501:2508   */\n      0x00\n        /* \"#utility.yul\":2530:2554   */\n      tag_54\n        /* \"#utility.yul\":2548:2553   */\n      dup3\n        /* \"#utility.yul\":2530:2554   */\n      tag_55\n      jump\t// in\n    tag_54:\n        /* \"#utility.yul\":2519:2554   */\n      swap1\n      pop\n        /* \"#utility.yul\":2456:2560   */\n      swap2\n      swap1\n      pop\n      jump\t// out\n        /* \"#utility.yul\":2566:2692   */\n    tag_55:\n        /* \"#utility.yul\":2603:2610   */\n      0x00\n        /* \"#utility.yul\":2643:2685   */\n      0xffffffffffffffffffffffffffffffffffffffff\n        /* \"#utility.yul\":2636:2641   */\n      dup3\n        /* \"#utility.yul\":2632:2686   */\n      and\n        /* \"#utility.yul\":2621:2686   */\n      swap1\n      pop\n        /* \"#utility.yul\":2566:2692   */\n      swap2\n      swap1\n      pop\n      jump\t// out\n        /* \"#utility.yul\":2698:2775   */\n    tag_42:\n        /* \"#utility.yul\":2735:2742   */\n      0x00\n        /* \"#utility.yul\":2764:2769   */\n      dup2\n        /* \"#utility.yul\":2753:2769   */\n      swap1\n      pop\n        /* \"#utility.yul\":2698:2775   */\n      swap2\n      swap1\n      pop\n      jump\t// out\n        /* \"#utility.yul\":2781:3088   */\n    tag_36:\n        /* \"#utility.yul\":2849:2850   */\n      0x00\n        /* \"#utility.yul\":2859:2972   */\n    tag_59:\n        /* \"#utility.yul\":2873:2879   */\n      dup4\n        /* \"#utility.yul\":2870:2871   */\n      dup2\n        /* \"#utility.yul\":2867:2880   */\n      lt\n        /* \"#utility.yul\":2859:2972   */\n      iszero\n      tag_61\n      jumpi\n        /* \"#utility.yul\":2958:2959   */\n      dup1\n        /* \"#utility.yul\":2953:2956   */\n      dup3\n        /* \"#utility.yul\":2949:2960   */\n      add\n        /* \"#utility.yul\":2943:2961   */\n      mload\n        /* \"#utility.yul\":2939:2940   */\n      dup2\n        /* \"#utility.yul\":2934:2937   */\n      dup5\n        /* \"#utility.yul\":2930:2941   */\n      add\n        /* \"#utility.yul\":2923:2962   */\n      mstore\n        /* \"#utility.yul\":2895:2897   */\n      0x20\n        /* \"#utility.yul\":2892:2893   */\n      dup2\n        /* \"#utility.yul\":2888:2898   */\n      add\n        /* \"#utility.yul\":2883:2898   */\n      swap1\n      pop\n        /* \"#utility.yul\":2859:2972   */\n      jump(tag_59)\n    tag_61:\n        /* \"#utility.yul\":2990:2996   */\n      dup4\n        /* \"#utility.yul\":2987:2988   */\n      dup2\n        /* \"#utility.yul\":2984:2997   */\n      gt\n        /* \"#utility.yul\":2981:3082   */\n      iszero\n      tag_62\n      jumpi\n        /* \"#utility.yul\":3070:3071   */\n      0x00\n        /* \"#utility.yul\":3061:3067   */\n      dup5\n        /* \"#utility.yul\":3056:3059   */\n      dup5\n        /* \"#utility.yul\":3052:3068   */\n      add\n        /* \"#utility.yul\":3045:3072   */\n      mstore\n        /* \"#utility.yul\":2981:3082   */\n    tag_62:\n        /* \"#utility.yul\":2830:3088   */\n      pop\n        /* \"#utility.yul\":2781:3088   */\n      pop\n      pop\n      pop\n      jump\t// out\n        /* \"#utility.yul\":3217:3334   */\n    tag_25:\n        /* \"#utility.yul\":3326:3327   */\n      0x00\n        /* \"#utility.yul\":3323:3324   */\n      dup1\n        /* \"#utility.yul\":3316:3328   */\n      revert\n        /* \"#utility.yul\":3340:3442   */\n    tag_38:\n        /* \"#utility.yul\":3381:3387   */\n      0x00\n        /* \"#utility.yul\":3432:3434   */\n      0x1f\n        /* \"#utility.yul\":3428:3435   */\n      not\n        /* \"#utility.yul\":3423:3425   */\n      0x1f\n        /* \"#utility.yul\":3416:3421   */\n      dup4\n        /* \"#utility.yul\":3412:3426   */\n      add\n        /* \"#utility.yul\":3408:3436   */\n      and\n        /* \"#utility.yul\":3398:3436   */\n      swap1\n      pop\n        /* \"#utility.yul\":3340:3442   */\n      swap2\n      swap1\n      pop\n      jump\t// out\n        /* \"#utility.yul\":3448:3586   */\n    tag_17:\n        /* \"#utility.yul\":3529:3561   */\n      tag_68\n        /* \"#utility.yul\":3555:3560   */\n      dup2\n        /* \"#utility.yul\":3529:3561   */\n      tag_52\n      jump\t// in\n    tag_68:\n        /* \"#utility.yul\":3522:3527   */\n      dup2\n        /* \"#utility.yul\":3519:3562   */\n      eq\n        /* \"#utility.yul\":3509:3580   */\n      tag_69\n      jumpi\n        /* \"#utility.yul\":3576:3577   */\n      0x00\n        /* \"#utility.yul\":3573:3574   */\n      dup1\n        /* \"#utility.yul\":3566:3578   */\n      revert\n        /* \"#utility.yul\":3509:3580   */\n    tag_69:\n        /* \"#utility.yul\":3448:3586   */\n      pop\n      jump\t// out\n        /* \"#utility.yul\":3592:3714   */\n    tag_21:\n        /* \"#utility.yul\":3665:3689   */\n      tag_71\n        /* \"#utility.yul\":3683:3688   */\n      dup2\n        /* \"#utility.yul\":3665:3689   */\n      tag_42\n      jump\t// in\n    tag_71:\n        /* \"#utility.yul\":3658:3663   */\n      dup2\n        /* \"#utility.yul\":3655:3690   */\n      eq\n        /* \"#utility.yul\":3645:3708   */\n      tag_72\n      jumpi\n        /* \"#utility.yul\":3704:3705   */\n      0x00\n        /* \"#utility.yul\":3701:3702   */\n      dup1\n        /* \"#utility.yul\":3694:3706   */\n      revert\n        /* \"#utility.yul\":3645:3708   */\n    tag_72:\n        /* \"#utility.yul\":3592:3714   */\n      pop\n      jump\t// out\n\n    auxdata: 0xa26469706673582212209619e4370984e3483af8e552dd5d2e23debbbc6ddde4da44f4462bb2339c7a7e64736f6c63430008070033\n}\n",
				"bytecode": {
					"linkReferences": {},
					"object": "608060405234801561001057600080fd5b50610313806100206000396000f3fe608060405234801561001057600080fd5b506004361061002b5760003560e01c8063a72d247314610030575b600080fd5b61004a60048036038101906100459190610128565b610060565b60405161005791906101c3565b60405180910390f35b6060600083836040516024016100779291906101e5565b6040516020818303038152906040527f69280dd1000000000000000000000000000000000000000000000000000000007bffffffffffffffffffffffffffffffffffffffffffffffffffffffff19166020820180517bffffffffffffffffffffffffffffffffffffffffffffffffffffffff83818316178352505050509050509392505050565b60008135905061010d816102af565b92915050565b600081359050610122816102c6565b92915050565b60008060006060848603121561014157610140610299565b5b600061014f868287016100fe565b935050602061016086828701610113565b925050604061017186828701610113565b9150509250925092565b60006101868261020e565b6101908185610219565b93506101a0818560208601610266565b6101a98161029e565b840191505092915050565b6101bd8161025c565b82525050565b600060208201905081810360008301526101dd818461017b565b905092915050565b60006040820190506101fa60008301856101b4565b61020760208301846101b4565b9392505050565b600081519050919050565b600082825260208201905092915050565b60006102358261023c565b9050919050565b600073ffffffffffffffffffffffffffffffffffffffff82169050919050565b6000819050919050565b60005b83811015610284578082015181840152602081019050610269565b83811115610293576000848401525b50505050565b600080fd5b6000601f19601f8301169050919050565b6102b88161022a565b81146102c357600080fd5b50565b6102cf8161025c565b81146102da57600080fd5b5056fea26469706673582212209619e4370984e3483af8e552dd5d2e23debbbc6ddde4da44f4462bb2339c7a7e64736f6c63430008070033",
					"opcodes": "PUSH1 0x80 PUSH1 0x40 MSTORE CALLVALUE DUP1 ISZERO PUSH2 0x10 JUMPI PUSH1 0x0 DUP1 REVERT JUMPDEST POP PUSH2 0x313 DUP1 PUSH2 0x20 PUSH1 0x0 CODECOPY PUSH1 0x0 RETURN INVALID PUSH1 0x80 PUSH1 0x40 MSTORE CALLVALUE DUP1 ISZERO PUSH2 0x10 JUMPI PUSH1 0x0 DUP1 REVERT JUMPDEST POP PUSH1 0x4 CALLDATASIZE LT PUSH2 0x2B JUMPI PUSH1 0x0 CALLDATALOAD PUSH1 0xE0 SHR DUP1 PUSH4 0xA72D2473 EQ PUSH2 0x30 JUMPI JUMPDEST PUSH1 0x0 DUP1 REVERT JUMPDEST PUSH2 0x4A PUSH1 0x4 DUP1 CALLDATASIZE SUB DUP2 ADD SWAP1 PUSH2 0x45 SWAP2 SWAP1 PUSH2 0x128 JUMP JUMPDEST PUSH2 0x60 JUMP JUMPDEST PUSH1 0x40 MLOAD PUSH2 0x57 SWAP2 SWAP1 PUSH2 0x1C3 JUMP JUMPDEST PUSH1 0x40 MLOAD DUP1 SWAP2 SUB SWAP1 RETURN JUMPDEST PUSH1 0x60 PUSH1 0x0 DUP4 DUP4 PUSH1 0x40 MLOAD PUSH1 0x24 ADD PUSH2 0x77 SWAP3 SWAP2 SWAP1 PUSH2 0x1E5 JUMP JUMPDEST PUSH1 0x40 MLOAD PUSH1 0x20 DUP2 DUP4 SUB SUB DUP2 MSTORE SWAP1 PUSH1 0x40 MSTORE PUSH32 0x69280DD100000000000000000000000000000000000000000000000000000000 PUSH28 0xFFFFFFFFFFFFFFFFFFFFFFFFFFFFFFFFFFFFFFFFFFFFFFFFFFFFFFFF NOT AND PUSH1 0x20 DUP3 ADD DUP1 MLOAD PUSH28 0xFFFFFFFFFFFFFFFFFFFFFFFFFFFFFFFFFFFFFFFFFFFFFFFFFFFFFFFF DUP4 DUP2 DUP4 AND OR DUP4 MSTORE POP POP POP POP SWAP1 POP POP SWAP4 SWAP3 POP POP POP JUMP JUMPDEST PUSH1 0x0 DUP2 CALLDATALOAD SWAP1 POP PUSH2 0x10D DUP2 PUSH2 0x2AF JUMP JUMPDEST SWAP3 SWAP2 POP POP JUMP JUMPDEST PUSH1 0x0 DUP2 CALLDATALOAD SWAP1 POP PUSH2 0x122 DUP2 PUSH2 0x2C6 JUMP JUMPDEST SWAP3 SWAP2 POP POP JUMP JUMPDEST PUSH1 0x0 DUP1 PUSH1 0x0 PUSH1 0x60 DUP5 DUP7 SUB SLT ISZERO PUSH2 0x141 JUMPI PUSH2 0x140 PUSH2 0x299 JUMP JUMPDEST JUMPDEST PUSH1 0x0 PUSH2 0x14F DUP7 DUP3 DUP8 ADD PUSH2 0xFE JUMP JUMPDEST SWAP4 POP POP PUSH1 0x20 PUSH2 0x160 DUP7 DUP3 DUP8 ADD PUSH2 0x113 JUMP JUMPDEST SWAP3 POP POP PUSH1 0x40 PUSH2 0x171 DUP7 DUP3 DUP8 ADD PUSH2 0x113 JUMP JUMPDEST SWAP2 POP POP SWAP3 POP SWAP3 POP SWAP3 JUMP JUMPDEST PUSH1 0x0 PUSH2 0x186 DUP3 PUSH2 0x20E JUMP JUMPDEST PUSH2 0x190 DUP2 DUP6 PUSH2 0x219 JUMP JUMPDEST SWAP4 POP PUSH2 0x1A0 DUP2 DUP6 PUSH1 0x20 DUP7 ADD PUSH2 0x266 JUMP JUMPDEST PUSH2 0x1A9 DUP2 PUSH2 0x29E JUMP JUMPDEST DUP5 ADD SWAP2 POP POP SWAP3 SWAP2 POP POP JUMP JUMPDEST PUSH2 0x1BD DUP2 PUSH2 0x25C JUMP JUMPDEST DUP3 MSTORE POP POP JUMP JUMPDEST PUSH1 0x0 PUSH1 0x20 DUP3 ADD SWAP1 POP DUP2 DUP2 SUB PUSH1 0x0 DUP4 ADD MSTORE PUSH2 0x1DD DUP2 DUP5 PUSH2 0x17B JUMP JUMPDEST SWAP1 POP SWAP3 SWAP2 POP POP JUMP JUMPDEST PUSH1 0x0 PUSH1 0x40 DUP3 ADD SWAP1 POP PUSH2 0x1FA PUSH1 0x0 DUP4 ADD DUP6 PUSH2 0x1B4 JUMP JUMPDEST PUSH2 0x207 PUSH1 0x20 DUP4 ADD DUP5 PUSH2 0x1B4 JUMP JUMPDEST SWAP4 SWAP3 POP POP POP JUMP JUMPDEST PUSH1 0x0 DUP2 MLOAD SWAP1 POP SWAP2 SWAP1 POP JUMP JUMPDEST PUSH1 0x0 DUP3 DUP3 MSTORE PUSH1 0x20 DUP3 ADD SWAP1 POP SWAP3 SWAP2 POP POP JUMP JUMPDEST PUSH1 0x0 PUSH2 0x235 DUP3 PUSH2 0x23C JUMP JUMPDEST SWAP1 POP SWAP2 SWAP1 POP JUMP JUMPDEST PUSH1 0x0 PUSH20 0xFFFFFFFFFFFFFFFFFFFFFFFFFFFFFFFFFFFFFFFF DUP3 AND SWAP1 POP SWAP2 SWAP1 POP JUMP JUMPDEST PUSH1 0x0 DUP2 SWAP1 POP SWAP2 SWAP1 POP JUMP JUMPDEST PUSH1 0x0 JUMPDEST DUP4 DUP2 LT ISZERO PUSH2 0x284 JUMPI DUP1 DUP3 ADD MLOAD DUP2 DUP5 ADD MSTORE PUSH1 0x20 DUP2 ADD SWAP1 POP PUSH2 0x269 JUMP JUMPDEST DUP4 DUP2 GT ISZERO PUSH2 0x293 JUMPI PUSH1 0x0 DUP5 DUP5 ADD MSTORE JUMPDEST POP POP POP POP JUMP JUMPDEST PUSH1 0x0 DUP1 REVERT JUMPDEST PUSH1 0x0 PUSH1 0x1F NOT PUSH1 0x1F DUP4 ADD AND SWAP1 POP SWAP2 SWAP1 POP JUMP JUMPDEST PUSH2 0x2B8 DUP2 PUSH2 0x22A JUMP JUMPDEST DUP2 EQ PUSH2 0x2C3 JUMPI PUSH1 0x0 DUP1 REVERT JUMPDEST POP JUMP JUMPDEST PUSH2 0x2CF DUP2 PUSH2 0x25C JUMP JUMPDEST DUP2 EQ PUSH2 0x2DA JUMPI PUSH1 0x0 DUP1 REVERT JUMPDEST POP JUMP INVALID LOG2 PUSH5 0x6970667358 0x22 SLT KECCAK256 SWAP7 NOT 0xE4 CALLDATACOPY MULMOD DUP5 0xE3 BASEFEE GASPRICE 0xF8 0xE5 MSTORE 0xDD 0x5D 0x2E 0x23 0xDE 0xBB 0xBC PUSH14 0xDDE4DA44F4462BB2339C7A7E6473 PUSH16 0x6C634300080700330000000000000000 "
				},
				"gasEstimates": {
					"creation": {
						"codeDepositCost": "157400",
						"executionCost": "202",
						"totalCost": "157602"
					},
					"external": {
						"callFunc(address,uint256,uint256)": "infinite"
					},
					"internal": {
						"isContract(address)": "infinite"
					}
				},
				"methodIdentifiers": {
					"callFunc(address,uint256,uint256)": "a72d2473"
				}
			},
			"storageLayout": {
				"storage": [],
				"types": null
			},
			"userdoc": {
				"kind": "user",
				"methods": {},
				"version": 1
			}
		}
	}
}