{
	"contracts/Call/delegatecall.sol": {
		"Calculation": {
			"abi": [
				{
					"anonymous": false,
					"inputs": [],
					"name": "Transfer",
					"type": "event"
				},
				{
					"stateMutability": "payable",
					"type": "fallback"
				},
				{
					"inputs": [],
					"name": "owner",
					"outputs": [
						{
							"internalType": "address",
							"name": "",
							"type": "address"
						}
					],
					"stateMutability": "view",
					"type": "function"
				},
				{
					"inputs": [
						{
							"internalType": "uint256",
							"name": "a",
							"type": "uint256"
						},
						{
							"internalType": "uint256",
							"name": "b",
							"type": "uint256"
						}
					],
					"name": "plusData",
					"outputs": [
						{
							"internalType": "uint256",
							"name": "",
							"type": "uint256"
						}
					],
					"stateMutability": "nonpayable",
					"type": "function"
				},
				{
					"inputs": [],
					"name": "value",
					"outputs": [
						{
							"internalType": "uint256",
							"name": "",
							"type": "uint256"
						}
					],
					"stateMutability": "view",
					"type": "function"
				}
			],
			"devdoc": {
				"kind": "dev",
				"methods": {},
				"version": 1
			},
			"evm": {
				"assembly": "    /* \"contracts/Call/delegatecall.sol\":107:367  contract Calculation{\r... */\n  mstore(0x40, 0x80)\n  callvalue\n  dup1\n  iszero\n  tag_1\n  jumpi\n  0x00\n  dup1\n  revert\ntag_1:\n  pop\n  dataSize(sub_0)\n  dup1\n  dataOffset(sub_0)\n  0x00\n  codecopy\n  0x00\n  return\nstop\n\nsub_0: assembly {\n        /* \"contracts/Call/delegatecall.sol\":107:367  contract Calculation{\r... */\n      mstore(0x40, 0x80)\n      jumpi(tag_1, lt(calldatasize, 0x04))\n      shr(0xe0, calldataload(0x00))\n      dup1\n      0x3fa4f245\n      eq\n      tag_3\n      jumpi\n      dup1\n      0x69280dd1\n      eq\n      tag_4\n      jumpi\n      dup1\n      0x8da5cb5b\n      eq\n      tag_5\n      jumpi\n      jump(tag_2)\n    tag_1:\n    tag_2:\n        /* \"contracts/Call/delegatecall.sol\":346:356  Transfer() */\n      0x406dade31f7ae4b5dbc276258c28dde5ae6d5c2773c5745802c493a2360e55e0\n      mload(0x40)\n      mload(0x40)\n      dup1\n      swap2\n      sub\n      swap1\n      log1\n        /* \"contracts/Call/delegatecall.sol\":107:367  contract Calculation{\r... */\n      stop\n        /* \"contracts/Call/delegatecall.sol\":161:178  uint public value */\n    tag_3:\n      callvalue\n      dup1\n      iszero\n      tag_8\n      jumpi\n      0x00\n      dup1\n      revert\n    tag_8:\n      pop\n      tag_9\n      tag_10\n      jump\t// in\n    tag_9:\n      mload(0x40)\n      tag_11\n      swap2\n      swap1\n      tag_12\n      jump\t// in\n    tag_11:\n      mload(0x40)\n      dup1\n      swap2\n      sub\n      swap1\n      return\n        /* \"contracts/Call/delegatecall.sol\":210:295  function plusData(uint a, uint b) external returns(uint){\r... */\n    tag_4:\n      callvalue\n      dup1\n      iszero\n      tag_13\n      jumpi\n      0x00\n      dup1\n      revert\n    tag_13:\n      pop\n      tag_14\n      0x04\n      dup1\n      calldatasize\n      sub\n      dup2\n      add\n      swap1\n      tag_15\n      swap2\n      swap1\n      tag_16\n      jump\t// in\n    tag_15:\n      tag_17\n      jump\t// in\n    tag_14:\n      mload(0x40)\n      tag_18\n      swap2\n      swap1\n      tag_12\n      jump\t// in\n    tag_18:\n      mload(0x40)\n      dup1\n      swap2\n      sub\n      swap1\n      return\n        /* \"contracts/Call/delegatecall.sol\":134:154  address public owner */\n    tag_5:\n      callvalue\n      dup1\n      iszero\n      tag_19\n      jumpi\n      0x00\n      dup1\n      revert\n    tag_19:\n      pop\n      tag_20\n      tag_21\n      jump\t// in\n    tag_20:\n      mload(0x40)\n      tag_22\n      swap2\n      swap1\n      tag_23\n      jump\t// in\n    tag_22:\n      mload(0x40)\n      dup1\n      swap2\n      sub\n      swap1\n      return\n        /* \"contracts/Call/delegatecall.sol\":161:178  uint public value */\n    tag_10:\n      sload(0x01)\n      dup2\n      jump\t// out\n        /* \"contracts/Call/delegatecall.sol\":210:295  function plusData(uint a, uint b) external returns(uint){\r... */\n    tag_17:\n        /* \"contracts/Call/delegatecall.sol\":261:265  uint */\n      0x00\n        /* \"contracts/Call/delegatecall.sol\":286:287  b */\n      dup2\n        /* \"contracts/Call/delegatecall.sol\":284:285  a */\n      dup4\n        /* \"contracts/Call/delegatecall.sol\":284:287  a+b */\n      tag_25\n      swap2\n      swap1\n      tag_26\n      jump\t// in\n    tag_25:\n        /* \"contracts/Call/delegatecall.sol\":277:287  return a+b */\n      swap1\n      pop\n        /* \"contracts/Call/delegatecall.sol\":210:295  function plusData(uint a, uint b) external returns(uint){\r... */\n      swap3\n      swap2\n      pop\n      pop\n      jump\t// out\n        /* \"contracts/Call/delegatecall.sol\":134:154  address public owner */\n    tag_21:\n      0x00\n      dup1\n      sload\n      swap1\n      0x0100\n      exp\n      swap1\n      div\n      0xffffffffffffffffffffffffffffffffffffffff\n      and\n      dup2\n      jump\t// out\n        /* \"#utility.yul\":7:146   */\n    tag_28:\n        /* \"#utility.yul\":53:58   */\n      0x00\n        /* \"#utility.yul\":91:97   */\n      dup2\n        /* \"#utility.yul\":78:98   */\n      calldataload\n        /* \"#utility.yul\":69:98   */\n      swap1\n      pop\n        /* \"#utility.yul\":107:140   */\n      tag_30\n        /* \"#utility.yul\":134:139   */\n      dup2\n        /* \"#utility.yul\":107:140   */\n      tag_31\n      jump\t// in\n    tag_30:\n        /* \"#utility.yul\":7:146   */\n      swap3\n      swap2\n      pop\n      pop\n      jump\t// out\n        /* \"#utility.yul\":152:626   */\n    tag_16:\n        /* \"#utility.yul\":220:226   */\n      0x00\n        /* \"#utility.yul\":228:234   */\n      dup1\n        /* \"#utility.yul\":277:279   */\n      0x40\n        /* \"#utility.yul\":265:274   */\n      dup4\n        /* \"#utility.yul\":256:263   */\n      dup6\n        /* \"#utility.yul\":252:275   */\n      sub\n        /* \"#utility.yul\":248:280   */\n      slt\n        /* \"#utility.yul\":245:364   */\n      iszero\n      tag_33\n      jumpi\n        /* \"#utility.yul\":283:362   */\n      tag_34\n      tag_35\n      jump\t// in\n    tag_34:\n        /* \"#utility.yul\":245:364   */\n    tag_33:\n        /* \"#utility.yul\":403:404   */\n      0x00\n        /* \"#utility.yul\":428:481   */\n      tag_36\n        /* \"#utility.yul\":473:480   */\n      dup6\n        /* \"#utility.yul\":464:470   */\n      dup3\n        /* \"#utility.yul\":453:462   */\n      dup7\n        /* \"#utility.yul\":449:471   */\n      add\n        /* \"#utility.yul\":428:481   */\n      tag_28\n      jump\t// in\n    tag_36:\n        /* \"#utility.yul\":418:481   */\n      swap3\n      pop\n        /* \"#utility.yul\":374:491   */\n      pop\n        /* \"#utility.yul\":530:532   */\n      0x20\n        /* \"#utility.yul\":556:609   */\n      tag_37\n        /* \"#utility.yul\":601:608   */\n      dup6\n        /* \"#utility.yul\":592:598   */\n      dup3\n        /* \"#utility.yul\":581:590   */\n      dup7\n        /* \"#utility.yul\":577:599   */\n      add\n        /* \"#utility.yul\":556:609   */\n      tag_28\n      jump\t// in\n    tag_37:\n        /* \"#utility.yul\":546:609   */\n      swap2\n      pop\n        /* \"#utility.yul\":501:619   */\n      pop\n        /* \"#utility.yul\":152:626   */\n      swap3\n      pop\n      swap3\n      swap1\n      pop\n      jump\t// out\n        /* \"#utility.yul\":632:750   */\n    tag_38:\n        /* \"#utility.yul\":719:743   */\n      tag_40\n        /* \"#utility.yul\":737:742   */\n      dup2\n        /* \"#utility.yul\":719:743   */\n      tag_41\n      jump\t// in\n    tag_40:\n        /* \"#utility.yul\":714:717   */\n      dup3\n        /* \"#utility.yul\":707:744   */\n      mstore\n        /* \"#utility.yul\":632:750   */\n      pop\n      pop\n      jump\t// out\n        /* \"#utility.yul\":756:874   */\n    tag_42:\n        /* \"#utility.yul\":843:867   */\n      tag_44\n        /* \"#utility.yul\":861:866   */\n      dup2\n        /* \"#utility.yul\":843:867   */\n      tag_45\n      jump\t// in\n    tag_44:\n        /* \"#utility.yul\":838:841   */\n      dup3\n        /* \"#utility.yul\":831:868   */\n      mstore\n        /* \"#utility.yul\":756:874   */\n      pop\n      pop\n      jump\t// out\n        /* \"#utility.yul\":880:1102   */\n    tag_23:\n        /* \"#utility.yul\":973:977   */\n      0x00\n        /* \"#utility.yul\":1011:1013   */\n      0x20\n        /* \"#utility.yul\":1000:1009   */\n      dup3\n        /* \"#utility.yul\":996:1014   */\n      add\n        /* \"#utility.yul\":988:1014   */\n      swap1\n      pop\n        /* \"#utility.yul\":1024:1095   */\n      tag_47\n        /* \"#utility.yul\":1092:1093   */\n      0x00\n        /* \"#utility.yul\":1081:1090   */\n      dup4\n        /* \"#utility.yul\":1077:1094   */\n      add\n        /* \"#utility.yul\":1068:1074   */\n      dup5\n        /* \"#utility.yul\":1024:1095   */\n      tag_38\n      jump\t// in\n    tag_47:\n        /* \"#utility.yul\":880:1102   */\n      swap3\n      swap2\n      pop\n      pop\n      jump\t// out\n        /* \"#utility.yul\":1108:1330   */\n    tag_12:\n        /* \"#utility.yul\":1201:1205   */\n      0x00\n        /* \"#utility.yul\":1239:1241   */\n      0x20\n        /* \"#utility.yul\":1228:1237   */\n      dup3\n        /* \"#utility.yul\":1224:1242   */\n      add\n        /* \"#utility.yul\":1216:1242   */\n      swap1\n      pop\n        /* \"#utility.yul\":1252:1323   */\n      tag_49\n        /* \"#utility.yul\":1320:1321   */\n      0x00\n        /* \"#utility.yul\":1309:1318   */\n      dup4\n        /* \"#utility.yul\":1305:1322   */\n      add\n        /* \"#utility.yul\":1296:1302   */\n      dup5\n        /* \"#utility.yul\":1252:1323   */\n      tag_42\n      jump\t// in\n    tag_49:\n        /* \"#utility.yul\":1108:1330   */\n      swap3\n      swap2\n      pop\n      pop\n      jump\t// out\n        /* \"#utility.yul\":1417:1722   */\n    tag_26:\n        /* \"#utility.yul\":1457:1460   */\n      0x00\n        /* \"#utility.yul\":1476:1496   */\n      tag_53\n        /* \"#utility.yul\":1494:1495   */\n      dup3\n        /* \"#utility.yul\":1476:1496   */\n      tag_45\n      jump\t// in\n    tag_53:\n        /* \"#utility.yul\":1471:1496   */\n      swap2\n      pop\n        /* \"#utility.yul\":1510:1530   */\n      tag_54\n        /* \"#utility.yul\":1528:1529   */\n      dup4\n        /* \"#utility.yul\":1510:1530   */\n      tag_45\n      jump\t// in\n    tag_54:\n        /* \"#utility.yul\":1505:1530   */\n      swap3\n      pop\n        /* \"#utility.yul\":1664:1665   */\n      dup3\n        /* \"#utility.yul\":1596:1662   */\n      0xffffffffffffffffffffffffffffffffffffffffffffffffffffffffffffffff\n        /* \"#utility.yul\":1592:1666   */\n      sub\n        /* \"#utility.yul\":1589:1590   */\n      dup3\n        /* \"#utility.yul\":1586:1667   */\n      gt\n        /* \"#utility.yul\":1583:1690   */\n      iszero\n      tag_55\n      jumpi\n        /* \"#utility.yul\":1670:1688   */\n      tag_56\n      tag_57\n      jump\t// in\n    tag_56:\n        /* \"#utility.yul\":1583:1690   */\n    tag_55:\n        /* \"#utility.yul\":1714:1715   */\n      dup3\n        /* \"#utility.yul\":1711:1712   */\n      dup3\n        /* \"#utility.yul\":1707:1716   */\n      add\n        /* \"#utility.yul\":1700:1716   */\n      swap1\n      pop\n        /* \"#utility.yul\":1417:1722   */\n      swap3\n      swap2\n      pop\n      pop\n      jump\t// out\n        /* \"#utility.yul\":1728:1824   */\n    tag_41:\n        /* \"#utility.yul\":1765:1772   */\n      0x00\n        /* \"#utility.yul\":1794:1818   */\n      tag_59\n        /* \"#utility.yul\":1812:1817   */\n      dup3\n        /* \"#utility.yul\":1794:1818   */\n      tag_60\n      jump\t// in\n    tag_59:\n        /* \"#utility.yul\":1783:1818   */\n      swap1\n      pop\n        /* \"#utility.yul\":1728:1824   */\n      swap2\n      swap1\n      pop\n      jump\t// out\n        /* \"#utility.yul\":1830:1956   */\n    tag_60:\n        /* \"#utility.yul\":1867:1874   */\n      0x00\n        /* \"#utility.yul\":1907:1949   */\n      0xffffffffffffffffffffffffffffffffffffffff\n        /* \"#utility.yul\":1900:1905   */\n      dup3\n        /* \"#utility.yul\":1896:1950   */\n      and\n        /* \"#utility.yul\":1885:1950   */\n      swap1\n      pop\n        /* \"#utility.yul\":1830:1956   */\n      swap2\n      swap1\n      pop\n      jump\t// out\n        /* \"#utility.yul\":1962:2039   */\n    tag_45:\n        /* \"#utility.yul\":1999:2006   */\n      0x00\n        /* \"#utility.yul\":2028:2033   */\n      dup2\n        /* \"#utility.yul\":2017:2033   */\n      swap1\n      pop\n        /* \"#utility.yul\":1962:2039   */\n      swap2\n      swap1\n      pop\n      jump\t// out\n        /* \"#utility.yul\":2045:2225   */\n    tag_57:\n        /* \"#utility.yul\":2093:2170   */\n      0x4e487b7100000000000000000000000000000000000000000000000000000000\n        /* \"#utility.yul\":2090:2091   */\n      0x00\n        /* \"#utility.yul\":2083:2171   */\n      mstore\n        /* \"#utility.yul\":2190:2194   */\n      0x11\n        /* \"#utility.yul\":2187:2188   */\n      0x04\n        /* \"#utility.yul\":2180:2195   */\n      mstore\n        /* \"#utility.yul\":2214:2218   */\n      0x24\n        /* \"#utility.yul\":2211:2212   */\n      0x00\n        /* \"#utility.yul\":2204:2219   */\n      revert\n        /* \"#utility.yul\":2354:2471   */\n    tag_35:\n        /* \"#utility.yul\":2463:2464   */\n      0x00\n        /* \"#utility.yul\":2460:2461   */\n      dup1\n        /* \"#utility.yul\":2453:2465   */\n      revert\n        /* \"#utility.yul\":2477:2599   */\n    tag_31:\n        /* \"#utility.yul\":2550:2574   */\n      tag_68\n        /* \"#utility.yul\":2568:2573   */\n      dup2\n        /* \"#utility.yul\":2550:2574   */\n      tag_45\n      jump\t// in\n    tag_68:\n        /* \"#utility.yul\":2543:2548   */\n      dup2\n        /* \"#utility.yul\":2540:2575   */\n      eq\n        /* \"#utility.yul\":2530:2593   */\n      tag_69\n      jumpi\n        /* \"#utility.yul\":2589:2590   */\n      0x00\n        /* \"#utility.yul\":2586:2587   */\n      dup1\n        /* \"#utility.yul\":2579:2591   */\n      revert\n        /* \"#utility.yul\":2530:2593   */\n    tag_69:\n        /* \"#utility.yul\":2477:2599   */\n      pop\n      jump\t// out\n\n    auxdata: 0xa264697066735822122044716d663ec8b4bdb21f8340dbd01c7999afdce96405a59494ff6b400ccbb29264736f6c63430008070033\n}\n",
				"bytecode": {
					"linkReferences": {},
					"object": "608060405234801561001057600080fd5b506102f6806100206000396000f3fe6080604052600436106100385760003560e01c80633fa4f2451461006757806369280dd1146100925780638da5cb5b146100cf57610039565b5b7f406dade31f7ae4b5dbc276258c28dde5ae6d5c2773c5745802c493a2360e55e060405160405180910390a1005b34801561007357600080fd5b5061007c6100fa565b60405161008991906101c8565b60405180910390f35b34801561009e57600080fd5b506100b960048036038101906100b4919061014f565b610100565b6040516100c691906101c8565b60405180910390f35b3480156100db57600080fd5b506100e4610116565b6040516100f191906101ad565b60405180910390f35b60015481565b6000818361010e91906101e3565b905092915050565b60008054906101000a900473ffffffffffffffffffffffffffffffffffffffff1681565b600081359050610149816102a9565b92915050565b60008060408385031215610166576101656102a4565b5b60006101748582860161013a565b92505060206101858582860161013a565b9150509250929050565b61019881610239565b82525050565b6101a78161026b565b82525050565b60006020820190506101c2600083018461018f565b92915050565b60006020820190506101dd600083018461019e565b92915050565b60006101ee8261026b565b91506101f98361026b565b9250827fffffffffffffffffffffffffffffffffffffffffffffffffffffffffffffffff0382111561022e5761022d610275565b5b828201905092915050565b60006102448261024b565b9050919050565b600073ffffffffffffffffffffffffffffffffffffffff82169050919050565b6000819050919050565b7f4e487b7100000000000000000000000000000000000000000000000000000000600052601160045260246000fd5b600080fd5b6102b28161026b565b81146102bd57600080fd5b5056fea264697066735822122044716d663ec8b4bdb21f8340dbd01c7999afdce96405a59494ff6b400ccbb29264736f6c63430008070033",
					"opcodes": "PUSH1 0x80 PUSH1 0x40 MSTORE CALLVALUE DUP1 ISZERO PUSH2 0x10 JUMPI PUSH1 0x0 DUP1 REVERT JUMPDEST POP PUSH2 0x2F6 DUP1 PUSH2 0x20 PUSH1 0x0 CODECOPY PUSH1 0x0 RETURN INVALID PUSH1 0x80 PUSH1 0x40 MSTORE PUSH1 0x4 CALLDATASIZE LT PUSH2 0x38 JUMPI PUSH1 0x0 CALLDATALOAD PUSH1 0xE0 SHR DUP1 PUSH4 0x3FA4F245 EQ PUSH2 0x67 JUMPI DUP1 PUSH4 0x69280DD1 EQ PUSH2 0x92 JUMPI DUP1 PUSH4 0x8DA5CB5B EQ PUSH2 0xCF JUMPI PUSH2 0x39 JUMP JUMPDEST JUMPDEST PUSH32 0x406DADE31F7AE4B5DBC276258C28DDE5AE6D5C2773C5745802C493A2360E55E0 PUSH1 0x40 MLOAD PUSH1 0x40 MLOAD DUP1 SWAP2 SUB SWAP1 LOG1 STOP JUMPDEST CALLVALUE DUP1 ISZERO PUSH2 0x73 JUMPI PUSH1 0x0 DUP1 REVERT JUMPDEST POP PUSH2 0x7C PUSH2 0xFA JUMP JUMPDEST PUSH1 0x40 MLOAD PUSH2 0x89 SWAP2 SWAP1 PUSH2 0x1C8 JUMP JUMPDEST PUSH1 0x40 MLOAD DUP1 SWAP2 SUB SWAP1 RETURN JUMPDEST CALLVALUE DUP1 ISZERO PUSH2 0x9E JUMPI PUSH1 0x0 DUP1 REVERT JUMPDEST POP PUSH2 0xB9 PUSH1 0x4 DUP1 CALLDATASIZE SUB DUP2 ADD SWAP1 PUSH2 0xB4 SWAP2 SWAP1 PUSH2 0x14F JUMP JUMPDEST PUSH2 0x100 JUMP JUMPDEST PUSH1 0x40 MLOAD PUSH2 0xC6 SWAP2 SWAP1 PUSH2 0x1C8 JUMP JUMPDEST PUSH1 0x40 MLOAD DUP1 SWAP2 SUB SWAP1 RETURN JUMPDEST CALLVALUE DUP1 ISZERO PUSH2 0xDB JUMPI PUSH1 0x0 DUP1 REVERT JUMPDEST POP PUSH2 0xE4 PUSH2 0x116 JUMP JUMPDEST PUSH1 0x40 MLOAD PUSH2 0xF1 SWAP2 SWAP1 PUSH2 0x1AD JUMP JUMPDEST PUSH1 0x40 MLOAD DUP1 SWAP2 SUB SWAP1 RETURN JUMPDEST PUSH1 0x1 SLOAD DUP2 JUMP JUMPDEST PUSH1 0x0 DUP2 DUP4 PUSH2 0x10E SWAP2 SWAP1 PUSH2 0x1E3 JUMP JUMPDEST SWAP1 POP SWAP3 SWAP2 POP POP JUMP JUMPDEST PUSH1 0x0 DUP1 SLOAD SWAP1 PUSH2 0x100 EXP SWAP1 DIV PUSH20 0xFFFFFFFFFFFFFFFFFFFFFFFFFFFFFFFFFFFFFFFF AND DUP2 JUMP JUMPDEST PUSH1 0x0 DUP2 CALLDATALOAD SWAP1 POP PUSH2 0x149 DUP2 PUSH2 0x2A9 JUMP JUMPDEST SWAP3 SWAP2 POP POP JUMP JUMPDEST PUSH1 0x0 DUP1 PUSH1 0x40 DUP4 DUP6 SUB SLT ISZERO PUSH2 0x166 JUMPI PUSH2 0x165 PUSH2 0x2A4 JUMP JUMPDEST JUMPDEST PUSH1 0x0 PUSH2 0x174 DUP6 DUP3 DUP7 ADD PUSH2 0x13A JUMP JUMPDEST SWAP3 POP POP PUSH1 0x20 PUSH2 0x185 DUP6 DUP3 DUP7 ADD PUSH2 0x13A JUMP JUMPDEST SWAP2 POP POP SWAP3 POP SWAP3 SWAP1 POP JUMP JUMPDEST PUSH2 0x198 DUP2 PUSH2 0x239 JUMP JUMPDEST DUP3 MSTORE POP POP JUMP JUMPDEST PUSH2 0x1A7 DUP2 PUSH2 0x26B JUMP JUMPDEST DUP3 MSTORE POP POP JUMP JUMPDEST PUSH1 0x0 PUSH1 0x20 DUP3 ADD SWAP1 POP PUSH2 0x1C2 PUSH1 0x0 DUP4 ADD DUP5 PUSH2 0x18F JUMP JUMPDEST SWAP3 SWAP2 POP POP JUMP JUMPDEST PUSH1 0x0 PUSH1 0x20 DUP3 ADD SWAP1 POP PUSH2 0x1DD PUSH1 0x0 DUP4 ADD DUP5 PUSH2 0x19E JUMP JUMPDEST SWAP3 SWAP2 POP POP JUMP JUMPDEST PUSH1 0x0 PUSH2 0x1EE DUP3 PUSH2 0x26B JUMP JUMPDEST SWAP2 POP PUSH2 0x1F9 DUP4 PUSH2 0x26B JUMP JUMPDEST SWAP3 POP DUP3 PUSH32 0xFFFFFFFFFFFFFFFFFFFFFFFFFFFFFFFFFFFFFFFFFFFFFFFFFFFFFFFFFFFFFFFF SUB DUP3 GT ISZERO PUSH2 0x22E JUMPI PUSH2 0x22D PUSH2 0x275 JUMP JUMPDEST JUMPDEST DUP3 DUP3 ADD SWAP1 POP SWAP3 SWAP2 POP POP JUMP JUMPDEST PUSH1 0x0 PUSH2 0x244 DUP3 PUSH2 0x24B JUMP JUMPDEST SWAP1 POP SWAP2 SWAP1 POP JUMP JUMPDEST PUSH1 0x0 PUSH20 0xFFFFFFFFFFFFFFFFFFFFFFFFFFFFFFFFFFFFFFFF DUP3 AND SWAP1 POP SWAP2 SWAP1 POP JUMP JUMPDEST PUSH1 0x0 DUP2 SWAP1 POP SWAP2 SWAP1 POP JUMP JUMPDEST PUSH32 0x4E487B7100000000000000000000000000000000000000000000000000000000 PUSH1 0x0 MSTORE PUSH1 0x11 PUSH1 0x4 MSTORE PUSH1 0x24 PUSH1 0x0 REVERT JUMPDEST PUSH1 0x0 DUP1 REVERT JUMPDEST PUSH2 0x2B2 DUP2 PUSH2 0x26B JUMP JUMPDEST DUP2 EQ PUSH2 0x2BD JUMPI PUSH1 0x0 DUP1 REVERT JUMPDEST POP JUMP INVALID LOG2 PUSH5 0x6970667358 0x22 SLT KECCAK256 DIFFICULTY PUSH18 0x6D663EC8B4BDB21F8340DBD01C7999AFDCE9 PUSH5 0x5A59494FF PUSH12 0x400CCBB29264736F6C634300 ADDMOD SMOD STOP CALLER "
				},
				"gasEstimates": {
					"creation": {
						"codeDepositCost": "151600",
						"executionCost": "196",
						"totalCost": "151796"
					},
					"external": {
						"": "906",
						"owner()": "2533",
						"plusData(uint256,uint256)": "infinite",
						"value()": "2407"
					}
				},
				"methodIdentifiers": {
					"owner()": "8da5cb5b",
					"plusData(uint256,uint256)": "69280dd1",
					"value()": "3fa4f245"
				}
			},
			"storageLayout": {
				"storage": [
					{
						"astId": 3,
						"contract": "contracts/Call/delegatecall.sol:Calculation",
						"label": "owner",
						"offset": 0,
						"slot": "0",
						"type": "t_address"
					},
					{
						"astId": 5,
						"contract": "contracts/Call/delegatecall.sol:Calculation",
						"label": "value",
						"offset": 0,
						"slot": "1",
						"type": "t_uint256"
					}
				],
				"types": {
					"t_address": {
						"encoding": "inplace",
						"label": "address",
						"numberOfBytes": "20"
					},
					"t_uint256": {
						"encoding": "inplace",
						"label": "uint256",
						"numberOfBytes": "32"
					}
				}
			},
			"userdoc": {
				"kind": "user",
				"methods": {},
				"version": 1
			}
		}
	}
}