{
	"contracts/Call/call.sol": {
		"caller": {
			"abi": [
				{
					"inputs": [
						{
							"internalType": "address payable",
							"name": "_address",
							"type": "address"
						},
						{
							"internalType": "uint256",
							"name": "_a",
							"type": "uint256"
						},
						{
							"internalType": "uint256",
							"name": "_b",
							"type": "uint256"
						}
					],
					"name": "callFunc",
					"outputs": [
						{
							"internalType": "bytes",
							"name": "",
							"type": "bytes"
						}
					],
					"stateMutability": "nonpayable",
					"type": "function"
				}
			],
			"devdoc": {
				"kind": "dev",
				"methods": {},
				"version": 1
			},
			"evm": {
				"assembly": "    /* \"contracts/Call/call.sol\":226:582  contract caller{\r... */\n  mstore(0x40, 0x80)\n  callvalue\n  dup1\n  iszero\n  tag_1\n  jumpi\n  0x00\n  dup1\n  revert\ntag_1:\n  pop\n  dataSize(sub_0)\n  dup1\n  dataOffset(sub_0)\n  0x00\n  codecopy\n  0x00\n  return\nstop\n\nsub_0: assembly {\n        /* \"contracts/Call/call.sol\":226:582  contract caller{\r... */\n      mstore(0x40, 0x80)\n      callvalue\n      dup1\n      iszero\n      tag_1\n      jumpi\n      0x00\n      dup1\n      revert\n    tag_1:\n      pop\n      jumpi(tag_2, lt(calldatasize, 0x04))\n      shr(0xe0, calldataload(0x00))\n      dup1\n      0xa72d2473\n      eq\n      tag_3\n      jumpi\n    tag_2:\n      0x00\n      dup1\n      revert\n        /* \"contracts/Call/call.sol\":471:579  function callFunc(address payable _address, uint _a, uint _b) public returns(bytes memory){\r... */\n    tag_3:\n      tag_4\n      0x04\n      dup1\n      calldatasize\n      sub\n      dup2\n      add\n      swap1\n      tag_5\n      swap2\n      swap1\n      tag_6\n      jump\t// in\n    tag_5:\n      tag_7\n      jump\t// in\n    tag_4:\n      mload(0x40)\n      tag_8\n      swap2\n      swap1\n      tag_9\n      jump\t// in\n    tag_8:\n      mload(0x40)\n      dup1\n      swap2\n      sub\n      swap1\n      return\n    tag_7:\n        /* \"contracts/Call/call.sol\":548:560  bytes memory */\n      0x60\n        /* \"contracts/Call/call.sol\":471:579  function callFunc(address payable _address, uint _a, uint _b) public returns(bytes memory){\r... */\n      swap4\n      swap3\n      pop\n      pop\n      pop\n      jump\t// out\n        /* \"#utility.yul\":7:162   */\n    tag_12:\n        /* \"#utility.yul\":61:66   */\n      0x00\n        /* \"#utility.yul\":99:105   */\n      dup2\n        /* \"#utility.yul\":86:106   */\n      calldataload\n        /* \"#utility.yul\":77:106   */\n      swap1\n      pop\n        /* \"#utility.yul\":115:156   */\n      tag_14\n        /* \"#utility.yul\":150:155   */\n      dup2\n        /* \"#utility.yul\":115:156   */\n      tag_15\n      jump\t// in\n    tag_14:\n        /* \"#utility.yul\":7:162   */\n      swap3\n      swap2\n      pop\n      pop\n      jump\t// out\n        /* \"#utility.yul\":168:307   */\n    tag_16:\n        /* \"#utility.yul\":214:219   */\n      0x00\n        /* \"#utility.yul\":252:258   */\n      dup2\n        /* \"#utility.yul\":239:259   */\n      calldataload\n        /* \"#utility.yul\":230:259   */\n      swap1\n      pop\n        /* \"#utility.yul\":268:301   */\n      tag_18\n        /* \"#utility.yul\":295:300   */\n      dup2\n        /* \"#utility.yul\":268:301   */\n      tag_19\n      jump\t// in\n    tag_18:\n        /* \"#utility.yul\":168:307   */\n      swap3\n      swap2\n      pop\n      pop\n      jump\t// out\n        /* \"#utility.yul\":313:948   */\n    tag_6:\n        /* \"#utility.yul\":398:404   */\n      0x00\n        /* \"#utility.yul\":406:412   */\n      dup1\n        /* \"#utility.yul\":414:420   */\n      0x00\n        /* \"#utility.yul\":463:465   */\n      0x60\n        /* \"#utility.yul\":451:460   */\n      dup5\n        /* \"#utility.yul\":442:449   */\n      dup7\n        /* \"#utility.yul\":438:461   */\n      sub\n        /* \"#utility.yul\":434:466   */\n      slt\n        /* \"#utility.yul\":431:550   */\n      iszero\n      tag_21\n      jumpi\n        /* \"#utility.yul\":469:548   */\n      tag_22\n      tag_23\n      jump\t// in\n    tag_22:\n        /* \"#utility.yul\":431:550   */\n    tag_21:\n        /* \"#utility.yul\":589:590   */\n      0x00\n        /* \"#utility.yul\":614:675   */\n      tag_24\n        /* \"#utility.yul\":667:674   */\n      dup7\n        /* \"#utility.yul\":658:664   */\n      dup3\n        /* \"#utility.yul\":647:656   */\n      dup8\n        /* \"#utility.yul\":643:665   */\n      add\n        /* \"#utility.yul\":614:675   */\n      tag_12\n      jump\t// in\n    tag_24:\n        /* \"#utility.yul\":604:675   */\n      swap4\n      pop\n        /* \"#utility.yul\":560:685   */\n      pop\n        /* \"#utility.yul\":724:726   */\n      0x20\n        /* \"#utility.yul\":750:803   */\n      tag_25\n        /* \"#utility.yul\":795:802   */\n      dup7\n        /* \"#utility.yul\":786:792   */\n      dup3\n        /* \"#utility.yul\":775:784   */\n      dup8\n        /* \"#utility.yul\":771:793   */\n      add\n        /* \"#utility.yul\":750:803   */\n      tag_16\n      jump\t// in\n    tag_25:\n        /* \"#utility.yul\":740:803   */\n      swap3\n      pop\n        /* \"#utility.yul\":695:813   */\n      pop\n        /* \"#utility.yul\":852:854   */\n      0x40\n        /* \"#utility.yul\":878:931   */\n      tag_26\n        /* \"#utility.yul\":923:930   */\n      dup7\n        /* \"#utility.yul\":914:920   */\n      dup3\n        /* \"#utility.yul\":903:912   */\n      dup8\n        /* \"#utility.yul\":899:921   */\n      add\n        /* \"#utility.yul\":878:931   */\n      tag_16\n      jump\t// in\n    tag_26:\n        /* \"#utility.yul\":868:931   */\n      swap2\n      pop\n        /* \"#utility.yul\":823:941   */\n      pop\n        /* \"#utility.yul\":313:948   */\n      swap3\n      pop\n      swap3\n      pop\n      swap3\n      jump\t// out\n        /* \"#utility.yul\":954:1314   */\n    tag_27:\n        /* \"#utility.yul\":1040:1043   */\n      0x00\n        /* \"#utility.yul\":1068:1106   */\n      tag_29\n        /* \"#utility.yul\":1100:1105   */\n      dup3\n        /* \"#utility.yul\":1068:1106   */\n      tag_30\n      jump\t// in\n    tag_29:\n        /* \"#utility.yul\":1122:1192   */\n      tag_31\n        /* \"#utility.yul\":1185:1191   */\n      dup2\n        /* \"#utility.yul\":1180:1183   */\n      dup6\n        /* \"#utility.yul\":1122:1192   */\n      tag_32\n      jump\t// in\n    tag_31:\n        /* \"#utility.yul\":1115:1192   */\n      swap4\n      pop\n        /* \"#utility.yul\":1201:1253   */\n      tag_33\n        /* \"#utility.yul\":1246:1252   */\n      dup2\n        /* \"#utility.yul\":1241:1244   */\n      dup6\n        /* \"#utility.yul\":1234:1238   */\n      0x20\n        /* \"#utility.yul\":1227:1232   */\n      dup7\n        /* \"#utility.yul\":1223:1239   */\n      add\n        /* \"#utility.yul\":1201:1253   */\n      tag_34\n      jump\t// in\n    tag_33:\n        /* \"#utility.yul\":1278:1307   */\n      tag_35\n        /* \"#utility.yul\":1300:1306   */\n      dup2\n        /* \"#utility.yul\":1278:1307   */\n      tag_36\n      jump\t// in\n    tag_35:\n        /* \"#utility.yul\":1273:1276   */\n      dup5\n        /* \"#utility.yul\":1269:1308   */\n      add\n        /* \"#utility.yul\":1262:1308   */\n      swap2\n      pop\n        /* \"#utility.yul\":1044:1314   */\n      pop\n        /* \"#utility.yul\":954:1314   */\n      swap3\n      swap2\n      pop\n      pop\n      jump\t// out\n        /* \"#utility.yul\":1320:1629   */\n    tag_9:\n        /* \"#utility.yul\":1431:1435   */\n      0x00\n        /* \"#utility.yul\":1469:1471   */\n      0x20\n        /* \"#utility.yul\":1458:1467   */\n      dup3\n        /* \"#utility.yul\":1454:1472   */\n      add\n        /* \"#utility.yul\":1446:1472   */\n      swap1\n      pop\n        /* \"#utility.yul\":1518:1527   */\n      dup2\n        /* \"#utility.yul\":1512:1516   */\n      dup2\n        /* \"#utility.yul\":1508:1528   */\n      sub\n        /* \"#utility.yul\":1504:1505   */\n      0x00\n        /* \"#utility.yul\":1493:1502   */\n      dup4\n        /* \"#utility.yul\":1489:1506   */\n      add\n        /* \"#utility.yul\":1482:1529   */\n      mstore\n        /* \"#utility.yul\":1546:1622   */\n      tag_38\n        /* \"#utility.yul\":1617:1621   */\n      dup2\n        /* \"#utility.yul\":1608:1614   */\n      dup5\n        /* \"#utility.yul\":1546:1622   */\n      tag_27\n      jump\t// in\n    tag_38:\n        /* \"#utility.yul\":1538:1622   */\n      swap1\n      pop\n        /* \"#utility.yul\":1320:1629   */\n      swap3\n      swap2\n      pop\n      pop\n      jump\t// out\n        /* \"#utility.yul\":1716:1814   */\n    tag_30:\n        /* \"#utility.yul\":1767:1773   */\n      0x00\n        /* \"#utility.yul\":1801:1806   */\n      dup2\n        /* \"#utility.yul\":1795:1807   */\n      mload\n        /* \"#utility.yul\":1785:1807   */\n      swap1\n      pop\n        /* \"#utility.yul\":1716:1814   */\n      swap2\n      swap1\n      pop\n      jump\t// out\n        /* \"#utility.yul\":1820:1988   */\n    tag_32:\n        /* \"#utility.yul\":1903:1914   */\n      0x00\n        /* \"#utility.yul\":1937:1943   */\n      dup3\n        /* \"#utility.yul\":1932:1935   */\n      dup3\n        /* \"#utility.yul\":1925:1944   */\n      mstore\n        /* \"#utility.yul\":1977:1981   */\n      0x20\n        /* \"#utility.yul\":1972:1975   */\n      dup3\n        /* \"#utility.yul\":1968:1982   */\n      add\n        /* \"#utility.yul\":1953:1982   */\n      swap1\n      pop\n        /* \"#utility.yul\":1820:1988   */\n      swap3\n      swap2\n      pop\n      pop\n      jump\t// out\n        /* \"#utility.yul\":1994:2098   */\n    tag_43:\n        /* \"#utility.yul\":2039:2046   */\n      0x00\n        /* \"#utility.yul\":2068:2092   */\n      tag_45\n        /* \"#utility.yul\":2086:2091   */\n      dup3\n        /* \"#utility.yul\":2068:2092   */\n      tag_46\n      jump\t// in\n    tag_45:\n        /* \"#utility.yul\":2057:2092   */\n      swap1\n      pop\n        /* \"#utility.yul\":1994:2098   */\n      swap2\n      swap1\n      pop\n      jump\t// out\n        /* \"#utility.yul\":2104:2230   */\n    tag_46:\n        /* \"#utility.yul\":2141:2148   */\n      0x00\n        /* \"#utility.yul\":2181:2223   */\n      0xffffffffffffffffffffffffffffffffffffffff\n        /* \"#utility.yul\":2174:2179   */\n      dup3\n        /* \"#utility.yul\":2170:2224   */\n      and\n        /* \"#utility.yul\":2159:2224   */\n      swap1\n      pop\n        /* \"#utility.yul\":2104:2230   */\n      swap2\n      swap1\n      pop\n      jump\t// out\n        /* \"#utility.yul\":2236:2313   */\n    tag_48:\n        /* \"#utility.yul\":2273:2280   */\n      0x00\n        /* \"#utility.yul\":2302:2307   */\n      dup2\n        /* \"#utility.yul\":2291:2307   */\n      swap1\n      pop\n        /* \"#utility.yul\":2236:2313   */\n      swap2\n      swap1\n      pop\n      jump\t// out\n        /* \"#utility.yul\":2319:2626   */\n    tag_34:\n        /* \"#utility.yul\":2387:2388   */\n      0x00\n        /* \"#utility.yul\":2397:2510   */\n    tag_51:\n        /* \"#utility.yul\":2411:2417   */\n      dup4\n        /* \"#utility.yul\":2408:2409   */\n      dup2\n        /* \"#utility.yul\":2405:2418   */\n      lt\n        /* \"#utility.yul\":2397:2510   */\n      iszero\n      tag_53\n      jumpi\n        /* \"#utility.yul\":2496:2497   */\n      dup1\n        /* \"#utility.yul\":2491:2494   */\n      dup3\n        /* \"#utility.yul\":2487:2498   */\n      add\n        /* \"#utility.yul\":2481:2499   */\n      mload\n        /* \"#utility.yul\":2477:2478   */\n      dup2\n        /* \"#utility.yul\":2472:2475   */\n      dup5\n        /* \"#utility.yul\":2468:2479   */\n      add\n        /* \"#utility.yul\":2461:2500   */\n      mstore\n        /* \"#utility.yul\":2433:2435   */\n      0x20\n        /* \"#utility.yul\":2430:2431   */\n      dup2\n        /* \"#utility.yul\":2426:2436   */\n      add\n        /* \"#utility.yul\":2421:2436   */\n      swap1\n      pop\n        /* \"#utility.yul\":2397:2510   */\n      jump(tag_51)\n    tag_53:\n        /* \"#utility.yul\":2528:2534   */\n      dup4\n        /* \"#utility.yul\":2525:2526   */\n      dup2\n        /* \"#utility.yul\":2522:2535   */\n      gt\n        /* \"#utility.yul\":2519:2620   */\n      iszero\n      tag_54\n      jumpi\n        /* \"#utility.yul\":2608:2609   */\n      0x00\n        /* \"#utility.yul\":2599:2605   */\n      dup5\n        /* \"#utility.yul\":2594:2597   */\n      dup5\n        /* \"#utility.yul\":2590:2606   */\n      add\n        /* \"#utility.yul\":2583:2610   */\n      mstore\n        /* \"#utility.yul\":2519:2620   */\n    tag_54:\n        /* \"#utility.yul\":2368:2626   */\n      pop\n        /* \"#utility.yul\":2319:2626   */\n      pop\n      pop\n      pop\n      jump\t// out\n        /* \"#utility.yul\":2755:2872   */\n    tag_23:\n        /* \"#utility.yul\":2864:2865   */\n      0x00\n        /* \"#utility.yul\":2861:2862   */\n      dup1\n        /* \"#utility.yul\":2854:2866   */\n      revert\n        /* \"#utility.yul\":2878:2980   */\n    tag_36:\n        /* \"#utility.yul\":2919:2925   */\n      0x00\n        /* \"#utility.yul\":2970:2972   */\n      0x1f\n        /* \"#utility.yul\":2966:2973   */\n      not\n        /* \"#utility.yul\":2961:2963   */\n      0x1f\n        /* \"#utility.yul\":2954:2959   */\n      dup4\n        /* \"#utility.yul\":2950:2964   */\n      add\n        /* \"#utility.yul\":2946:2974   */\n      and\n        /* \"#utility.yul\":2936:2974   */\n      swap1\n      pop\n        /* \"#utility.yul\":2878:2980   */\n      swap2\n      swap1\n      pop\n      jump\t// out\n        /* \"#utility.yul\":2986:3124   */\n    tag_15:\n        /* \"#utility.yul\":3067:3099   */\n      tag_60\n        /* \"#utility.yul\":3093:3098   */\n      dup2\n        /* \"#utility.yul\":3067:3099   */\n      tag_43\n      jump\t// in\n    tag_60:\n        /* \"#utility.yul\":3060:3065   */\n      dup2\n        /* \"#utility.yul\":3057:3100   */\n      eq\n        /* \"#utility.yul\":3047:3118   */\n      tag_61\n      jumpi\n        /* \"#utility.yul\":3114:3115   */\n      0x00\n        /* \"#utility.yul\":3111:3112   */\n      dup1\n        /* \"#utility.yul\":3104:3116   */\n      revert\n        /* \"#utility.yul\":3047:3118   */\n    tag_61:\n        /* \"#utility.yul\":2986:3124   */\n      pop\n      jump\t// out\n        /* \"#utility.yul\":3130:3252   */\n    tag_19:\n        /* \"#utility.yul\":3203:3227   */\n      tag_63\n        /* \"#utility.yul\":3221:3226   */\n      dup2\n        /* \"#utility.yul\":3203:3227   */\n      tag_48\n      jump\t// in\n    tag_63:\n        /* \"#utility.yul\":3196:3201   */\n      dup2\n        /* \"#utility.yul\":3193:3228   */\n      eq\n        /* \"#utility.yul\":3183:3246   */\n      tag_64\n      jumpi\n        /* \"#utility.yul\":3242:3243   */\n      0x00\n        /* \"#utility.yul\":3239:3240   */\n      dup1\n        /* \"#utility.yul\":3232:3244   */\n      revert\n        /* \"#utility.yul\":3183:3246   */\n    tag_64:\n        /* \"#utility.yul\":3130:3252   */\n      pop\n      jump\t// out\n\n    auxdata: 0xa2646970667358221220aa13bd48abce47c4eb83dbe13b3fc90a1c4266e781337c13287f26d4786e29f164736f6c63430008070033\n}\n",
				"bytecode": {
					"linkReferences": {},
					"object": "608060405234801561001057600080fd5b50610246806100206000396000f3fe608060405234801561001057600080fd5b506004361061002b5760003560e01c8063a72d247314610030575b600080fd5b61004a60048036038101906100459190610093565b610060565b604051610057919061011f565b60405180910390f35b60609392505050565b600081359050610078816101e2565b92915050565b60008135905061008d816101f9565b92915050565b6000806000606084860312156100ac576100ab6101cc565b5b60006100ba86828701610069565b93505060206100cb8682870161007e565b92505060406100dc8682870161007e565b9150509250925092565b60006100f182610141565b6100fb818561014c565b935061010b818560208601610199565b610114816101d1565b840191505092915050565b6000602082019050818103600083015261013981846100e6565b905092915050565b600081519050919050565b600082825260208201905092915050565b60006101688261016f565b9050919050565b600073ffffffffffffffffffffffffffffffffffffffff82169050919050565b6000819050919050565b60005b838110156101b757808201518184015260208101905061019c565b838111156101c6576000848401525b50505050565b600080fd5b6000601f19601f8301169050919050565b6101eb8161015d565b81146101f657600080fd5b50565b6102028161018f565b811461020d57600080fd5b5056fea2646970667358221220aa13bd48abce47c4eb83dbe13b3fc90a1c4266e781337c13287f26d4786e29f164736f6c63430008070033",
					"opcodes": "PUSH1 0x80 PUSH1 0x40 MSTORE CALLVALUE DUP1 ISZERO PUSH2 0x10 JUMPI PUSH1 0x0 DUP1 REVERT JUMPDEST POP PUSH2 0x246 DUP1 PUSH2 0x20 PUSH1 0x0 CODECOPY PUSH1 0x0 RETURN INVALID PUSH1 0x80 PUSH1 0x40 MSTORE CALLVALUE DUP1 ISZERO PUSH2 0x10 JUMPI PUSH1 0x0 DUP1 REVERT JUMPDEST POP PUSH1 0x4 CALLDATASIZE LT PUSH2 0x2B JUMPI PUSH1 0x0 CALLDATALOAD PUSH1 0xE0 SHR DUP1 PUSH4 0xA72D2473 EQ PUSH2 0x30 JUMPI JUMPDEST PUSH1 0x0 DUP1 REVERT JUMPDEST PUSH2 0x4A PUSH1 0x4 DUP1 CALLDATASIZE SUB DUP2 ADD SWAP1 PUSH2 0x45 SWAP2 SWAP1 PUSH2 0x93 JUMP JUMPDEST PUSH2 0x60 JUMP JUMPDEST PUSH1 0x40 MLOAD PUSH2 0x57 SWAP2 SWAP1 PUSH2 0x11F JUMP JUMPDEST PUSH1 0x40 MLOAD DUP1 SWAP2 SUB SWAP1 RETURN JUMPDEST PUSH1 0x60 SWAP4 SWAP3 POP POP POP JUMP JUMPDEST PUSH1 0x0 DUP2 CALLDATALOAD SWAP1 POP PUSH2 0x78 DUP2 PUSH2 0x1E2 JUMP JUMPDEST SWAP3 SWAP2 POP POP JUMP JUMPDEST PUSH1 0x0 DUP2 CALLDATALOAD SWAP1 POP PUSH2 0x8D DUP2 PUSH2 0x1F9 JUMP JUMPDEST SWAP3 SWAP2 POP POP JUMP JUMPDEST PUSH1 0x0 DUP1 PUSH1 0x0 PUSH1 0x60 DUP5 DUP7 SUB SLT ISZERO PUSH2 0xAC JUMPI PUSH2 0xAB PUSH2 0x1CC JUMP JUMPDEST JUMPDEST PUSH1 0x0 PUSH2 0xBA DUP7 DUP3 DUP8 ADD PUSH2 0x69 JUMP JUMPDEST SWAP4 POP POP PUSH1 0x20 PUSH2 0xCB DUP7 DUP3 DUP8 ADD PUSH2 0x7E JUMP JUMPDEST SWAP3 POP POP PUSH1 0x40 PUSH2 0xDC DUP7 DUP3 DUP8 ADD PUSH2 0x7E JUMP JUMPDEST SWAP2 POP POP SWAP3 POP SWAP3 POP SWAP3 JUMP JUMPDEST PUSH1 0x0 PUSH2 0xF1 DUP3 PUSH2 0x141 JUMP JUMPDEST PUSH2 0xFB DUP2 DUP6 PUSH2 0x14C JUMP JUMPDEST SWAP4 POP PUSH2 0x10B DUP2 DUP6 PUSH1 0x20 DUP7 ADD PUSH2 0x199 JUMP JUMPDEST PUSH2 0x114 DUP2 PUSH2 0x1D1 JUMP JUMPDEST DUP5 ADD SWAP2 POP POP SWAP3 SWAP2 POP POP JUMP JUMPDEST PUSH1 0x0 PUSH1 0x20 DUP3 ADD SWAP1 POP DUP2 DUP2 SUB PUSH1 0x0 DUP4 ADD MSTORE PUSH2 0x139 DUP2 DUP5 PUSH2 0xE6 JUMP JUMPDEST SWAP1 POP SWAP3 SWAP2 POP POP JUMP JUMPDEST PUSH1 0x0 DUP2 MLOAD SWAP1 POP SWAP2 SWAP1 POP JUMP JUMPDEST PUSH1 0x0 DUP3 DUP3 MSTORE PUSH1 0x20 DUP3 ADD SWAP1 POP SWAP3 SWAP2 POP POP JUMP JUMPDEST PUSH1 0x0 PUSH2 0x168 DUP3 PUSH2 0x16F JUMP JUMPDEST SWAP1 POP SWAP2 SWAP1 POP JUMP JUMPDEST PUSH1 0x0 PUSH20 0xFFFFFFFFFFFFFFFFFFFFFFFFFFFFFFFFFFFFFFFF DUP3 AND SWAP1 POP SWAP2 SWAP1 POP JUMP JUMPDEST PUSH1 0x0 DUP2 SWAP1 POP SWAP2 SWAP1 POP JUMP JUMPDEST PUSH1 0x0 JUMPDEST DUP4 DUP2 LT ISZERO PUSH2 0x1B7 JUMPI DUP1 DUP3 ADD MLOAD DUP2 DUP5 ADD MSTORE PUSH1 0x20 DUP2 ADD SWAP1 POP PUSH2 0x19C JUMP JUMPDEST DUP4 DUP2 GT ISZERO PUSH2 0x1C6 JUMPI PUSH1 0x0 DUP5 DUP5 ADD MSTORE JUMPDEST POP POP POP POP JUMP JUMPDEST PUSH1 0x0 DUP1 REVERT JUMPDEST PUSH1 0x0 PUSH1 0x1F NOT PUSH1 0x1F DUP4 ADD AND SWAP1 POP SWAP2 SWAP1 POP JUMP JUMPDEST PUSH2 0x1EB DUP2 PUSH2 0x15D JUMP JUMPDEST DUP2 EQ PUSH2 0x1F6 JUMPI PUSH1 0x0 DUP1 REVERT JUMPDEST POP JUMP JUMPDEST PUSH2 0x202 DUP2 PUSH2 0x18F JUMP JUMPDEST DUP2 EQ PUSH2 0x20D JUMPI PUSH1 0x0 DUP1 REVERT JUMPDEST POP JUMP INVALID LOG2 PUSH5 0x6970667358 0x22 SLT KECCAK256 0xAA SGT 0xBD BASEFEE 0xAB 0xCE SELFBALANCE 0xC4 0xEB DUP4 0xDB 0xE1 EXTCODESIZE EXTCODEHASH 0xC9 EXP SHR TIMESTAMP PUSH7 0xE781337C13287F 0x26 0xD4 PUSH25 0x6E29F164736F6C634300080700330000000000000000000000 "
				},
				"gasEstimates": {
					"creation": {
						"codeDepositCost": "116400",
						"executionCost": "165",
						"totalCost": "116565"
					},
					"external": {
						"callFunc(address,uint256,uint256)": "infinite"
					},
					"internal": {
						"isContract(address)": "infinite"
					}
				},
				"methodIdentifiers": {
					"callFunc(address,uint256,uint256)": "a72d2473"
				}
			},
			"storageLayout": {
				"storage": [],
				"types": null
			},
			"userdoc": {
				"kind": "user",
				"methods": {},
				"version": 1
			}
		}
	}
}