{
	"data": {
		"bytecode": {
			"linkReferences": {},
			"object": "608060405234801561001057600080fd5b50610292806100206000396000f3fe608060405234801561001057600080fd5b50600436106100575760003560e01c806328eb7ef31461005c578063a94fb03514610066578063e7c898ef14610070578063ed62931a1461007a578063fc0e600814610084575b600080fd5b61006461008e565b005b61006e6100c2565b005b610078610109565b005b610082610143565b005b61008c610188565b005b600080600190505b6001826100a391906101fe565b915080806100b090610233565b915050600b8160ff1610610096575050565b600080600190505b600b8160ff1610156101055760058160ff1603156100f2576001826100ef91906101fe565b91505b80806100fd90610233565b9150506100ca565b5050565b600080600190505b600b8160ff16101561013f5760018261012a91906101fe565b9150808061013790610233565b915050610111565b5050565b600080600190505b600b8160ff1610156101845760018261016491906101fe565b9150600a8260ff161161018457808061017c90610233565b91505061014b565b5050565b600080600190505b600b8160ff1610156101be576001826101a991906101fe565b915080806101b690610233565b915050610190565b5050565b600060ff82169050919050565b7f4e487b7100000000000000000000000000000000000000000000000000000000600052601160045260246000fd5b6000610209826101c2565b9150610214836101c2565b9250828201905060ff81111561022d5761022c6101cf565b5b92915050565b600061023e826101c2565b915060ff8203610251576102506101cf565b5b60018201905091905056fea26469706673582212209bf1801380b7310323df923a81be1d584b0fcb515f03e92d8aa1d7e50346352264736f6c63430008110033",
			"opcodes": "PUSH1 0x80 PUSH1 0x40 MSTORE CALLVALUE DUP1 ISZERO PUSH2 0x10 JUMPI PUSH1 0x0 DUP1 REVERT JUMPDEST POP PUSH2 0x292 DUP1 PUSH2 0x20 PUSH1 0x0 CODECOPY PUSH1 0x0 RETURN INVALID PUSH1 0x80 PUSH1 0x40 MSTORE CALLVALUE DUP1 ISZERO PUSH2 0x10 JUMPI PUSH1 0x0 DUP1 REVERT JUMPDEST POP PUSH1 0x4 CALLDATASIZE LT PUSH2 0x57 JUMPI PUSH1 0x0 CALLDATALOAD PUSH1 0xE0 SHR DUP1 PUSH4 0x28EB7EF3 EQ PUSH2 0x5C JUMPI DUP1 PUSH4 0xA94FB035 EQ PUSH2 0x66 JUMPI DUP1 PUSH4 0xE7C898EF EQ PUSH2 0x70 JUMPI DUP1 PUSH4 0xED62931A EQ PUSH2 0x7A JUMPI DUP1 PUSH4 0xFC0E6008 EQ PUSH2 0x84 JUMPI JUMPDEST PUSH1 0x0 DUP1 REVERT JUMPDEST PUSH2 0x64 PUSH2 0x8E JUMP JUMPDEST STOP JUMPDEST PUSH2 0x6E PUSH2 0xC2 JUMP JUMPDEST STOP JUMPDEST PUSH2 0x78 PUSH2 0x109 JUMP JUMPDEST STOP JUMPDEST PUSH2 0x82 PUSH2 0x143 JUMP JUMPDEST STOP JUMPDEST PUSH2 0x8C PUSH2 0x188 JUMP JUMPDEST STOP JUMPDEST PUSH1 0x0 DUP1 PUSH1 0x1 SWAP1 POP JUMPDEST PUSH1 0x1 DUP3 PUSH2 0xA3 SWAP2 SWAP1 PUSH2 0x1FE JUMP JUMPDEST SWAP2 POP DUP1 DUP1 PUSH2 0xB0 SWAP1 PUSH2 0x233 JUMP JUMPDEST SWAP2 POP POP PUSH1 0xB DUP2 PUSH1 0xFF AND LT PUSH2 0x96 JUMPI POP POP JUMP JUMPDEST PUSH1 0x0 DUP1 PUSH1 0x1 SWAP1 POP JUMPDEST PUSH1 0xB DUP2 PUSH1 0xFF AND LT ISZERO PUSH2 0x105 JUMPI PUSH1 0x5 DUP2 PUSH1 0xFF AND SUB ISZERO PUSH2 0xF2 JUMPI PUSH1 0x1 DUP3 PUSH2 0xEF SWAP2 SWAP1 PUSH2 0x1FE JUMP JUMPDEST SWAP2 POP JUMPDEST DUP1 DUP1 PUSH2 0xFD SWAP1 PUSH2 0x233 JUMP JUMPDEST SWAP2 POP POP PUSH2 0xCA JUMP JUMPDEST POP POP JUMP JUMPDEST PUSH1 0x0 DUP1 PUSH1 0x1 SWAP1 POP JUMPDEST PUSH1 0xB DUP2 PUSH1 0xFF AND LT ISZERO PUSH2 0x13F JUMPI PUSH1 0x1 DUP3 PUSH2 0x12A SWAP2 SWAP1 PUSH2 0x1FE JUMP JUMPDEST SWAP2 POP DUP1 DUP1 PUSH2 0x137 SWAP1 PUSH2 0x233 JUMP JUMPDEST SWAP2 POP POP PUSH2 0x111 JUMP JUMPDEST POP POP JUMP JUMPDEST PUSH1 0x0 DUP1 PUSH1 0x1 SWAP1 POP JUMPDEST PUSH1 0xB DUP2 PUSH1 0xFF AND LT ISZERO PUSH2 0x184 JUMPI PUSH1 0x1 DUP3 PUSH2 0x164 SWAP2 SWAP1 PUSH2 0x1FE JUMP JUMPDEST SWAP2 POP PUSH1 0xA DUP3 PUSH1 0xFF AND GT PUSH2 0x184 JUMPI DUP1 DUP1 PUSH2 0x17C SWAP1 PUSH2 0x233 JUMP JUMPDEST SWAP2 POP POP PUSH2 0x14B JUMP JUMPDEST POP POP JUMP JUMPDEST PUSH1 0x0 DUP1 PUSH1 0x1 SWAP1 POP JUMPDEST PUSH1 0xB DUP2 PUSH1 0xFF AND LT ISZERO PUSH2 0x1BE JUMPI PUSH1 0x1 DUP3 PUSH2 0x1A9 SWAP2 SWAP1 PUSH2 0x1FE JUMP JUMPDEST SWAP2 POP DUP1 DUP1 PUSH2 0x1B6 SWAP1 PUSH2 0x233 JUMP JUMPDEST SWAP2 POP POP PUSH2 0x190 JUMP JUMPDEST POP POP JUMP JUMPDEST PUSH1 0x0 PUSH1 0xFF DUP3 AND SWAP1 POP SWAP2 SWAP1 POP JUMP JUMPDEST PUSH32 0x4E487B7100000000000000000000000000000000000000000000000000000000 PUSH1 0x0 MSTORE PUSH1 0x11 PUSH1 0x4 MSTORE PUSH1 0x24 PUSH1 0x0 REVERT JUMPDEST PUSH1 0x0 PUSH2 0x209 DUP3 PUSH2 0x1C2 JUMP JUMPDEST SWAP2 POP PUSH2 0x214 DUP4 PUSH2 0x1C2 JUMP JUMPDEST SWAP3 POP DUP3 DUP3 ADD SWAP1 POP PUSH1 0xFF DUP2 GT ISZERO PUSH2 0x22D JUMPI PUSH2 0x22C PUSH2 0x1CF JUMP JUMPDEST JUMPDEST SWAP3 SWAP2 POP POP JUMP JUMPDEST PUSH1 0x0 PUSH2 0x23E DUP3 PUSH2 0x1C2 JUMP JUMPDEST SWAP2 POP PUSH1 0xFF DUP3 SUB PUSH2 0x251 JUMPI PUSH2 0x250 PUSH2 0x1CF JUMP JUMPDEST JUMPDEST PUSH1 0x1 DUP3 ADD SWAP1 POP SWAP2 SWAP1 POP JUMP INVALID LOG2 PUSH5 0x6970667358 0x22 SLT KECCAK256 SWAP12 CALL DUP1 SGT DUP1 0xB7 BALANCE SUB 0x23 0xDF SWAP3 GASPRICE DUP2 0xBE SAR PC 0x4B 0xF 0xCB MLOAD 0x5F SUB 0xE9 0x2D DUP11 LOG1 0xD7 0xE5 SUB CHAINID CALLDATALOAD 0x22 PUSH5 0x736F6C6343 STOP ADDMOD GT STOP CALLER "
		},
		"gasEstimates": {
			"creation": {
				"codeDepositCost": "131600",
				"executionCost": "177",
				"totalCost": "131777"
			},
			"external": {
				"dowhileLoop()": "infinite",
				"forLoop()": "infinite",
				"loopBreak()": "infinite",
				"loopContinue()": "infinite",
				"whileLoop()": "infinite"
			}
		},
		"methodIdentifiers": {
			"dowhileLoop()": "28eb7ef3",
			"forLoop()": "fc0e6008",
			"loopBreak()": "ed62931a",
			"loopContinue()": "a94fb035",
			"whileLoop()": "e7c898ef"
		}
	},
	"abi": [
		{
			"inputs": [],
			"name": "dowhileLoop",
			"outputs": [],
			"stateMutability": "nonpayable",
			"type": "function"
		},
		{
			"inputs": [],
			"name": "forLoop",
			"outputs": [],
			"stateMutability": "nonpayable",
			"type": "function"
		},
		{
			"inputs": [],
			"name": "loopBreak",
			"outputs": [],
			"stateMutability": "nonpayable",
			"type": "function"
		},
		{
			"inputs": [],
			"name": "loopContinue",
			"outputs": [],
			"stateMutability": "nonpayable",
			"type": "function"
		},
		{
			"inputs": [],
			"name": "whileLoop",
			"outputs": [],
			"stateMutability": "nonpayable",
			"type": "function"
		}
	]
}