{
	"contracts/inheritance/MultiInheritance.sol": {
		"Car": {
			"abi": [
				{
					"inputs": [
						{
							"internalType": "string",
							"name": "_type",
							"type": "string"
						},
						{
							"internalType": "uint8",
							"name": "_door",
							"type": "uint8"
						},
						{
							"internalType": "uint256",
							"name": "_price",
							"type": "uint256"
						}
					],
					"stateMutability": "nonpayable",
					"type": "constructor"
				},
				{
					"inputs": [],
					"name": "getDoor",
					"outputs": [
						{
							"internalType": "uint8",
							"name": "",
							"type": "uint8"
						}
					],
					"stateMutability": "view",
					"type": "function"
				},
				{
					"inputs": [],
					"name": "getPrice",
					"outputs": [
						{
							"internalType": "uint256",
							"name": "",
							"type": "uint256"
						}
					],
					"stateMutability": "view",
					"type": "function"
				},
				{
					"inputs": [],
					"name": "getSeller",
					"outputs": [
						{
							"internalType": "address",
							"name": "",
							"type": "address"
						}
					],
					"stateMutability": "view",
					"type": "function"
				}
			],
			"devdoc": {
				"kind": "dev",
				"methods": {},
				"version": 1
			},
			"evm": {
				"assembly": "    /* \"contracts/inheritance/MultiInheritance.sol\":412:922  contract Car is Seller(0x890ab9bD8947FeBaa369129bE757a8CdF9007737){\r... */\n  mstore(0x40, 0x80)\n    /* \"contracts/inheritance/MultiInheritance.sol\":588:726  constructor(string memory _type, uint8 _door, uint _price){\r... */\n  callvalue\n  dup1\n  iszero\n  tag_1\n  jumpi\n  0x00\n  dup1\n  revert\ntag_1:\n  pop\n  mload(0x40)\n  sub(codesize, bytecodeSize)\n  dup1\n  bytecodeSize\n  dup4\n  codecopy\n  dup2\n  dup2\n  add\n  0x40\n  mstore\n  dup2\n  add\n  swap1\n  tag_2\n  swap2\n  swap1\n  tag_3\n  jump\t// in\ntag_2:\n    /* \"contracts/inheritance/MultiInheritance.sol\":435:477  0x890ab9bD8947FeBaa369129bE757a8CdF9007737 */\n  0x890ab9bd8947febaa369129be757a8cdf9007737\n    /* \"contracts/inheritance/MultiInheritance.sol\":303:310  _seller */\n  dup1\n    /* \"contracts/inheritance/MultiInheritance.sol\":294:300  seller */\n  0x00\n  dup1\n    /* \"contracts/inheritance/MultiInheritance.sol\":294:310  seller = _seller */\n  0x0100\n  exp\n  dup2\n  sload\n  dup2\n  0xffffffffffffffffffffffffffffffffffffffff\n  mul\n  not\n  and\n  swap1\n  dup4\n  0xffffffffffffffffffffffffffffffffffffffff\n  and\n  mul\n  or\n  swap1\n  sstore\n  pop\n    /* \"contracts/inheritance/MultiInheritance.sol\":255:318  constructor(address _seller){\r... */\n  pop\n    /* \"contracts/inheritance/MultiInheritance.sol\":665:670  _type */\n  dup3\n    /* \"contracts/inheritance/MultiInheritance.sol\":657:662  type_ */\n  0x02\n    /* \"contracts/inheritance/MultiInheritance.sol\":657:670  type_ = _type */\n  swap1\n  dup1\n  mload\n  swap1\n  0x20\n  add\n  swap1\n  tag_8\n  swap3\n  swap2\n  swap1\n  tag_9\n  jump\t// in\ntag_8:\n  pop\n    /* \"contracts/inheritance/MultiInheritance.sol\":688:693  _door */\n  dup2\n    /* \"contracts/inheritance/MultiInheritance.sol\":681:685  door */\n  0x03\n  0x00\n    /* \"contracts/inheritance/MultiInheritance.sol\":681:693  door = _door */\n  0x0100\n  exp\n  dup2\n  sload\n  dup2\n  0xff\n  mul\n  not\n  and\n  swap1\n  dup4\n  0xff\n  and\n  mul\n  or\n  swap1\n  sstore\n  pop\n    /* \"contracts/inheritance/MultiInheritance.sol\":712:718  _price */\n  dup1\n    /* \"contracts/inheritance/MultiInheritance.sol\":704:709  price */\n  0x04\n    /* \"contracts/inheritance/MultiInheritance.sol\":704:718  price = _price */\n  dup2\n  swap1\n  sstore\n  pop\n    /* \"contracts/inheritance/MultiInheritance.sol\":588:726  constructor(string memory _type, uint8 _door, uint _price){\r... */\n  pop\n  pop\n  pop\n    /* \"contracts/inheritance/MultiInheritance.sol\":412:922  contract Car is Seller(0x890ab9bD8947FeBaa369129bE757a8CdF9007737){\r... */\n  jump(tag_10)\ntag_9:\n  dup3\n  dup1\n  sload\n  tag_11\n  swap1\n  tag_12\n  jump\t// in\ntag_11:\n  swap1\n  0x00\n  mstore\n  keccak256(0x00, 0x20)\n  swap1\n  0x1f\n  add\n  0x20\n  swap1\n  div\n  dup2\n  add\n  swap3\n  dup3\n  tag_14\n  jumpi\n  0x00\n  dup6\n  sstore\n  jump(tag_13)\ntag_14:\n  dup3\n  0x1f\n  lt\n  tag_15\n  jumpi\n  dup1\n  mload\n  not(0xff)\n  and\n  dup4\n  dup1\n  add\n  or\n  dup6\n  sstore\n  jump(tag_13)\ntag_15:\n  dup3\n  dup1\n  add\n  0x01\n  add\n  dup6\n  sstore\n  dup3\n  iszero\n  tag_13\n  jumpi\n  swap2\n  dup3\n  add\ntag_16:\n  dup3\n  dup2\n  gt\n  iszero\n  tag_17\n  jumpi\n  dup3\n  mload\n  dup3\n  sstore\n  swap2\n  0x20\n  add\n  swap2\n  swap1\n  0x01\n  add\n  swap1\n  jump(tag_16)\ntag_17:\ntag_13:\n  pop\n  swap1\n  pop\n  tag_18\n  swap2\n  swap1\n  tag_19\n  jump\t// in\ntag_18:\n  pop\n  swap1\n  jump\t// out\ntag_19:\ntag_20:\n  dup1\n  dup3\n  gt\n  iszero\n  tag_21\n  jumpi\n  0x00\n  dup2\n  0x00\n  swap1\n  sstore\n  pop\n  0x01\n  add\n  jump(tag_20)\ntag_21:\n  pop\n  swap1\n  jump\t// out\n    /* \"#utility.yul\":7:428   */\ntag_23:\n    /* \"#utility.yul\":96:101   */\n  0x00\n    /* \"#utility.yul\":121:187   */\n  tag_25\n    /* \"#utility.yul\":137:186   */\n  tag_26\n    /* \"#utility.yul\":179:185   */\n  dup5\n    /* \"#utility.yul\":137:186   */\n  tag_27\n  jump\t// in\ntag_26:\n    /* \"#utility.yul\":121:187   */\n  tag_28\n  jump\t// in\ntag_25:\n    /* \"#utility.yul\":112:187   */\n  swap1\n  pop\n    /* \"#utility.yul\":210:216   */\n  dup3\n    /* \"#utility.yul\":203:208   */\n  dup2\n    /* \"#utility.yul\":196:217   */\n  mstore\n    /* \"#utility.yul\":248:252   */\n  0x20\n    /* \"#utility.yul\":241:246   */\n  dup2\n    /* \"#utility.yul\":237:253   */\n  add\n    /* \"#utility.yul\":286:289   */\n  dup5\n    /* \"#utility.yul\":277:283   */\n  dup5\n    /* \"#utility.yul\":272:275   */\n  dup5\n    /* \"#utility.yul\":268:284   */\n  add\n    /* \"#utility.yul\":265:290   */\n  gt\n    /* \"#utility.yul\":262:374   */\n  iszero\n  tag_29\n  jumpi\n    /* \"#utility.yul\":293:372   */\n  tag_30\n  tag_31\n  jump\t// in\ntag_30:\n    /* \"#utility.yul\":262:374   */\ntag_29:\n    /* \"#utility.yul\":383:422   */\n  tag_32\n    /* \"#utility.yul\":415:421   */\n  dup5\n    /* \"#utility.yul\":410:413   */\n  dup3\n    /* \"#utility.yul\":405:408   */\n  dup6\n    /* \"#utility.yul\":383:422   */\n  tag_33\n  jump\t// in\ntag_32:\n    /* \"#utility.yul\":102:428   */\n  pop\n    /* \"#utility.yul\":7:428   */\n  swap4\n  swap3\n  pop\n  pop\n  pop\n  jump\t// out\n    /* \"#utility.yul\":448:803   */\ntag_34:\n    /* \"#utility.yul\":515:520   */\n  0x00\n    /* \"#utility.yul\":564:567   */\n  dup3\n    /* \"#utility.yul\":557:561   */\n  0x1f\n    /* \"#utility.yul\":549:555   */\n  dup4\n    /* \"#utility.yul\":545:562   */\n  add\n    /* \"#utility.yul\":541:568   */\n  slt\n    /* \"#utility.yul\":531:653   */\n  tag_36\n  jumpi\n    /* \"#utility.yul\":572:651   */\n  tag_37\n  tag_38\n  jump\t// in\ntag_37:\n    /* \"#utility.yul\":531:653   */\ntag_36:\n    /* \"#utility.yul\":682:688   */\n  dup2\n    /* \"#utility.yul\":676:689   */\n  mload\n    /* \"#utility.yul\":707:797   */\n  tag_39\n    /* \"#utility.yul\":793:796   */\n  dup5\n    /* \"#utility.yul\":785:791   */\n  dup3\n    /* \"#utility.yul\":778:782   */\n  0x20\n    /* \"#utility.yul\":770:776   */\n  dup7\n    /* \"#utility.yul\":766:783   */\n  add\n    /* \"#utility.yul\":707:797   */\n  tag_23\n  jump\t// in\ntag_39:\n    /* \"#utility.yul\":698:797   */\n  swap2\n  pop\n    /* \"#utility.yul\":521:803   */\n  pop\n    /* \"#utility.yul\":448:803   */\n  swap3\n  swap2\n  pop\n  pop\n  jump\t// out\n    /* \"#utility.yul\":809:952   */\ntag_40:\n    /* \"#utility.yul\":866:871   */\n  0x00\n    /* \"#utility.yul\":897:903   */\n  dup2\n    /* \"#utility.yul\":891:904   */\n  mload\n    /* \"#utility.yul\":882:904   */\n  swap1\n  pop\n    /* \"#utility.yul\":913:946   */\n  tag_42\n    /* \"#utility.yul\":940:945   */\n  dup2\n    /* \"#utility.yul\":913:946   */\n  tag_43\n  jump\t// in\ntag_42:\n    /* \"#utility.yul\":809:952   */\n  swap3\n  swap2\n  pop\n  pop\n  jump\t// out\n    /* \"#utility.yul\":958:1097   */\ntag_44:\n    /* \"#utility.yul\":1013:1018   */\n  0x00\n    /* \"#utility.yul\":1044:1050   */\n  dup2\n    /* \"#utility.yul\":1038:1051   */\n  mload\n    /* \"#utility.yul\":1029:1051   */\n  swap1\n  pop\n    /* \"#utility.yul\":1060:1091   */\n  tag_46\n    /* \"#utility.yul\":1085:1090   */\n  dup2\n    /* \"#utility.yul\":1060:1091   */\n  tag_47\n  jump\t// in\ntag_46:\n    /* \"#utility.yul\":958:1097   */\n  swap3\n  swap2\n  pop\n  pop\n  jump\t// out\n    /* \"#utility.yul\":1103:1935   */\ntag_3:\n    /* \"#utility.yul\":1199:1205   */\n  0x00\n    /* \"#utility.yul\":1207:1213   */\n  dup1\n    /* \"#utility.yul\":1215:1221   */\n  0x00\n    /* \"#utility.yul\":1264:1266   */\n  0x60\n    /* \"#utility.yul\":1252:1261   */\n  dup5\n    /* \"#utility.yul\":1243:1250   */\n  dup7\n    /* \"#utility.yul\":1239:1262   */\n  sub\n    /* \"#utility.yul\":1235:1267   */\n  slt\n    /* \"#utility.yul\":1232:1351   */\n  iszero\n  tag_49\n  jumpi\n    /* \"#utility.yul\":1270:1349   */\n  tag_50\n  tag_51\n  jump\t// in\ntag_50:\n    /* \"#utility.yul\":1232:1351   */\ntag_49:\n    /* \"#utility.yul\":1411:1412   */\n  0x00\n    /* \"#utility.yul\":1400:1409   */\n  dup5\n    /* \"#utility.yul\":1396:1413   */\n  add\n    /* \"#utility.yul\":1390:1414   */\n  mload\n    /* \"#utility.yul\":1441:1459   */\n  0xffffffffffffffff\n    /* \"#utility.yul\":1433:1439   */\n  dup2\n    /* \"#utility.yul\":1430:1460   */\n  gt\n    /* \"#utility.yul\":1427:1544   */\n  iszero\n  tag_52\n  jumpi\n    /* \"#utility.yul\":1463:1542   */\n  tag_53\n  tag_54\n  jump\t// in\ntag_53:\n    /* \"#utility.yul\":1427:1544   */\ntag_52:\n    /* \"#utility.yul\":1568:1642   */\n  tag_55\n    /* \"#utility.yul\":1634:1641   */\n  dup7\n    /* \"#utility.yul\":1625:1631   */\n  dup3\n    /* \"#utility.yul\":1614:1623   */\n  dup8\n    /* \"#utility.yul\":1610:1632   */\n  add\n    /* \"#utility.yul\":1568:1642   */\n  tag_34\n  jump\t// in\ntag_55:\n    /* \"#utility.yul\":1558:1642   */\n  swap4\n  pop\n    /* \"#utility.yul\":1361:1652   */\n  pop\n    /* \"#utility.yul\":1691:1693   */\n  0x20\n    /* \"#utility.yul\":1717:1779   */\n  tag_56\n    /* \"#utility.yul\":1771:1778   */\n  dup7\n    /* \"#utility.yul\":1762:1768   */\n  dup3\n    /* \"#utility.yul\":1751:1760   */\n  dup8\n    /* \"#utility.yul\":1747:1769   */\n  add\n    /* \"#utility.yul\":1717:1779   */\n  tag_44\n  jump\t// in\ntag_56:\n    /* \"#utility.yul\":1707:1779   */\n  swap3\n  pop\n    /* \"#utility.yul\":1662:1789   */\n  pop\n    /* \"#utility.yul\":1828:1830   */\n  0x40\n    /* \"#utility.yul\":1854:1918   */\n  tag_57\n    /* \"#utility.yul\":1910:1917   */\n  dup7\n    /* \"#utility.yul\":1901:1907   */\n  dup3\n    /* \"#utility.yul\":1890:1899   */\n  dup8\n    /* \"#utility.yul\":1886:1908   */\n  add\n    /* \"#utility.yul\":1854:1918   */\n  tag_40\n  jump\t// in\ntag_57:\n    /* \"#utility.yul\":1844:1918   */\n  swap2\n  pop\n    /* \"#utility.yul\":1799:1928   */\n  pop\n    /* \"#utility.yul\":1103:1935   */\n  swap3\n  pop\n  swap3\n  pop\n  swap3\n  jump\t// out\n    /* \"#utility.yul\":1941:2070   */\ntag_28:\n    /* \"#utility.yul\":1975:1981   */\n  0x00\n    /* \"#utility.yul\":2002:2022   */\n  tag_59\n  tag_60\n  jump\t// in\ntag_59:\n    /* \"#utility.yul\":1992:2022   */\n  swap1\n  pop\n    /* \"#utility.yul\":2031:2064   */\n  tag_61\n    /* \"#utility.yul\":2059:2063   */\n  dup3\n    /* \"#utility.yul\":2051:2057   */\n  dup3\n    /* \"#utility.yul\":2031:2064   */\n  tag_62\n  jump\t// in\ntag_61:\n    /* \"#utility.yul\":1941:2070   */\n  swap2\n  swap1\n  pop\n  jump\t// out\n    /* \"#utility.yul\":2076:2151   */\ntag_60:\n    /* \"#utility.yul\":2109:2115   */\n  0x00\n    /* \"#utility.yul\":2142:2144   */\n  0x40\n    /* \"#utility.yul\":2136:2145   */\n  mload\n    /* \"#utility.yul\":2126:2145   */\n  swap1\n  pop\n    /* \"#utility.yul\":2076:2151   */\n  swap1\n  jump\t// out\n    /* \"#utility.yul\":2157:2465   */\ntag_27:\n    /* \"#utility.yul\":2219:2223   */\n  0x00\n    /* \"#utility.yul\":2309:2327   */\n  0xffffffffffffffff\n    /* \"#utility.yul\":2301:2307   */\n  dup3\n    /* \"#utility.yul\":2298:2328   */\n  gt\n    /* \"#utility.yul\":2295:2351   */\n  iszero\n  tag_65\n  jumpi\n    /* \"#utility.yul\":2331:2349   */\n  tag_66\n  tag_67\n  jump\t// in\ntag_66:\n    /* \"#utility.yul\":2295:2351   */\ntag_65:\n    /* \"#utility.yul\":2369:2398   */\n  tag_68\n    /* \"#utility.yul\":2391:2397   */\n  dup3\n    /* \"#utility.yul\":2369:2398   */\n  tag_69\n  jump\t// in\ntag_68:\n    /* \"#utility.yul\":2361:2398   */\n  swap1\n  pop\n    /* \"#utility.yul\":2453:2457   */\n  0x20\n    /* \"#utility.yul\":2447:2451   */\n  dup2\n    /* \"#utility.yul\":2443:2458   */\n  add\n    /* \"#utility.yul\":2435:2458   */\n  swap1\n  pop\n    /* \"#utility.yul\":2157:2465   */\n  swap2\n  swap1\n  pop\n  jump\t// out\n    /* \"#utility.yul\":2471:2548   */\ntag_70:\n    /* \"#utility.yul\":2508:2515   */\n  0x00\n    /* \"#utility.yul\":2537:2542   */\n  dup2\n    /* \"#utility.yul\":2526:2542   */\n  swap1\n  pop\n    /* \"#utility.yul\":2471:2548   */\n  swap2\n  swap1\n  pop\n  jump\t// out\n    /* \"#utility.yul\":2554:2640   */\ntag_72:\n    /* \"#utility.yul\":2589:2596   */\n  0x00\n    /* \"#utility.yul\":2629:2633   */\n  0xff\n    /* \"#utility.yul\":2622:2627   */\n  dup3\n    /* \"#utility.yul\":2618:2634   */\n  and\n    /* \"#utility.yul\":2607:2634   */\n  swap1\n  pop\n    /* \"#utility.yul\":2554:2640   */\n  swap2\n  swap1\n  pop\n  jump\t// out\n    /* \"#utility.yul\":2646:2953   */\ntag_33:\n    /* \"#utility.yul\":2714:2715   */\n  0x00\n    /* \"#utility.yul\":2724:2837   */\ntag_75:\n    /* \"#utility.yul\":2738:2744   */\n  dup4\n    /* \"#utility.yul\":2735:2736   */\n  dup2\n    /* \"#utility.yul\":2732:2745   */\n  lt\n    /* \"#utility.yul\":2724:2837   */\n  iszero\n  tag_77\n  jumpi\n    /* \"#utility.yul\":2823:2824   */\n  dup1\n    /* \"#utility.yul\":2818:2821   */\n  dup3\n    /* \"#utility.yul\":2814:2825   */\n  add\n    /* \"#utility.yul\":2808:2826   */\n  mload\n    /* \"#utility.yul\":2804:2805   */\n  dup2\n    /* \"#utility.yul\":2799:2802   */\n  dup5\n    /* \"#utility.yul\":2795:2806   */\n  add\n    /* \"#utility.yul\":2788:2827   */\n  mstore\n    /* \"#utility.yul\":2760:2762   */\n  0x20\n    /* \"#utility.yul\":2757:2758   */\n  dup2\n    /* \"#utility.yul\":2753:2763   */\n  add\n    /* \"#utility.yul\":2748:2763   */\n  swap1\n  pop\n    /* \"#utility.yul\":2724:2837   */\n  jump(tag_75)\ntag_77:\n    /* \"#utility.yul\":2855:2861   */\n  dup4\n    /* \"#utility.yul\":2852:2853   */\n  dup2\n    /* \"#utility.yul\":2849:2862   */\n  gt\n    /* \"#utility.yul\":2846:2947   */\n  iszero\n  tag_78\n  jumpi\n    /* \"#utility.yul\":2935:2936   */\n  0x00\n    /* \"#utility.yul\":2926:2932   */\n  dup5\n    /* \"#utility.yul\":2921:2924   */\n  dup5\n    /* \"#utility.yul\":2917:2933   */\n  add\n    /* \"#utility.yul\":2910:2937   */\n  mstore\n    /* \"#utility.yul\":2846:2947   */\ntag_78:\n    /* \"#utility.yul\":2695:2953   */\n  pop\n    /* \"#utility.yul\":2646:2953   */\n  pop\n  pop\n  pop\n  jump\t// out\n    /* \"#utility.yul\":2959:3279   */\ntag_12:\n    /* \"#utility.yul\":3003:3009   */\n  0x00\n    /* \"#utility.yul\":3040:3041   */\n  0x02\n    /* \"#utility.yul\":3034:3038   */\n  dup3\n    /* \"#utility.yul\":3030:3042   */\n  div\n    /* \"#utility.yul\":3020:3042   */\n  swap1\n  pop\n    /* \"#utility.yul\":3087:3088   */\n  0x01\n    /* \"#utility.yul\":3081:3085   */\n  dup3\n    /* \"#utility.yul\":3077:3089   */\n  and\n    /* \"#utility.yul\":3108:3126   */\n  dup1\n    /* \"#utility.yul\":3098:3179   */\n  tag_80\n  jumpi\n    /* \"#utility.yul\":3164:3168   */\n  0x7f\n    /* \"#utility.yul\":3156:3162   */\n  dup3\n    /* \"#utility.yul\":3152:3169   */\n  and\n    /* \"#utility.yul\":3142:3169   */\n  swap2\n  pop\n    /* \"#utility.yul\":3098:3179   */\ntag_80:\n    /* \"#utility.yul\":3226:3228   */\n  0x20\n    /* \"#utility.yul\":3218:3224   */\n  dup3\n    /* \"#utility.yul\":3215:3229   */\n  lt\n    /* \"#utility.yul\":3195:3213   */\n  dup2\n    /* \"#utility.yul\":3192:3230   */\n  eq\n    /* \"#utility.yul\":3189:3273   */\n  iszero\n  tag_81\n  jumpi\n    /* \"#utility.yul\":3245:3263   */\n  tag_82\n  tag_83\n  jump\t// in\ntag_82:\n    /* \"#utility.yul\":3189:3273   */\ntag_81:\n    /* \"#utility.yul\":3010:3279   */\n  pop\n    /* \"#utility.yul\":2959:3279   */\n  swap2\n  swap1\n  pop\n  jump\t// out\n    /* \"#utility.yul\":3285:3566   */\ntag_62:\n    /* \"#utility.yul\":3368:3395   */\n  tag_85\n    /* \"#utility.yul\":3390:3394   */\n  dup3\n    /* \"#utility.yul\":3368:3395   */\n  tag_69\n  jump\t// in\ntag_85:\n    /* \"#utility.yul\":3360:3366   */\n  dup2\n    /* \"#utility.yul\":3356:3396   */\n  add\n    /* \"#utility.yul\":3498:3504   */\n  dup2\n    /* \"#utility.yul\":3486:3496   */\n  dup2\n    /* \"#utility.yul\":3483:3505   */\n  lt\n    /* \"#utility.yul\":3462:3480   */\n  0xffffffffffffffff\n    /* \"#utility.yul\":3450:3460   */\n  dup3\n    /* \"#utility.yul\":3447:3481   */\n  gt\n    /* \"#utility.yul\":3444:3506   */\n  or\n    /* \"#utility.yul\":3441:3529   */\n  iszero\n  tag_86\n  jumpi\n    /* \"#utility.yul\":3509:3527   */\n  tag_87\n  tag_67\n  jump\t// in\ntag_87:\n    /* \"#utility.yul\":3441:3529   */\ntag_86:\n    /* \"#utility.yul\":3549:3559   */\n  dup1\n    /* \"#utility.yul\":3545:3547   */\n  0x40\n    /* \"#utility.yul\":3538:3560   */\n  mstore\n    /* \"#utility.yul\":3328:3566   */\n  pop\n    /* \"#utility.yul\":3285:3566   */\n  pop\n  pop\n  jump\t// out\n    /* \"#utility.yul\":3572:3752   */\ntag_83:\n    /* \"#utility.yul\":3620:3697   */\n  0x4e487b7100000000000000000000000000000000000000000000000000000000\n    /* \"#utility.yul\":3617:3618   */\n  0x00\n    /* \"#utility.yul\":3610:3698   */\n  mstore\n    /* \"#utility.yul\":3717:3721   */\n  0x22\n    /* \"#utility.yul\":3714:3715   */\n  0x04\n    /* \"#utility.yul\":3707:3722   */\n  mstore\n    /* \"#utility.yul\":3741:3745   */\n  0x24\n    /* \"#utility.yul\":3738:3739   */\n  0x00\n    /* \"#utility.yul\":3731:3746   */\n  revert\n    /* \"#utility.yul\":3758:3938   */\ntag_67:\n    /* \"#utility.yul\":3806:3883   */\n  0x4e487b7100000000000000000000000000000000000000000000000000000000\n    /* \"#utility.yul\":3803:3804   */\n  0x00\n    /* \"#utility.yul\":3796:3884   */\n  mstore\n    /* \"#utility.yul\":3903:3907   */\n  0x41\n    /* \"#utility.yul\":3900:3901   */\n  0x04\n    /* \"#utility.yul\":3893:3908   */\n  mstore\n    /* \"#utility.yul\":3927:3931   */\n  0x24\n    /* \"#utility.yul\":3924:3925   */\n  0x00\n    /* \"#utility.yul\":3917:3932   */\n  revert\n    /* \"#utility.yul\":3944:4061   */\ntag_38:\n    /* \"#utility.yul\":4053:4054   */\n  0x00\n    /* \"#utility.yul\":4050:4051   */\n  dup1\n    /* \"#utility.yul\":4043:4055   */\n  revert\n    /* \"#utility.yul\":4067:4184   */\ntag_31:\n    /* \"#utility.yul\":4176:4177   */\n  0x00\n    /* \"#utility.yul\":4173:4174   */\n  dup1\n    /* \"#utility.yul\":4166:4178   */\n  revert\n    /* \"#utility.yul\":4190:4307   */\ntag_54:\n    /* \"#utility.yul\":4299:4300   */\n  0x00\n    /* \"#utility.yul\":4296:4297   */\n  dup1\n    /* \"#utility.yul\":4289:4301   */\n  revert\n    /* \"#utility.yul\":4313:4430   */\ntag_51:\n    /* \"#utility.yul\":4422:4423   */\n  0x00\n    /* \"#utility.yul\":4419:4420   */\n  dup1\n    /* \"#utility.yul\":4412:4424   */\n  revert\n    /* \"#utility.yul\":4436:4538   */\ntag_69:\n    /* \"#utility.yul\":4477:4483   */\n  0x00\n    /* \"#utility.yul\":4528:4530   */\n  0x1f\n    /* \"#utility.yul\":4524:4531   */\n  not\n    /* \"#utility.yul\":4519:4521   */\n  0x1f\n    /* \"#utility.yul\":4512:4517   */\n  dup4\n    /* \"#utility.yul\":4508:4522   */\n  add\n    /* \"#utility.yul\":4504:4532   */\n  and\n    /* \"#utility.yul\":4494:4532   */\n  swap1\n  pop\n    /* \"#utility.yul\":4436:4538   */\n  swap2\n  swap1\n  pop\n  jump\t// out\n    /* \"#utility.yul\":4544:4666   */\ntag_43:\n    /* \"#utility.yul\":4617:4641   */\n  tag_96\n    /* \"#utility.yul\":4635:4640   */\n  dup2\n    /* \"#utility.yul\":4617:4641   */\n  tag_70\n  jump\t// in\ntag_96:\n    /* \"#utility.yul\":4610:4615   */\n  dup2\n    /* \"#utility.yul\":4607:4642   */\n  eq\n    /* \"#utility.yul\":4597:4660   */\n  tag_97\n  jumpi\n    /* \"#utility.yul\":4656:4657   */\n  0x00\n    /* \"#utility.yul\":4653:4654   */\n  dup1\n    /* \"#utility.yul\":4646:4658   */\n  revert\n    /* \"#utility.yul\":4597:4660   */\ntag_97:\n    /* \"#utility.yul\":4544:4666   */\n  pop\n  jump\t// out\n    /* \"#utility.yul\":4672:4790   */\ntag_47:\n    /* \"#utility.yul\":4743:4765   */\n  tag_99\n    /* \"#utility.yul\":4759:4764   */\n  dup2\n    /* \"#utility.yul\":4743:4765   */\n  tag_72\n  jump\t// in\ntag_99:\n    /* \"#utility.yul\":4736:4741   */\n  dup2\n    /* \"#utility.yul\":4733:4766   */\n  eq\n    /* \"#utility.yul\":4723:4784   */\n  tag_100\n  jumpi\n    /* \"#utility.yul\":4780:4781   */\n  0x00\n    /* \"#utility.yul\":4777:4778   */\n  dup1\n    /* \"#utility.yul\":4770:4782   */\n  revert\n    /* \"#utility.yul\":4723:4784   */\ntag_100:\n    /* \"#utility.yul\":4672:4790   */\n  pop\n  jump\t// out\n    /* \"contracts/inheritance/MultiInheritance.sol\":412:922  contract Car is Seller(0x890ab9bD8947FeBaa369129bE757a8CdF9007737){\r... */\ntag_10:\n  dataSize(sub_0)\n  dup1\n  dataOffset(sub_0)\n  0x00\n  codecopy\n  0x00\n  return\nstop\n\nsub_0: assembly {\n        /* \"contracts/inheritance/MultiInheritance.sol\":412:922  contract Car is Seller(0x890ab9bD8947FeBaa369129bE757a8CdF9007737){\r... */\n      mstore(0x40, 0x80)\n      callvalue\n      dup1\n      iszero\n      tag_1\n      jumpi\n      0x00\n      dup1\n      revert\n    tag_1:\n      pop\n      jumpi(tag_2, lt(calldatasize, 0x04))\n      shr(0xe0, calldataload(0x00))\n      dup1\n      0x19e6f3a5\n      eq\n      tag_3\n      jumpi\n      dup1\n      0x98d5fdca\n      eq\n      tag_4\n      jumpi\n      dup1\n      0xdbd0e1b6\n      eq\n      tag_5\n      jumpi\n    tag_2:\n      0x00\n      dup1\n      revert\n        /* \"contracts/inheritance/MultiInheritance.sol\":732:808  function getDoor() public view returns(uint8) {\r... */\n    tag_3:\n      tag_6\n      tag_7\n      jump\t// in\n    tag_6:\n      mload(0x40)\n      tag_8\n      swap2\n      swap1\n      tag_9\n      jump\t// in\n    tag_8:\n      mload(0x40)\n      dup1\n      swap2\n      sub\n      swap1\n      return\n        /* \"contracts/inheritance/MultiInheritance.sol\":814:919  function getPrice() public view virtual returns(uint){ // virtual은 부모\r... */\n    tag_4:\n      tag_10\n      tag_11\n      jump\t// in\n    tag_10:\n      mload(0x40)\n      tag_12\n      swap2\n      swap1\n      tag_13\n      jump\t// in\n    tag_12:\n      mload(0x40)\n      dup1\n      swap2\n      sub\n      swap1\n      return\n        /* \"contracts/inheritance/MultiInheritance.sol\":326:407  function getSeller() public view returns(address){\r... */\n    tag_5:\n      tag_14\n      tag_15\n      jump\t// in\n    tag_14:\n      mload(0x40)\n      tag_16\n      swap2\n      swap1\n      tag_17\n      jump\t// in\n    tag_16:\n      mload(0x40)\n      dup1\n      swap2\n      sub\n      swap1\n      return\n        /* \"contracts/inheritance/MultiInheritance.sol\":732:808  function getDoor() public view returns(uint8) {\r... */\n    tag_7:\n        /* \"contracts/inheritance/MultiInheritance.sol\":771:776  uint8 */\n      0x00\n        /* \"contracts/inheritance/MultiInheritance.sol\":796:800  door */\n      0x03\n      0x00\n      swap1\n      sload\n      swap1\n      0x0100\n      exp\n      swap1\n      div\n      0xff\n      and\n        /* \"contracts/inheritance/MultiInheritance.sol\":789:800  return door */\n      swap1\n      pop\n        /* \"contracts/inheritance/MultiInheritance.sol\":732:808  function getDoor() public view returns(uint8) {\r... */\n      swap1\n      jump\t// out\n        /* \"contracts/inheritance/MultiInheritance.sol\":814:919  function getPrice() public view virtual returns(uint){ // virtual은 부모\r... */\n    tag_11:\n        /* \"contracts/inheritance/MultiInheritance.sol\":862:866  uint */\n      0x00\n        /* \"contracts/inheritance/MultiInheritance.sol\":906:911  price */\n      sload(0x04)\n        /* \"contracts/inheritance/MultiInheritance.sol\":899:911  return price */\n      swap1\n      pop\n        /* \"contracts/inheritance/MultiInheritance.sol\":814:919  function getPrice() public view virtual returns(uint){ // virtual은 부모\r... */\n      swap1\n      jump\t// out\n        /* \"contracts/inheritance/MultiInheritance.sol\":326:407  function getSeller() public view returns(address){\r... */\n    tag_15:\n        /* \"contracts/inheritance/MultiInheritance.sol\":367:374  address */\n      0x00\n        /* \"contracts/inheritance/MultiInheritance.sol\":393:399  seller */\n      dup1\n      0x00\n      swap1\n      sload\n      swap1\n      0x0100\n      exp\n      swap1\n      div\n      0xffffffffffffffffffffffffffffffffffffffff\n      and\n        /* \"contracts/inheritance/MultiInheritance.sol\":386:399  return seller */\n      swap1\n      pop\n        /* \"contracts/inheritance/MultiInheritance.sol\":326:407  function getSeller() public view returns(address){\r... */\n      swap1\n      jump\t// out\n        /* \"#utility.yul\":7:125   */\n    tag_22:\n        /* \"#utility.yul\":94:118   */\n      tag_24\n        /* \"#utility.yul\":112:117   */\n      dup2\n        /* \"#utility.yul\":94:118   */\n      tag_25\n      jump\t// in\n    tag_24:\n        /* \"#utility.yul\":89:92   */\n      dup3\n        /* \"#utility.yul\":82:119   */\n      mstore\n        /* \"#utility.yul\":7:125   */\n      pop\n      pop\n      jump\t// out\n        /* \"#utility.yul\":131:249   */\n    tag_26:\n        /* \"#utility.yul\":218:242   */\n      tag_28\n        /* \"#utility.yul\":236:241   */\n      dup2\n        /* \"#utility.yul\":218:242   */\n      tag_29\n      jump\t// in\n    tag_28:\n        /* \"#utility.yul\":213:216   */\n      dup3\n        /* \"#utility.yul\":206:243   */\n      mstore\n        /* \"#utility.yul\":131:249   */\n      pop\n      pop\n      jump\t// out\n        /* \"#utility.yul\":255:367   */\n    tag_30:\n        /* \"#utility.yul\":338:360   */\n      tag_32\n        /* \"#utility.yul\":354:359   */\n      dup2\n        /* \"#utility.yul\":338:360   */\n      tag_33\n      jump\t// in\n    tag_32:\n        /* \"#utility.yul\":333:336   */\n      dup3\n        /* \"#utility.yul\":326:361   */\n      mstore\n        /* \"#utility.yul\":255:367   */\n      pop\n      pop\n      jump\t// out\n        /* \"#utility.yul\":373:595   */\n    tag_17:\n        /* \"#utility.yul\":466:470   */\n      0x00\n        /* \"#utility.yul\":504:506   */\n      0x20\n        /* \"#utility.yul\":493:502   */\n      dup3\n        /* \"#utility.yul\":489:507   */\n      add\n        /* \"#utility.yul\":481:507   */\n      swap1\n      pop\n        /* \"#utility.yul\":517:588   */\n      tag_35\n        /* \"#utility.yul\":585:586   */\n      0x00\n        /* \"#utility.yul\":574:583   */\n      dup4\n        /* \"#utility.yul\":570:587   */\n      add\n        /* \"#utility.yul\":561:567   */\n      dup5\n        /* \"#utility.yul\":517:588   */\n      tag_22\n      jump\t// in\n    tag_35:\n        /* \"#utility.yul\":373:595   */\n      swap3\n      swap2\n      pop\n      pop\n      jump\t// out\n        /* \"#utility.yul\":601:823   */\n    tag_13:\n        /* \"#utility.yul\":694:698   */\n      0x00\n        /* \"#utility.yul\":732:734   */\n      0x20\n        /* \"#utility.yul\":721:730   */\n      dup3\n        /* \"#utility.yul\":717:735   */\n      add\n        /* \"#utility.yul\":709:735   */\n      swap1\n      pop\n        /* \"#utility.yul\":745:816   */\n      tag_37\n        /* \"#utility.yul\":813:814   */\n      0x00\n        /* \"#utility.yul\":802:811   */\n      dup4\n        /* \"#utility.yul\":798:815   */\n      add\n        /* \"#utility.yul\":789:795   */\n      dup5\n        /* \"#utility.yul\":745:816   */\n      tag_26\n      jump\t// in\n    tag_37:\n        /* \"#utility.yul\":601:823   */\n      swap3\n      swap2\n      pop\n      pop\n      jump\t// out\n        /* \"#utility.yul\":829:1043   */\n    tag_9:\n        /* \"#utility.yul\":918:922   */\n      0x00\n        /* \"#utility.yul\":956:958   */\n      0x20\n        /* \"#utility.yul\":945:954   */\n      dup3\n        /* \"#utility.yul\":941:959   */\n      add\n        /* \"#utility.yul\":933:959   */\n      swap1\n      pop\n        /* \"#utility.yul\":969:1036   */\n      tag_39\n        /* \"#utility.yul\":1033:1034   */\n      0x00\n        /* \"#utility.yul\":1022:1031   */\n      dup4\n        /* \"#utility.yul\":1018:1035   */\n      add\n        /* \"#utility.yul\":1009:1015   */\n      dup5\n        /* \"#utility.yul\":969:1036   */\n      tag_30\n      jump\t// in\n    tag_39:\n        /* \"#utility.yul\":829:1043   */\n      swap3\n      swap2\n      pop\n      pop\n      jump\t// out\n        /* \"#utility.yul\":1049:1145   */\n    tag_25:\n        /* \"#utility.yul\":1086:1093   */\n      0x00\n        /* \"#utility.yul\":1115:1139   */\n      tag_41\n        /* \"#utility.yul\":1133:1138   */\n      dup3\n        /* \"#utility.yul\":1115:1139   */\n      tag_42\n      jump\t// in\n    tag_41:\n        /* \"#utility.yul\":1104:1139   */\n      swap1\n      pop\n        /* \"#utility.yul\":1049:1145   */\n      swap2\n      swap1\n      pop\n      jump\t// out\n        /* \"#utility.yul\":1151:1277   */\n    tag_42:\n        /* \"#utility.yul\":1188:1195   */\n      0x00\n        /* \"#utility.yul\":1228:1270   */\n      0xffffffffffffffffffffffffffffffffffffffff\n        /* \"#utility.yul\":1221:1226   */\n      dup3\n        /* \"#utility.yul\":1217:1271   */\n      and\n        /* \"#utility.yul\":1206:1271   */\n      swap1\n      pop\n        /* \"#utility.yul\":1151:1277   */\n      swap2\n      swap1\n      pop\n      jump\t// out\n        /* \"#utility.yul\":1283:1360   */\n    tag_29:\n        /* \"#utility.yul\":1320:1327   */\n      0x00\n        /* \"#utility.yul\":1349:1354   */\n      dup2\n        /* \"#utility.yul\":1338:1354   */\n      swap1\n      pop\n        /* \"#utility.yul\":1283:1360   */\n      swap2\n      swap1\n      pop\n      jump\t// out\n        /* \"#utility.yul\":1366:1452   */\n    tag_33:\n        /* \"#utility.yul\":1401:1408   */\n      0x00\n        /* \"#utility.yul\":1441:1445   */\n      0xff\n        /* \"#utility.yul\":1434:1439   */\n      dup3\n        /* \"#utility.yul\":1430:1446   */\n      and\n        /* \"#utility.yul\":1419:1446   */\n      swap1\n      pop\n        /* \"#utility.yul\":1366:1452   */\n      swap2\n      swap1\n      pop\n      jump\t// out\n\n    auxdata: 0xa2646970667358221220cefb1db8d3cee6caa5b30a96cb4c9893dbb3ae1ed67d8baab2fea64f7672d92464736f6c63430008070033\n}\n",
				"bytecode": {
					"linkReferences": {},
					"object": "608060405234801561001057600080fd5b5060405161061f38038061061f83398181016040528101906100329190610206565b73890ab9bd8947febaa369129be757a8cdf9007737806000806101000a81548173ffffffffffffffffffffffffffffffffffffffff021916908373ffffffffffffffffffffffffffffffffffffffff16021790555050826002908051906020019061009e9291906100c9565b5081600360006101000a81548160ff021916908360ff16021790555080600481905550505050610429565b8280546100d590610315565b90600052602060002090601f0160209004810192826100f7576000855561013e565b82601f1061011057805160ff191683800117855561013e565b8280016001018555821561013e579182015b8281111561013d578251825591602001919060010190610122565b5b50905061014b919061014f565b5090565b5b80821115610168576000816000905550600101610150565b5090565b600061017f61017a8461029a565b610275565b90508281526020810184848401111561019b5761019a6103db565b5b6101a68482856102e2565b509392505050565b600082601f8301126101c3576101c26103d6565b5b81516101d384826020860161016c565b91505092915050565b6000815190506101eb816103fb565b92915050565b60008151905061020081610412565b92915050565b60008060006060848603121561021f5761021e6103e5565b5b600084015167ffffffffffffffff81111561023d5761023c6103e0565b5b610249868287016101ae565b935050602061025a868287016101f1565b925050604061026b868287016101dc565b9150509250925092565b600061027f610290565b905061028b8282610347565b919050565b6000604051905090565b600067ffffffffffffffff8211156102b5576102b46103a7565b5b6102be826103ea565b9050602081019050919050565b6000819050919050565b600060ff82169050919050565b60005b838110156103005780820151818401526020810190506102e5565b8381111561030f576000848401525b50505050565b6000600282049050600182168061032d57607f821691505b6020821081141561034157610340610378565b5b50919050565b610350826103ea565b810181811067ffffffffffffffff8211171561036f5761036e6103a7565b5b80604052505050565b7f4e487b7100000000000000000000000000000000000000000000000000000000600052602260045260246000fd5b7f4e487b7100000000000000000000000000000000000000000000000000000000600052604160045260246000fd5b600080fd5b600080fd5b600080fd5b600080fd5b6000601f19601f8301169050919050565b610404816102cb565b811461040f57600080fd5b50565b61041b816102d5565b811461042657600080fd5b50565b6101e7806104386000396000f3fe608060405234801561001057600080fd5b50600436106100415760003560e01c806319e6f3a51461004657806398d5fdca14610064578063dbd0e1b614610082575b600080fd5b61004e6100a0565b60405161005b919061014d565b60405180910390f35b61006c6100b7565b6040516100799190610132565b60405180910390f35b61008a6100c1565b6040516100979190610117565b60405180910390f35b6000600360009054906101000a900460ff16905090565b6000600454905090565b60008060009054906101000a900473ffffffffffffffffffffffffffffffffffffffff16905090565b6100f381610168565b82525050565b6101028161019a565b82525050565b610111816101a4565b82525050565b600060208201905061012c60008301846100ea565b92915050565b600060208201905061014760008301846100f9565b92915050565b60006020820190506101626000830184610108565b92915050565b60006101738261017a565b9050919050565b600073ffffffffffffffffffffffffffffffffffffffff82169050919050565b6000819050919050565b600060ff8216905091905056fea2646970667358221220cefb1db8d3cee6caa5b30a96cb4c9893dbb3ae1ed67d8baab2fea64f7672d92464736f6c63430008070033",
					"opcodes": "PUSH1 0x80 PUSH1 0x40 MSTORE CALLVALUE DUP1 ISZERO PUSH2 0x10 JUMPI PUSH1 0x0 DUP1 REVERT JUMPDEST POP PUSH1 0x40 MLOAD PUSH2 0x61F CODESIZE SUB DUP1 PUSH2 0x61F DUP4 CODECOPY DUP2 DUP2 ADD PUSH1 0x40 MSTORE DUP2 ADD SWAP1 PUSH2 0x32 SWAP2 SWAP1 PUSH2 0x206 JUMP JUMPDEST PUSH20 0x890AB9BD8947FEBAA369129BE757A8CDF9007737 DUP1 PUSH1 0x0 DUP1 PUSH2 0x100 EXP DUP2 SLOAD DUP2 PUSH20 0xFFFFFFFFFFFFFFFFFFFFFFFFFFFFFFFFFFFFFFFF MUL NOT AND SWAP1 DUP4 PUSH20 0xFFFFFFFFFFFFFFFFFFFFFFFFFFFFFFFFFFFFFFFF AND MUL OR SWAP1 SSTORE POP POP DUP3 PUSH1 0x2 SWAP1 DUP1 MLOAD SWAP1 PUSH1 0x20 ADD SWAP1 PUSH2 0x9E SWAP3 SWAP2 SWAP1 PUSH2 0xC9 JUMP JUMPDEST POP DUP2 PUSH1 0x3 PUSH1 0x0 PUSH2 0x100 EXP DUP2 SLOAD DUP2 PUSH1 0xFF MUL NOT AND SWAP1 DUP4 PUSH1 0xFF AND MUL OR SWAP1 SSTORE POP DUP1 PUSH1 0x4 DUP2 SWAP1 SSTORE POP POP POP POP PUSH2 0x429 JUMP JUMPDEST DUP3 DUP1 SLOAD PUSH2 0xD5 SWAP1 PUSH2 0x315 JUMP JUMPDEST SWAP1 PUSH1 0x0 MSTORE PUSH1 0x20 PUSH1 0x0 KECCAK256 SWAP1 PUSH1 0x1F ADD PUSH1 0x20 SWAP1 DIV DUP2 ADD SWAP3 DUP3 PUSH2 0xF7 JUMPI PUSH1 0x0 DUP6 SSTORE PUSH2 0x13E JUMP JUMPDEST DUP3 PUSH1 0x1F LT PUSH2 0x110 JUMPI DUP1 MLOAD PUSH1 0xFF NOT AND DUP4 DUP1 ADD OR DUP6 SSTORE PUSH2 0x13E JUMP JUMPDEST DUP3 DUP1 ADD PUSH1 0x1 ADD DUP6 SSTORE DUP3 ISZERO PUSH2 0x13E JUMPI SWAP2 DUP3 ADD JUMPDEST DUP3 DUP2 GT ISZERO PUSH2 0x13D JUMPI DUP3 MLOAD DUP3 SSTORE SWAP2 PUSH1 0x20 ADD SWAP2 SWAP1 PUSH1 0x1 ADD SWAP1 PUSH2 0x122 JUMP JUMPDEST JUMPDEST POP SWAP1 POP PUSH2 0x14B SWAP2 SWAP1 PUSH2 0x14F JUMP JUMPDEST POP SWAP1 JUMP JUMPDEST JUMPDEST DUP1 DUP3 GT ISZERO PUSH2 0x168 JUMPI PUSH1 0x0 DUP2 PUSH1 0x0 SWAP1 SSTORE POP PUSH1 0x1 ADD PUSH2 0x150 JUMP JUMPDEST POP SWAP1 JUMP JUMPDEST PUSH1 0x0 PUSH2 0x17F PUSH2 0x17A DUP5 PUSH2 0x29A JUMP JUMPDEST PUSH2 0x275 JUMP JUMPDEST SWAP1 POP DUP3 DUP2 MSTORE PUSH1 0x20 DUP2 ADD DUP5 DUP5 DUP5 ADD GT ISZERO PUSH2 0x19B JUMPI PUSH2 0x19A PUSH2 0x3DB JUMP JUMPDEST JUMPDEST PUSH2 0x1A6 DUP5 DUP3 DUP6 PUSH2 0x2E2 JUMP JUMPDEST POP SWAP4 SWAP3 POP POP POP JUMP JUMPDEST PUSH1 0x0 DUP3 PUSH1 0x1F DUP4 ADD SLT PUSH2 0x1C3 JUMPI PUSH2 0x1C2 PUSH2 0x3D6 JUMP JUMPDEST JUMPDEST DUP2 MLOAD PUSH2 0x1D3 DUP5 DUP3 PUSH1 0x20 DUP7 ADD PUSH2 0x16C JUMP JUMPDEST SWAP2 POP POP SWAP3 SWAP2 POP POP JUMP JUMPDEST PUSH1 0x0 DUP2 MLOAD SWAP1 POP PUSH2 0x1EB DUP2 PUSH2 0x3FB JUMP JUMPDEST SWAP3 SWAP2 POP POP JUMP JUMPDEST PUSH1 0x0 DUP2 MLOAD SWAP1 POP PUSH2 0x200 DUP2 PUSH2 0x412 JUMP JUMPDEST SWAP3 SWAP2 POP POP JUMP JUMPDEST PUSH1 0x0 DUP1 PUSH1 0x0 PUSH1 0x60 DUP5 DUP7 SUB SLT ISZERO PUSH2 0x21F JUMPI PUSH2 0x21E PUSH2 0x3E5 JUMP JUMPDEST JUMPDEST PUSH1 0x0 DUP5 ADD MLOAD PUSH8 0xFFFFFFFFFFFFFFFF DUP2 GT ISZERO PUSH2 0x23D JUMPI PUSH2 0x23C PUSH2 0x3E0 JUMP JUMPDEST JUMPDEST PUSH2 0x249 DUP7 DUP3 DUP8 ADD PUSH2 0x1AE JUMP JUMPDEST SWAP4 POP POP PUSH1 0x20 PUSH2 0x25A DUP7 DUP3 DUP8 ADD PUSH2 0x1F1 JUMP JUMPDEST SWAP3 POP POP PUSH1 0x40 PUSH2 0x26B DUP7 DUP3 DUP8 ADD PUSH2 0x1DC JUMP JUMPDEST SWAP2 POP POP SWAP3 POP SWAP3 POP SWAP3 JUMP JUMPDEST PUSH1 0x0 PUSH2 0x27F PUSH2 0x290 JUMP JUMPDEST SWAP1 POP PUSH2 0x28B DUP3 DUP3 PUSH2 0x347 JUMP JUMPDEST SWAP2 SWAP1 POP JUMP JUMPDEST PUSH1 0x0 PUSH1 0x40 MLOAD SWAP1 POP SWAP1 JUMP JUMPDEST PUSH1 0x0 PUSH8 0xFFFFFFFFFFFFFFFF DUP3 GT ISZERO PUSH2 0x2B5 JUMPI PUSH2 0x2B4 PUSH2 0x3A7 JUMP JUMPDEST JUMPDEST PUSH2 0x2BE DUP3 PUSH2 0x3EA JUMP JUMPDEST SWAP1 POP PUSH1 0x20 DUP2 ADD SWAP1 POP SWAP2 SWAP1 POP JUMP JUMPDEST PUSH1 0x0 DUP2 SWAP1 POP SWAP2 SWAP1 POP JUMP JUMPDEST PUSH1 0x0 PUSH1 0xFF DUP3 AND SWAP1 POP SWAP2 SWAP1 POP JUMP JUMPDEST PUSH1 0x0 JUMPDEST DUP4 DUP2 LT ISZERO PUSH2 0x300 JUMPI DUP1 DUP3 ADD MLOAD DUP2 DUP5 ADD MSTORE PUSH1 0x20 DUP2 ADD SWAP1 POP PUSH2 0x2E5 JUMP JUMPDEST DUP4 DUP2 GT ISZERO PUSH2 0x30F JUMPI PUSH1 0x0 DUP5 DUP5 ADD MSTORE JUMPDEST POP POP POP POP JUMP JUMPDEST PUSH1 0x0 PUSH1 0x2 DUP3 DIV SWAP1 POP PUSH1 0x1 DUP3 AND DUP1 PUSH2 0x32D JUMPI PUSH1 0x7F DUP3 AND SWAP2 POP JUMPDEST PUSH1 0x20 DUP3 LT DUP2 EQ ISZERO PUSH2 0x341 JUMPI PUSH2 0x340 PUSH2 0x378 JUMP JUMPDEST JUMPDEST POP SWAP2 SWAP1 POP JUMP JUMPDEST PUSH2 0x350 DUP3 PUSH2 0x3EA JUMP JUMPDEST DUP2 ADD DUP2 DUP2 LT PUSH8 0xFFFFFFFFFFFFFFFF DUP3 GT OR ISZERO PUSH2 0x36F JUMPI PUSH2 0x36E PUSH2 0x3A7 JUMP JUMPDEST JUMPDEST DUP1 PUSH1 0x40 MSTORE POP POP POP JUMP JUMPDEST PUSH32 0x4E487B7100000000000000000000000000000000000000000000000000000000 PUSH1 0x0 MSTORE PUSH1 0x22 PUSH1 0x4 MSTORE PUSH1 0x24 PUSH1 0x0 REVERT JUMPDEST PUSH32 0x4E487B7100000000000000000000000000000000000000000000000000000000 PUSH1 0x0 MSTORE PUSH1 0x41 PUSH1 0x4 MSTORE PUSH1 0x24 PUSH1 0x0 REVERT JUMPDEST PUSH1 0x0 DUP1 REVERT JUMPDEST PUSH1 0x0 DUP1 REVERT JUMPDEST PUSH1 0x0 DUP1 REVERT JUMPDEST PUSH1 0x0 DUP1 REVERT JUMPDEST PUSH1 0x0 PUSH1 0x1F NOT PUSH1 0x1F DUP4 ADD AND SWAP1 POP SWAP2 SWAP1 POP JUMP JUMPDEST PUSH2 0x404 DUP2 PUSH2 0x2CB JUMP JUMPDEST DUP2 EQ PUSH2 0x40F JUMPI PUSH1 0x0 DUP1 REVERT JUMPDEST POP JUMP JUMPDEST PUSH2 0x41B DUP2 PUSH2 0x2D5 JUMP JUMPDEST DUP2 EQ PUSH2 0x426 JUMPI PUSH1 0x0 DUP1 REVERT JUMPDEST POP JUMP JUMPDEST PUSH2 0x1E7 DUP1 PUSH2 0x438 PUSH1 0x0 CODECOPY PUSH1 0x0 RETURN INVALID PUSH1 0x80 PUSH1 0x40 MSTORE CALLVALUE DUP1 ISZERO PUSH2 0x10 JUMPI PUSH1 0x0 DUP1 REVERT JUMPDEST POP PUSH1 0x4 CALLDATASIZE LT PUSH2 0x41 JUMPI PUSH1 0x0 CALLDATALOAD PUSH1 0xE0 SHR DUP1 PUSH4 0x19E6F3A5 EQ PUSH2 0x46 JUMPI DUP1 PUSH4 0x98D5FDCA EQ PUSH2 0x64 JUMPI DUP1 PUSH4 0xDBD0E1B6 EQ PUSH2 0x82 JUMPI JUMPDEST PUSH1 0x0 DUP1 REVERT JUMPDEST PUSH2 0x4E PUSH2 0xA0 JUMP JUMPDEST PUSH1 0x40 MLOAD PUSH2 0x5B SWAP2 SWAP1 PUSH2 0x14D JUMP JUMPDEST PUSH1 0x40 MLOAD DUP1 SWAP2 SUB SWAP1 RETURN JUMPDEST PUSH2 0x6C PUSH2 0xB7 JUMP JUMPDEST PUSH1 0x40 MLOAD PUSH2 0x79 SWAP2 SWAP1 PUSH2 0x132 JUMP JUMPDEST PUSH1 0x40 MLOAD DUP1 SWAP2 SUB SWAP1 RETURN JUMPDEST PUSH2 0x8A PUSH2 0xC1 JUMP JUMPDEST PUSH1 0x40 MLOAD PUSH2 0x97 SWAP2 SWAP1 PUSH2 0x117 JUMP JUMPDEST PUSH1 0x40 MLOAD DUP1 SWAP2 SUB SWAP1 RETURN JUMPDEST PUSH1 0x0 PUSH1 0x3 PUSH1 0x0 SWAP1 SLOAD SWAP1 PUSH2 0x100 EXP SWAP1 DIV PUSH1 0xFF AND SWAP1 POP SWAP1 JUMP JUMPDEST PUSH1 0x0 PUSH1 0x4 SLOAD SWAP1 POP SWAP1 JUMP JUMPDEST PUSH1 0x0 DUP1 PUSH1 0x0 SWAP1 SLOAD SWAP1 PUSH2 0x100 EXP SWAP1 DIV PUSH20 0xFFFFFFFFFFFFFFFFFFFFFFFFFFFFFFFFFFFFFFFF AND SWAP1 POP SWAP1 JUMP JUMPDEST PUSH2 0xF3 DUP2 PUSH2 0x168 JUMP JUMPDEST DUP3 MSTORE POP POP JUMP JUMPDEST PUSH2 0x102 DUP2 PUSH2 0x19A JUMP JUMPDEST DUP3 MSTORE POP POP JUMP JUMPDEST PUSH2 0x111 DUP2 PUSH2 0x1A4 JUMP JUMPDEST DUP3 MSTORE POP POP JUMP JUMPDEST PUSH1 0x0 PUSH1 0x20 DUP3 ADD SWAP1 POP PUSH2 0x12C PUSH1 0x0 DUP4 ADD DUP5 PUSH2 0xEA JUMP JUMPDEST SWAP3 SWAP2 POP POP JUMP JUMPDEST PUSH1 0x0 PUSH1 0x20 DUP3 ADD SWAP1 POP PUSH2 0x147 PUSH1 0x0 DUP4 ADD DUP5 PUSH2 0xF9 JUMP JUMPDEST SWAP3 SWAP2 POP POP JUMP JUMPDEST PUSH1 0x0 PUSH1 0x20 DUP3 ADD SWAP1 POP PUSH2 0x162 PUSH1 0x0 DUP4 ADD DUP5 PUSH2 0x108 JUMP JUMPDEST SWAP3 SWAP2 POP POP JUMP JUMPDEST PUSH1 0x0 PUSH2 0x173 DUP3 PUSH2 0x17A JUMP JUMPDEST SWAP1 POP SWAP2 SWAP1 POP JUMP JUMPDEST PUSH1 0x0 PUSH20 0xFFFFFFFFFFFFFFFFFFFFFFFFFFFFFFFFFFFFFFFF DUP3 AND SWAP1 POP SWAP2 SWAP1 POP JUMP JUMPDEST PUSH1 0x0 DUP2 SWAP1 POP SWAP2 SWAP1 POP JUMP JUMPDEST PUSH1 0x0 PUSH1 0xFF DUP3 AND SWAP1 POP SWAP2 SWAP1 POP JUMP INVALID LOG2 PUSH5 0x6970667358 0x22 SLT KECCAK256 0xCE 0xFB SAR 0xB8 0xD3 0xCE 0xE6 0xCA 0xA5 0xB3 EXP SWAP7 0xCB 0x4C SWAP9 SWAP4 0xDB 0xB3 0xAE 0x1E 0xD6 PUSH30 0x8BAAB2FEA64F7672D92464736F6C63430008070033000000000000000000 "
				},
				"gasEstimates": {
					"creation": {
						"codeDepositCost": "97400",
						"executionCost": "infinite",
						"totalCost": "infinite"
					},
					"external": {
						"getDoor()": "2457",
						"getPrice()": "2437",
						"getSeller()": "2544"
					}
				},
				"methodIdentifiers": {
					"getDoor()": "19e6f3a5",
					"getPrice()": "98d5fdca",
					"getSeller()": "dbd0e1b6"
				}
			},
			"storageLayout": {
				"storage": [
					{
						"astId": 3,
						"contract": "contracts/inheritance/MultiInheritance.sol:Car",
						"label": "seller",
						"offset": 0,
						"slot": "0",
						"type": "t_address"
					},
					{
						"astId": 5,
						"contract": "contracts/inheritance/MultiInheritance.sol:Car",
						"label": "location",
						"offset": 0,
						"slot": "1",
						"type": "t_string_storage"
					},
					{
						"astId": 29,
						"contract": "contracts/inheritance/MultiInheritance.sol:Car",
						"label": "type_",
						"offset": 0,
						"slot": "2",
						"type": "t_string_storage"
					},
					{
						"astId": 31,
						"contract": "contracts/inheritance/MultiInheritance.sol:Car",
						"label": "door",
						"offset": 0,
						"slot": "3",
						"type": "t_uint8"
					},
					{
						"astId": 33,
						"contract": "contracts/inheritance/MultiInheritance.sol:Car",
						"label": "price",
						"offset": 0,
						"slot": "4",
						"type": "t_uint256"
					}
				],
				"types": {
					"t_address": {
						"encoding": "inplace",
						"label": "address",
						"numberOfBytes": "20"
					},
					"t_string_storage": {
						"encoding": "bytes",
						"label": "string",
						"numberOfBytes": "32"
					},
					"t_uint256": {
						"encoding": "inplace",
						"label": "uint256",
						"numberOfBytes": "32"
					},
					"t_uint8": {
						"encoding": "inplace",
						"label": "uint8",
						"numberOfBytes": "1"
					}
				}
			},
			"userdoc": {
				"kind": "user",
				"methods": {},
				"version": 1
			}
		}
	}
}