{
	"contracts/inheritance/MultiInheritance.sol": {
		"Benz": {
			"abi": [
				{
					"inputs": [
						{
							"internalType": "string",
							"name": "_model",
							"type": "string"
						},
						{
							"internalType": "uint256",
							"name": "_premium",
							"type": "uint256"
						}
					],
					"stateMutability": "nonpayable",
					"type": "constructor"
				},
				{
					"inputs": [],
					"name": "getCarPrice",
					"outputs": [
						{
							"internalType": "uint256",
							"name": "",
							"type": "uint256"
						}
					],
					"stateMutability": "view",
					"type": "function"
				},
				{
					"inputs": [],
					"name": "getDoor",
					"outputs": [
						{
							"internalType": "uint8",
							"name": "",
							"type": "uint8"
						}
					],
					"stateMutability": "view",
					"type": "function"
				},
				{
					"inputs": [],
					"name": "getModel",
					"outputs": [
						{
							"internalType": "string",
							"name": "",
							"type": "string"
						}
					],
					"stateMutability": "view",
					"type": "function"
				},
				{
					"inputs": [],
					"name": "getPrice",
					"outputs": [
						{
							"internalType": "uint256",
							"name": "",
							"type": "uint256"
						}
					],
					"stateMutability": "view",
					"type": "function"
				},
				{
					"inputs": [],
					"name": "getSeller",
					"outputs": [
						{
							"internalType": "address",
							"name": "",
							"type": "address"
						}
					],
					"stateMutability": "view",
					"type": "function"
				}
			],
			"devdoc": {
				"kind": "dev",
				"methods": {},
				"version": 1
			},
			"evm": {
				"assembly": "    /* \"contracts/inheritance/MultiInheritance.sol\":840:1551  contract Benz is Car(\"suv\",4, 10000), Seller(){\r... */\n  mstore(0x40, 0x80)\n    /* \"contracts/inheritance/MultiInheritance.sol\":998:1137  constructor(string memory _model, uint _premium){\r... */\n  callvalue\n  dup1\n  iszero\n  tag_1\n  jumpi\n  0x00\n  dup1\n  revert\ntag_1:\n  pop\n  mload(0x40)\n  sub(codesize, bytecodeSize)\n  dup1\n  bytecodeSize\n  dup4\n  codecopy\n  dup2\n  dup2\n  add\n  0x40\n  mstore\n  dup2\n  add\n  swap1\n  tag_2\n  swap2\n  swap1\n  tag_3\n  jump\t// in\ntag_2:\n    /* \"contracts/inheritance/MultiInheritance.sol\":502:640  constructor(string memory _type, uint8 _door, uint _price){\r... */\n  mload(0x40)\n  dup1\n  0x40\n  add\n  0x40\n  mstore\n  dup1\n  0x03\n  dup2\n  mstore\n  0x20\n  add\n  0x7375760000000000000000000000000000000000000000000000000000000000\n  dup2\n  mstore\n  pop\n    /* \"contracts/inheritance/MultiInheritance.sol\":867:868  4 */\n  0x04\n    /* \"contracts/inheritance/MultiInheritance.sol\":870:875  10000 */\n  0x2710\n    /* \"contracts/inheritance/MultiInheritance.sol\":579:584  _type */\n  dup3\n    /* \"contracts/inheritance/MultiInheritance.sol\":571:576  type_ */\n  0x00\n    /* \"contracts/inheritance/MultiInheritance.sol\":571:584  type_ = _type */\n  swap1\n  dup1\n  mload\n  swap1\n  0x20\n  add\n  swap1\n  tag_8\n  swap3\n  swap2\n  swap1\n  tag_9\n  jump\t// in\ntag_8:\n  pop\n    /* \"contracts/inheritance/MultiInheritance.sol\":602:607  _door */\n  dup2\n    /* \"contracts/inheritance/MultiInheritance.sol\":595:599  door */\n  0x01\n  0x00\n    /* \"contracts/inheritance/MultiInheritance.sol\":595:607  door = _door */\n  0x0100\n  exp\n  dup2\n  sload\n  dup2\n  0xff\n  mul\n  not\n  and\n  swap1\n  dup4\n  0xff\n  and\n  mul\n  or\n  swap1\n  sstore\n  pop\n    /* \"contracts/inheritance/MultiInheritance.sol\":626:632  _price */\n  dup1\n    /* \"contracts/inheritance/MultiInheritance.sol\":618:623  price */\n  0x02\n    /* \"contracts/inheritance/MultiInheritance.sol\":618:632  price = _price */\n  dup2\n  swap1\n  sstore\n  pop\n    /* \"contracts/inheritance/MultiInheritance.sol\":502:640  constructor(string memory _type, uint8 _door, uint _price){\r... */\n  pop\n  pop\n  pop\n    /* \"contracts/inheritance/MultiInheritance.sol\":1065:1071  _model */\n  dup2\n    /* \"contracts/inheritance/MultiInheritance.sol\":1057:1062  model */\n  0x05\n    /* \"contracts/inheritance/MultiInheritance.sol\":1057:1071  model = _model */\n  swap1\n  dup1\n  mload\n  swap1\n  0x20\n  add\n  swap1\n  tag_12\n  swap3\n  swap2\n  swap1\n  tag_9\n  jump\t// in\ntag_12:\n  pop\n    /* \"contracts/inheritance/MultiInheritance.sol\":1090:1100  msg.sender */\n  caller\n    /* \"contracts/inheritance/MultiInheritance.sol\":1082:1087  owner */\n  0x06\n  0x00\n    /* \"contracts/inheritance/MultiInheritance.sol\":1082:1100  owner = msg.sender */\n  0x0100\n  exp\n  dup2\n  sload\n  dup2\n  0xffffffffffffffffffffffffffffffffffffffff\n  mul\n  not\n  and\n  swap1\n  dup4\n  0xffffffffffffffffffffffffffffffffffffffff\n  and\n  mul\n  or\n  swap1\n  sstore\n  pop\n    /* \"contracts/inheritance/MultiInheritance.sol\":1121:1129  _premium */\n  dup1\n    /* \"contracts/inheritance/MultiInheritance.sol\":1111:1118  premium */\n  0x07\n    /* \"contracts/inheritance/MultiInheritance.sol\":1111:1129  premium = _premium */\n  dup2\n  swap1\n  sstore\n  pop\n    /* \"contracts/inheritance/MultiInheritance.sol\":998:1137  constructor(string memory _model, uint _premium){\r... */\n  pop\n  pop\n    /* \"contracts/inheritance/MultiInheritance.sol\":840:1551  contract Benz is Car(\"suv\",4, 10000), Seller(){\r... */\n  jump(tag_13)\ntag_9:\n  dup3\n  dup1\n  sload\n  tag_14\n  swap1\n  tag_15\n  jump\t// in\ntag_14:\n  swap1\n  0x00\n  mstore\n  keccak256(0x00, 0x20)\n  swap1\n  0x1f\n  add\n  0x20\n  swap1\n  div\n  dup2\n  add\n  swap3\n  dup3\n  tag_17\n  jumpi\n  0x00\n  dup6\n  sstore\n  jump(tag_16)\ntag_17:\n  dup3\n  0x1f\n  lt\n  tag_18\n  jumpi\n  dup1\n  mload\n  not(0xff)\n  and\n  dup4\n  dup1\n  add\n  or\n  dup6\n  sstore\n  jump(tag_16)\ntag_18:\n  dup3\n  dup1\n  add\n  0x01\n  add\n  dup6\n  sstore\n  dup3\n  iszero\n  tag_16\n  jumpi\n  swap2\n  dup3\n  add\ntag_19:\n  dup3\n  dup2\n  gt\n  iszero\n  tag_20\n  jumpi\n  dup3\n  mload\n  dup3\n  sstore\n  swap2\n  0x20\n  add\n  swap2\n  swap1\n  0x01\n  add\n  swap1\n  jump(tag_19)\ntag_20:\ntag_16:\n  pop\n  swap1\n  pop\n  tag_21\n  swap2\n  swap1\n  tag_22\n  jump\t// in\ntag_21:\n  pop\n  swap1\n  jump\t// out\ntag_22:\ntag_23:\n  dup1\n  dup3\n  gt\n  iszero\n  tag_24\n  jumpi\n  0x00\n  dup2\n  0x00\n  swap1\n  sstore\n  pop\n  0x01\n  add\n  jump(tag_23)\ntag_24:\n  pop\n  swap1\n  jump\t// out\n    /* \"#utility.yul\":7:428   */\ntag_26:\n    /* \"#utility.yul\":96:101   */\n  0x00\n    /* \"#utility.yul\":121:187   */\n  tag_28\n    /* \"#utility.yul\":137:186   */\n  tag_29\n    /* \"#utility.yul\":179:185   */\n  dup5\n    /* \"#utility.yul\":137:186   */\n  tag_30\n  jump\t// in\ntag_29:\n    /* \"#utility.yul\":121:187   */\n  tag_31\n  jump\t// in\ntag_28:\n    /* \"#utility.yul\":112:187   */\n  swap1\n  pop\n    /* \"#utility.yul\":210:216   */\n  dup3\n    /* \"#utility.yul\":203:208   */\n  dup2\n    /* \"#utility.yul\":196:217   */\n  mstore\n    /* \"#utility.yul\":248:252   */\n  0x20\n    /* \"#utility.yul\":241:246   */\n  dup2\n    /* \"#utility.yul\":237:253   */\n  add\n    /* \"#utility.yul\":286:289   */\n  dup5\n    /* \"#utility.yul\":277:283   */\n  dup5\n    /* \"#utility.yul\":272:275   */\n  dup5\n    /* \"#utility.yul\":268:284   */\n  add\n    /* \"#utility.yul\":265:290   */\n  gt\n    /* \"#utility.yul\":262:374   */\n  iszero\n  tag_32\n  jumpi\n    /* \"#utility.yul\":293:372   */\n  tag_33\n  tag_34\n  jump\t// in\ntag_33:\n    /* \"#utility.yul\":262:374   */\ntag_32:\n    /* \"#utility.yul\":383:422   */\n  tag_35\n    /* \"#utility.yul\":415:421   */\n  dup5\n    /* \"#utility.yul\":410:413   */\n  dup3\n    /* \"#utility.yul\":405:408   */\n  dup6\n    /* \"#utility.yul\":383:422   */\n  tag_36\n  jump\t// in\ntag_35:\n    /* \"#utility.yul\":102:428   */\n  pop\n    /* \"#utility.yul\":7:428   */\n  swap4\n  swap3\n  pop\n  pop\n  pop\n  jump\t// out\n    /* \"#utility.yul\":448:803   */\ntag_37:\n    /* \"#utility.yul\":515:520   */\n  0x00\n    /* \"#utility.yul\":564:567   */\n  dup3\n    /* \"#utility.yul\":557:561   */\n  0x1f\n    /* \"#utility.yul\":549:555   */\n  dup4\n    /* \"#utility.yul\":545:562   */\n  add\n    /* \"#utility.yul\":541:568   */\n  slt\n    /* \"#utility.yul\":531:653   */\n  tag_39\n  jumpi\n    /* \"#utility.yul\":572:651   */\n  tag_40\n  tag_41\n  jump\t// in\ntag_40:\n    /* \"#utility.yul\":531:653   */\ntag_39:\n    /* \"#utility.yul\":682:688   */\n  dup2\n    /* \"#utility.yul\":676:689   */\n  mload\n    /* \"#utility.yul\":707:797   */\n  tag_42\n    /* \"#utility.yul\":793:796   */\n  dup5\n    /* \"#utility.yul\":785:791   */\n  dup3\n    /* \"#utility.yul\":778:782   */\n  0x20\n    /* \"#utility.yul\":770:776   */\n  dup7\n    /* \"#utility.yul\":766:783   */\n  add\n    /* \"#utility.yul\":707:797   */\n  tag_26\n  jump\t// in\ntag_42:\n    /* \"#utility.yul\":698:797   */\n  swap2\n  pop\n    /* \"#utility.yul\":521:803   */\n  pop\n    /* \"#utility.yul\":448:803   */\n  swap3\n  swap2\n  pop\n  pop\n  jump\t// out\n    /* \"#utility.yul\":809:952   */\ntag_43:\n    /* \"#utility.yul\":866:871   */\n  0x00\n    /* \"#utility.yul\":897:903   */\n  dup2\n    /* \"#utility.yul\":891:904   */\n  mload\n    /* \"#utility.yul\":882:904   */\n  swap1\n  pop\n    /* \"#utility.yul\":913:946   */\n  tag_45\n    /* \"#utility.yul\":940:945   */\n  dup2\n    /* \"#utility.yul\":913:946   */\n  tag_46\n  jump\t// in\ntag_45:\n    /* \"#utility.yul\":809:952   */\n  swap3\n  swap2\n  pop\n  pop\n  jump\t// out\n    /* \"#utility.yul\":958:1638   */\ntag_3:\n    /* \"#utility.yul\":1047:1053   */\n  0x00\n    /* \"#utility.yul\":1055:1061   */\n  dup1\n    /* \"#utility.yul\":1104:1106   */\n  0x40\n    /* \"#utility.yul\":1092:1101   */\n  dup4\n    /* \"#utility.yul\":1083:1090   */\n  dup6\n    /* \"#utility.yul\":1079:1102   */\n  sub\n    /* \"#utility.yul\":1075:1107   */\n  slt\n    /* \"#utility.yul\":1072:1191   */\n  iszero\n  tag_48\n  jumpi\n    /* \"#utility.yul\":1110:1189   */\n  tag_49\n  tag_50\n  jump\t// in\ntag_49:\n    /* \"#utility.yul\":1072:1191   */\ntag_48:\n    /* \"#utility.yul\":1251:1252   */\n  0x00\n    /* \"#utility.yul\":1240:1249   */\n  dup4\n    /* \"#utility.yul\":1236:1253   */\n  add\n    /* \"#utility.yul\":1230:1254   */\n  mload\n    /* \"#utility.yul\":1281:1299   */\n  0xffffffffffffffff\n    /* \"#utility.yul\":1273:1279   */\n  dup2\n    /* \"#utility.yul\":1270:1300   */\n  gt\n    /* \"#utility.yul\":1267:1384   */\n  iszero\n  tag_51\n  jumpi\n    /* \"#utility.yul\":1303:1382   */\n  tag_52\n  tag_53\n  jump\t// in\ntag_52:\n    /* \"#utility.yul\":1267:1384   */\ntag_51:\n    /* \"#utility.yul\":1408:1482   */\n  tag_54\n    /* \"#utility.yul\":1474:1481   */\n  dup6\n    /* \"#utility.yul\":1465:1471   */\n  dup3\n    /* \"#utility.yul\":1454:1463   */\n  dup7\n    /* \"#utility.yul\":1450:1472   */\n  add\n    /* \"#utility.yul\":1408:1482   */\n  tag_37\n  jump\t// in\ntag_54:\n    /* \"#utility.yul\":1398:1482   */\n  swap3\n  pop\n    /* \"#utility.yul\":1201:1492   */\n  pop\n    /* \"#utility.yul\":1531:1533   */\n  0x20\n    /* \"#utility.yul\":1557:1621   */\n  tag_55\n    /* \"#utility.yul\":1613:1620   */\n  dup6\n    /* \"#utility.yul\":1604:1610   */\n  dup3\n    /* \"#utility.yul\":1593:1602   */\n  dup7\n    /* \"#utility.yul\":1589:1611   */\n  add\n    /* \"#utility.yul\":1557:1621   */\n  tag_43\n  jump\t// in\ntag_55:\n    /* \"#utility.yul\":1547:1621   */\n  swap2\n  pop\n    /* \"#utility.yul\":1502:1631   */\n  pop\n    /* \"#utility.yul\":958:1638   */\n  swap3\n  pop\n  swap3\n  swap1\n  pop\n  jump\t// out\n    /* \"#utility.yul\":1644:1773   */\ntag_31:\n    /* \"#utility.yul\":1678:1684   */\n  0x00\n    /* \"#utility.yul\":1705:1725   */\n  tag_57\n  tag_58\n  jump\t// in\ntag_57:\n    /* \"#utility.yul\":1695:1725   */\n  swap1\n  pop\n    /* \"#utility.yul\":1734:1767   */\n  tag_59\n    /* \"#utility.yul\":1762:1766   */\n  dup3\n    /* \"#utility.yul\":1754:1760   */\n  dup3\n    /* \"#utility.yul\":1734:1767   */\n  tag_60\n  jump\t// in\ntag_59:\n    /* \"#utility.yul\":1644:1773   */\n  swap2\n  swap1\n  pop\n  jump\t// out\n    /* \"#utility.yul\":1779:1854   */\ntag_58:\n    /* \"#utility.yul\":1812:1818   */\n  0x00\n    /* \"#utility.yul\":1845:1847   */\n  0x40\n    /* \"#utility.yul\":1839:1848   */\n  mload\n    /* \"#utility.yul\":1829:1848   */\n  swap1\n  pop\n    /* \"#utility.yul\":1779:1854   */\n  swap1\n  jump\t// out\n    /* \"#utility.yul\":1860:2168   */\ntag_30:\n    /* \"#utility.yul\":1922:1926   */\n  0x00\n    /* \"#utility.yul\":2012:2030   */\n  0xffffffffffffffff\n    /* \"#utility.yul\":2004:2010   */\n  dup3\n    /* \"#utility.yul\":2001:2031   */\n  gt\n    /* \"#utility.yul\":1998:2054   */\n  iszero\n  tag_63\n  jumpi\n    /* \"#utility.yul\":2034:2052   */\n  tag_64\n  tag_65\n  jump\t// in\ntag_64:\n    /* \"#utility.yul\":1998:2054   */\ntag_63:\n    /* \"#utility.yul\":2072:2101   */\n  tag_66\n    /* \"#utility.yul\":2094:2100   */\n  dup3\n    /* \"#utility.yul\":2072:2101   */\n  tag_67\n  jump\t// in\ntag_66:\n    /* \"#utility.yul\":2064:2101   */\n  swap1\n  pop\n    /* \"#utility.yul\":2156:2160   */\n  0x20\n    /* \"#utility.yul\":2150:2154   */\n  dup2\n    /* \"#utility.yul\":2146:2161   */\n  add\n    /* \"#utility.yul\":2138:2161   */\n  swap1\n  pop\n    /* \"#utility.yul\":1860:2168   */\n  swap2\n  swap1\n  pop\n  jump\t// out\n    /* \"#utility.yul\":2174:2251   */\ntag_68:\n    /* \"#utility.yul\":2211:2218   */\n  0x00\n    /* \"#utility.yul\":2240:2245   */\n  dup2\n    /* \"#utility.yul\":2229:2245   */\n  swap1\n  pop\n    /* \"#utility.yul\":2174:2251   */\n  swap2\n  swap1\n  pop\n  jump\t// out\n    /* \"#utility.yul\":2257:2564   */\ntag_36:\n    /* \"#utility.yul\":2325:2326   */\n  0x00\n    /* \"#utility.yul\":2335:2448   */\ntag_71:\n    /* \"#utility.yul\":2349:2355   */\n  dup4\n    /* \"#utility.yul\":2346:2347   */\n  dup2\n    /* \"#utility.yul\":2343:2356   */\n  lt\n    /* \"#utility.yul\":2335:2448   */\n  iszero\n  tag_73\n  jumpi\n    /* \"#utility.yul\":2434:2435   */\n  dup1\n    /* \"#utility.yul\":2429:2432   */\n  dup3\n    /* \"#utility.yul\":2425:2436   */\n  add\n    /* \"#utility.yul\":2419:2437   */\n  mload\n    /* \"#utility.yul\":2415:2416   */\n  dup2\n    /* \"#utility.yul\":2410:2413   */\n  dup5\n    /* \"#utility.yul\":2406:2417   */\n  add\n    /* \"#utility.yul\":2399:2438   */\n  mstore\n    /* \"#utility.yul\":2371:2373   */\n  0x20\n    /* \"#utility.yul\":2368:2369   */\n  dup2\n    /* \"#utility.yul\":2364:2374   */\n  add\n    /* \"#utility.yul\":2359:2374   */\n  swap1\n  pop\n    /* \"#utility.yul\":2335:2448   */\n  jump(tag_71)\ntag_73:\n    /* \"#utility.yul\":2466:2472   */\n  dup4\n    /* \"#utility.yul\":2463:2464   */\n  dup2\n    /* \"#utility.yul\":2460:2473   */\n  gt\n    /* \"#utility.yul\":2457:2558   */\n  iszero\n  tag_74\n  jumpi\n    /* \"#utility.yul\":2546:2547   */\n  0x00\n    /* \"#utility.yul\":2537:2543   */\n  dup5\n    /* \"#utility.yul\":2532:2535   */\n  dup5\n    /* \"#utility.yul\":2528:2544   */\n  add\n    /* \"#utility.yul\":2521:2548   */\n  mstore\n    /* \"#utility.yul\":2457:2558   */\ntag_74:\n    /* \"#utility.yul\":2306:2564   */\n  pop\n    /* \"#utility.yul\":2257:2564   */\n  pop\n  pop\n  pop\n  jump\t// out\n    /* \"#utility.yul\":2570:2890   */\ntag_15:\n    /* \"#utility.yul\":2614:2620   */\n  0x00\n    /* \"#utility.yul\":2651:2652   */\n  0x02\n    /* \"#utility.yul\":2645:2649   */\n  dup3\n    /* \"#utility.yul\":2641:2653   */\n  div\n    /* \"#utility.yul\":2631:2653   */\n  swap1\n  pop\n    /* \"#utility.yul\":2698:2699   */\n  0x01\n    /* \"#utility.yul\":2692:2696   */\n  dup3\n    /* \"#utility.yul\":2688:2700   */\n  and\n    /* \"#utility.yul\":2719:2737   */\n  dup1\n    /* \"#utility.yul\":2709:2790   */\n  tag_76\n  jumpi\n    /* \"#utility.yul\":2775:2779   */\n  0x7f\n    /* \"#utility.yul\":2767:2773   */\n  dup3\n    /* \"#utility.yul\":2763:2780   */\n  and\n    /* \"#utility.yul\":2753:2780   */\n  swap2\n  pop\n    /* \"#utility.yul\":2709:2790   */\ntag_76:\n    /* \"#utility.yul\":2837:2839   */\n  0x20\n    /* \"#utility.yul\":2829:2835   */\n  dup3\n    /* \"#utility.yul\":2826:2840   */\n  lt\n    /* \"#utility.yul\":2806:2824   */\n  dup2\n    /* \"#utility.yul\":2803:2841   */\n  eq\n    /* \"#utility.yul\":2800:2884   */\n  iszero\n  tag_77\n  jumpi\n    /* \"#utility.yul\":2856:2874   */\n  tag_78\n  tag_79\n  jump\t// in\ntag_78:\n    /* \"#utility.yul\":2800:2884   */\ntag_77:\n    /* \"#utility.yul\":2621:2890   */\n  pop\n    /* \"#utility.yul\":2570:2890   */\n  swap2\n  swap1\n  pop\n  jump\t// out\n    /* \"#utility.yul\":2896:3177   */\ntag_60:\n    /* \"#utility.yul\":2979:3006   */\n  tag_81\n    /* \"#utility.yul\":3001:3005   */\n  dup3\n    /* \"#utility.yul\":2979:3006   */\n  tag_67\n  jump\t// in\ntag_81:\n    /* \"#utility.yul\":2971:2977   */\n  dup2\n    /* \"#utility.yul\":2967:3007   */\n  add\n    /* \"#utility.yul\":3109:3115   */\n  dup2\n    /* \"#utility.yul\":3097:3107   */\n  dup2\n    /* \"#utility.yul\":3094:3116   */\n  lt\n    /* \"#utility.yul\":3073:3091   */\n  0xffffffffffffffff\n    /* \"#utility.yul\":3061:3071   */\n  dup3\n    /* \"#utility.yul\":3058:3092   */\n  gt\n    /* \"#utility.yul\":3055:3117   */\n  or\n    /* \"#utility.yul\":3052:3140   */\n  iszero\n  tag_82\n  jumpi\n    /* \"#utility.yul\":3120:3138   */\n  tag_83\n  tag_65\n  jump\t// in\ntag_83:\n    /* \"#utility.yul\":3052:3140   */\ntag_82:\n    /* \"#utility.yul\":3160:3170   */\n  dup1\n    /* \"#utility.yul\":3156:3158   */\n  0x40\n    /* \"#utility.yul\":3149:3171   */\n  mstore\n    /* \"#utility.yul\":2939:3177   */\n  pop\n    /* \"#utility.yul\":2896:3177   */\n  pop\n  pop\n  jump\t// out\n    /* \"#utility.yul\":3183:3363   */\ntag_79:\n    /* \"#utility.yul\":3231:3308   */\n  0x4e487b7100000000000000000000000000000000000000000000000000000000\n    /* \"#utility.yul\":3228:3229   */\n  0x00\n    /* \"#utility.yul\":3221:3309   */\n  mstore\n    /* \"#utility.yul\":3328:3332   */\n  0x22\n    /* \"#utility.yul\":3325:3326   */\n  0x04\n    /* \"#utility.yul\":3318:3333   */\n  mstore\n    /* \"#utility.yul\":3352:3356   */\n  0x24\n    /* \"#utility.yul\":3349:3350   */\n  0x00\n    /* \"#utility.yul\":3342:3357   */\n  revert\n    /* \"#utility.yul\":3369:3549   */\ntag_65:\n    /* \"#utility.yul\":3417:3494   */\n  0x4e487b7100000000000000000000000000000000000000000000000000000000\n    /* \"#utility.yul\":3414:3415   */\n  0x00\n    /* \"#utility.yul\":3407:3495   */\n  mstore\n    /* \"#utility.yul\":3514:3518   */\n  0x41\n    /* \"#utility.yul\":3511:3512   */\n  0x04\n    /* \"#utility.yul\":3504:3519   */\n  mstore\n    /* \"#utility.yul\":3538:3542   */\n  0x24\n    /* \"#utility.yul\":3535:3536   */\n  0x00\n    /* \"#utility.yul\":3528:3543   */\n  revert\n    /* \"#utility.yul\":3555:3672   */\ntag_41:\n    /* \"#utility.yul\":3664:3665   */\n  0x00\n    /* \"#utility.yul\":3661:3662   */\n  dup1\n    /* \"#utility.yul\":3654:3666   */\n  revert\n    /* \"#utility.yul\":3678:3795   */\ntag_34:\n    /* \"#utility.yul\":3787:3788   */\n  0x00\n    /* \"#utility.yul\":3784:3785   */\n  dup1\n    /* \"#utility.yul\":3777:3789   */\n  revert\n    /* \"#utility.yul\":3801:3918   */\ntag_53:\n    /* \"#utility.yul\":3910:3911   */\n  0x00\n    /* \"#utility.yul\":3907:3908   */\n  dup1\n    /* \"#utility.yul\":3900:3912   */\n  revert\n    /* \"#utility.yul\":3924:4041   */\ntag_50:\n    /* \"#utility.yul\":4033:4034   */\n  0x00\n    /* \"#utility.yul\":4030:4031   */\n  dup1\n    /* \"#utility.yul\":4023:4035   */\n  revert\n    /* \"#utility.yul\":4047:4149   */\ntag_67:\n    /* \"#utility.yul\":4088:4094   */\n  0x00\n    /* \"#utility.yul\":4139:4141   */\n  0x1f\n    /* \"#utility.yul\":4135:4142   */\n  not\n    /* \"#utility.yul\":4130:4132   */\n  0x1f\n    /* \"#utility.yul\":4123:4128   */\n  dup4\n    /* \"#utility.yul\":4119:4133   */\n  add\n    /* \"#utility.yul\":4115:4143   */\n  and\n    /* \"#utility.yul\":4105:4143   */\n  swap1\n  pop\n    /* \"#utility.yul\":4047:4149   */\n  swap2\n  swap1\n  pop\n  jump\t// out\n    /* \"#utility.yul\":4155:4277   */\ntag_46:\n    /* \"#utility.yul\":4228:4252   */\n  tag_92\n    /* \"#utility.yul\":4246:4251   */\n  dup2\n    /* \"#utility.yul\":4228:4252   */\n  tag_68\n  jump\t// in\ntag_92:\n    /* \"#utility.yul\":4221:4226   */\n  dup2\n    /* \"#utility.yul\":4218:4253   */\n  eq\n    /* \"#utility.yul\":4208:4271   */\n  tag_93\n  jumpi\n    /* \"#utility.yul\":4267:4268   */\n  0x00\n    /* \"#utility.yul\":4264:4265   */\n  dup1\n    /* \"#utility.yul\":4257:4269   */\n  revert\n    /* \"#utility.yul\":4208:4271   */\ntag_93:\n    /* \"#utility.yul\":4155:4277   */\n  pop\n  jump\t// out\n    /* \"contracts/inheritance/MultiInheritance.sol\":840:1551  contract Benz is Car(\"suv\",4, 10000), Seller(){\r... */\ntag_13:\n  dataSize(sub_0)\n  dup1\n  dataOffset(sub_0)\n  0x00\n  codecopy\n  0x00\n  return\nstop\n\nsub_0: assembly {\n        /* \"contracts/inheritance/MultiInheritance.sol\":840:1551  contract Benz is Car(\"suv\",4, 10000), Seller(){\r... */\n      mstore(0x40, 0x80)\n      callvalue\n      dup1\n      iszero\n      tag_1\n      jumpi\n      0x00\n      dup1\n      revert\n    tag_1:\n      pop\n      jumpi(tag_2, lt(calldatasize, 0x04))\n      shr(0xe0, calldataload(0x00))\n      dup1\n      0x19e6f3a5\n      eq\n      tag_3\n      jumpi\n      dup1\n      0x5f644da9\n      eq\n      tag_4\n      jumpi\n      dup1\n      0x98d5fdca\n      eq\n      tag_5\n      jumpi\n      dup1\n      0xa0bfa1e0\n      eq\n      tag_6\n      jumpi\n      dup1\n      0xdbd0e1b6\n      eq\n      tag_7\n      jumpi\n    tag_2:\n      0x00\n      dup1\n      revert\n        /* \"contracts/inheritance/MultiInheritance.sol\":646:722  function getDoor() public view returns(uint8) {\r... */\n    tag_3:\n      tag_8\n      tag_9\n      jump\t// in\n    tag_8:\n      mload(0x40)\n      tag_10\n      swap2\n      swap1\n      tag_11\n      jump\t// in\n    tag_10:\n      mload(0x40)\n      dup1\n      swap2\n      sub\n      swap1\n      return\n        /* \"contracts/inheritance/MultiInheritance.sol\":1423:1548  function getCarPrice() public view returns(uint){ //부모의 getPrice를 호출함.\r... */\n    tag_4:\n      tag_12\n      tag_13\n      jump\t// in\n    tag_12:\n      mload(0x40)\n      tag_14\n      swap2\n      swap1\n      tag_15\n      jump\t// in\n    tag_14:\n      mload(0x40)\n      dup1\n      swap2\n      sub\n      swap1\n      return\n        /* \"contracts/inheritance/MultiInheritance.sol\":1236:1415  function getPrice() public view override returns(uint){ //override는 자식 \r... */\n    tag_5:\n      tag_16\n      tag_17\n      jump\t// in\n    tag_16:\n      mload(0x40)\n      tag_18\n      swap2\n      swap1\n      tag_15\n      jump\t// in\n    tag_18:\n      mload(0x40)\n      dup1\n      swap2\n      sub\n      swap1\n      return\n        /* \"contracts/inheritance/MultiInheritance.sol\":1145:1230  function getModel() public view returns(string memory){\r... */\n    tag_6:\n      tag_19\n      tag_20\n      jump\t// in\n    tag_19:\n      mload(0x40)\n      tag_21\n      swap2\n      swap1\n      tag_22\n      jump\t// in\n    tag_21:\n      mload(0x40)\n      dup1\n      swap2\n      sub\n      swap1\n      return\n        /* \"contracts/inheritance/MultiInheritance.sol\":294:375  function getSeller() public view returns(address){\r... */\n    tag_7:\n      tag_23\n      tag_24\n      jump\t// in\n    tag_23:\n      mload(0x40)\n      tag_25\n      swap2\n      swap1\n      tag_26\n      jump\t// in\n    tag_25:\n      mload(0x40)\n      dup1\n      swap2\n      sub\n      swap1\n      return\n        /* \"contracts/inheritance/MultiInheritance.sol\":646:722  function getDoor() public view returns(uint8) {\r... */\n    tag_9:\n        /* \"contracts/inheritance/MultiInheritance.sol\":685:690  uint8 */\n      0x00\n        /* \"contracts/inheritance/MultiInheritance.sol\":710:714  door */\n      0x01\n      0x00\n      swap1\n      sload\n      swap1\n      0x0100\n      exp\n      swap1\n      div\n      0xff\n      and\n        /* \"contracts/inheritance/MultiInheritance.sol\":703:714  return door */\n      swap1\n      pop\n        /* \"contracts/inheritance/MultiInheritance.sol\":646:722  function getDoor() public view returns(uint8) {\r... */\n      swap1\n      jump\t// out\n        /* \"contracts/inheritance/MultiInheritance.sol\":1423:1548  function getCarPrice() public view returns(uint){ //부모의 getPrice를 호출함.\r... */\n    tag_13:\n        /* \"contracts/inheritance/MultiInheritance.sol\":1466:1470  uint */\n      0x00\n        /* \"contracts/inheritance/MultiInheritance.sol\":1524:1540  super.getPrice() */\n      tag_29\n        /* \"contracts/inheritance/MultiInheritance.sol\":1524:1538  super.getPrice */\n      tag_30\n        /* \"contracts/inheritance/MultiInheritance.sol\":1524:1540  super.getPrice() */\n      jump\t// in\n    tag_29:\n        /* \"contracts/inheritance/MultiInheritance.sol\":1517:1540  return super.getPrice() */\n      swap1\n      pop\n        /* \"contracts/inheritance/MultiInheritance.sol\":1423:1548  function getCarPrice() public view returns(uint){ //부모의 getPrice를 호출함.\r... */\n      swap1\n      jump\t// out\n        /* \"contracts/inheritance/MultiInheritance.sol\":1236:1415  function getPrice() public view override returns(uint){ //override는 자식 \r... */\n    tag_17:\n        /* \"contracts/inheritance/MultiInheritance.sol\":1285:1289  uint */\n      0x00\n        /* \"contracts/inheritance/MultiInheritance.sol\":1330:1337  premium */\n      sload(0x07)\n        /* \"contracts/inheritance/MultiInheritance.sol\":1323:1337  return premium */\n      swap1\n      pop\n        /* \"contracts/inheritance/MultiInheritance.sol\":1236:1415  function getPrice() public view override returns(uint){ //override는 자식 \r... */\n      swap1\n      jump\t// out\n        /* \"contracts/inheritance/MultiInheritance.sol\":1145:1230  function getModel() public view returns(string memory){\r... */\n    tag_20:\n        /* \"contracts/inheritance/MultiInheritance.sol\":1185:1198  string memory */\n      0x60\n        /* \"contracts/inheritance/MultiInheritance.sol\":1217:1222  model */\n      0x05\n        /* \"contracts/inheritance/MultiInheritance.sol\":1210:1222  return model */\n      dup1\n      sload\n      tag_33\n      swap1\n      tag_34\n      jump\t// in\n    tag_33:\n      dup1\n      0x1f\n      add\n      0x20\n      dup1\n      swap2\n      div\n      mul\n      0x20\n      add\n      mload(0x40)\n      swap1\n      dup2\n      add\n      0x40\n      mstore\n      dup1\n      swap3\n      swap2\n      swap1\n      dup2\n      dup2\n      mstore\n      0x20\n      add\n      dup3\n      dup1\n      sload\n      tag_35\n      swap1\n      tag_34\n      jump\t// in\n    tag_35:\n      dup1\n      iszero\n      tag_36\n      jumpi\n      dup1\n      0x1f\n      lt\n      tag_37\n      jumpi\n      0x0100\n      dup1\n      dup4\n      sload\n      div\n      mul\n      dup4\n      mstore\n      swap2\n      0x20\n      add\n      swap2\n      jump(tag_36)\n    tag_37:\n      dup3\n      add\n      swap2\n      swap1\n      0x00\n      mstore\n      keccak256(0x00, 0x20)\n      swap1\n    tag_38:\n      dup2\n      sload\n      dup2\n      mstore\n      swap1\n      0x01\n      add\n      swap1\n      0x20\n      add\n      dup1\n      dup4\n      gt\n      tag_38\n      jumpi\n      dup3\n      swap1\n      sub\n      0x1f\n      and\n      dup3\n      add\n      swap2\n    tag_36:\n      pop\n      pop\n      pop\n      pop\n      pop\n      swap1\n      pop\n        /* \"contracts/inheritance/MultiInheritance.sol\":1145:1230  function getModel() public view returns(string memory){\r... */\n      swap1\n      jump\t// out\n        /* \"contracts/inheritance/MultiInheritance.sol\":294:375  function getSeller() public view returns(address){\r... */\n    tag_24:\n        /* \"contracts/inheritance/MultiInheritance.sol\":335:342  address */\n      0x00\n        /* \"contracts/inheritance/MultiInheritance.sol\":361:367  seller */\n      0x03\n      0x00\n      swap1\n      sload\n      swap1\n      0x0100\n      exp\n      swap1\n      div\n      0xffffffffffffffffffffffffffffffffffffffff\n      and\n        /* \"contracts/inheritance/MultiInheritance.sol\":354:367  return seller */\n      swap1\n      pop\n        /* \"contracts/inheritance/MultiInheritance.sol\":294:375  function getSeller() public view returns(address){\r... */\n      swap1\n      jump\t// out\n        /* \"contracts/inheritance/MultiInheritance.sol\":728:833  function getPrice() public view virtual returns(uint){ // virtual은 부모\r... */\n    tag_30:\n        /* \"contracts/inheritance/MultiInheritance.sol\":776:780  uint */\n      0x00\n        /* \"contracts/inheritance/MultiInheritance.sol\":820:825  price */\n      sload(0x02)\n        /* \"contracts/inheritance/MultiInheritance.sol\":813:825  return price */\n      swap1\n      pop\n        /* \"contracts/inheritance/MultiInheritance.sol\":728:833  function getPrice() public view virtual returns(uint){ // virtual은 부모\r... */\n      swap1\n      jump\t// out\n        /* \"#utility.yul\":7:125   */\n    tag_42:\n        /* \"#utility.yul\":94:118   */\n      tag_44\n        /* \"#utility.yul\":112:117   */\n      dup2\n        /* \"#utility.yul\":94:118   */\n      tag_45\n      jump\t// in\n    tag_44:\n        /* \"#utility.yul\":89:92   */\n      dup3\n        /* \"#utility.yul\":82:119   */\n      mstore\n        /* \"#utility.yul\":7:125   */\n      pop\n      pop\n      jump\t// out\n        /* \"#utility.yul\":131:495   */\n    tag_46:\n        /* \"#utility.yul\":219:222   */\n      0x00\n        /* \"#utility.yul\":247:286   */\n      tag_48\n        /* \"#utility.yul\":280:285   */\n      dup3\n        /* \"#utility.yul\":247:286   */\n      tag_49\n      jump\t// in\n    tag_48:\n        /* \"#utility.yul\":302:373   */\n      tag_50\n        /* \"#utility.yul\":366:372   */\n      dup2\n        /* \"#utility.yul\":361:364   */\n      dup6\n        /* \"#utility.yul\":302:373   */\n      tag_51\n      jump\t// in\n    tag_50:\n        /* \"#utility.yul\":295:373   */\n      swap4\n      pop\n        /* \"#utility.yul\":382:434   */\n      tag_52\n        /* \"#utility.yul\":427:433   */\n      dup2\n        /* \"#utility.yul\":422:425   */\n      dup6\n        /* \"#utility.yul\":415:419   */\n      0x20\n        /* \"#utility.yul\":408:413   */\n      dup7\n        /* \"#utility.yul\":404:420   */\n      add\n        /* \"#utility.yul\":382:434   */\n      tag_53\n      jump\t// in\n    tag_52:\n        /* \"#utility.yul\":459:488   */\n      tag_54\n        /* \"#utility.yul\":481:487   */\n      dup2\n        /* \"#utility.yul\":459:488   */\n      tag_55\n      jump\t// in\n    tag_54:\n        /* \"#utility.yul\":454:457   */\n      dup5\n        /* \"#utility.yul\":450:489   */\n      add\n        /* \"#utility.yul\":443:489   */\n      swap2\n      pop\n        /* \"#utility.yul\":223:495   */\n      pop\n        /* \"#utility.yul\":131:495   */\n      swap3\n      swap2\n      pop\n      pop\n      jump\t// out\n        /* \"#utility.yul\":501:619   */\n    tag_56:\n        /* \"#utility.yul\":588:612   */\n      tag_58\n        /* \"#utility.yul\":606:611   */\n      dup2\n        /* \"#utility.yul\":588:612   */\n      tag_59\n      jump\t// in\n    tag_58:\n        /* \"#utility.yul\":583:586   */\n      dup3\n        /* \"#utility.yul\":576:613   */\n      mstore\n        /* \"#utility.yul\":501:619   */\n      pop\n      pop\n      jump\t// out\n        /* \"#utility.yul\":625:737   */\n    tag_60:\n        /* \"#utility.yul\":708:730   */\n      tag_62\n        /* \"#utility.yul\":724:729   */\n      dup2\n        /* \"#utility.yul\":708:730   */\n      tag_63\n      jump\t// in\n    tag_62:\n        /* \"#utility.yul\":703:706   */\n      dup3\n        /* \"#utility.yul\":696:731   */\n      mstore\n        /* \"#utility.yul\":625:737   */\n      pop\n      pop\n      jump\t// out\n        /* \"#utility.yul\":743:965   */\n    tag_26:\n        /* \"#utility.yul\":836:840   */\n      0x00\n        /* \"#utility.yul\":874:876   */\n      0x20\n        /* \"#utility.yul\":863:872   */\n      dup3\n        /* \"#utility.yul\":859:877   */\n      add\n        /* \"#utility.yul\":851:877   */\n      swap1\n      pop\n        /* \"#utility.yul\":887:958   */\n      tag_65\n        /* \"#utility.yul\":955:956   */\n      0x00\n        /* \"#utility.yul\":944:953   */\n      dup4\n        /* \"#utility.yul\":940:957   */\n      add\n        /* \"#utility.yul\":931:937   */\n      dup5\n        /* \"#utility.yul\":887:958   */\n      tag_42\n      jump\t// in\n    tag_65:\n        /* \"#utility.yul\":743:965   */\n      swap3\n      swap2\n      pop\n      pop\n      jump\t// out\n        /* \"#utility.yul\":971:1284   */\n    tag_22:\n        /* \"#utility.yul\":1084:1088   */\n      0x00\n        /* \"#utility.yul\":1122:1124   */\n      0x20\n        /* \"#utility.yul\":1111:1120   */\n      dup3\n        /* \"#utility.yul\":1107:1125   */\n      add\n        /* \"#utility.yul\":1099:1125   */\n      swap1\n      pop\n        /* \"#utility.yul\":1171:1180   */\n      dup2\n        /* \"#utility.yul\":1165:1169   */\n      dup2\n        /* \"#utility.yul\":1161:1181   */\n      sub\n        /* \"#utility.yul\":1157:1158   */\n      0x00\n        /* \"#utility.yul\":1146:1155   */\n      dup4\n        /* \"#utility.yul\":1142:1159   */\n      add\n        /* \"#utility.yul\":1135:1182   */\n      mstore\n        /* \"#utility.yul\":1199:1277   */\n      tag_67\n        /* \"#utility.yul\":1272:1276   */\n      dup2\n        /* \"#utility.yul\":1263:1269   */\n      dup5\n        /* \"#utility.yul\":1199:1277   */\n      tag_46\n      jump\t// in\n    tag_67:\n        /* \"#utility.yul\":1191:1277   */\n      swap1\n      pop\n        /* \"#utility.yul\":971:1284   */\n      swap3\n      swap2\n      pop\n      pop\n      jump\t// out\n        /* \"#utility.yul\":1290:1512   */\n    tag_15:\n        /* \"#utility.yul\":1383:1387   */\n      0x00\n        /* \"#utility.yul\":1421:1423   */\n      0x20\n        /* \"#utility.yul\":1410:1419   */\n      dup3\n        /* \"#utility.yul\":1406:1424   */\n      add\n        /* \"#utility.yul\":1398:1424   */\n      swap1\n      pop\n        /* \"#utility.yul\":1434:1505   */\n      tag_69\n        /* \"#utility.yul\":1502:1503   */\n      0x00\n        /* \"#utility.yul\":1491:1500   */\n      dup4\n        /* \"#utility.yul\":1487:1504   */\n      add\n        /* \"#utility.yul\":1478:1484   */\n      dup5\n        /* \"#utility.yul\":1434:1505   */\n      tag_56\n      jump\t// in\n    tag_69:\n        /* \"#utility.yul\":1290:1512   */\n      swap3\n      swap2\n      pop\n      pop\n      jump\t// out\n        /* \"#utility.yul\":1518:1732   */\n    tag_11:\n        /* \"#utility.yul\":1607:1611   */\n      0x00\n        /* \"#utility.yul\":1645:1647   */\n      0x20\n        /* \"#utility.yul\":1634:1643   */\n      dup3\n        /* \"#utility.yul\":1630:1648   */\n      add\n        /* \"#utility.yul\":1622:1648   */\n      swap1\n      pop\n        /* \"#utility.yul\":1658:1725   */\n      tag_71\n        /* \"#utility.yul\":1722:1723   */\n      0x00\n        /* \"#utility.yul\":1711:1720   */\n      dup4\n        /* \"#utility.yul\":1707:1724   */\n      add\n        /* \"#utility.yul\":1698:1704   */\n      dup5\n        /* \"#utility.yul\":1658:1725   */\n      tag_60\n      jump\t// in\n    tag_71:\n        /* \"#utility.yul\":1518:1732   */\n      swap3\n      swap2\n      pop\n      pop\n      jump\t// out\n        /* \"#utility.yul\":1738:1837   */\n    tag_49:\n        /* \"#utility.yul\":1790:1796   */\n      0x00\n        /* \"#utility.yul\":1824:1829   */\n      dup2\n        /* \"#utility.yul\":1818:1830   */\n      mload\n        /* \"#utility.yul\":1808:1830   */\n      swap1\n      pop\n        /* \"#utility.yul\":1738:1837   */\n      swap2\n      swap1\n      pop\n      jump\t// out\n        /* \"#utility.yul\":1843:2012   */\n    tag_51:\n        /* \"#utility.yul\":1927:1938   */\n      0x00\n        /* \"#utility.yul\":1961:1967   */\n      dup3\n        /* \"#utility.yul\":1956:1959   */\n      dup3\n        /* \"#utility.yul\":1949:1968   */\n      mstore\n        /* \"#utility.yul\":2001:2005   */\n      0x20\n        /* \"#utility.yul\":1996:1999   */\n      dup3\n        /* \"#utility.yul\":1992:2006   */\n      add\n        /* \"#utility.yul\":1977:2006   */\n      swap1\n      pop\n        /* \"#utility.yul\":1843:2012   */\n      swap3\n      swap2\n      pop\n      pop\n      jump\t// out\n        /* \"#utility.yul\":2018:2114   */\n    tag_45:\n        /* \"#utility.yul\":2055:2062   */\n      0x00\n        /* \"#utility.yul\":2084:2108   */\n      tag_75\n        /* \"#utility.yul\":2102:2107   */\n      dup3\n        /* \"#utility.yul\":2084:2108   */\n      tag_76\n      jump\t// in\n    tag_75:\n        /* \"#utility.yul\":2073:2108   */\n      swap1\n      pop\n        /* \"#utility.yul\":2018:2114   */\n      swap2\n      swap1\n      pop\n      jump\t// out\n        /* \"#utility.yul\":2120:2246   */\n    tag_76:\n        /* \"#utility.yul\":2157:2164   */\n      0x00\n        /* \"#utility.yul\":2197:2239   */\n      0xffffffffffffffffffffffffffffffffffffffff\n        /* \"#utility.yul\":2190:2195   */\n      dup3\n        /* \"#utility.yul\":2186:2240   */\n      and\n        /* \"#utility.yul\":2175:2240   */\n      swap1\n      pop\n        /* \"#utility.yul\":2120:2246   */\n      swap2\n      swap1\n      pop\n      jump\t// out\n        /* \"#utility.yul\":2252:2329   */\n    tag_59:\n        /* \"#utility.yul\":2289:2296   */\n      0x00\n        /* \"#utility.yul\":2318:2323   */\n      dup2\n        /* \"#utility.yul\":2307:2323   */\n      swap1\n      pop\n        /* \"#utility.yul\":2252:2329   */\n      swap2\n      swap1\n      pop\n      jump\t// out\n        /* \"#utility.yul\":2335:2421   */\n    tag_63:\n        /* \"#utility.yul\":2370:2377   */\n      0x00\n        /* \"#utility.yul\":2410:2414   */\n      0xff\n        /* \"#utility.yul\":2403:2408   */\n      dup3\n        /* \"#utility.yul\":2399:2415   */\n      and\n        /* \"#utility.yul\":2388:2415   */\n      swap1\n      pop\n        /* \"#utility.yul\":2335:2421   */\n      swap2\n      swap1\n      pop\n      jump\t// out\n        /* \"#utility.yul\":2427:2734   */\n    tag_53:\n        /* \"#utility.yul\":2495:2496   */\n      0x00\n        /* \"#utility.yul\":2505:2618   */\n    tag_81:\n        /* \"#utility.yul\":2519:2525   */\n      dup4\n        /* \"#utility.yul\":2516:2517   */\n      dup2\n        /* \"#utility.yul\":2513:2526   */\n      lt\n        /* \"#utility.yul\":2505:2618   */\n      iszero\n      tag_83\n      jumpi\n        /* \"#utility.yul\":2604:2605   */\n      dup1\n        /* \"#utility.yul\":2599:2602   */\n      dup3\n        /* \"#utility.yul\":2595:2606   */\n      add\n        /* \"#utility.yul\":2589:2607   */\n      mload\n        /* \"#utility.yul\":2585:2586   */\n      dup2\n        /* \"#utility.yul\":2580:2583   */\n      dup5\n        /* \"#utility.yul\":2576:2587   */\n      add\n        /* \"#utility.yul\":2569:2608   */\n      mstore\n        /* \"#utility.yul\":2541:2543   */\n      0x20\n        /* \"#utility.yul\":2538:2539   */\n      dup2\n        /* \"#utility.yul\":2534:2544   */\n      add\n        /* \"#utility.yul\":2529:2544   */\n      swap1\n      pop\n        /* \"#utility.yul\":2505:2618   */\n      jump(tag_81)\n    tag_83:\n        /* \"#utility.yul\":2636:2642   */\n      dup4\n        /* \"#utility.yul\":2633:2634   */\n      dup2\n        /* \"#utility.yul\":2630:2643   */\n      gt\n        /* \"#utility.yul\":2627:2728   */\n      iszero\n      tag_84\n      jumpi\n        /* \"#utility.yul\":2716:2717   */\n      0x00\n        /* \"#utility.yul\":2707:2713   */\n      dup5\n        /* \"#utility.yul\":2702:2705   */\n      dup5\n        /* \"#utility.yul\":2698:2714   */\n      add\n        /* \"#utility.yul\":2691:2718   */\n      mstore\n        /* \"#utility.yul\":2627:2728   */\n    tag_84:\n        /* \"#utility.yul\":2476:2734   */\n      pop\n        /* \"#utility.yul\":2427:2734   */\n      pop\n      pop\n      pop\n      jump\t// out\n        /* \"#utility.yul\":2740:3060   */\n    tag_34:\n        /* \"#utility.yul\":2784:2790   */\n      0x00\n        /* \"#utility.yul\":2821:2822   */\n      0x02\n        /* \"#utility.yul\":2815:2819   */\n      dup3\n        /* \"#utility.yul\":2811:2823   */\n      div\n        /* \"#utility.yul\":2801:2823   */\n      swap1\n      pop\n        /* \"#utility.yul\":2868:2869   */\n      0x01\n        /* \"#utility.yul\":2862:2866   */\n      dup3\n        /* \"#utility.yul\":2858:2870   */\n      and\n        /* \"#utility.yul\":2889:2907   */\n      dup1\n        /* \"#utility.yul\":2879:2960   */\n      tag_86\n      jumpi\n        /* \"#utility.yul\":2945:2949   */\n      0x7f\n        /* \"#utility.yul\":2937:2943   */\n      dup3\n        /* \"#utility.yul\":2933:2950   */\n      and\n        /* \"#utility.yul\":2923:2950   */\n      swap2\n      pop\n        /* \"#utility.yul\":2879:2960   */\n    tag_86:\n        /* \"#utility.yul\":3007:3009   */\n      0x20\n        /* \"#utility.yul\":2999:3005   */\n      dup3\n        /* \"#utility.yul\":2996:3010   */\n      lt\n        /* \"#utility.yul\":2976:2994   */\n      dup2\n        /* \"#utility.yul\":2973:3011   */\n      eq\n        /* \"#utility.yul\":2970:3054   */\n      iszero\n      tag_87\n      jumpi\n        /* \"#utility.yul\":3026:3044   */\n      tag_88\n      tag_89\n      jump\t// in\n    tag_88:\n        /* \"#utility.yul\":2970:3054   */\n    tag_87:\n        /* \"#utility.yul\":2791:3060   */\n      pop\n        /* \"#utility.yul\":2740:3060   */\n      swap2\n      swap1\n      pop\n      jump\t// out\n        /* \"#utility.yul\":3066:3246   */\n    tag_89:\n        /* \"#utility.yul\":3114:3191   */\n      0x4e487b7100000000000000000000000000000000000000000000000000000000\n        /* \"#utility.yul\":3111:3112   */\n      0x00\n        /* \"#utility.yul\":3104:3192   */\n      mstore\n        /* \"#utility.yul\":3211:3215   */\n      0x22\n        /* \"#utility.yul\":3208:3209   */\n      0x04\n        /* \"#utility.yul\":3201:3216   */\n      mstore\n        /* \"#utility.yul\":3235:3239   */\n      0x24\n        /* \"#utility.yul\":3232:3233   */\n      0x00\n        /* \"#utility.yul\":3225:3240   */\n      revert\n        /* \"#utility.yul\":3252:3354   */\n    tag_55:\n        /* \"#utility.yul\":3293:3299   */\n      0x00\n        /* \"#utility.yul\":3344:3346   */\n      0x1f\n        /* \"#utility.yul\":3340:3347   */\n      not\n        /* \"#utility.yul\":3335:3337   */\n      0x1f\n        /* \"#utility.yul\":3328:3333   */\n      dup4\n        /* \"#utility.yul\":3324:3338   */\n      add\n        /* \"#utility.yul\":3320:3348   */\n      and\n        /* \"#utility.yul\":3310:3348   */\n      swap1\n      pop\n        /* \"#utility.yul\":3252:3354   */\n      swap2\n      swap1\n      pop\n      jump\t// out\n\n    auxdata: 0xa2646970667358221220dd5d98b716803298ff4ca89420d30433e728dfbd0d6aa2a171f2ea1da198007064736f6c63430008070033\n}\n",
				"bytecode": {
					"linkReferences": {},
					"object": "60806040523480156200001157600080fd5b506040516200087d3803806200087d83398181016040528101906200003791906200025e565b6040518060400160405280600381526020017f7375760000000000000000000000000000000000000000000000000000000000815250600461271082600090805190602001906200008a92919062000119565b5081600160006101000a81548160ff021916908360ff160217905550806002819055505050508160059080519060200190620000c892919062000119565b5033600660006101000a81548173ffffffffffffffffffffffffffffffffffffffff021916908373ffffffffffffffffffffffffffffffffffffffff1602179055508060078190555050506200046c565b828054620001279062000363565b90600052602060002090601f0160209004810192826200014b576000855562000197565b82601f106200016657805160ff191683800117855562000197565b8280016001018555821562000197579182015b828111156200019657825182559160200191906001019062000179565b5b509050620001a69190620001aa565b5090565b5b80821115620001c5576000816000905550600101620001ab565b5090565b6000620001e0620001da84620002ed565b620002c4565b905082815260208101848484011115620001ff57620001fe62000432565b5b6200020c8482856200032d565b509392505050565b600082601f8301126200022c576200022b6200042d565b5b81516200023e848260208601620001c9565b91505092915050565b600081519050620002588162000452565b92915050565b600080604083850312156200027857620002776200043c565b5b600083015167ffffffffffffffff81111562000299576200029862000437565b5b620002a78582860162000214565b9250506020620002ba8582860162000247565b9150509250929050565b6000620002d0620002e3565b9050620002de828262000399565b919050565b6000604051905090565b600067ffffffffffffffff8211156200030b576200030a620003fe565b5b620003168262000441565b9050602081019050919050565b6000819050919050565b60005b838110156200034d57808201518184015260208101905062000330565b838111156200035d576000848401525b50505050565b600060028204905060018216806200037c57607f821691505b60208210811415620003935762000392620003cf565b5b50919050565b620003a48262000441565b810181811067ffffffffffffffff82111715620003c657620003c5620003fe565b5b80604052505050565b7f4e487b7100000000000000000000000000000000000000000000000000000000600052602260045260246000fd5b7f4e487b7100000000000000000000000000000000000000000000000000000000600052604160045260246000fd5b600080fd5b600080fd5b600080fd5b600080fd5b6000601f19601f8301169050919050565b6200045d8162000323565b81146200046957600080fd5b50565b610401806200047c6000396000f3fe608060405234801561001057600080fd5b50600436106100575760003560e01c806319e6f3a51461005c5780635f644da91461007a57806398d5fdca14610098578063a0bfa1e0146100b6578063dbd0e1b6146100d4575b600080fd5b6100646100f2565b60405161007191906102a6565b60405180910390f35b610082610109565b60405161008f919061028b565b60405180910390f35b6100a0610118565b6040516100ad919061028b565b60405180910390f35b6100be610122565b6040516100cb9190610269565b60405180910390f35b6100dc6101b4565b6040516100e9919061024e565b60405180910390f35b6000600160009054906101000a900460ff16905090565b60006101136101de565b905090565b6000600754905090565b60606005805461013190610359565b80601f016020809104026020016040519081016040528092919081815260200182805461015d90610359565b80156101aa5780601f1061017f576101008083540402835291602001916101aa565b820191906000526020600020905b81548152906001019060200180831161018d57829003601f168201915b5050505050905090565b6000600360009054906101000a900473ffffffffffffffffffffffffffffffffffffffff16905090565b6000600254905090565b6101f1816102dd565b82525050565b6000610202826102c1565b61020c81856102cc565b935061021c818560208601610326565b610225816103ba565b840191505092915050565b6102398161030f565b82525050565b61024881610319565b82525050565b600060208201905061026360008301846101e8565b92915050565b6000602082019050818103600083015261028381846101f7565b905092915050565b60006020820190506102a06000830184610230565b92915050565b60006020820190506102bb600083018461023f565b92915050565b600081519050919050565b600082825260208201905092915050565b60006102e8826102ef565b9050919050565b600073ffffffffffffffffffffffffffffffffffffffff82169050919050565b6000819050919050565b600060ff82169050919050565b60005b83811015610344578082015181840152602081019050610329565b83811115610353576000848401525b50505050565b6000600282049050600182168061037157607f821691505b602082108114156103855761038461038b565b5b50919050565b7f4e487b7100000000000000000000000000000000000000000000000000000000600052602260045260246000fd5b6000601f19601f830116905091905056fea2646970667358221220dd5d98b716803298ff4ca89420d30433e728dfbd0d6aa2a171f2ea1da198007064736f6c63430008070033",
					"opcodes": "PUSH1 0x80 PUSH1 0x40 MSTORE CALLVALUE DUP1 ISZERO PUSH3 0x11 JUMPI PUSH1 0x0 DUP1 REVERT JUMPDEST POP PUSH1 0x40 MLOAD PUSH3 0x87D CODESIZE SUB DUP1 PUSH3 0x87D DUP4 CODECOPY DUP2 DUP2 ADD PUSH1 0x40 MSTORE DUP2 ADD SWAP1 PUSH3 0x37 SWAP2 SWAP1 PUSH3 0x25E JUMP JUMPDEST PUSH1 0x40 MLOAD DUP1 PUSH1 0x40 ADD PUSH1 0x40 MSTORE DUP1 PUSH1 0x3 DUP2 MSTORE PUSH1 0x20 ADD PUSH32 0x7375760000000000000000000000000000000000000000000000000000000000 DUP2 MSTORE POP PUSH1 0x4 PUSH2 0x2710 DUP3 PUSH1 0x0 SWAP1 DUP1 MLOAD SWAP1 PUSH1 0x20 ADD SWAP1 PUSH3 0x8A SWAP3 SWAP2 SWAP1 PUSH3 0x119 JUMP JUMPDEST POP DUP2 PUSH1 0x1 PUSH1 0x0 PUSH2 0x100 EXP DUP2 SLOAD DUP2 PUSH1 0xFF MUL NOT AND SWAP1 DUP4 PUSH1 0xFF AND MUL OR SWAP1 SSTORE POP DUP1 PUSH1 0x2 DUP2 SWAP1 SSTORE POP POP POP POP DUP2 PUSH1 0x5 SWAP1 DUP1 MLOAD SWAP1 PUSH1 0x20 ADD SWAP1 PUSH3 0xC8 SWAP3 SWAP2 SWAP1 PUSH3 0x119 JUMP JUMPDEST POP CALLER PUSH1 0x6 PUSH1 0x0 PUSH2 0x100 EXP DUP2 SLOAD DUP2 PUSH20 0xFFFFFFFFFFFFFFFFFFFFFFFFFFFFFFFFFFFFFFFF MUL NOT AND SWAP1 DUP4 PUSH20 0xFFFFFFFFFFFFFFFFFFFFFFFFFFFFFFFFFFFFFFFF AND MUL OR SWAP1 SSTORE POP DUP1 PUSH1 0x7 DUP2 SWAP1 SSTORE POP POP POP PUSH3 0x46C JUMP JUMPDEST DUP3 DUP1 SLOAD PUSH3 0x127 SWAP1 PUSH3 0x363 JUMP JUMPDEST SWAP1 PUSH1 0x0 MSTORE PUSH1 0x20 PUSH1 0x0 KECCAK256 SWAP1 PUSH1 0x1F ADD PUSH1 0x20 SWAP1 DIV DUP2 ADD SWAP3 DUP3 PUSH3 0x14B JUMPI PUSH1 0x0 DUP6 SSTORE PUSH3 0x197 JUMP JUMPDEST DUP3 PUSH1 0x1F LT PUSH3 0x166 JUMPI DUP1 MLOAD PUSH1 0xFF NOT AND DUP4 DUP1 ADD OR DUP6 SSTORE PUSH3 0x197 JUMP JUMPDEST DUP3 DUP1 ADD PUSH1 0x1 ADD DUP6 SSTORE DUP3 ISZERO PUSH3 0x197 JUMPI SWAP2 DUP3 ADD JUMPDEST DUP3 DUP2 GT ISZERO PUSH3 0x196 JUMPI DUP3 MLOAD DUP3 SSTORE SWAP2 PUSH1 0x20 ADD SWAP2 SWAP1 PUSH1 0x1 ADD SWAP1 PUSH3 0x179 JUMP JUMPDEST JUMPDEST POP SWAP1 POP PUSH3 0x1A6 SWAP2 SWAP1 PUSH3 0x1AA JUMP JUMPDEST POP SWAP1 JUMP JUMPDEST JUMPDEST DUP1 DUP3 GT ISZERO PUSH3 0x1C5 JUMPI PUSH1 0x0 DUP2 PUSH1 0x0 SWAP1 SSTORE POP PUSH1 0x1 ADD PUSH3 0x1AB JUMP JUMPDEST POP SWAP1 JUMP JUMPDEST PUSH1 0x0 PUSH3 0x1E0 PUSH3 0x1DA DUP5 PUSH3 0x2ED JUMP JUMPDEST PUSH3 0x2C4 JUMP JUMPDEST SWAP1 POP DUP3 DUP2 MSTORE PUSH1 0x20 DUP2 ADD DUP5 DUP5 DUP5 ADD GT ISZERO PUSH3 0x1FF JUMPI PUSH3 0x1FE PUSH3 0x432 JUMP JUMPDEST JUMPDEST PUSH3 0x20C DUP5 DUP3 DUP6 PUSH3 0x32D JUMP JUMPDEST POP SWAP4 SWAP3 POP POP POP JUMP JUMPDEST PUSH1 0x0 DUP3 PUSH1 0x1F DUP4 ADD SLT PUSH3 0x22C JUMPI PUSH3 0x22B PUSH3 0x42D JUMP JUMPDEST JUMPDEST DUP2 MLOAD PUSH3 0x23E DUP5 DUP3 PUSH1 0x20 DUP7 ADD PUSH3 0x1C9 JUMP JUMPDEST SWAP2 POP POP SWAP3 SWAP2 POP POP JUMP JUMPDEST PUSH1 0x0 DUP2 MLOAD SWAP1 POP PUSH3 0x258 DUP2 PUSH3 0x452 JUMP JUMPDEST SWAP3 SWAP2 POP POP JUMP JUMPDEST PUSH1 0x0 DUP1 PUSH1 0x40 DUP4 DUP6 SUB SLT ISZERO PUSH3 0x278 JUMPI PUSH3 0x277 PUSH3 0x43C JUMP JUMPDEST JUMPDEST PUSH1 0x0 DUP4 ADD MLOAD PUSH8 0xFFFFFFFFFFFFFFFF DUP2 GT ISZERO PUSH3 0x299 JUMPI PUSH3 0x298 PUSH3 0x437 JUMP JUMPDEST JUMPDEST PUSH3 0x2A7 DUP6 DUP3 DUP7 ADD PUSH3 0x214 JUMP JUMPDEST SWAP3 POP POP PUSH1 0x20 PUSH3 0x2BA DUP6 DUP3 DUP7 ADD PUSH3 0x247 JUMP JUMPDEST SWAP2 POP POP SWAP3 POP SWAP3 SWAP1 POP JUMP JUMPDEST PUSH1 0x0 PUSH3 0x2D0 PUSH3 0x2E3 JUMP JUMPDEST SWAP1 POP PUSH3 0x2DE DUP3 DUP3 PUSH3 0x399 JUMP JUMPDEST SWAP2 SWAP1 POP JUMP JUMPDEST PUSH1 0x0 PUSH1 0x40 MLOAD SWAP1 POP SWAP1 JUMP JUMPDEST PUSH1 0x0 PUSH8 0xFFFFFFFFFFFFFFFF DUP3 GT ISZERO PUSH3 0x30B JUMPI PUSH3 0x30A PUSH3 0x3FE JUMP JUMPDEST JUMPDEST PUSH3 0x316 DUP3 PUSH3 0x441 JUMP JUMPDEST SWAP1 POP PUSH1 0x20 DUP2 ADD SWAP1 POP SWAP2 SWAP1 POP JUMP JUMPDEST PUSH1 0x0 DUP2 SWAP1 POP SWAP2 SWAP1 POP JUMP JUMPDEST PUSH1 0x0 JUMPDEST DUP4 DUP2 LT ISZERO PUSH3 0x34D JUMPI DUP1 DUP3 ADD MLOAD DUP2 DUP5 ADD MSTORE PUSH1 0x20 DUP2 ADD SWAP1 POP PUSH3 0x330 JUMP JUMPDEST DUP4 DUP2 GT ISZERO PUSH3 0x35D JUMPI PUSH1 0x0 DUP5 DUP5 ADD MSTORE JUMPDEST POP POP POP POP JUMP JUMPDEST PUSH1 0x0 PUSH1 0x2 DUP3 DIV SWAP1 POP PUSH1 0x1 DUP3 AND DUP1 PUSH3 0x37C JUMPI PUSH1 0x7F DUP3 AND SWAP2 POP JUMPDEST PUSH1 0x20 DUP3 LT DUP2 EQ ISZERO PUSH3 0x393 JUMPI PUSH3 0x392 PUSH3 0x3CF JUMP JUMPDEST JUMPDEST POP SWAP2 SWAP1 POP JUMP JUMPDEST PUSH3 0x3A4 DUP3 PUSH3 0x441 JUMP JUMPDEST DUP2 ADD DUP2 DUP2 LT PUSH8 0xFFFFFFFFFFFFFFFF DUP3 GT OR ISZERO PUSH3 0x3C6 JUMPI PUSH3 0x3C5 PUSH3 0x3FE JUMP JUMPDEST JUMPDEST DUP1 PUSH1 0x40 MSTORE POP POP POP JUMP JUMPDEST PUSH32 0x4E487B7100000000000000000000000000000000000000000000000000000000 PUSH1 0x0 MSTORE PUSH1 0x22 PUSH1 0x4 MSTORE PUSH1 0x24 PUSH1 0x0 REVERT JUMPDEST PUSH32 0x4E487B7100000000000000000000000000000000000000000000000000000000 PUSH1 0x0 MSTORE PUSH1 0x41 PUSH1 0x4 MSTORE PUSH1 0x24 PUSH1 0x0 REVERT JUMPDEST PUSH1 0x0 DUP1 REVERT JUMPDEST PUSH1 0x0 DUP1 REVERT JUMPDEST PUSH1 0x0 DUP1 REVERT JUMPDEST PUSH1 0x0 DUP1 REVERT JUMPDEST PUSH1 0x0 PUSH1 0x1F NOT PUSH1 0x1F DUP4 ADD AND SWAP1 POP SWAP2 SWAP1 POP JUMP JUMPDEST PUSH3 0x45D DUP2 PUSH3 0x323 JUMP JUMPDEST DUP2 EQ PUSH3 0x469 JUMPI PUSH1 0x0 DUP1 REVERT JUMPDEST POP JUMP JUMPDEST PUSH2 0x401 DUP1 PUSH3 0x47C PUSH1 0x0 CODECOPY PUSH1 0x0 RETURN INVALID PUSH1 0x80 PUSH1 0x40 MSTORE CALLVALUE DUP1 ISZERO PUSH2 0x10 JUMPI PUSH1 0x0 DUP1 REVERT JUMPDEST POP PUSH1 0x4 CALLDATASIZE LT PUSH2 0x57 JUMPI PUSH1 0x0 CALLDATALOAD PUSH1 0xE0 SHR DUP1 PUSH4 0x19E6F3A5 EQ PUSH2 0x5C JUMPI DUP1 PUSH4 0x5F644DA9 EQ PUSH2 0x7A JUMPI DUP1 PUSH4 0x98D5FDCA EQ PUSH2 0x98 JUMPI DUP1 PUSH4 0xA0BFA1E0 EQ PUSH2 0xB6 JUMPI DUP1 PUSH4 0xDBD0E1B6 EQ PUSH2 0xD4 JUMPI JUMPDEST PUSH1 0x0 DUP1 REVERT JUMPDEST PUSH2 0x64 PUSH2 0xF2 JUMP JUMPDEST PUSH1 0x40 MLOAD PUSH2 0x71 SWAP2 SWAP1 PUSH2 0x2A6 JUMP JUMPDEST PUSH1 0x40 MLOAD DUP1 SWAP2 SUB SWAP1 RETURN JUMPDEST PUSH2 0x82 PUSH2 0x109 JUMP JUMPDEST PUSH1 0x40 MLOAD PUSH2 0x8F SWAP2 SWAP1 PUSH2 0x28B JUMP JUMPDEST PUSH1 0x40 MLOAD DUP1 SWAP2 SUB SWAP1 RETURN JUMPDEST PUSH2 0xA0 PUSH2 0x118 JUMP JUMPDEST PUSH1 0x40 MLOAD PUSH2 0xAD SWAP2 SWAP1 PUSH2 0x28B JUMP JUMPDEST PUSH1 0x40 MLOAD DUP1 SWAP2 SUB SWAP1 RETURN JUMPDEST PUSH2 0xBE PUSH2 0x122 JUMP JUMPDEST PUSH1 0x40 MLOAD PUSH2 0xCB SWAP2 SWAP1 PUSH2 0x269 JUMP JUMPDEST PUSH1 0x40 MLOAD DUP1 SWAP2 SUB SWAP1 RETURN JUMPDEST PUSH2 0xDC PUSH2 0x1B4 JUMP JUMPDEST PUSH1 0x40 MLOAD PUSH2 0xE9 SWAP2 SWAP1 PUSH2 0x24E JUMP JUMPDEST PUSH1 0x40 MLOAD DUP1 SWAP2 SUB SWAP1 RETURN JUMPDEST PUSH1 0x0 PUSH1 0x1 PUSH1 0x0 SWAP1 SLOAD SWAP1 PUSH2 0x100 EXP SWAP1 DIV PUSH1 0xFF AND SWAP1 POP SWAP1 JUMP JUMPDEST PUSH1 0x0 PUSH2 0x113 PUSH2 0x1DE JUMP JUMPDEST SWAP1 POP SWAP1 JUMP JUMPDEST PUSH1 0x0 PUSH1 0x7 SLOAD SWAP1 POP SWAP1 JUMP JUMPDEST PUSH1 0x60 PUSH1 0x5 DUP1 SLOAD PUSH2 0x131 SWAP1 PUSH2 0x359 JUMP JUMPDEST DUP1 PUSH1 0x1F ADD PUSH1 0x20 DUP1 SWAP2 DIV MUL PUSH1 0x20 ADD PUSH1 0x40 MLOAD SWAP1 DUP2 ADD PUSH1 0x40 MSTORE DUP1 SWAP3 SWAP2 SWAP1 DUP2 DUP2 MSTORE PUSH1 0x20 ADD DUP3 DUP1 SLOAD PUSH2 0x15D SWAP1 PUSH2 0x359 JUMP JUMPDEST DUP1 ISZERO PUSH2 0x1AA JUMPI DUP1 PUSH1 0x1F LT PUSH2 0x17F JUMPI PUSH2 0x100 DUP1 DUP4 SLOAD DIV MUL DUP4 MSTORE SWAP2 PUSH1 0x20 ADD SWAP2 PUSH2 0x1AA JUMP JUMPDEST DUP3 ADD SWAP2 SWAP1 PUSH1 0x0 MSTORE PUSH1 0x20 PUSH1 0x0 KECCAK256 SWAP1 JUMPDEST DUP2 SLOAD DUP2 MSTORE SWAP1 PUSH1 0x1 ADD SWAP1 PUSH1 0x20 ADD DUP1 DUP4 GT PUSH2 0x18D JUMPI DUP3 SWAP1 SUB PUSH1 0x1F AND DUP3 ADD SWAP2 JUMPDEST POP POP POP POP POP SWAP1 POP SWAP1 JUMP JUMPDEST PUSH1 0x0 PUSH1 0x3 PUSH1 0x0 SWAP1 SLOAD SWAP1 PUSH2 0x100 EXP SWAP1 DIV PUSH20 0xFFFFFFFFFFFFFFFFFFFFFFFFFFFFFFFFFFFFFFFF AND SWAP1 POP SWAP1 JUMP JUMPDEST PUSH1 0x0 PUSH1 0x2 SLOAD SWAP1 POP SWAP1 JUMP JUMPDEST PUSH2 0x1F1 DUP2 PUSH2 0x2DD JUMP JUMPDEST DUP3 MSTORE POP POP JUMP JUMPDEST PUSH1 0x0 PUSH2 0x202 DUP3 PUSH2 0x2C1 JUMP JUMPDEST PUSH2 0x20C DUP2 DUP6 PUSH2 0x2CC JUMP JUMPDEST SWAP4 POP PUSH2 0x21C DUP2 DUP6 PUSH1 0x20 DUP7 ADD PUSH2 0x326 JUMP JUMPDEST PUSH2 0x225 DUP2 PUSH2 0x3BA JUMP JUMPDEST DUP5 ADD SWAP2 POP POP SWAP3 SWAP2 POP POP JUMP JUMPDEST PUSH2 0x239 DUP2 PUSH2 0x30F JUMP JUMPDEST DUP3 MSTORE POP POP JUMP JUMPDEST PUSH2 0x248 DUP2 PUSH2 0x319 JUMP JUMPDEST DUP3 MSTORE POP POP JUMP JUMPDEST PUSH1 0x0 PUSH1 0x20 DUP3 ADD SWAP1 POP PUSH2 0x263 PUSH1 0x0 DUP4 ADD DUP5 PUSH2 0x1E8 JUMP JUMPDEST SWAP3 SWAP2 POP POP JUMP JUMPDEST PUSH1 0x0 PUSH1 0x20 DUP3 ADD SWAP1 POP DUP2 DUP2 SUB PUSH1 0x0 DUP4 ADD MSTORE PUSH2 0x283 DUP2 DUP5 PUSH2 0x1F7 JUMP JUMPDEST SWAP1 POP SWAP3 SWAP2 POP POP JUMP JUMPDEST PUSH1 0x0 PUSH1 0x20 DUP3 ADD SWAP1 POP PUSH2 0x2A0 PUSH1 0x0 DUP4 ADD DUP5 PUSH2 0x230 JUMP JUMPDEST SWAP3 SWAP2 POP POP JUMP JUMPDEST PUSH1 0x0 PUSH1 0x20 DUP3 ADD SWAP1 POP PUSH2 0x2BB PUSH1 0x0 DUP4 ADD DUP5 PUSH2 0x23F JUMP JUMPDEST SWAP3 SWAP2 POP POP JUMP JUMPDEST PUSH1 0x0 DUP2 MLOAD SWAP1 POP SWAP2 SWAP1 POP JUMP JUMPDEST PUSH1 0x0 DUP3 DUP3 MSTORE PUSH1 0x20 DUP3 ADD SWAP1 POP SWAP3 SWAP2 POP POP JUMP JUMPDEST PUSH1 0x0 PUSH2 0x2E8 DUP3 PUSH2 0x2EF JUMP JUMPDEST SWAP1 POP SWAP2 SWAP1 POP JUMP JUMPDEST PUSH1 0x0 PUSH20 0xFFFFFFFFFFFFFFFFFFFFFFFFFFFFFFFFFFFFFFFF DUP3 AND SWAP1 POP SWAP2 SWAP1 POP JUMP JUMPDEST PUSH1 0x0 DUP2 SWAP1 POP SWAP2 SWAP1 POP JUMP JUMPDEST PUSH1 0x0 PUSH1 0xFF DUP3 AND SWAP1 POP SWAP2 SWAP1 POP JUMP JUMPDEST PUSH1 0x0 JUMPDEST DUP4 DUP2 LT ISZERO PUSH2 0x344 JUMPI DUP1 DUP3 ADD MLOAD DUP2 DUP5 ADD MSTORE PUSH1 0x20 DUP2 ADD SWAP1 POP PUSH2 0x329 JUMP JUMPDEST DUP4 DUP2 GT ISZERO PUSH2 0x353 JUMPI PUSH1 0x0 DUP5 DUP5 ADD MSTORE JUMPDEST POP POP POP POP JUMP JUMPDEST PUSH1 0x0 PUSH1 0x2 DUP3 DIV SWAP1 POP PUSH1 0x1 DUP3 AND DUP1 PUSH2 0x371 JUMPI PUSH1 0x7F DUP3 AND SWAP2 POP JUMPDEST PUSH1 0x20 DUP3 LT DUP2 EQ ISZERO PUSH2 0x385 JUMPI PUSH2 0x384 PUSH2 0x38B JUMP JUMPDEST JUMPDEST POP SWAP2 SWAP1 POP JUMP JUMPDEST PUSH32 0x4E487B7100000000000000000000000000000000000000000000000000000000 PUSH1 0x0 MSTORE PUSH1 0x22 PUSH1 0x4 MSTORE PUSH1 0x24 PUSH1 0x0 REVERT JUMPDEST PUSH1 0x0 PUSH1 0x1F NOT PUSH1 0x1F DUP4 ADD AND SWAP1 POP SWAP2 SWAP1 POP JUMP INVALID LOG2 PUSH5 0x6970667358 0x22 SLT KECCAK256 0xDD 0x5D SWAP9 0xB7 AND DUP1 ORIGIN SWAP9 SELFDESTRUCT 0x4C 0xA8 SWAP5 KECCAK256 0xD3 DIV CALLER 0xE7 0x28 0xDF 0xBD 0xD PUSH11 0xA2A171F2EA1DA198007064 PUSH20 0x6F6C634300080700330000000000000000000000 "
				},
				"gasEstimates": {
					"creation": {
						"codeDepositCost": "205000",
						"executionCost": "infinite",
						"totalCost": "infinite"
					},
					"external": {
						"getCarPrice()": "2472",
						"getDoor()": "2457",
						"getModel()": "infinite",
						"getPrice()": "2459",
						"getSeller()": "2588"
					}
				},
				"methodIdentifiers": {
					"getCarPrice()": "5f644da9",
					"getDoor()": "19e6f3a5",
					"getModel()": "a0bfa1e0",
					"getPrice()": "98d5fdca",
					"getSeller()": "dbd0e1b6"
				}
			},
			"storageLayout": {
				"storage": [
					{
						"astId": 20,
						"contract": "contracts/inheritance/MultiInheritance.sol:Benz",
						"label": "type_",
						"offset": 0,
						"slot": "0",
						"type": "t_string_storage"
					},
					{
						"astId": 22,
						"contract": "contracts/inheritance/MultiInheritance.sol:Benz",
						"label": "door",
						"offset": 0,
						"slot": "1",
						"type": "t_uint8"
					},
					{
						"astId": 24,
						"contract": "contracts/inheritance/MultiInheritance.sol:Benz",
						"label": "price",
						"offset": 0,
						"slot": "2",
						"type": "t_uint256"
					},
					{
						"astId": 3,
						"contract": "contracts/inheritance/MultiInheritance.sol:Benz",
						"label": "seller",
						"offset": 0,
						"slot": "3",
						"type": "t_address"
					},
					{
						"astId": 5,
						"contract": "contracts/inheritance/MultiInheritance.sol:Benz",
						"label": "location",
						"offset": 0,
						"slot": "4",
						"type": "t_string_storage"
					},
					{
						"astId": 72,
						"contract": "contracts/inheritance/MultiInheritance.sol:Benz",
						"label": "model",
						"offset": 0,
						"slot": "5",
						"type": "t_string_storage"
					},
					{
						"astId": 74,
						"contract": "contracts/inheritance/MultiInheritance.sol:Benz",
						"label": "owner",
						"offset": 0,
						"slot": "6",
						"type": "t_address"
					},
					{
						"astId": 76,
						"contract": "contracts/inheritance/MultiInheritance.sol:Benz",
						"label": "premium",
						"offset": 0,
						"slot": "7",
						"type": "t_uint256"
					}
				],
				"types": {
					"t_address": {
						"encoding": "inplace",
						"label": "address",
						"numberOfBytes": "20"
					},
					"t_string_storage": {
						"encoding": "bytes",
						"label": "string",
						"numberOfBytes": "32"
					},
					"t_uint256": {
						"encoding": "inplace",
						"label": "uint256",
						"numberOfBytes": "32"
					},
					"t_uint8": {
						"encoding": "inplace",
						"label": "uint8",
						"numberOfBytes": "1"
					}
				}
			},
			"userdoc": {
				"kind": "user",
				"methods": {},
				"version": 1
			}
		}
	}
}