{
	"contracts/inheritance/Overriding.sol": {
		"Benz": {
			"abi": [
				{
					"inputs": [
						{
							"internalType": "string",
							"name": "_model",
							"type": "string"
						}
					],
					"stateMutability": "nonpayable",
					"type": "constructor"
				},
				{
					"inputs": [],
					"name": "getDoor",
					"outputs": [
						{
							"internalType": "uint8",
							"name": "",
							"type": "uint8"
						}
					],
					"stateMutability": "view",
					"type": "function"
				},
				{
					"inputs": [],
					"name": "getModel",
					"outputs": [
						{
							"internalType": "string",
							"name": "",
							"type": "string"
						}
					],
					"stateMutability": "view",
					"type": "function"
				}
			],
			"devdoc": {
				"kind": "dev",
				"methods": {},
				"version": 1
			},
			"evm": {
				"assembly": "    /* \"contracts/inheritance/Overriding.sol\":380:685  contract Benz is Car(\"suv\",4){\r... */\n  mstore(0x40, 0x80)\n    /* \"contracts/inheritance/Overriding.sol\":494:589  constructor(string memory _model){\r... */\n  callvalue\n  dup1\n  iszero\n  tag_1\n  jumpi\n  0x00\n  dup1\n  revert\ntag_1:\n  pop\n  mload(0x40)\n  sub(codesize, bytecodeSize)\n  dup1\n  bytecodeSize\n  dup4\n  codecopy\n  dup2\n  dup2\n  add\n  0x40\n  mstore\n  dup2\n  add\n  swap1\n  tag_2\n  swap2\n  swap1\n  tag_3\n  jump\t// in\ntag_2:\n    /* \"contracts/inheritance/Overriding.sol\":191:291  constructor(string memory _type, uint8 _door){\r... */\n  mload(0x40)\n  dup1\n  0x40\n  add\n  0x40\n  mstore\n  dup1\n  0x03\n  dup2\n  mstore\n  0x20\n  add\n  0x7375760000000000000000000000000000000000000000000000000000000000\n  dup2\n  mstore\n  pop\n    /* \"contracts/inheritance/Overriding.sol\":407:408  4 */\n  0x04\n    /* \"contracts/inheritance/Overriding.sol\":255:260  _type */\n  dup2\n    /* \"contracts/inheritance/Overriding.sol\":247:252  type_ */\n  0x00\n    /* \"contracts/inheritance/Overriding.sol\":247:260  type_ = _type */\n  swap1\n  dup1\n  mload\n  swap1\n  0x20\n  add\n  swap1\n  tag_7\n  swap3\n  swap2\n  swap1\n  tag_8\n  jump\t// in\ntag_7:\n  pop\n    /* \"contracts/inheritance/Overriding.sol\":278:283  _door */\n  dup1\n    /* \"contracts/inheritance/Overriding.sol\":271:275  door */\n  0x01\n  0x00\n    /* \"contracts/inheritance/Overriding.sol\":271:283  door = _door */\n  0x0100\n  exp\n  dup2\n  sload\n  dup2\n  0xff\n  mul\n  not\n  and\n  swap1\n  dup4\n  0xff\n  and\n  mul\n  or\n  swap1\n  sstore\n  pop\n    /* \"contracts/inheritance/Overriding.sol\":191:291  constructor(string memory _type, uint8 _door){\r... */\n  pop\n  pop\n    /* \"contracts/inheritance/Overriding.sol\":546:552  _model */\n  dup1\n    /* \"contracts/inheritance/Overriding.sol\":538:543  model */\n  0x03\n    /* \"contracts/inheritance/Overriding.sol\":538:552  model = _model */\n  swap1\n  dup1\n  mload\n  swap1\n  0x20\n  add\n  swap1\n  tag_10\n  swap3\n  swap2\n  swap1\n  tag_8\n  jump\t// in\ntag_10:\n  pop\n    /* \"contracts/inheritance/Overriding.sol\":571:581  msg.sender */\n  caller\n    /* \"contracts/inheritance/Overriding.sol\":563:568  owner */\n  0x04\n  0x00\n    /* \"contracts/inheritance/Overriding.sol\":563:581  owner = msg.sender */\n  0x0100\n  exp\n  dup2\n  sload\n  dup2\n  0xffffffffffffffffffffffffffffffffffffffff\n  mul\n  not\n  and\n  swap1\n  dup4\n  0xffffffffffffffffffffffffffffffffffffffff\n  and\n  mul\n  or\n  swap1\n  sstore\n  pop\n    /* \"contracts/inheritance/Overriding.sol\":494:589  constructor(string memory _model){\r... */\n  pop\n    /* \"contracts/inheritance/Overriding.sol\":380:685  contract Benz is Car(\"suv\",4){\r... */\n  jump(tag_11)\ntag_8:\n  dup3\n  dup1\n  sload\n  tag_12\n  swap1\n  tag_13\n  jump\t// in\ntag_12:\n  swap1\n  0x00\n  mstore\n  keccak256(0x00, 0x20)\n  swap1\n  0x1f\n  add\n  0x20\n  swap1\n  div\n  dup2\n  add\n  swap3\n  dup3\n  tag_15\n  jumpi\n  0x00\n  dup6\n  sstore\n  jump(tag_14)\ntag_15:\n  dup3\n  0x1f\n  lt\n  tag_16\n  jumpi\n  dup1\n  mload\n  not(0xff)\n  and\n  dup4\n  dup1\n  add\n  or\n  dup6\n  sstore\n  jump(tag_14)\ntag_16:\n  dup3\n  dup1\n  add\n  0x01\n  add\n  dup6\n  sstore\n  dup3\n  iszero\n  tag_14\n  jumpi\n  swap2\n  dup3\n  add\ntag_17:\n  dup3\n  dup2\n  gt\n  iszero\n  tag_18\n  jumpi\n  dup3\n  mload\n  dup3\n  sstore\n  swap2\n  0x20\n  add\n  swap2\n  swap1\n  0x01\n  add\n  swap1\n  jump(tag_17)\ntag_18:\ntag_14:\n  pop\n  swap1\n  pop\n  tag_19\n  swap2\n  swap1\n  tag_20\n  jump\t// in\ntag_19:\n  pop\n  swap1\n  jump\t// out\ntag_20:\ntag_21:\n  dup1\n  dup3\n  gt\n  iszero\n  tag_22\n  jumpi\n  0x00\n  dup2\n  0x00\n  swap1\n  sstore\n  pop\n  0x01\n  add\n  jump(tag_21)\ntag_22:\n  pop\n  swap1\n  jump\t// out\n    /* \"#utility.yul\":7:428   */\ntag_24:\n    /* \"#utility.yul\":96:101   */\n  0x00\n    /* \"#utility.yul\":121:187   */\n  tag_26\n    /* \"#utility.yul\":137:186   */\n  tag_27\n    /* \"#utility.yul\":179:185   */\n  dup5\n    /* \"#utility.yul\":137:186   */\n  tag_28\n  jump\t// in\ntag_27:\n    /* \"#utility.yul\":121:187   */\n  tag_29\n  jump\t// in\ntag_26:\n    /* \"#utility.yul\":112:187   */\n  swap1\n  pop\n    /* \"#utility.yul\":210:216   */\n  dup3\n    /* \"#utility.yul\":203:208   */\n  dup2\n    /* \"#utility.yul\":196:217   */\n  mstore\n    /* \"#utility.yul\":248:252   */\n  0x20\n    /* \"#utility.yul\":241:246   */\n  dup2\n    /* \"#utility.yul\":237:253   */\n  add\n    /* \"#utility.yul\":286:289   */\n  dup5\n    /* \"#utility.yul\":277:283   */\n  dup5\n    /* \"#utility.yul\":272:275   */\n  dup5\n    /* \"#utility.yul\":268:284   */\n  add\n    /* \"#utility.yul\":265:290   */\n  gt\n    /* \"#utility.yul\":262:374   */\n  iszero\n  tag_30\n  jumpi\n    /* \"#utility.yul\":293:372   */\n  tag_31\n  tag_32\n  jump\t// in\ntag_31:\n    /* \"#utility.yul\":262:374   */\ntag_30:\n    /* \"#utility.yul\":383:422   */\n  tag_33\n    /* \"#utility.yul\":415:421   */\n  dup5\n    /* \"#utility.yul\":410:413   */\n  dup3\n    /* \"#utility.yul\":405:408   */\n  dup6\n    /* \"#utility.yul\":383:422   */\n  tag_34\n  jump\t// in\ntag_33:\n    /* \"#utility.yul\":102:428   */\n  pop\n    /* \"#utility.yul\":7:428   */\n  swap4\n  swap3\n  pop\n  pop\n  pop\n  jump\t// out\n    /* \"#utility.yul\":448:803   */\ntag_35:\n    /* \"#utility.yul\":515:520   */\n  0x00\n    /* \"#utility.yul\":564:567   */\n  dup3\n    /* \"#utility.yul\":557:561   */\n  0x1f\n    /* \"#utility.yul\":549:555   */\n  dup4\n    /* \"#utility.yul\":545:562   */\n  add\n    /* \"#utility.yul\":541:568   */\n  slt\n    /* \"#utility.yul\":531:653   */\n  tag_37\n  jumpi\n    /* \"#utility.yul\":572:651   */\n  tag_38\n  tag_39\n  jump\t// in\ntag_38:\n    /* \"#utility.yul\":531:653   */\ntag_37:\n    /* \"#utility.yul\":682:688   */\n  dup2\n    /* \"#utility.yul\":676:689   */\n  mload\n    /* \"#utility.yul\":707:797   */\n  tag_40\n    /* \"#utility.yul\":793:796   */\n  dup5\n    /* \"#utility.yul\":785:791   */\n  dup3\n    /* \"#utility.yul\":778:782   */\n  0x20\n    /* \"#utility.yul\":770:776   */\n  dup7\n    /* \"#utility.yul\":766:783   */\n  add\n    /* \"#utility.yul\":707:797   */\n  tag_24\n  jump\t// in\ntag_40:\n    /* \"#utility.yul\":698:797   */\n  swap2\n  pop\n    /* \"#utility.yul\":521:803   */\n  pop\n    /* \"#utility.yul\":448:803   */\n  swap3\n  swap2\n  pop\n  pop\n  jump\t// out\n    /* \"#utility.yul\":809:1333   */\ntag_3:\n    /* \"#utility.yul\":889:895   */\n  0x00\n    /* \"#utility.yul\":938:940   */\n  0x20\n    /* \"#utility.yul\":926:935   */\n  dup3\n    /* \"#utility.yul\":917:924   */\n  dup5\n    /* \"#utility.yul\":913:936   */\n  sub\n    /* \"#utility.yul\":909:941   */\n  slt\n    /* \"#utility.yul\":906:1025   */\n  iszero\n  tag_42\n  jumpi\n    /* \"#utility.yul\":944:1023   */\n  tag_43\n  tag_44\n  jump\t// in\ntag_43:\n    /* \"#utility.yul\":906:1025   */\ntag_42:\n    /* \"#utility.yul\":1085:1086   */\n  0x00\n    /* \"#utility.yul\":1074:1083   */\n  dup3\n    /* \"#utility.yul\":1070:1087   */\n  add\n    /* \"#utility.yul\":1064:1088   */\n  mload\n    /* \"#utility.yul\":1115:1133   */\n  0xffffffffffffffff\n    /* \"#utility.yul\":1107:1113   */\n  dup2\n    /* \"#utility.yul\":1104:1134   */\n  gt\n    /* \"#utility.yul\":1101:1218   */\n  iszero\n  tag_45\n  jumpi\n    /* \"#utility.yul\":1137:1216   */\n  tag_46\n  tag_47\n  jump\t// in\ntag_46:\n    /* \"#utility.yul\":1101:1218   */\ntag_45:\n    /* \"#utility.yul\":1242:1316   */\n  tag_48\n    /* \"#utility.yul\":1308:1315   */\n  dup5\n    /* \"#utility.yul\":1299:1305   */\n  dup3\n    /* \"#utility.yul\":1288:1297   */\n  dup6\n    /* \"#utility.yul\":1284:1306   */\n  add\n    /* \"#utility.yul\":1242:1316   */\n  tag_35\n  jump\t// in\ntag_48:\n    /* \"#utility.yul\":1232:1316   */\n  swap2\n  pop\n    /* \"#utility.yul\":1035:1326   */\n  pop\n    /* \"#utility.yul\":809:1333   */\n  swap3\n  swap2\n  pop\n  pop\n  jump\t// out\n    /* \"#utility.yul\":1339:1468   */\ntag_29:\n    /* \"#utility.yul\":1373:1379   */\n  0x00\n    /* \"#utility.yul\":1400:1420   */\n  tag_50\n  tag_51\n  jump\t// in\ntag_50:\n    /* \"#utility.yul\":1390:1420   */\n  swap1\n  pop\n    /* \"#utility.yul\":1429:1462   */\n  tag_52\n    /* \"#utility.yul\":1457:1461   */\n  dup3\n    /* \"#utility.yul\":1449:1455   */\n  dup3\n    /* \"#utility.yul\":1429:1462   */\n  tag_53\n  jump\t// in\ntag_52:\n    /* \"#utility.yul\":1339:1468   */\n  swap2\n  swap1\n  pop\n  jump\t// out\n    /* \"#utility.yul\":1474:1549   */\ntag_51:\n    /* \"#utility.yul\":1507:1513   */\n  0x00\n    /* \"#utility.yul\":1540:1542   */\n  0x40\n    /* \"#utility.yul\":1534:1543   */\n  mload\n    /* \"#utility.yul\":1524:1543   */\n  swap1\n  pop\n    /* \"#utility.yul\":1474:1549   */\n  swap1\n  jump\t// out\n    /* \"#utility.yul\":1555:1863   */\ntag_28:\n    /* \"#utility.yul\":1617:1621   */\n  0x00\n    /* \"#utility.yul\":1707:1725   */\n  0xffffffffffffffff\n    /* \"#utility.yul\":1699:1705   */\n  dup3\n    /* \"#utility.yul\":1696:1726   */\n  gt\n    /* \"#utility.yul\":1693:1749   */\n  iszero\n  tag_56\n  jumpi\n    /* \"#utility.yul\":1729:1747   */\n  tag_57\n  tag_58\n  jump\t// in\ntag_57:\n    /* \"#utility.yul\":1693:1749   */\ntag_56:\n    /* \"#utility.yul\":1767:1796   */\n  tag_59\n    /* \"#utility.yul\":1789:1795   */\n  dup3\n    /* \"#utility.yul\":1767:1796   */\n  tag_60\n  jump\t// in\ntag_59:\n    /* \"#utility.yul\":1759:1796   */\n  swap1\n  pop\n    /* \"#utility.yul\":1851:1855   */\n  0x20\n    /* \"#utility.yul\":1845:1849   */\n  dup2\n    /* \"#utility.yul\":1841:1856   */\n  add\n    /* \"#utility.yul\":1833:1856   */\n  swap1\n  pop\n    /* \"#utility.yul\":1555:1863   */\n  swap2\n  swap1\n  pop\n  jump\t// out\n    /* \"#utility.yul\":1869:2176   */\ntag_34:\n    /* \"#utility.yul\":1937:1938   */\n  0x00\n    /* \"#utility.yul\":1947:2060   */\ntag_62:\n    /* \"#utility.yul\":1961:1967   */\n  dup4\n    /* \"#utility.yul\":1958:1959   */\n  dup2\n    /* \"#utility.yul\":1955:1968   */\n  lt\n    /* \"#utility.yul\":1947:2060   */\n  iszero\n  tag_64\n  jumpi\n    /* \"#utility.yul\":2046:2047   */\n  dup1\n    /* \"#utility.yul\":2041:2044   */\n  dup3\n    /* \"#utility.yul\":2037:2048   */\n  add\n    /* \"#utility.yul\":2031:2049   */\n  mload\n    /* \"#utility.yul\":2027:2028   */\n  dup2\n    /* \"#utility.yul\":2022:2025   */\n  dup5\n    /* \"#utility.yul\":2018:2029   */\n  add\n    /* \"#utility.yul\":2011:2050   */\n  mstore\n    /* \"#utility.yul\":1983:1985   */\n  0x20\n    /* \"#utility.yul\":1980:1981   */\n  dup2\n    /* \"#utility.yul\":1976:1986   */\n  add\n    /* \"#utility.yul\":1971:1986   */\n  swap1\n  pop\n    /* \"#utility.yul\":1947:2060   */\n  jump(tag_62)\ntag_64:\n    /* \"#utility.yul\":2078:2084   */\n  dup4\n    /* \"#utility.yul\":2075:2076   */\n  dup2\n    /* \"#utility.yul\":2072:2085   */\n  gt\n    /* \"#utility.yul\":2069:2170   */\n  iszero\n  tag_65\n  jumpi\n    /* \"#utility.yul\":2158:2159   */\n  0x00\n    /* \"#utility.yul\":2149:2155   */\n  dup5\n    /* \"#utility.yul\":2144:2147   */\n  dup5\n    /* \"#utility.yul\":2140:2156   */\n  add\n    /* \"#utility.yul\":2133:2160   */\n  mstore\n    /* \"#utility.yul\":2069:2170   */\ntag_65:\n    /* \"#utility.yul\":1918:2176   */\n  pop\n    /* \"#utility.yul\":1869:2176   */\n  pop\n  pop\n  pop\n  jump\t// out\n    /* \"#utility.yul\":2182:2502   */\ntag_13:\n    /* \"#utility.yul\":2226:2232   */\n  0x00\n    /* \"#utility.yul\":2263:2264   */\n  0x02\n    /* \"#utility.yul\":2257:2261   */\n  dup3\n    /* \"#utility.yul\":2253:2265   */\n  div\n    /* \"#utility.yul\":2243:2265   */\n  swap1\n  pop\n    /* \"#utility.yul\":2310:2311   */\n  0x01\n    /* \"#utility.yul\":2304:2308   */\n  dup3\n    /* \"#utility.yul\":2300:2312   */\n  and\n    /* \"#utility.yul\":2331:2349   */\n  dup1\n    /* \"#utility.yul\":2321:2402   */\n  tag_67\n  jumpi\n    /* \"#utility.yul\":2387:2391   */\n  0x7f\n    /* \"#utility.yul\":2379:2385   */\n  dup3\n    /* \"#utility.yul\":2375:2392   */\n  and\n    /* \"#utility.yul\":2365:2392   */\n  swap2\n  pop\n    /* \"#utility.yul\":2321:2402   */\ntag_67:\n    /* \"#utility.yul\":2449:2451   */\n  0x20\n    /* \"#utility.yul\":2441:2447   */\n  dup3\n    /* \"#utility.yul\":2438:2452   */\n  lt\n    /* \"#utility.yul\":2418:2436   */\n  dup2\n    /* \"#utility.yul\":2415:2453   */\n  eq\n    /* \"#utility.yul\":2412:2496   */\n  iszero\n  tag_68\n  jumpi\n    /* \"#utility.yul\":2468:2486   */\n  tag_69\n  tag_70\n  jump\t// in\ntag_69:\n    /* \"#utility.yul\":2412:2496   */\ntag_68:\n    /* \"#utility.yul\":2233:2502   */\n  pop\n    /* \"#utility.yul\":2182:2502   */\n  swap2\n  swap1\n  pop\n  jump\t// out\n    /* \"#utility.yul\":2508:2789   */\ntag_53:\n    /* \"#utility.yul\":2591:2618   */\n  tag_72\n    /* \"#utility.yul\":2613:2617   */\n  dup3\n    /* \"#utility.yul\":2591:2618   */\n  tag_60\n  jump\t// in\ntag_72:\n    /* \"#utility.yul\":2583:2589   */\n  dup2\n    /* \"#utility.yul\":2579:2619   */\n  add\n    /* \"#utility.yul\":2721:2727   */\n  dup2\n    /* \"#utility.yul\":2709:2719   */\n  dup2\n    /* \"#utility.yul\":2706:2728   */\n  lt\n    /* \"#utility.yul\":2685:2703   */\n  0xffffffffffffffff\n    /* \"#utility.yul\":2673:2683   */\n  dup3\n    /* \"#utility.yul\":2670:2704   */\n  gt\n    /* \"#utility.yul\":2667:2729   */\n  or\n    /* \"#utility.yul\":2664:2752   */\n  iszero\n  tag_73\n  jumpi\n    /* \"#utility.yul\":2732:2750   */\n  tag_74\n  tag_58\n  jump\t// in\ntag_74:\n    /* \"#utility.yul\":2664:2752   */\ntag_73:\n    /* \"#utility.yul\":2772:2782   */\n  dup1\n    /* \"#utility.yul\":2768:2770   */\n  0x40\n    /* \"#utility.yul\":2761:2783   */\n  mstore\n    /* \"#utility.yul\":2551:2789   */\n  pop\n    /* \"#utility.yul\":2508:2789   */\n  pop\n  pop\n  jump\t// out\n    /* \"#utility.yul\":2795:2975   */\ntag_70:\n    /* \"#utility.yul\":2843:2920   */\n  0x4e487b7100000000000000000000000000000000000000000000000000000000\n    /* \"#utility.yul\":2840:2841   */\n  0x00\n    /* \"#utility.yul\":2833:2921   */\n  mstore\n    /* \"#utility.yul\":2940:2944   */\n  0x22\n    /* \"#utility.yul\":2937:2938   */\n  0x04\n    /* \"#utility.yul\":2930:2945   */\n  mstore\n    /* \"#utility.yul\":2964:2968   */\n  0x24\n    /* \"#utility.yul\":2961:2962   */\n  0x00\n    /* \"#utility.yul\":2954:2969   */\n  revert\n    /* \"#utility.yul\":2981:3161   */\ntag_58:\n    /* \"#utility.yul\":3029:3106   */\n  0x4e487b7100000000000000000000000000000000000000000000000000000000\n    /* \"#utility.yul\":3026:3027   */\n  0x00\n    /* \"#utility.yul\":3019:3107   */\n  mstore\n    /* \"#utility.yul\":3126:3130   */\n  0x41\n    /* \"#utility.yul\":3123:3124   */\n  0x04\n    /* \"#utility.yul\":3116:3131   */\n  mstore\n    /* \"#utility.yul\":3150:3154   */\n  0x24\n    /* \"#utility.yul\":3147:3148   */\n  0x00\n    /* \"#utility.yul\":3140:3155   */\n  revert\n    /* \"#utility.yul\":3167:3284   */\ntag_39:\n    /* \"#utility.yul\":3276:3277   */\n  0x00\n    /* \"#utility.yul\":3273:3274   */\n  dup1\n    /* \"#utility.yul\":3266:3278   */\n  revert\n    /* \"#utility.yul\":3290:3407   */\ntag_32:\n    /* \"#utility.yul\":3399:3400   */\n  0x00\n    /* \"#utility.yul\":3396:3397   */\n  dup1\n    /* \"#utility.yul\":3389:3401   */\n  revert\n    /* \"#utility.yul\":3413:3530   */\ntag_47:\n    /* \"#utility.yul\":3522:3523   */\n  0x00\n    /* \"#utility.yul\":3519:3520   */\n  dup1\n    /* \"#utility.yul\":3512:3524   */\n  revert\n    /* \"#utility.yul\":3536:3653   */\ntag_44:\n    /* \"#utility.yul\":3645:3646   */\n  0x00\n    /* \"#utility.yul\":3642:3643   */\n  dup1\n    /* \"#utility.yul\":3635:3647   */\n  revert\n    /* \"#utility.yul\":3659:3761   */\ntag_60:\n    /* \"#utility.yul\":3700:3706   */\n  0x00\n    /* \"#utility.yul\":3751:3753   */\n  0x1f\n    /* \"#utility.yul\":3747:3754   */\n  not\n    /* \"#utility.yul\":3742:3744   */\n  0x1f\n    /* \"#utility.yul\":3735:3740   */\n  dup4\n    /* \"#utility.yul\":3731:3745   */\n  add\n    /* \"#utility.yul\":3727:3755   */\n  and\n    /* \"#utility.yul\":3717:3755   */\n  swap1\n  pop\n    /* \"#utility.yul\":3659:3761   */\n  swap2\n  swap1\n  pop\n  jump\t// out\n    /* \"contracts/inheritance/Overriding.sol\":380:685  contract Benz is Car(\"suv\",4){\r... */\ntag_11:\n  dataSize(sub_0)\n  dup1\n  dataOffset(sub_0)\n  0x00\n  codecopy\n  0x00\n  return\nstop\n\nsub_0: assembly {\n        /* \"contracts/inheritance/Overriding.sol\":380:685  contract Benz is Car(\"suv\",4){\r... */\n      mstore(0x40, 0x80)\n      callvalue\n      dup1\n      iszero\n      tag_1\n      jumpi\n      0x00\n      dup1\n      revert\n    tag_1:\n      pop\n      jumpi(tag_2, lt(calldatasize, 0x04))\n      shr(0xe0, calldataload(0x00))\n      dup1\n      0x19e6f3a5\n      eq\n      tag_3\n      jumpi\n      dup1\n      0xa0bfa1e0\n      eq\n      tag_4\n      jumpi\n    tag_2:\n      0x00\n      dup1\n      revert\n        /* \"contracts/inheritance/Overriding.sol\":297:373  function getDoor() public view returns(uint8) {\r... */\n    tag_3:\n      tag_5\n      tag_6\n      jump\t// in\n    tag_5:\n      mload(0x40)\n      tag_7\n      swap2\n      swap1\n      tag_8\n      jump\t// in\n    tag_7:\n      mload(0x40)\n      dup1\n      swap2\n      sub\n      swap1\n      return\n        /* \"contracts/inheritance/Overriding.sol\":597:682  function getModel() public view returns(string memory){\r... */\n    tag_4:\n      tag_9\n      tag_10\n      jump\t// in\n    tag_9:\n      mload(0x40)\n      tag_11\n      swap2\n      swap1\n      tag_12\n      jump\t// in\n    tag_11:\n      mload(0x40)\n      dup1\n      swap2\n      sub\n      swap1\n      return\n        /* \"contracts/inheritance/Overriding.sol\":297:373  function getDoor() public view returns(uint8) {\r... */\n    tag_6:\n        /* \"contracts/inheritance/Overriding.sol\":336:341  uint8 */\n      0x00\n        /* \"contracts/inheritance/Overriding.sol\":361:365  door */\n      0x01\n      0x00\n      swap1\n      sload\n      swap1\n      0x0100\n      exp\n      swap1\n      div\n      0xff\n      and\n        /* \"contracts/inheritance/Overriding.sol\":354:365  return door */\n      swap1\n      pop\n        /* \"contracts/inheritance/Overriding.sol\":297:373  function getDoor() public view returns(uint8) {\r... */\n      swap1\n      jump\t// out\n        /* \"contracts/inheritance/Overriding.sol\":597:682  function getModel() public view returns(string memory){\r... */\n    tag_10:\n        /* \"contracts/inheritance/Overriding.sol\":637:650  string memory */\n      0x60\n        /* \"contracts/inheritance/Overriding.sol\":669:674  model */\n      0x03\n        /* \"contracts/inheritance/Overriding.sol\":662:674  return model */\n      dup1\n      sload\n      tag_15\n      swap1\n      tag_16\n      jump\t// in\n    tag_15:\n      dup1\n      0x1f\n      add\n      0x20\n      dup1\n      swap2\n      div\n      mul\n      0x20\n      add\n      mload(0x40)\n      swap1\n      dup2\n      add\n      0x40\n      mstore\n      dup1\n      swap3\n      swap2\n      swap1\n      dup2\n      dup2\n      mstore\n      0x20\n      add\n      dup3\n      dup1\n      sload\n      tag_17\n      swap1\n      tag_16\n      jump\t// in\n    tag_17:\n      dup1\n      iszero\n      tag_18\n      jumpi\n      dup1\n      0x1f\n      lt\n      tag_19\n      jumpi\n      0x0100\n      dup1\n      dup4\n      sload\n      div\n      mul\n      dup4\n      mstore\n      swap2\n      0x20\n      add\n      swap2\n      jump(tag_18)\n    tag_19:\n      dup3\n      add\n      swap2\n      swap1\n      0x00\n      mstore\n      keccak256(0x00, 0x20)\n      swap1\n    tag_20:\n      dup2\n      sload\n      dup2\n      mstore\n      swap1\n      0x01\n      add\n      swap1\n      0x20\n      add\n      dup1\n      dup4\n      gt\n      tag_20\n      jumpi\n      dup3\n      swap1\n      sub\n      0x1f\n      and\n      dup3\n      add\n      swap2\n    tag_18:\n      pop\n      pop\n      pop\n      pop\n      pop\n      swap1\n      pop\n        /* \"contracts/inheritance/Overriding.sol\":597:682  function getModel() public view returns(string memory){\r... */\n      swap1\n      jump\t// out\n        /* \"#utility.yul\":7:371   */\n    tag_22:\n        /* \"#utility.yul\":95:98   */\n      0x00\n        /* \"#utility.yul\":123:162   */\n      tag_24\n        /* \"#utility.yul\":156:161   */\n      dup3\n        /* \"#utility.yul\":123:162   */\n      tag_25\n      jump\t// in\n    tag_24:\n        /* \"#utility.yul\":178:249   */\n      tag_26\n        /* \"#utility.yul\":242:248   */\n      dup2\n        /* \"#utility.yul\":237:240   */\n      dup6\n        /* \"#utility.yul\":178:249   */\n      tag_27\n      jump\t// in\n    tag_26:\n        /* \"#utility.yul\":171:249   */\n      swap4\n      pop\n        /* \"#utility.yul\":258:310   */\n      tag_28\n        /* \"#utility.yul\":303:309   */\n      dup2\n        /* \"#utility.yul\":298:301   */\n      dup6\n        /* \"#utility.yul\":291:295   */\n      0x20\n        /* \"#utility.yul\":284:289   */\n      dup7\n        /* \"#utility.yul\":280:296   */\n      add\n        /* \"#utility.yul\":258:310   */\n      tag_29\n      jump\t// in\n    tag_28:\n        /* \"#utility.yul\":335:364   */\n      tag_30\n        /* \"#utility.yul\":357:363   */\n      dup2\n        /* \"#utility.yul\":335:364   */\n      tag_31\n      jump\t// in\n    tag_30:\n        /* \"#utility.yul\":330:333   */\n      dup5\n        /* \"#utility.yul\":326:365   */\n      add\n        /* \"#utility.yul\":319:365   */\n      swap2\n      pop\n        /* \"#utility.yul\":99:371   */\n      pop\n        /* \"#utility.yul\":7:371   */\n      swap3\n      swap2\n      pop\n      pop\n      jump\t// out\n        /* \"#utility.yul\":377:489   */\n    tag_32:\n        /* \"#utility.yul\":460:482   */\n      tag_34\n        /* \"#utility.yul\":476:481   */\n      dup2\n        /* \"#utility.yul\":460:482   */\n      tag_35\n      jump\t// in\n    tag_34:\n        /* \"#utility.yul\":455:458   */\n      dup3\n        /* \"#utility.yul\":448:483   */\n      mstore\n        /* \"#utility.yul\":377:489   */\n      pop\n      pop\n      jump\t// out\n        /* \"#utility.yul\":495:808   */\n    tag_12:\n        /* \"#utility.yul\":608:612   */\n      0x00\n        /* \"#utility.yul\":646:648   */\n      0x20\n        /* \"#utility.yul\":635:644   */\n      dup3\n        /* \"#utility.yul\":631:649   */\n      add\n        /* \"#utility.yul\":623:649   */\n      swap1\n      pop\n        /* \"#utility.yul\":695:704   */\n      dup2\n        /* \"#utility.yul\":689:693   */\n      dup2\n        /* \"#utility.yul\":685:705   */\n      sub\n        /* \"#utility.yul\":681:682   */\n      0x00\n        /* \"#utility.yul\":670:679   */\n      dup4\n        /* \"#utility.yul\":666:683   */\n      add\n        /* \"#utility.yul\":659:706   */\n      mstore\n        /* \"#utility.yul\":723:801   */\n      tag_37\n        /* \"#utility.yul\":796:800   */\n      dup2\n        /* \"#utility.yul\":787:793   */\n      dup5\n        /* \"#utility.yul\":723:801   */\n      tag_22\n      jump\t// in\n    tag_37:\n        /* \"#utility.yul\":715:801   */\n      swap1\n      pop\n        /* \"#utility.yul\":495:808   */\n      swap3\n      swap2\n      pop\n      pop\n      jump\t// out\n        /* \"#utility.yul\":814:1028   */\n    tag_8:\n        /* \"#utility.yul\":903:907   */\n      0x00\n        /* \"#utility.yul\":941:943   */\n      0x20\n        /* \"#utility.yul\":930:939   */\n      dup3\n        /* \"#utility.yul\":926:944   */\n      add\n        /* \"#utility.yul\":918:944   */\n      swap1\n      pop\n        /* \"#utility.yul\":954:1021   */\n      tag_39\n        /* \"#utility.yul\":1018:1019   */\n      0x00\n        /* \"#utility.yul\":1007:1016   */\n      dup4\n        /* \"#utility.yul\":1003:1020   */\n      add\n        /* \"#utility.yul\":994:1000   */\n      dup5\n        /* \"#utility.yul\":954:1021   */\n      tag_32\n      jump\t// in\n    tag_39:\n        /* \"#utility.yul\":814:1028   */\n      swap3\n      swap2\n      pop\n      pop\n      jump\t// out\n        /* \"#utility.yul\":1034:1133   */\n    tag_25:\n        /* \"#utility.yul\":1086:1092   */\n      0x00\n        /* \"#utility.yul\":1120:1125   */\n      dup2\n        /* \"#utility.yul\":1114:1126   */\n      mload\n        /* \"#utility.yul\":1104:1126   */\n      swap1\n      pop\n        /* \"#utility.yul\":1034:1133   */\n      swap2\n      swap1\n      pop\n      jump\t// out\n        /* \"#utility.yul\":1139:1308   */\n    tag_27:\n        /* \"#utility.yul\":1223:1234   */\n      0x00\n        /* \"#utility.yul\":1257:1263   */\n      dup3\n        /* \"#utility.yul\":1252:1255   */\n      dup3\n        /* \"#utility.yul\":1245:1264   */\n      mstore\n        /* \"#utility.yul\":1297:1301   */\n      0x20\n        /* \"#utility.yul\":1292:1295   */\n      dup3\n        /* \"#utility.yul\":1288:1302   */\n      add\n        /* \"#utility.yul\":1273:1302   */\n      swap1\n      pop\n        /* \"#utility.yul\":1139:1308   */\n      swap3\n      swap2\n      pop\n      pop\n      jump\t// out\n        /* \"#utility.yul\":1314:1400   */\n    tag_35:\n        /* \"#utility.yul\":1349:1356   */\n      0x00\n        /* \"#utility.yul\":1389:1393   */\n      0xff\n        /* \"#utility.yul\":1382:1387   */\n      dup3\n        /* \"#utility.yul\":1378:1394   */\n      and\n        /* \"#utility.yul\":1367:1394   */\n      swap1\n      pop\n        /* \"#utility.yul\":1314:1400   */\n      swap2\n      swap1\n      pop\n      jump\t// out\n        /* \"#utility.yul\":1406:1713   */\n    tag_29:\n        /* \"#utility.yul\":1474:1475   */\n      0x00\n        /* \"#utility.yul\":1484:1597   */\n    tag_44:\n        /* \"#utility.yul\":1498:1504   */\n      dup4\n        /* \"#utility.yul\":1495:1496   */\n      dup2\n        /* \"#utility.yul\":1492:1505   */\n      lt\n        /* \"#utility.yul\":1484:1597   */\n      iszero\n      tag_46\n      jumpi\n        /* \"#utility.yul\":1583:1584   */\n      dup1\n        /* \"#utility.yul\":1578:1581   */\n      dup3\n        /* \"#utility.yul\":1574:1585   */\n      add\n        /* \"#utility.yul\":1568:1586   */\n      mload\n        /* \"#utility.yul\":1564:1565   */\n      dup2\n        /* \"#utility.yul\":1559:1562   */\n      dup5\n        /* \"#utility.yul\":1555:1566   */\n      add\n        /* \"#utility.yul\":1548:1587   */\n      mstore\n        /* \"#utility.yul\":1520:1522   */\n      0x20\n        /* \"#utility.yul\":1517:1518   */\n      dup2\n        /* \"#utility.yul\":1513:1523   */\n      add\n        /* \"#utility.yul\":1508:1523   */\n      swap1\n      pop\n        /* \"#utility.yul\":1484:1597   */\n      jump(tag_44)\n    tag_46:\n        /* \"#utility.yul\":1615:1621   */\n      dup4\n        /* \"#utility.yul\":1612:1613   */\n      dup2\n        /* \"#utility.yul\":1609:1622   */\n      gt\n        /* \"#utility.yul\":1606:1707   */\n      iszero\n      tag_47\n      jumpi\n        /* \"#utility.yul\":1695:1696   */\n      0x00\n        /* \"#utility.yul\":1686:1692   */\n      dup5\n        /* \"#utility.yul\":1681:1684   */\n      dup5\n        /* \"#utility.yul\":1677:1693   */\n      add\n        /* \"#utility.yul\":1670:1697   */\n      mstore\n        /* \"#utility.yul\":1606:1707   */\n    tag_47:\n        /* \"#utility.yul\":1455:1713   */\n      pop\n        /* \"#utility.yul\":1406:1713   */\n      pop\n      pop\n      pop\n      jump\t// out\n        /* \"#utility.yul\":1719:2039   */\n    tag_16:\n        /* \"#utility.yul\":1763:1769   */\n      0x00\n        /* \"#utility.yul\":1800:1801   */\n      0x02\n        /* \"#utility.yul\":1794:1798   */\n      dup3\n        /* \"#utility.yul\":1790:1802   */\n      div\n        /* \"#utility.yul\":1780:1802   */\n      swap1\n      pop\n        /* \"#utility.yul\":1847:1848   */\n      0x01\n        /* \"#utility.yul\":1841:1845   */\n      dup3\n        /* \"#utility.yul\":1837:1849   */\n      and\n        /* \"#utility.yul\":1868:1886   */\n      dup1\n        /* \"#utility.yul\":1858:1939   */\n      tag_49\n      jumpi\n        /* \"#utility.yul\":1924:1928   */\n      0x7f\n        /* \"#utility.yul\":1916:1922   */\n      dup3\n        /* \"#utility.yul\":1912:1929   */\n      and\n        /* \"#utility.yul\":1902:1929   */\n      swap2\n      pop\n        /* \"#utility.yul\":1858:1939   */\n    tag_49:\n        /* \"#utility.yul\":1986:1988   */\n      0x20\n        /* \"#utility.yul\":1978:1984   */\n      dup3\n        /* \"#utility.yul\":1975:1989   */\n      lt\n        /* \"#utility.yul\":1955:1973   */\n      dup2\n        /* \"#utility.yul\":1952:1990   */\n      eq\n        /* \"#utility.yul\":1949:2033   */\n      iszero\n      tag_50\n      jumpi\n        /* \"#utility.yul\":2005:2023   */\n      tag_51\n      tag_52\n      jump\t// in\n    tag_51:\n        /* \"#utility.yul\":1949:2033   */\n    tag_50:\n        /* \"#utility.yul\":1770:2039   */\n      pop\n        /* \"#utility.yul\":1719:2039   */\n      swap2\n      swap1\n      pop\n      jump\t// out\n        /* \"#utility.yul\":2045:2225   */\n    tag_52:\n        /* \"#utility.yul\":2093:2170   */\n      0x4e487b7100000000000000000000000000000000000000000000000000000000\n        /* \"#utility.yul\":2090:2091   */\n      0x00\n        /* \"#utility.yul\":2083:2171   */\n      mstore\n        /* \"#utility.yul\":2190:2194   */\n      0x22\n        /* \"#utility.yul\":2187:2188   */\n      0x04\n        /* \"#utility.yul\":2180:2195   */\n      mstore\n        /* \"#utility.yul\":2214:2218   */\n      0x24\n        /* \"#utility.yul\":2211:2212   */\n      0x00\n        /* \"#utility.yul\":2204:2219   */\n      revert\n        /* \"#utility.yul\":2231:2333   */\n    tag_31:\n        /* \"#utility.yul\":2272:2278   */\n      0x00\n        /* \"#utility.yul\":2323:2325   */\n      0x1f\n        /* \"#utility.yul\":2319:2326   */\n      not\n        /* \"#utility.yul\":2314:2316   */\n      0x1f\n        /* \"#utility.yul\":2307:2312   */\n      dup4\n        /* \"#utility.yul\":2303:2317   */\n      add\n        /* \"#utility.yul\":2299:2327   */\n      and\n        /* \"#utility.yul\":2289:2327   */\n      swap1\n      pop\n        /* \"#utility.yul\":2231:2333   */\n      swap2\n      swap1\n      pop\n      jump\t// out\n\n    auxdata: 0xa2646970667358221220d1346f675b40ac4576b4baf47773867186f7043460f6c9d273167035d4b8ca2e64736f6c63430008070033\n}\n",
				"bytecode": {
					"linkReferences": {},
					"object": "608060405234801561001057600080fd5b5060405161067f38038061067f8339818101604052810190610032919061020f565b6040518060400160405280600381526020017f7375760000000000000000000000000000000000000000000000000000000000815250600481600090805190602001906100809291906100fc565b5080600160006101000a81548160ff021916908360ff160217905550505080600390805190602001906100b49291906100fc565b5033600460006101000a81548173ffffffffffffffffffffffffffffffffffffffff021916908373ffffffffffffffffffffffffffffffffffffffff160217905550506103c7565b828054610108906102e1565b90600052602060002090601f01602090048101928261012a5760008555610171565b82601f1061014357805160ff1916838001178555610171565b82800160010185558215610171579182015b82811115610170578251825591602001919060010190610155565b5b50905061017e9190610182565b5090565b5b8082111561019b576000816000905550600101610183565b5090565b60006101b26101ad8461027d565b610258565b9050828152602081018484840111156101ce576101cd6103a7565b5b6101d98482856102ae565b509392505050565b600082601f8301126101f6576101f56103a2565b5b815161020684826020860161019f565b91505092915050565b600060208284031215610225576102246103b1565b5b600082015167ffffffffffffffff811115610243576102426103ac565b5b61024f848285016101e1565b91505092915050565b6000610262610273565b905061026e8282610313565b919050565b6000604051905090565b600067ffffffffffffffff82111561029857610297610373565b5b6102a1826103b6565b9050602081019050919050565b60005b838110156102cc5780820151818401526020810190506102b1565b838111156102db576000848401525b50505050565b600060028204905060018216806102f957607f821691505b6020821081141561030d5761030c610344565b5b50919050565b61031c826103b6565b810181811067ffffffffffffffff8211171561033b5761033a610373565b5b80604052505050565b7f4e487b7100000000000000000000000000000000000000000000000000000000600052602260045260246000fd5b7f4e487b7100000000000000000000000000000000000000000000000000000000600052604160045260246000fd5b600080fd5b600080fd5b600080fd5b600080fd5b6000601f19601f8301169050919050565b6102a9806103d66000396000f3fe608060405234801561001057600080fd5b50600436106100365760003560e01c806319e6f3a51461003b578063a0bfa1e014610059575b600080fd5b610043610077565b604051610050919061018a565b60405180910390f35b61006161008e565b60405161006e9190610168565b60405180910390f35b6000600160009054906101000a900460ff16905090565b60606003805461009d90610201565b80601f01602080910402602001604051908101604052809291908181526020018280546100c990610201565b80156101165780601f106100eb57610100808354040283529160200191610116565b820191906000526020600020905b8154815290600101906020018083116100f957829003601f168201915b5050505050905090565b600061012b826101a5565b61013581856101b0565b93506101458185602086016101ce565b61014e81610262565b840191505092915050565b610162816101c1565b82525050565b600060208201905081810360008301526101828184610120565b905092915050565b600060208201905061019f6000830184610159565b92915050565b600081519050919050565b600082825260208201905092915050565b600060ff82169050919050565b60005b838110156101ec5780820151818401526020810190506101d1565b838111156101fb576000848401525b50505050565b6000600282049050600182168061021957607f821691505b6020821081141561022d5761022c610233565b5b50919050565b7f4e487b7100000000000000000000000000000000000000000000000000000000600052602260045260246000fd5b6000601f19601f830116905091905056fea2646970667358221220d1346f675b40ac4576b4baf47773867186f7043460f6c9d273167035d4b8ca2e64736f6c63430008070033",
					"opcodes": "PUSH1 0x80 PUSH1 0x40 MSTORE CALLVALUE DUP1 ISZERO PUSH2 0x10 JUMPI PUSH1 0x0 DUP1 REVERT JUMPDEST POP PUSH1 0x40 MLOAD PUSH2 0x67F CODESIZE SUB DUP1 PUSH2 0x67F DUP4 CODECOPY DUP2 DUP2 ADD PUSH1 0x40 MSTORE DUP2 ADD SWAP1 PUSH2 0x32 SWAP2 SWAP1 PUSH2 0x20F JUMP JUMPDEST PUSH1 0x40 MLOAD DUP1 PUSH1 0x40 ADD PUSH1 0x40 MSTORE DUP1 PUSH1 0x3 DUP2 MSTORE PUSH1 0x20 ADD PUSH32 0x7375760000000000000000000000000000000000000000000000000000000000 DUP2 MSTORE POP PUSH1 0x4 DUP2 PUSH1 0x0 SWAP1 DUP1 MLOAD SWAP1 PUSH1 0x20 ADD SWAP1 PUSH2 0x80 SWAP3 SWAP2 SWAP1 PUSH2 0xFC JUMP JUMPDEST POP DUP1 PUSH1 0x1 PUSH1 0x0 PUSH2 0x100 EXP DUP2 SLOAD DUP2 PUSH1 0xFF MUL NOT AND SWAP1 DUP4 PUSH1 0xFF AND MUL OR SWAP1 SSTORE POP POP POP DUP1 PUSH1 0x3 SWAP1 DUP1 MLOAD SWAP1 PUSH1 0x20 ADD SWAP1 PUSH2 0xB4 SWAP3 SWAP2 SWAP1 PUSH2 0xFC JUMP JUMPDEST POP CALLER PUSH1 0x4 PUSH1 0x0 PUSH2 0x100 EXP DUP2 SLOAD DUP2 PUSH20 0xFFFFFFFFFFFFFFFFFFFFFFFFFFFFFFFFFFFFFFFF MUL NOT AND SWAP1 DUP4 PUSH20 0xFFFFFFFFFFFFFFFFFFFFFFFFFFFFFFFFFFFFFFFF AND MUL OR SWAP1 SSTORE POP POP PUSH2 0x3C7 JUMP JUMPDEST DUP3 DUP1 SLOAD PUSH2 0x108 SWAP1 PUSH2 0x2E1 JUMP JUMPDEST SWAP1 PUSH1 0x0 MSTORE PUSH1 0x20 PUSH1 0x0 KECCAK256 SWAP1 PUSH1 0x1F ADD PUSH1 0x20 SWAP1 DIV DUP2 ADD SWAP3 DUP3 PUSH2 0x12A JUMPI PUSH1 0x0 DUP6 SSTORE PUSH2 0x171 JUMP JUMPDEST DUP3 PUSH1 0x1F LT PUSH2 0x143 JUMPI DUP1 MLOAD PUSH1 0xFF NOT AND DUP4 DUP1 ADD OR DUP6 SSTORE PUSH2 0x171 JUMP JUMPDEST DUP3 DUP1 ADD PUSH1 0x1 ADD DUP6 SSTORE DUP3 ISZERO PUSH2 0x171 JUMPI SWAP2 DUP3 ADD JUMPDEST DUP3 DUP2 GT ISZERO PUSH2 0x170 JUMPI DUP3 MLOAD DUP3 SSTORE SWAP2 PUSH1 0x20 ADD SWAP2 SWAP1 PUSH1 0x1 ADD SWAP1 PUSH2 0x155 JUMP JUMPDEST JUMPDEST POP SWAP1 POP PUSH2 0x17E SWAP2 SWAP1 PUSH2 0x182 JUMP JUMPDEST POP SWAP1 JUMP JUMPDEST JUMPDEST DUP1 DUP3 GT ISZERO PUSH2 0x19B JUMPI PUSH1 0x0 DUP2 PUSH1 0x0 SWAP1 SSTORE POP PUSH1 0x1 ADD PUSH2 0x183 JUMP JUMPDEST POP SWAP1 JUMP JUMPDEST PUSH1 0x0 PUSH2 0x1B2 PUSH2 0x1AD DUP5 PUSH2 0x27D JUMP JUMPDEST PUSH2 0x258 JUMP JUMPDEST SWAP1 POP DUP3 DUP2 MSTORE PUSH1 0x20 DUP2 ADD DUP5 DUP5 DUP5 ADD GT ISZERO PUSH2 0x1CE JUMPI PUSH2 0x1CD PUSH2 0x3A7 JUMP JUMPDEST JUMPDEST PUSH2 0x1D9 DUP5 DUP3 DUP6 PUSH2 0x2AE JUMP JUMPDEST POP SWAP4 SWAP3 POP POP POP JUMP JUMPDEST PUSH1 0x0 DUP3 PUSH1 0x1F DUP4 ADD SLT PUSH2 0x1F6 JUMPI PUSH2 0x1F5 PUSH2 0x3A2 JUMP JUMPDEST JUMPDEST DUP2 MLOAD PUSH2 0x206 DUP5 DUP3 PUSH1 0x20 DUP7 ADD PUSH2 0x19F JUMP JUMPDEST SWAP2 POP POP SWAP3 SWAP2 POP POP JUMP JUMPDEST PUSH1 0x0 PUSH1 0x20 DUP3 DUP5 SUB SLT ISZERO PUSH2 0x225 JUMPI PUSH2 0x224 PUSH2 0x3B1 JUMP JUMPDEST JUMPDEST PUSH1 0x0 DUP3 ADD MLOAD PUSH8 0xFFFFFFFFFFFFFFFF DUP2 GT ISZERO PUSH2 0x243 JUMPI PUSH2 0x242 PUSH2 0x3AC JUMP JUMPDEST JUMPDEST PUSH2 0x24F DUP5 DUP3 DUP6 ADD PUSH2 0x1E1 JUMP JUMPDEST SWAP2 POP POP SWAP3 SWAP2 POP POP JUMP JUMPDEST PUSH1 0x0 PUSH2 0x262 PUSH2 0x273 JUMP JUMPDEST SWAP1 POP PUSH2 0x26E DUP3 DUP3 PUSH2 0x313 JUMP JUMPDEST SWAP2 SWAP1 POP JUMP JUMPDEST PUSH1 0x0 PUSH1 0x40 MLOAD SWAP1 POP SWAP1 JUMP JUMPDEST PUSH1 0x0 PUSH8 0xFFFFFFFFFFFFFFFF DUP3 GT ISZERO PUSH2 0x298 JUMPI PUSH2 0x297 PUSH2 0x373 JUMP JUMPDEST JUMPDEST PUSH2 0x2A1 DUP3 PUSH2 0x3B6 JUMP JUMPDEST SWAP1 POP PUSH1 0x20 DUP2 ADD SWAP1 POP SWAP2 SWAP1 POP JUMP JUMPDEST PUSH1 0x0 JUMPDEST DUP4 DUP2 LT ISZERO PUSH2 0x2CC JUMPI DUP1 DUP3 ADD MLOAD DUP2 DUP5 ADD MSTORE PUSH1 0x20 DUP2 ADD SWAP1 POP PUSH2 0x2B1 JUMP JUMPDEST DUP4 DUP2 GT ISZERO PUSH2 0x2DB JUMPI PUSH1 0x0 DUP5 DUP5 ADD MSTORE JUMPDEST POP POP POP POP JUMP JUMPDEST PUSH1 0x0 PUSH1 0x2 DUP3 DIV SWAP1 POP PUSH1 0x1 DUP3 AND DUP1 PUSH2 0x2F9 JUMPI PUSH1 0x7F DUP3 AND SWAP2 POP JUMPDEST PUSH1 0x20 DUP3 LT DUP2 EQ ISZERO PUSH2 0x30D JUMPI PUSH2 0x30C PUSH2 0x344 JUMP JUMPDEST JUMPDEST POP SWAP2 SWAP1 POP JUMP JUMPDEST PUSH2 0x31C DUP3 PUSH2 0x3B6 JUMP JUMPDEST DUP2 ADD DUP2 DUP2 LT PUSH8 0xFFFFFFFFFFFFFFFF DUP3 GT OR ISZERO PUSH2 0x33B JUMPI PUSH2 0x33A PUSH2 0x373 JUMP JUMPDEST JUMPDEST DUP1 PUSH1 0x40 MSTORE POP POP POP JUMP JUMPDEST PUSH32 0x4E487B7100000000000000000000000000000000000000000000000000000000 PUSH1 0x0 MSTORE PUSH1 0x22 PUSH1 0x4 MSTORE PUSH1 0x24 PUSH1 0x0 REVERT JUMPDEST PUSH32 0x4E487B7100000000000000000000000000000000000000000000000000000000 PUSH1 0x0 MSTORE PUSH1 0x41 PUSH1 0x4 MSTORE PUSH1 0x24 PUSH1 0x0 REVERT JUMPDEST PUSH1 0x0 DUP1 REVERT JUMPDEST PUSH1 0x0 DUP1 REVERT JUMPDEST PUSH1 0x0 DUP1 REVERT JUMPDEST PUSH1 0x0 DUP1 REVERT JUMPDEST PUSH1 0x0 PUSH1 0x1F NOT PUSH1 0x1F DUP4 ADD AND SWAP1 POP SWAP2 SWAP1 POP JUMP JUMPDEST PUSH2 0x2A9 DUP1 PUSH2 0x3D6 PUSH1 0x0 CODECOPY PUSH1 0x0 RETURN INVALID PUSH1 0x80 PUSH1 0x40 MSTORE CALLVALUE DUP1 ISZERO PUSH2 0x10 JUMPI PUSH1 0x0 DUP1 REVERT JUMPDEST POP PUSH1 0x4 CALLDATASIZE LT PUSH2 0x36 JUMPI PUSH1 0x0 CALLDATALOAD PUSH1 0xE0 SHR DUP1 PUSH4 0x19E6F3A5 EQ PUSH2 0x3B JUMPI DUP1 PUSH4 0xA0BFA1E0 EQ PUSH2 0x59 JUMPI JUMPDEST PUSH1 0x0 DUP1 REVERT JUMPDEST PUSH2 0x43 PUSH2 0x77 JUMP JUMPDEST PUSH1 0x40 MLOAD PUSH2 0x50 SWAP2 SWAP1 PUSH2 0x18A JUMP JUMPDEST PUSH1 0x40 MLOAD DUP1 SWAP2 SUB SWAP1 RETURN JUMPDEST PUSH2 0x61 PUSH2 0x8E JUMP JUMPDEST PUSH1 0x40 MLOAD PUSH2 0x6E SWAP2 SWAP1 PUSH2 0x168 JUMP JUMPDEST PUSH1 0x40 MLOAD DUP1 SWAP2 SUB SWAP1 RETURN JUMPDEST PUSH1 0x0 PUSH1 0x1 PUSH1 0x0 SWAP1 SLOAD SWAP1 PUSH2 0x100 EXP SWAP1 DIV PUSH1 0xFF AND SWAP1 POP SWAP1 JUMP JUMPDEST PUSH1 0x60 PUSH1 0x3 DUP1 SLOAD PUSH2 0x9D SWAP1 PUSH2 0x201 JUMP JUMPDEST DUP1 PUSH1 0x1F ADD PUSH1 0x20 DUP1 SWAP2 DIV MUL PUSH1 0x20 ADD PUSH1 0x40 MLOAD SWAP1 DUP2 ADD PUSH1 0x40 MSTORE DUP1 SWAP3 SWAP2 SWAP1 DUP2 DUP2 MSTORE PUSH1 0x20 ADD DUP3 DUP1 SLOAD PUSH2 0xC9 SWAP1 PUSH2 0x201 JUMP JUMPDEST DUP1 ISZERO PUSH2 0x116 JUMPI DUP1 PUSH1 0x1F LT PUSH2 0xEB JUMPI PUSH2 0x100 DUP1 DUP4 SLOAD DIV MUL DUP4 MSTORE SWAP2 PUSH1 0x20 ADD SWAP2 PUSH2 0x116 JUMP JUMPDEST DUP3 ADD SWAP2 SWAP1 PUSH1 0x0 MSTORE PUSH1 0x20 PUSH1 0x0 KECCAK256 SWAP1 JUMPDEST DUP2 SLOAD DUP2 MSTORE SWAP1 PUSH1 0x1 ADD SWAP1 PUSH1 0x20 ADD DUP1 DUP4 GT PUSH2 0xF9 JUMPI DUP3 SWAP1 SUB PUSH1 0x1F AND DUP3 ADD SWAP2 JUMPDEST POP POP POP POP POP SWAP1 POP SWAP1 JUMP JUMPDEST PUSH1 0x0 PUSH2 0x12B DUP3 PUSH2 0x1A5 JUMP JUMPDEST PUSH2 0x135 DUP2 DUP6 PUSH2 0x1B0 JUMP JUMPDEST SWAP4 POP PUSH2 0x145 DUP2 DUP6 PUSH1 0x20 DUP7 ADD PUSH2 0x1CE JUMP JUMPDEST PUSH2 0x14E DUP2 PUSH2 0x262 JUMP JUMPDEST DUP5 ADD SWAP2 POP POP SWAP3 SWAP2 POP POP JUMP JUMPDEST PUSH2 0x162 DUP2 PUSH2 0x1C1 JUMP JUMPDEST DUP3 MSTORE POP POP JUMP JUMPDEST PUSH1 0x0 PUSH1 0x20 DUP3 ADD SWAP1 POP DUP2 DUP2 SUB PUSH1 0x0 DUP4 ADD MSTORE PUSH2 0x182 DUP2 DUP5 PUSH2 0x120 JUMP JUMPDEST SWAP1 POP SWAP3 SWAP2 POP POP JUMP JUMPDEST PUSH1 0x0 PUSH1 0x20 DUP3 ADD SWAP1 POP PUSH2 0x19F PUSH1 0x0 DUP4 ADD DUP5 PUSH2 0x159 JUMP JUMPDEST SWAP3 SWAP2 POP POP JUMP JUMPDEST PUSH1 0x0 DUP2 MLOAD SWAP1 POP SWAP2 SWAP1 POP JUMP JUMPDEST PUSH1 0x0 DUP3 DUP3 MSTORE PUSH1 0x20 DUP3 ADD SWAP1 POP SWAP3 SWAP2 POP POP JUMP JUMPDEST PUSH1 0x0 PUSH1 0xFF DUP3 AND SWAP1 POP SWAP2 SWAP1 POP JUMP JUMPDEST PUSH1 0x0 JUMPDEST DUP4 DUP2 LT ISZERO PUSH2 0x1EC JUMPI DUP1 DUP3 ADD MLOAD DUP2 DUP5 ADD MSTORE PUSH1 0x20 DUP2 ADD SWAP1 POP PUSH2 0x1D1 JUMP JUMPDEST DUP4 DUP2 GT ISZERO PUSH2 0x1FB JUMPI PUSH1 0x0 DUP5 DUP5 ADD MSTORE JUMPDEST POP POP POP POP JUMP JUMPDEST PUSH1 0x0 PUSH1 0x2 DUP3 DIV SWAP1 POP PUSH1 0x1 DUP3 AND DUP1 PUSH2 0x219 JUMPI PUSH1 0x7F DUP3 AND SWAP2 POP JUMPDEST PUSH1 0x20 DUP3 LT DUP2 EQ ISZERO PUSH2 0x22D JUMPI PUSH2 0x22C PUSH2 0x233 JUMP JUMPDEST JUMPDEST POP SWAP2 SWAP1 POP JUMP JUMPDEST PUSH32 0x4E487B7100000000000000000000000000000000000000000000000000000000 PUSH1 0x0 MSTORE PUSH1 0x22 PUSH1 0x4 MSTORE PUSH1 0x24 PUSH1 0x0 REVERT JUMPDEST PUSH1 0x0 PUSH1 0x1F NOT PUSH1 0x1F DUP4 ADD AND SWAP1 POP SWAP2 SWAP1 POP JUMP INVALID LOG2 PUSH5 0x6970667358 0x22 SLT KECCAK256 0xD1 CALLVALUE PUSH16 0x675B40AC4576B4BAF47773867186F704 CALLVALUE PUSH1 0xF6 0xC9 0xD2 PUSH20 0x167035D4B8CA2E64736F6C634300080700330000 "
				},
				"gasEstimates": {
					"creation": {
						"codeDepositCost": "136200",
						"executionCost": "infinite",
						"totalCost": "infinite"
					},
					"external": {
						"getDoor()": "2457",
						"getModel()": "infinite"
					}
				},
				"methodIdentifiers": {
					"getDoor()": "19e6f3a5",
					"getModel()": "a0bfa1e0"
				}
			},
			"storageLayout": {
				"storage": [
					{
						"astId": 3,
						"contract": "contracts/inheritance/Overriding.sol:Benz",
						"label": "type_",
						"offset": 0,
						"slot": "0",
						"type": "t_string_storage"
					},
					{
						"astId": 5,
						"contract": "contracts/inheritance/Overriding.sol:Benz",
						"label": "door",
						"offset": 0,
						"slot": "1",
						"type": "t_uint8"
					},
					{
						"astId": 7,
						"contract": "contracts/inheritance/Overriding.sol:Benz",
						"label": "price",
						"offset": 0,
						"slot": "2",
						"type": "t_uint256"
					},
					{
						"astId": 38,
						"contract": "contracts/inheritance/Overriding.sol:Benz",
						"label": "model",
						"offset": 0,
						"slot": "3",
						"type": "t_string_storage"
					},
					{
						"astId": 40,
						"contract": "contracts/inheritance/Overriding.sol:Benz",
						"label": "owner",
						"offset": 0,
						"slot": "4",
						"type": "t_address"
					}
				],
				"types": {
					"t_address": {
						"encoding": "inplace",
						"label": "address",
						"numberOfBytes": "20"
					},
					"t_string_storage": {
						"encoding": "bytes",
						"label": "string",
						"numberOfBytes": "32"
					},
					"t_uint256": {
						"encoding": "inplace",
						"label": "uint256",
						"numberOfBytes": "32"
					},
					"t_uint8": {
						"encoding": "inplace",
						"label": "uint8",
						"numberOfBytes": "1"
					}
				}
			},
			"userdoc": {
				"kind": "user",
				"methods": {},
				"version": 1
			}
		}
	}
}