{
	"contracts/Version4.sol": {
		"Function4": {
			"abi": [
				{
					"constant": false,
					"inputs": [],
					"name": "getData",
					"outputs": [
						{
							"name": "",
							"type": "uint8"
						}
					],
					"payable": false,
					"stateMutability": "nonpayable",
					"type": "function"
				},
				{
					"constant": false,
					"inputs": [],
					"name": "setData",
					"outputs": [],
					"payable": false,
					"stateMutability": "nonpayable",
					"type": "function"
				}
			],
			"devdoc": {
				"methods": {}
			},
			"evm": {
				"assembly": "    /* \"contracts/Version4.sol\":70:363  contract Function4 {\r... */\n  mstore(0x40, 0x80)\n    /* \"contracts/Version4.sol\":117:120  255 */\n  0xff\n    /* \"contracts/Version4.sol\":96:120  uint8 private data = 255 */\n  0x0\n  dup1\n  0x100\n  exp\n  dup2\n  sload\n  dup2\n  0xff\n  mul\n  not\n  and\n  swap1\n  dup4\n  0xff\n  and\n  mul\n  or\n  swap1\n  sstore\n  pop\n    /* \"contracts/Version4.sol\":70:363  contract Function4 {\r... */\n  callvalue\n    /* \"--CODEGEN--\":8:17   */\n  dup1\n    /* \"--CODEGEN--\":5:7   */\n  iszero\n  tag_1\n  jumpi\n    /* \"--CODEGEN--\":30:31   */\n  0x0\n    /* \"--CODEGEN--\":27:28   */\n  dup1\n    /* \"--CODEGEN--\":20:32   */\n  revert\n    /* \"--CODEGEN--\":5:7   */\ntag_1:\n    /* \"contracts/Version4.sol\":70:363  contract Function4 {\r... */\n  pop\n  dataSize(sub_0)\n  dup1\n  dataOffset(sub_0)\n  0x0\n  codecopy\n  0x0\n  return\nstop\n\nsub_0: assembly {\n        /* \"contracts/Version4.sol\":70:363  contract Function4 {\r... */\n      mstore(0x40, 0x80)\n      jumpi(tag_1, lt(calldatasize, 0x4))\n      calldataload(0x0)\n      0x100000000000000000000000000000000000000000000000000000000\n      swap1\n      div\n      0xffffffff\n      and\n      dup1\n      0x3bc5de30\n      eq\n      tag_2\n      jumpi\n      dup1\n      0xf31604c7\n      eq\n      tag_3\n      jumpi\n    tag_1:\n      0x0\n      dup1\n      revert\n        /* \"contracts/Version4.sol\":289:360  function getData() public returns(uint8) {\r... */\n    tag_2:\n      callvalue\n        /* \"--CODEGEN--\":8:17   */\n      dup1\n        /* \"--CODEGEN--\":5:7   */\n      iszero\n      tag_4\n      jumpi\n        /* \"--CODEGEN--\":30:31   */\n      0x0\n        /* \"--CODEGEN--\":27:28   */\n      dup1\n        /* \"--CODEGEN--\":20:32   */\n      revert\n        /* \"--CODEGEN--\":5:7   */\n    tag_4:\n        /* \"contracts/Version4.sol\":289:360  function getData() public returns(uint8) {\r... */\n      pop\n      tag_5\n      jump(tag_6)\n    tag_5:\n      mload(0x40)\n      dup1\n      dup3\n      0xff\n      and\n      0xff\n      and\n      dup2\n      mstore\n      0x20\n      add\n      swap2\n      pop\n      pop\n      mload(0x40)\n      dup1\n      swap2\n      sub\n      swap1\n      return\n        /* \"contracts/Version4.sol\":227:281  function setData() public {\r... */\n    tag_3:\n      callvalue\n        /* \"--CODEGEN--\":8:17   */\n      dup1\n        /* \"--CODEGEN--\":5:7   */\n      iszero\n      tag_7\n      jumpi\n        /* \"--CODEGEN--\":30:31   */\n      0x0\n        /* \"--CODEGEN--\":27:28   */\n      dup1\n        /* \"--CODEGEN--\":20:32   */\n      revert\n        /* \"--CODEGEN--\":5:7   */\n    tag_7:\n        /* \"contracts/Version4.sol\":227:281  function setData() public {\r... */\n      pop\n      tag_8\n      jump(tag_9)\n    tag_8:\n      stop\n        /* \"contracts/Version4.sol\":289:360  function getData() public returns(uint8) {\r... */\n    tag_6:\n        /* \"contracts/Version4.sol\":323:328  uint8 */\n      0x0\n        /* \"contracts/Version4.sol\":348:352  data */\n      dup1\n      0x0\n      swap1\n      sload\n      swap1\n      0x100\n      exp\n      swap1\n      div\n      0xff\n      and\n        /* \"contracts/Version4.sol\":341:352  return data */\n      swap1\n      pop\n        /* \"contracts/Version4.sol\":289:360  function getData() public returns(uint8) {\r... */\n      swap1\n      jump\t// out\n        /* \"contracts/Version4.sol\":227:281  function setData() public {\r... */\n    tag_9:\n        /* \"contracts/Version4.sol\":272:273  1 */\n      0x1\n        /* \"contracts/Version4.sol\":264:268  data */\n      0x0\n      dup1\n        /* \"contracts/Version4.sol\":264:273  data += 1 */\n      dup3\n      dup3\n      dup3\n      swap1\n      sload\n      swap1\n      0x100\n      exp\n      swap1\n      div\n      0xff\n      and\n      add\n      swap3\n      pop\n      0x100\n      exp\n      dup2\n      sload\n      dup2\n      0xff\n      mul\n      not\n      and\n      swap1\n      dup4\n      0xff\n      and\n      mul\n      or\n      swap1\n      sstore\n      pop\n        /* \"contracts/Version4.sol\":227:281  function setData() public {\r... */\n      jump\t// out\n\n    auxdata: 0xa165627a7a72305820a67606f7ba2082201a1a6b1246c2a10fbc408e62333f1c1bc43c666584fac5b40029\n}\n",
				"bytecode": {
					"linkReferences": {},
					"object": "608060405260ff6000806101000a81548160ff021916908360ff16021790555034801561002b57600080fd5b506101018061003b6000396000f3006080604052600436106049576000357c0100000000000000000000000000000000000000000000000000000000900463ffffffff1680633bc5de3014604e578063f31604c714607c575b600080fd5b348015605957600080fd5b5060606090565b604051808260ff1660ff16815260200191505060405180910390f35b348015608757600080fd5b50608e60a6565b005b60008060009054906101000a900460ff16905090565b60016000808282829054906101000a900460ff160192506101000a81548160ff021916908360ff1602179055505600a165627a7a72305820a67606f7ba2082201a1a6b1246c2a10fbc408e62333f1c1bc43c666584fac5b40029",
					"opcodes": "PUSH1 0x80 PUSH1 0x40 MSTORE PUSH1 0xFF PUSH1 0x0 DUP1 PUSH2 0x100 EXP DUP2 SLOAD DUP2 PUSH1 0xFF MUL NOT AND SWAP1 DUP4 PUSH1 0xFF AND MUL OR SWAP1 SSTORE POP CALLVALUE DUP1 ISZERO PUSH2 0x2B JUMPI PUSH1 0x0 DUP1 REVERT JUMPDEST POP PUSH2 0x101 DUP1 PUSH2 0x3B PUSH1 0x0 CODECOPY PUSH1 0x0 RETURN STOP PUSH1 0x80 PUSH1 0x40 MSTORE PUSH1 0x4 CALLDATASIZE LT PUSH1 0x49 JUMPI PUSH1 0x0 CALLDATALOAD PUSH29 0x100000000000000000000000000000000000000000000000000000000 SWAP1 DIV PUSH4 0xFFFFFFFF AND DUP1 PUSH4 0x3BC5DE30 EQ PUSH1 0x4E JUMPI DUP1 PUSH4 0xF31604C7 EQ PUSH1 0x7C JUMPI JUMPDEST PUSH1 0x0 DUP1 REVERT JUMPDEST CALLVALUE DUP1 ISZERO PUSH1 0x59 JUMPI PUSH1 0x0 DUP1 REVERT JUMPDEST POP PUSH1 0x60 PUSH1 0x90 JUMP JUMPDEST PUSH1 0x40 MLOAD DUP1 DUP3 PUSH1 0xFF AND PUSH1 0xFF AND DUP2 MSTORE PUSH1 0x20 ADD SWAP2 POP POP PUSH1 0x40 MLOAD DUP1 SWAP2 SUB SWAP1 RETURN JUMPDEST CALLVALUE DUP1 ISZERO PUSH1 0x87 JUMPI PUSH1 0x0 DUP1 REVERT JUMPDEST POP PUSH1 0x8E PUSH1 0xA6 JUMP JUMPDEST STOP JUMPDEST PUSH1 0x0 DUP1 PUSH1 0x0 SWAP1 SLOAD SWAP1 PUSH2 0x100 EXP SWAP1 DIV PUSH1 0xFF AND SWAP1 POP SWAP1 JUMP JUMPDEST PUSH1 0x1 PUSH1 0x0 DUP1 DUP3 DUP3 DUP3 SWAP1 SLOAD SWAP1 PUSH2 0x100 EXP SWAP1 DIV PUSH1 0xFF AND ADD SWAP3 POP PUSH2 0x100 EXP DUP2 SLOAD DUP2 PUSH1 0xFF MUL NOT AND SWAP1 DUP4 PUSH1 0xFF AND MUL OR SWAP1 SSTORE POP JUMP STOP LOG1 PUSH6 0x627A7A723058 KECCAK256 0xa6 PUSH23 0x6F7BA2082201A1A6B1246C2A10FBC408E62333F1C1BC4 EXTCODECOPY PUSH7 0x6584FAC5B40029 "
				},
				"gasEstimates": {
					"creation": {
						"codeDepositCost": "51400",
						"executionCost": "20372",
						"totalCost": "71772"
					},
					"external": {
						"getData()": "450",
						"setData()": "20672"
					}
				},
				"methodIdentifiers": {
					"getData()": "3bc5de30",
					"setData()": "f31604c7"
				}
			},
			"userdoc": {
				"methods": {}
			}
		}
	}
}