{
	"contracts/Data.sol": {
		"DataType": {
			"abi": [
				{
					"inputs": [],
					"name": "data1",
					"outputs": [
						{
							"internalType": "bool",
							"name": "",
							"type": "bool"
						}
					],
					"stateMutability": "view",
					"type": "function"
				},
				{
					"inputs": [],
					"name": "data10",
					"outputs": [
						{
							"internalType": "bytes20",
							"name": "",
							"type": "bytes20"
						}
					],
					"stateMutability": "view",
					"type": "function"
				},
				{
					"inputs": [],
					"name": "data11",
					"outputs": [
						{
							"internalType": "bytes32",
							"name": "",
							"type": "bytes32"
						}
					],
					"stateMutability": "view",
					"type": "function"
				},
				{
					"inputs": [],
					"name": "data2",
					"outputs": [
						{
							"internalType": "int256",
							"name": "",
							"type": "int256"
						}
					],
					"stateMutability": "view",
					"type": "function"
				},
				{
					"inputs": [],
					"name": "data3",
					"outputs": [
						{
							"internalType": "uint256",
							"name": "",
							"type": "uint256"
						}
					],
					"stateMutability": "view",
					"type": "function"
				},
				{
					"inputs": [],
					"name": "data4",
					"outputs": [
						{
							"internalType": "uint256",
							"name": "",
							"type": "uint256"
						}
					],
					"stateMutability": "view",
					"type": "function"
				},
				{
					"inputs": [],
					"name": "data5",
					"outputs": [
						{
							"internalType": "int256",
							"name": "",
							"type": "int256"
						}
					],
					"stateMutability": "view",
					"type": "function"
				},
				{
					"inputs": [],
					"name": "data6",
					"outputs": [
						{
							"internalType": "uint8",
							"name": "",
							"type": "uint8"
						}
					],
					"stateMutability": "view",
					"type": "function"
				},
				{
					"inputs": [],
					"name": "data7",
					"outputs": [
						{
							"internalType": "int8",
							"name": "",
							"type": "int8"
						}
					],
					"stateMutability": "view",
					"type": "function"
				},
				{
					"inputs": [],
					"name": "data8",
					"outputs": [
						{
							"internalType": "string",
							"name": "",
							"type": "string"
						}
					],
					"stateMutability": "view",
					"type": "function"
				},
				{
					"inputs": [],
					"name": "data9",
					"outputs": [
						{
							"internalType": "bytes",
							"name": "",
							"type": "bytes"
						}
					],
					"stateMutability": "view",
					"type": "function"
				}
			],
			"devdoc": {
				"kind": "dev",
				"methods": {},
				"version": 1
			},
			"evm": {
				"assembly": "    /* \"contracts/Data.sol\":70:597  contract DataType {... */\n  mstore(0x40, 0x80)\n    /* \"contracts/Data.sol\":117:121  true */\n  0x01\n    /* \"contracts/Data.sol\":97:121  bool public data1 = true */\n  0x00\n  dup1\n  0x0100\n  exp\n  dup2\n  sload\n  dup2\n  0xff\n  mul\n  not\n  and\n  swap1\n  dup4\n  iszero\n  iszero\n  mul\n  or\n  swap1\n  sstore\n  pop\n    /* \"contracts/Data.sol\":147:150  -10 */\n  0xfffffffffffffffffffffffffffffffffffffffffffffffffffffffffffffff6\n    /* \"contracts/Data.sol\":128:150  int public data2 = -10 */\n  0x01\n  sstore\n    /* \"contracts/Data.sol\":177:179  10 */\n  0x0a\n    /* \"contracts/Data.sol\":157:179  uint public data3 = 10 */\n  0x02\n  sstore\n    /* \"contracts/Data.sol\":273:294  100000000000000000000 */\n  0x056bc75e2d63100000\n    /* \"contracts/Data.sol\":250:294  uint256 public data4 = 100000000000000000000 */\n  0x03\n  sstore\n    /* \"contracts/Data.sol\":323:345  -100000000000000000000 */\n  0xfffffffffffffffffffffffffffffffffffffffffffffffa9438a1d29cf00000\n    /* \"contracts/Data.sol\":301:345  int256 public data5 = -100000000000000000000 */\n  0x04\n  sstore\n    /* \"contracts/Data.sol\":375:378  100 */\n  0x64\n    /* \"contracts/Data.sol\":354:378  uint8 public data6 = 100 */\n  0x05\n  exp(0x0100, 0x00)\n  dup2\n  sload\n  dup2\n  0xff\n  mul\n  not\n  and\n  swap1\n  dup4\n  0xff\n  and\n  mul\n  or\n  swap1\n  sstore\n  pop\n    /* \"contracts/Data.sol\":415:419  -100 */\n  0xffffffffffffffffffffffffffffffffffffffffffffffffffffffffffffff9c\n    /* \"contracts/Data.sol\":395:419  int8 public data7 = -100 */\n  0x05\n  exp(0x0100, 0x01)\n  dup2\n  sload\n  dup2\n  0xff\n  mul\n  not\n  and\n  swap1\n  dup4\n  0x00\n  signextend\n  0xff\n  and\n  mul\n  or\n  swap1\n  sstore\n  pop\n    /* \"contracts/Data.sol\":442:476  string public data8= \" fastcampus\" */\n  mload(0x40)\n  dup1\n  0x40\n  add\n  0x40\n  mstore\n  dup1\n  0x0b\n  dup2\n  mstore\n  0x20\n  add\n  0x206661737463616d707573000000000000000000000000000000000000000000\n  dup2\n  mstore\n  pop\n  0x06\n  swap1\n  dup1\n  mload\n  swap1\n  0x20\n  add\n  swap1\n  tag_1\n  swap3\n  swap2\n  swap1\n  tag_2\n  jump\t// in\ntag_1:\n  pop\n    /* \"contracts/Data.sol\":483:516  bytes public data9 = \"fastcampus\" */\n  mload(0x40)\n  dup1\n  0x40\n  add\n  0x40\n  mstore\n  dup1\n  0x0a\n  dup2\n  mstore\n  0x20\n  add\n  0x6661737463616d70757300000000000000000000000000000000000000000000\n  dup2\n  mstore\n  pop\n  0x07\n  swap1\n  dup1\n  mload\n  swap1\n  0x20\n  add\n  swap1\n  tag_3\n  swap3\n  swap2\n  swap1\n  tag_4\n  jump\t// in\ntag_3:\n  pop\n    /* \"contracts/Data.sol\":523:555  bytes20 public data10 =  \"hex~~\" */\n  0x6865787e7e000000000000000000000000000000000000000000000000000000\n  0x08\n  exp(0x0100, 0x00)\n  dup2\n  sload\n  dup2\n  0xffffffffffffffffffffffffffffffffffffffff\n  mul\n  not\n  and\n  swap1\n  dup4\n  0x60\n  shr\n  mul\n  or\n  swap1\n  sstore\n  pop\n    /* \"contracts/Data.sol\":562:593  bytes32 public data11 = \"hex~~\" */\n  sstore(0x09, 0x6865787e7e000000000000000000000000000000000000000000000000000000)\n    /* \"contracts/Data.sol\":70:597  contract DataType {... */\n  callvalue\n  dup1\n  iszero\n  tag_5\n  jumpi\n  0x00\n  dup1\n  revert\ntag_5:\n  pop\n  jump(tag_6)\ntag_2:\n  dup3\n  dup1\n  sload\n  tag_7\n  swap1\n  tag_8\n  jump\t// in\ntag_7:\n  swap1\n  0x00\n  mstore\n  keccak256(0x00, 0x20)\n  swap1\n  0x1f\n  add\n  0x20\n  swap1\n  div\n  dup2\n  add\n  swap3\n  dup3\n  tag_10\n  jumpi\n  0x00\n  dup6\n  sstore\n  jump(tag_9)\ntag_10:\n  dup3\n  0x1f\n  lt\n  tag_11\n  jumpi\n  dup1\n  mload\n  not(0xff)\n  and\n  dup4\n  dup1\n  add\n  or\n  dup6\n  sstore\n  jump(tag_9)\ntag_11:\n  dup3\n  dup1\n  add\n  0x01\n  add\n  dup6\n  sstore\n  dup3\n  iszero\n  tag_9\n  jumpi\n  swap2\n  dup3\n  add\ntag_12:\n  dup3\n  dup2\n  gt\n  iszero\n  tag_13\n  jumpi\n  dup3\n  mload\n  dup3\n  sstore\n  swap2\n  0x20\n  add\n  swap2\n  swap1\n  0x01\n  add\n  swap1\n  jump(tag_12)\ntag_13:\ntag_9:\n  pop\n  swap1\n  pop\n  tag_14\n  swap2\n  swap1\n  tag_15\n  jump\t// in\ntag_14:\n  pop\n  swap1\n  jump\t// out\ntag_4:\n  dup3\n  dup1\n  sload\n  tag_16\n  swap1\n  tag_8\n  jump\t// in\ntag_16:\n  swap1\n  0x00\n  mstore\n  keccak256(0x00, 0x20)\n  swap1\n  0x1f\n  add\n  0x20\n  swap1\n  div\n  dup2\n  add\n  swap3\n  dup3\n  tag_18\n  jumpi\n  0x00\n  dup6\n  sstore\n  jump(tag_17)\ntag_18:\n  dup3\n  0x1f\n  lt\n  tag_19\n  jumpi\n  dup1\n  mload\n  not(0xff)\n  and\n  dup4\n  dup1\n  add\n  or\n  dup6\n  sstore\n  jump(tag_17)\ntag_19:\n  dup3\n  dup1\n  add\n  0x01\n  add\n  dup6\n  sstore\n  dup3\n  iszero\n  tag_17\n  jumpi\n  swap2\n  dup3\n  add\ntag_20:\n  dup3\n  dup2\n  gt\n  iszero\n  tag_21\n  jumpi\n  dup3\n  mload\n  dup3\n  sstore\n  swap2\n  0x20\n  add\n  swap2\n  swap1\n  0x01\n  add\n  swap1\n  jump(tag_20)\ntag_21:\ntag_17:\n  pop\n  swap1\n  pop\n  tag_22\n  swap2\n  swap1\n  tag_15\n  jump\t// in\ntag_22:\n  pop\n  swap1\n  jump\t// out\ntag_15:\ntag_23:\n  dup1\n  dup3\n  gt\n  iszero\n  tag_24\n  jumpi\n  0x00\n  dup2\n  0x00\n  swap1\n  sstore\n  pop\n  0x01\n  add\n  jump(tag_23)\ntag_24:\n  pop\n  swap1\n  jump\t// out\n    /* \"#utility.yul\":7:187   */\ntag_25:\n    /* \"#utility.yul\":55:132   */\n  0x4e487b7100000000000000000000000000000000000000000000000000000000\n    /* \"#utility.yul\":52:53   */\n  0x00\n    /* \"#utility.yul\":45:133   */\n  mstore\n    /* \"#utility.yul\":152:156   */\n  0x22\n    /* \"#utility.yul\":149:150   */\n  0x04\n    /* \"#utility.yul\":142:157   */\n  mstore\n    /* \"#utility.yul\":176:180   */\n  0x24\n    /* \"#utility.yul\":173:174   */\n  0x00\n    /* \"#utility.yul\":166:181   */\n  revert\n    /* \"#utility.yul\":193:513   */\ntag_8:\n    /* \"#utility.yul\":237:243   */\n  0x00\n    /* \"#utility.yul\":274:275   */\n  0x02\n    /* \"#utility.yul\":268:272   */\n  dup3\n    /* \"#utility.yul\":264:276   */\n  div\n    /* \"#utility.yul\":254:276   */\n  swap1\n  pop\n    /* \"#utility.yul\":321:322   */\n  0x01\n    /* \"#utility.yul\":315:319   */\n  dup3\n    /* \"#utility.yul\":311:323   */\n  and\n    /* \"#utility.yul\":342:360   */\n  dup1\n    /* \"#utility.yul\":332:413   */\n  tag_29\n  jumpi\n    /* \"#utility.yul\":398:402   */\n  0x7f\n    /* \"#utility.yul\":390:396   */\n  dup3\n    /* \"#utility.yul\":386:403   */\n  and\n    /* \"#utility.yul\":376:403   */\n  swap2\n  pop\n    /* \"#utility.yul\":332:413   */\ntag_29:\n    /* \"#utility.yul\":460:462   */\n  0x20\n    /* \"#utility.yul\":452:458   */\n  dup3\n    /* \"#utility.yul\":449:463   */\n  lt\n    /* \"#utility.yul\":429:447   */\n  dup2\n    /* \"#utility.yul\":426:464   */\n  eq\n    /* \"#utility.yul\":423:507   */\n  iszero\n  tag_30\n  jumpi\n    /* \"#utility.yul\":479:497   */\n  tag_31\n  tag_25\n  jump\t// in\ntag_31:\n    /* \"#utility.yul\":423:507   */\ntag_30:\n    /* \"#utility.yul\":244:513   */\n  pop\n    /* \"#utility.yul\":193:513   */\n  swap2\n  swap1\n  pop\n  jump\t// out\n    /* \"contracts/Data.sol\":70:597  contract DataType {... */\ntag_6:\n  dataSize(sub_0)\n  dup1\n  dataOffset(sub_0)\n  0x00\n  codecopy\n  0x00\n  return\nstop\n\nsub_0: assembly {\n        /* \"contracts/Data.sol\":70:597  contract DataType {... */\n      mstore(0x40, 0x80)\n      callvalue\n      dup1\n      iszero\n      tag_1\n      jumpi\n      0x00\n      dup1\n      revert\n    tag_1:\n      pop\n      jumpi(tag_2, lt(calldatasize, 0x04))\n      shr(0xe0, calldataload(0x00))\n      dup1\n      0xc35887a7\n      gt\n      tag_14\n      jumpi\n      dup1\n      0xc35887a7\n      eq\n      tag_8\n      jumpi\n      dup1\n      0xe3a7fd75\n      eq\n      tag_9\n      jumpi\n      dup1\n      0xf80b56c9\n      eq\n      tag_10\n      jumpi\n      dup1\n      0xfab29b45\n      eq\n      tag_11\n      jumpi\n      dup1\n      0xfc26b0ab\n      eq\n      tag_12\n      jumpi\n      dup1\n      0xfdcc663f\n      eq\n      tag_13\n      jumpi\n      jump(tag_2)\n    tag_14:\n      dup1\n      0x279b95c4\n      eq\n      tag_3\n      jumpi\n      dup1\n      0x2c79b1a9\n      eq\n      tag_4\n      jumpi\n      dup1\n      0x5c9fef08\n      eq\n      tag_5\n      jumpi\n      dup1\n      0x61d9e726\n      eq\n      tag_6\n      jumpi\n      dup1\n      0x9ffd85c4\n      eq\n      tag_7\n      jumpi\n    tag_2:\n      0x00\n      dup1\n      revert\n        /* \"contracts/Data.sol\":523:555  bytes20 public data10 =  \"hex~~\" */\n    tag_3:\n      tag_15\n      tag_16\n      jump\t// in\n    tag_15:\n      mload(0x40)\n      tag_17\n      swap2\n      swap1\n      tag_18\n      jump\t// in\n    tag_17:\n      mload(0x40)\n      dup1\n      swap2\n      sub\n      swap1\n      return\n        /* \"contracts/Data.sol\":562:593  bytes32 public data11 = \"hex~~\" */\n    tag_4:\n      tag_19\n      tag_20\n      jump\t// in\n    tag_19:\n      mload(0x40)\n      tag_21\n      swap2\n      swap1\n      tag_22\n      jump\t// in\n    tag_21:\n      mload(0x40)\n      dup1\n      swap2\n      sub\n      swap1\n      return\n        /* \"contracts/Data.sol\":483:516  bytes public data9 = \"fastcampus\" */\n    tag_5:\n      tag_23\n      tag_24\n      jump\t// in\n    tag_23:\n      mload(0x40)\n      tag_25\n      swap2\n      swap1\n      tag_26\n      jump\t// in\n    tag_25:\n      mload(0x40)\n      dup1\n      swap2\n      sub\n      swap1\n      return\n        /* \"contracts/Data.sol\":250:294  uint256 public data4 = 100000000000000000000 */\n    tag_6:\n      tag_27\n      tag_28\n      jump\t// in\n    tag_27:\n      mload(0x40)\n      tag_29\n      swap2\n      swap1\n      tag_30\n      jump\t// in\n    tag_29:\n      mload(0x40)\n      dup1\n      swap2\n      sub\n      swap1\n      return\n        /* \"contracts/Data.sol\":97:121  bool public data1 = true */\n    tag_7:\n      tag_31\n      tag_32\n      jump\t// in\n    tag_31:\n      mload(0x40)\n      tag_33\n      swap2\n      swap1\n      tag_34\n      jump\t// in\n    tag_33:\n      mload(0x40)\n      dup1\n      swap2\n      sub\n      swap1\n      return\n        /* \"contracts/Data.sol\":301:345  int256 public data5 = -100000000000000000000 */\n    tag_8:\n      tag_35\n      tag_36\n      jump\t// in\n    tag_35:\n      mload(0x40)\n      tag_37\n      swap2\n      swap1\n      tag_38\n      jump\t// in\n    tag_37:\n      mload(0x40)\n      dup1\n      swap2\n      sub\n      swap1\n      return\n        /* \"contracts/Data.sol\":128:150  int public data2 = -10 */\n    tag_9:\n      tag_39\n      tag_40\n      jump\t// in\n    tag_39:\n      mload(0x40)\n      tag_41\n      swap2\n      swap1\n      tag_38\n      jump\t// in\n    tag_41:\n      mload(0x40)\n      dup1\n      swap2\n      sub\n      swap1\n      return\n        /* \"contracts/Data.sol\":442:476  string public data8= \" fastcampus\" */\n    tag_10:\n      tag_42\n      tag_43\n      jump\t// in\n    tag_42:\n      mload(0x40)\n      tag_44\n      swap2\n      swap1\n      tag_45\n      jump\t// in\n    tag_44:\n      mload(0x40)\n      dup1\n      swap2\n      sub\n      swap1\n      return\n        /* \"contracts/Data.sol\":354:378  uint8 public data6 = 100 */\n    tag_11:\n      tag_46\n      tag_47\n      jump\t// in\n    tag_46:\n      mload(0x40)\n      tag_48\n      swap2\n      swap1\n      tag_49\n      jump\t// in\n    tag_48:\n      mload(0x40)\n      dup1\n      swap2\n      sub\n      swap1\n      return\n        /* \"contracts/Data.sol\":157:179  uint public data3 = 10 */\n    tag_12:\n      tag_50\n      tag_51\n      jump\t// in\n    tag_50:\n      mload(0x40)\n      tag_52\n      swap2\n      swap1\n      tag_30\n      jump\t// in\n    tag_52:\n      mload(0x40)\n      dup1\n      swap2\n      sub\n      swap1\n      return\n        /* \"contracts/Data.sol\":395:419  int8 public data7 = -100 */\n    tag_13:\n      tag_53\n      tag_54\n      jump\t// in\n    tag_53:\n      mload(0x40)\n      tag_55\n      swap2\n      swap1\n      tag_56\n      jump\t// in\n    tag_55:\n      mload(0x40)\n      dup1\n      swap2\n      sub\n      swap1\n      return\n        /* \"contracts/Data.sol\":523:555  bytes20 public data10 =  \"hex~~\" */\n    tag_16:\n      0x08\n      0x00\n      swap1\n      sload\n      swap1\n      0x0100\n      exp\n      swap1\n      div\n      0x60\n      shl\n      dup2\n      jump\t// out\n        /* \"contracts/Data.sol\":562:593  bytes32 public data11 = \"hex~~\" */\n    tag_20:\n      sload(0x09)\n      dup2\n      jump\t// out\n        /* \"contracts/Data.sol\":483:516  bytes public data9 = \"fastcampus\" */\n    tag_24:\n      0x07\n      dup1\n      sload\n      tag_57\n      swap1\n      tag_58\n      jump\t// in\n    tag_57:\n      dup1\n      0x1f\n      add\n      0x20\n      dup1\n      swap2\n      div\n      mul\n      0x20\n      add\n      mload(0x40)\n      swap1\n      dup2\n      add\n      0x40\n      mstore\n      dup1\n      swap3\n      swap2\n      swap1\n      dup2\n      dup2\n      mstore\n      0x20\n      add\n      dup3\n      dup1\n      sload\n      tag_59\n      swap1\n      tag_58\n      jump\t// in\n    tag_59:\n      dup1\n      iszero\n      tag_60\n      jumpi\n      dup1\n      0x1f\n      lt\n      tag_61\n      jumpi\n      0x0100\n      dup1\n      dup4\n      sload\n      div\n      mul\n      dup4\n      mstore\n      swap2\n      0x20\n      add\n      swap2\n      jump(tag_60)\n    tag_61:\n      dup3\n      add\n      swap2\n      swap1\n      0x00\n      mstore\n      keccak256(0x00, 0x20)\n      swap1\n    tag_62:\n      dup2\n      sload\n      dup2\n      mstore\n      swap1\n      0x01\n      add\n      swap1\n      0x20\n      add\n      dup1\n      dup4\n      gt\n      tag_62\n      jumpi\n      dup3\n      swap1\n      sub\n      0x1f\n      and\n      dup3\n      add\n      swap2\n    tag_60:\n      pop\n      pop\n      pop\n      pop\n      pop\n      dup2\n      jump\t// out\n        /* \"contracts/Data.sol\":250:294  uint256 public data4 = 100000000000000000000 */\n    tag_28:\n      sload(0x03)\n      dup2\n      jump\t// out\n        /* \"contracts/Data.sol\":97:121  bool public data1 = true */\n    tag_32:\n      0x00\n      dup1\n      sload\n      swap1\n      0x0100\n      exp\n      swap1\n      div\n      0xff\n      and\n      dup2\n      jump\t// out\n        /* \"contracts/Data.sol\":301:345  int256 public data5 = -100000000000000000000 */\n    tag_36:\n      sload(0x04)\n      dup2\n      jump\t// out\n        /* \"contracts/Data.sol\":128:150  int public data2 = -10 */\n    tag_40:\n      sload(0x01)\n      dup2\n      jump\t// out\n        /* \"contracts/Data.sol\":442:476  string public data8= \" fastcampus\" */\n    tag_43:\n      0x06\n      dup1\n      sload\n      tag_63\n      swap1\n      tag_58\n      jump\t// in\n    tag_63:\n      dup1\n      0x1f\n      add\n      0x20\n      dup1\n      swap2\n      div\n      mul\n      0x20\n      add\n      mload(0x40)\n      swap1\n      dup2\n      add\n      0x40\n      mstore\n      dup1\n      swap3\n      swap2\n      swap1\n      dup2\n      dup2\n      mstore\n      0x20\n      add\n      dup3\n      dup1\n      sload\n      tag_64\n      swap1\n      tag_58\n      jump\t// in\n    tag_64:\n      dup1\n      iszero\n      tag_65\n      jumpi\n      dup1\n      0x1f\n      lt\n      tag_66\n      jumpi\n      0x0100\n      dup1\n      dup4\n      sload\n      div\n      mul\n      dup4\n      mstore\n      swap2\n      0x20\n      add\n      swap2\n      jump(tag_65)\n    tag_66:\n      dup3\n      add\n      swap2\n      swap1\n      0x00\n      mstore\n      keccak256(0x00, 0x20)\n      swap1\n    tag_67:\n      dup2\n      sload\n      dup2\n      mstore\n      swap1\n      0x01\n      add\n      swap1\n      0x20\n      add\n      dup1\n      dup4\n      gt\n      tag_67\n      jumpi\n      dup3\n      swap1\n      sub\n      0x1f\n      and\n      dup3\n      add\n      swap2\n    tag_65:\n      pop\n      pop\n      pop\n      pop\n      pop\n      dup2\n      jump\t// out\n        /* \"contracts/Data.sol\":354:378  uint8 public data6 = 100 */\n    tag_47:\n      0x05\n      0x00\n      swap1\n      sload\n      swap1\n      0x0100\n      exp\n      swap1\n      div\n      0xff\n      and\n      dup2\n      jump\t// out\n        /* \"contracts/Data.sol\":157:179  uint public data3 = 10 */\n    tag_51:\n      sload(0x02)\n      dup2\n      jump\t// out\n        /* \"contracts/Data.sol\":395:419  int8 public data7 = -100 */\n    tag_54:\n      0x05\n      0x01\n      swap1\n      sload\n      swap1\n      0x0100\n      exp\n      swap1\n      div\n      0x00\n      signextend\n      dup2\n      jump\t// out\n        /* \"#utility.yul\":7:157   */\n    tag_68:\n        /* \"#utility.yul\":44:51   */\n      0x00\n        /* \"#utility.yul\":84:150   */\n      0xffffffffffffffffffffffffffffffffffffffff000000000000000000000000\n        /* \"#utility.yul\":77:82   */\n      dup3\n        /* \"#utility.yul\":73:151   */\n      and\n        /* \"#utility.yul\":62:151   */\n      swap1\n      pop\n        /* \"#utility.yul\":7:157   */\n      swap2\n      swap1\n      pop\n      jump\t// out\n        /* \"#utility.yul\":163:281   */\n    tag_69:\n        /* \"#utility.yul\":250:274   */\n      tag_94\n        /* \"#utility.yul\":268:273   */\n      dup2\n        /* \"#utility.yul\":250:274   */\n      tag_68\n      jump\t// in\n    tag_94:\n        /* \"#utility.yul\":245:248   */\n      dup3\n        /* \"#utility.yul\":238:275   */\n      mstore\n        /* \"#utility.yul\":163:281   */\n      pop\n      pop\n      jump\t// out\n        /* \"#utility.yul\":287:509   */\n    tag_18:\n        /* \"#utility.yul\":380:384   */\n      0x00\n        /* \"#utility.yul\":418:420   */\n      0x20\n        /* \"#utility.yul\":407:416   */\n      dup3\n        /* \"#utility.yul\":403:421   */\n      add\n        /* \"#utility.yul\":395:421   */\n      swap1\n      pop\n        /* \"#utility.yul\":431:502   */\n      tag_96\n        /* \"#utility.yul\":499:500   */\n      0x00\n        /* \"#utility.yul\":488:497   */\n      dup4\n        /* \"#utility.yul\":484:501   */\n      add\n        /* \"#utility.yul\":475:481   */\n      dup5\n        /* \"#utility.yul\":431:502   */\n      tag_69\n      jump\t// in\n    tag_96:\n        /* \"#utility.yul\":287:509   */\n      swap3\n      swap2\n      pop\n      pop\n      jump\t// out\n        /* \"#utility.yul\":515:592   */\n    tag_70:\n        /* \"#utility.yul\":552:559   */\n      0x00\n        /* \"#utility.yul\":581:586   */\n      dup2\n        /* \"#utility.yul\":570:586   */\n      swap1\n      pop\n        /* \"#utility.yul\":515:592   */\n      swap2\n      swap1\n      pop\n      jump\t// out\n        /* \"#utility.yul\":598:716   */\n    tag_71:\n        /* \"#utility.yul\":685:709   */\n      tag_99\n        /* \"#utility.yul\":703:708   */\n      dup2\n        /* \"#utility.yul\":685:709   */\n      tag_70\n      jump\t// in\n    tag_99:\n        /* \"#utility.yul\":680:683   */\n      dup3\n        /* \"#utility.yul\":673:710   */\n      mstore\n        /* \"#utility.yul\":598:716   */\n      pop\n      pop\n      jump\t// out\n        /* \"#utility.yul\":722:944   */\n    tag_22:\n        /* \"#utility.yul\":815:819   */\n      0x00\n        /* \"#utility.yul\":853:855   */\n      0x20\n        /* \"#utility.yul\":842:851   */\n      dup3\n        /* \"#utility.yul\":838:856   */\n      add\n        /* \"#utility.yul\":830:856   */\n      swap1\n      pop\n        /* \"#utility.yul\":866:937   */\n      tag_101\n        /* \"#utility.yul\":934:935   */\n      0x00\n        /* \"#utility.yul\":923:932   */\n      dup4\n        /* \"#utility.yul\":919:936   */\n      add\n        /* \"#utility.yul\":910:916   */\n      dup5\n        /* \"#utility.yul\":866:937   */\n      tag_71\n      jump\t// in\n    tag_101:\n        /* \"#utility.yul\":722:944   */\n      swap3\n      swap2\n      pop\n      pop\n      jump\t// out\n        /* \"#utility.yul\":950:1048   */\n    tag_72:\n        /* \"#utility.yul\":1001:1007   */\n      0x00\n        /* \"#utility.yul\":1035:1040   */\n      dup2\n        /* \"#utility.yul\":1029:1041   */\n      mload\n        /* \"#utility.yul\":1019:1041   */\n      swap1\n      pop\n        /* \"#utility.yul\":950:1048   */\n      swap2\n      swap1\n      pop\n      jump\t// out\n        /* \"#utility.yul\":1054:1222   */\n    tag_73:\n        /* \"#utility.yul\":1137:1148   */\n      0x00\n        /* \"#utility.yul\":1171:1177   */\n      dup3\n        /* \"#utility.yul\":1166:1169   */\n      dup3\n        /* \"#utility.yul\":1159:1178   */\n      mstore\n        /* \"#utility.yul\":1211:1215   */\n      0x20\n        /* \"#utility.yul\":1206:1209   */\n      dup3\n        /* \"#utility.yul\":1202:1216   */\n      add\n        /* \"#utility.yul\":1187:1216   */\n      swap1\n      pop\n        /* \"#utility.yul\":1054:1222   */\n      swap3\n      swap2\n      pop\n      pop\n      jump\t// out\n        /* \"#utility.yul\":1228:1535   */\n    tag_74:\n        /* \"#utility.yul\":1296:1297   */\n      0x00\n        /* \"#utility.yul\":1306:1419   */\n    tag_105:\n        /* \"#utility.yul\":1320:1326   */\n      dup4\n        /* \"#utility.yul\":1317:1318   */\n      dup2\n        /* \"#utility.yul\":1314:1327   */\n      lt\n        /* \"#utility.yul\":1306:1419   */\n      iszero\n      tag_107\n      jumpi\n        /* \"#utility.yul\":1405:1406   */\n      dup1\n        /* \"#utility.yul\":1400:1403   */\n      dup3\n        /* \"#utility.yul\":1396:1407   */\n      add\n        /* \"#utility.yul\":1390:1408   */\n      mload\n        /* \"#utility.yul\":1386:1387   */\n      dup2\n        /* \"#utility.yul\":1381:1384   */\n      dup5\n        /* \"#utility.yul\":1377:1388   */\n      add\n        /* \"#utility.yul\":1370:1409   */\n      mstore\n        /* \"#utility.yul\":1342:1344   */\n      0x20\n        /* \"#utility.yul\":1339:1340   */\n      dup2\n        /* \"#utility.yul\":1335:1345   */\n      add\n        /* \"#utility.yul\":1330:1345   */\n      swap1\n      pop\n        /* \"#utility.yul\":1306:1419   */\n      jump(tag_105)\n    tag_107:\n        /* \"#utility.yul\":1437:1443   */\n      dup4\n        /* \"#utility.yul\":1434:1435   */\n      dup2\n        /* \"#utility.yul\":1431:1444   */\n      gt\n        /* \"#utility.yul\":1428:1529   */\n      iszero\n      tag_108\n      jumpi\n        /* \"#utility.yul\":1517:1518   */\n      0x00\n        /* \"#utility.yul\":1508:1514   */\n      dup5\n        /* \"#utility.yul\":1503:1506   */\n      dup5\n        /* \"#utility.yul\":1499:1515   */\n      add\n        /* \"#utility.yul\":1492:1519   */\n      mstore\n        /* \"#utility.yul\":1428:1529   */\n    tag_108:\n        /* \"#utility.yul\":1277:1535   */\n      pop\n        /* \"#utility.yul\":1228:1535   */\n      pop\n      pop\n      pop\n      jump\t// out\n        /* \"#utility.yul\":1541:1643   */\n    tag_75:\n        /* \"#utility.yul\":1582:1588   */\n      0x00\n        /* \"#utility.yul\":1633:1635   */\n      0x1f\n        /* \"#utility.yul\":1629:1636   */\n      not\n        /* \"#utility.yul\":1624:1626   */\n      0x1f\n        /* \"#utility.yul\":1617:1622   */\n      dup4\n        /* \"#utility.yul\":1613:1627   */\n      add\n        /* \"#utility.yul\":1609:1637   */\n      and\n        /* \"#utility.yul\":1599:1637   */\n      swap1\n      pop\n        /* \"#utility.yul\":1541:1643   */\n      swap2\n      swap1\n      pop\n      jump\t// out\n        /* \"#utility.yul\":1649:2009   */\n    tag_76:\n        /* \"#utility.yul\":1735:1738   */\n      0x00\n        /* \"#utility.yul\":1763:1801   */\n      tag_111\n        /* \"#utility.yul\":1795:1800   */\n      dup3\n        /* \"#utility.yul\":1763:1801   */\n      tag_72\n      jump\t// in\n    tag_111:\n        /* \"#utility.yul\":1817:1887   */\n      tag_112\n        /* \"#utility.yul\":1880:1886   */\n      dup2\n        /* \"#utility.yul\":1875:1878   */\n      dup6\n        /* \"#utility.yul\":1817:1887   */\n      tag_73\n      jump\t// in\n    tag_112:\n        /* \"#utility.yul\":1810:1887   */\n      swap4\n      pop\n        /* \"#utility.yul\":1896:1948   */\n      tag_113\n        /* \"#utility.yul\":1941:1947   */\n      dup2\n        /* \"#utility.yul\":1936:1939   */\n      dup6\n        /* \"#utility.yul\":1929:1933   */\n      0x20\n        /* \"#utility.yul\":1922:1927   */\n      dup7\n        /* \"#utility.yul\":1918:1934   */\n      add\n        /* \"#utility.yul\":1896:1948   */\n      tag_74\n      jump\t// in\n    tag_113:\n        /* \"#utility.yul\":1973:2002   */\n      tag_114\n        /* \"#utility.yul\":1995:2001   */\n      dup2\n        /* \"#utility.yul\":1973:2002   */\n      tag_75\n      jump\t// in\n    tag_114:\n        /* \"#utility.yul\":1968:1971   */\n      dup5\n        /* \"#utility.yul\":1964:2003   */\n      add\n        /* \"#utility.yul\":1957:2003   */\n      swap2\n      pop\n        /* \"#utility.yul\":1739:2009   */\n      pop\n        /* \"#utility.yul\":1649:2009   */\n      swap3\n      swap2\n      pop\n      pop\n      jump\t// out\n        /* \"#utility.yul\":2015:2324   */\n    tag_26:\n        /* \"#utility.yul\":2126:2130   */\n      0x00\n        /* \"#utility.yul\":2164:2166   */\n      0x20\n        /* \"#utility.yul\":2153:2162   */\n      dup3\n        /* \"#utility.yul\":2149:2167   */\n      add\n        /* \"#utility.yul\":2141:2167   */\n      swap1\n      pop\n        /* \"#utility.yul\":2213:2222   */\n      dup2\n        /* \"#utility.yul\":2207:2211   */\n      dup2\n        /* \"#utility.yul\":2203:2223   */\n      sub\n        /* \"#utility.yul\":2199:2200   */\n      0x00\n        /* \"#utility.yul\":2188:2197   */\n      dup4\n        /* \"#utility.yul\":2184:2201   */\n      add\n        /* \"#utility.yul\":2177:2224   */\n      mstore\n        /* \"#utility.yul\":2241:2317   */\n      tag_116\n        /* \"#utility.yul\":2312:2316   */\n      dup2\n        /* \"#utility.yul\":2303:2309   */\n      dup5\n        /* \"#utility.yul\":2241:2317   */\n      tag_76\n      jump\t// in\n    tag_116:\n        /* \"#utility.yul\":2233:2317   */\n      swap1\n      pop\n        /* \"#utility.yul\":2015:2324   */\n      swap3\n      swap2\n      pop\n      pop\n      jump\t// out\n        /* \"#utility.yul\":2330:2407   */\n    tag_77:\n        /* \"#utility.yul\":2367:2374   */\n      0x00\n        /* \"#utility.yul\":2396:2401   */\n      dup2\n        /* \"#utility.yul\":2385:2401   */\n      swap1\n      pop\n        /* \"#utility.yul\":2330:2407   */\n      swap2\n      swap1\n      pop\n      jump\t// out\n        /* \"#utility.yul\":2413:2531   */\n    tag_78:\n        /* \"#utility.yul\":2500:2524   */\n      tag_119\n        /* \"#utility.yul\":2518:2523   */\n      dup2\n        /* \"#utility.yul\":2500:2524   */\n      tag_77\n      jump\t// in\n    tag_119:\n        /* \"#utility.yul\":2495:2498   */\n      dup3\n        /* \"#utility.yul\":2488:2525   */\n      mstore\n        /* \"#utility.yul\":2413:2531   */\n      pop\n      pop\n      jump\t// out\n        /* \"#utility.yul\":2537:2759   */\n    tag_30:\n        /* \"#utility.yul\":2630:2634   */\n      0x00\n        /* \"#utility.yul\":2668:2670   */\n      0x20\n        /* \"#utility.yul\":2657:2666   */\n      dup3\n        /* \"#utility.yul\":2653:2671   */\n      add\n        /* \"#utility.yul\":2645:2671   */\n      swap1\n      pop\n        /* \"#utility.yul\":2681:2752   */\n      tag_121\n        /* \"#utility.yul\":2749:2750   */\n      0x00\n        /* \"#utility.yul\":2738:2747   */\n      dup4\n        /* \"#utility.yul\":2734:2751   */\n      add\n        /* \"#utility.yul\":2725:2731   */\n      dup5\n        /* \"#utility.yul\":2681:2752   */\n      tag_78\n      jump\t// in\n    tag_121:\n        /* \"#utility.yul\":2537:2759   */\n      swap3\n      swap2\n      pop\n      pop\n      jump\t// out\n        /* \"#utility.yul\":2765:2855   */\n    tag_79:\n        /* \"#utility.yul\":2799:2806   */\n      0x00\n        /* \"#utility.yul\":2842:2847   */\n      dup2\n        /* \"#utility.yul\":2835:2848   */\n      iszero\n        /* \"#utility.yul\":2828:2849   */\n      iszero\n        /* \"#utility.yul\":2817:2849   */\n      swap1\n      pop\n        /* \"#utility.yul\":2765:2855   */\n      swap2\n      swap1\n      pop\n      jump\t// out\n        /* \"#utility.yul\":2861:2970   */\n    tag_80:\n        /* \"#utility.yul\":2942:2963   */\n      tag_124\n        /* \"#utility.yul\":2957:2962   */\n      dup2\n        /* \"#utility.yul\":2942:2963   */\n      tag_79\n      jump\t// in\n    tag_124:\n        /* \"#utility.yul\":2937:2940   */\n      dup3\n        /* \"#utility.yul\":2930:2964   */\n      mstore\n        /* \"#utility.yul\":2861:2970   */\n      pop\n      pop\n      jump\t// out\n        /* \"#utility.yul\":2976:3186   */\n    tag_34:\n        /* \"#utility.yul\":3063:3067   */\n      0x00\n        /* \"#utility.yul\":3101:3103   */\n      0x20\n        /* \"#utility.yul\":3090:3099   */\n      dup3\n        /* \"#utility.yul\":3086:3104   */\n      add\n        /* \"#utility.yul\":3078:3104   */\n      swap1\n      pop\n        /* \"#utility.yul\":3114:3179   */\n      tag_126\n        /* \"#utility.yul\":3176:3177   */\n      0x00\n        /* \"#utility.yul\":3165:3174   */\n      dup4\n        /* \"#utility.yul\":3161:3178   */\n      add\n        /* \"#utility.yul\":3152:3158   */\n      dup5\n        /* \"#utility.yul\":3114:3179   */\n      tag_80\n      jump\t// in\n    tag_126:\n        /* \"#utility.yul\":2976:3186   */\n      swap3\n      swap2\n      pop\n      pop\n      jump\t// out\n        /* \"#utility.yul\":3192:3268   */\n    tag_81:\n        /* \"#utility.yul\":3228:3235   */\n      0x00\n        /* \"#utility.yul\":3257:3262   */\n      dup2\n        /* \"#utility.yul\":3246:3262   */\n      swap1\n      pop\n        /* \"#utility.yul\":3192:3268   */\n      swap2\n      swap1\n      pop\n      jump\t// out\n        /* \"#utility.yul\":3274:3389   */\n    tag_82:\n        /* \"#utility.yul\":3359:3382   */\n      tag_129\n        /* \"#utility.yul\":3376:3381   */\n      dup2\n        /* \"#utility.yul\":3359:3382   */\n      tag_81\n      jump\t// in\n    tag_129:\n        /* \"#utility.yul\":3354:3357   */\n      dup3\n        /* \"#utility.yul\":3347:3383   */\n      mstore\n        /* \"#utility.yul\":3274:3389   */\n      pop\n      pop\n      jump\t// out\n        /* \"#utility.yul\":3395:3613   */\n    tag_38:\n        /* \"#utility.yul\":3486:3490   */\n      0x00\n        /* \"#utility.yul\":3524:3526   */\n      0x20\n        /* \"#utility.yul\":3513:3522   */\n      dup3\n        /* \"#utility.yul\":3509:3527   */\n      add\n        /* \"#utility.yul\":3501:3527   */\n      swap1\n      pop\n        /* \"#utility.yul\":3537:3606   */\n      tag_131\n        /* \"#utility.yul\":3603:3604   */\n      0x00\n        /* \"#utility.yul\":3592:3601   */\n      dup4\n        /* \"#utility.yul\":3588:3605   */\n      add\n        /* \"#utility.yul\":3579:3585   */\n      dup5\n        /* \"#utility.yul\":3537:3606   */\n      tag_82\n      jump\t// in\n    tag_131:\n        /* \"#utility.yul\":3395:3613   */\n      swap3\n      swap2\n      pop\n      pop\n      jump\t// out\n        /* \"#utility.yul\":3619:3718   */\n    tag_83:\n        /* \"#utility.yul\":3671:3677   */\n      0x00\n        /* \"#utility.yul\":3705:3710   */\n      dup2\n        /* \"#utility.yul\":3699:3711   */\n      mload\n        /* \"#utility.yul\":3689:3711   */\n      swap1\n      pop\n        /* \"#utility.yul\":3619:3718   */\n      swap2\n      swap1\n      pop\n      jump\t// out\n        /* \"#utility.yul\":3724:3893   */\n    tag_84:\n        /* \"#utility.yul\":3808:3819   */\n      0x00\n        /* \"#utility.yul\":3842:3848   */\n      dup3\n        /* \"#utility.yul\":3837:3840   */\n      dup3\n        /* \"#utility.yul\":3830:3849   */\n      mstore\n        /* \"#utility.yul\":3882:3886   */\n      0x20\n        /* \"#utility.yul\":3877:3880   */\n      dup3\n        /* \"#utility.yul\":3873:3887   */\n      add\n        /* \"#utility.yul\":3858:3887   */\n      swap1\n      pop\n        /* \"#utility.yul\":3724:3893   */\n      swap3\n      swap2\n      pop\n      pop\n      jump\t// out\n        /* \"#utility.yul\":3899:4263   */\n    tag_85:\n        /* \"#utility.yul\":3987:3990   */\n      0x00\n        /* \"#utility.yul\":4015:4054   */\n      tag_135\n        /* \"#utility.yul\":4048:4053   */\n      dup3\n        /* \"#utility.yul\":4015:4054   */\n      tag_83\n      jump\t// in\n    tag_135:\n        /* \"#utility.yul\":4070:4141   */\n      tag_136\n        /* \"#utility.yul\":4134:4140   */\n      dup2\n        /* \"#utility.yul\":4129:4132   */\n      dup6\n        /* \"#utility.yul\":4070:4141   */\n      tag_84\n      jump\t// in\n    tag_136:\n        /* \"#utility.yul\":4063:4141   */\n      swap4\n      pop\n        /* \"#utility.yul\":4150:4202   */\n      tag_137\n        /* \"#utility.yul\":4195:4201   */\n      dup2\n        /* \"#utility.yul\":4190:4193   */\n      dup6\n        /* \"#utility.yul\":4183:4187   */\n      0x20\n        /* \"#utility.yul\":4176:4181   */\n      dup7\n        /* \"#utility.yul\":4172:4188   */\n      add\n        /* \"#utility.yul\":4150:4202   */\n      tag_74\n      jump\t// in\n    tag_137:\n        /* \"#utility.yul\":4227:4256   */\n      tag_138\n        /* \"#utility.yul\":4249:4255   */\n      dup2\n        /* \"#utility.yul\":4227:4256   */\n      tag_75\n      jump\t// in\n    tag_138:\n        /* \"#utility.yul\":4222:4225   */\n      dup5\n        /* \"#utility.yul\":4218:4257   */\n      add\n        /* \"#utility.yul\":4211:4257   */\n      swap2\n      pop\n        /* \"#utility.yul\":3991:4263   */\n      pop\n        /* \"#utility.yul\":3899:4263   */\n      swap3\n      swap2\n      pop\n      pop\n      jump\t// out\n        /* \"#utility.yul\":4269:4582   */\n    tag_45:\n        /* \"#utility.yul\":4382:4386   */\n      0x00\n        /* \"#utility.yul\":4420:4422   */\n      0x20\n        /* \"#utility.yul\":4409:4418   */\n      dup3\n        /* \"#utility.yul\":4405:4423   */\n      add\n        /* \"#utility.yul\":4397:4423   */\n      swap1\n      pop\n        /* \"#utility.yul\":4469:4478   */\n      dup2\n        /* \"#utility.yul\":4463:4467   */\n      dup2\n        /* \"#utility.yul\":4459:4479   */\n      sub\n        /* \"#utility.yul\":4455:4456   */\n      0x00\n        /* \"#utility.yul\":4444:4453   */\n      dup4\n        /* \"#utility.yul\":4440:4457   */\n      add\n        /* \"#utility.yul\":4433:4480   */\n      mstore\n        /* \"#utility.yul\":4497:4575   */\n      tag_140\n        /* \"#utility.yul\":4570:4574   */\n      dup2\n        /* \"#utility.yul\":4561:4567   */\n      dup5\n        /* \"#utility.yul\":4497:4575   */\n      tag_85\n      jump\t// in\n    tag_140:\n        /* \"#utility.yul\":4489:4575   */\n      swap1\n      pop\n        /* \"#utility.yul\":4269:4582   */\n      swap3\n      swap2\n      pop\n      pop\n      jump\t// out\n        /* \"#utility.yul\":4588:4674   */\n    tag_86:\n        /* \"#utility.yul\":4623:4630   */\n      0x00\n        /* \"#utility.yul\":4663:4667   */\n      0xff\n        /* \"#utility.yul\":4656:4661   */\n      dup3\n        /* \"#utility.yul\":4652:4668   */\n      and\n        /* \"#utility.yul\":4641:4668   */\n      swap1\n      pop\n        /* \"#utility.yul\":4588:4674   */\n      swap2\n      swap1\n      pop\n      jump\t// out\n        /* \"#utility.yul\":4680:4792   */\n    tag_87:\n        /* \"#utility.yul\":4763:4785   */\n      tag_143\n        /* \"#utility.yul\":4779:4784   */\n      dup2\n        /* \"#utility.yul\":4763:4785   */\n      tag_86\n      jump\t// in\n    tag_143:\n        /* \"#utility.yul\":4758:4761   */\n      dup3\n        /* \"#utility.yul\":4751:4786   */\n      mstore\n        /* \"#utility.yul\":4680:4792   */\n      pop\n      pop\n      jump\t// out\n        /* \"#utility.yul\":4798:5012   */\n    tag_49:\n        /* \"#utility.yul\":4887:4891   */\n      0x00\n        /* \"#utility.yul\":4925:4927   */\n      0x20\n        /* \"#utility.yul\":4914:4923   */\n      dup3\n        /* \"#utility.yul\":4910:4928   */\n      add\n        /* \"#utility.yul\":4902:4928   */\n      swap1\n      pop\n        /* \"#utility.yul\":4938:5005   */\n      tag_145\n        /* \"#utility.yul\":5002:5003   */\n      0x00\n        /* \"#utility.yul\":4991:5000   */\n      dup4\n        /* \"#utility.yul\":4987:5004   */\n      add\n        /* \"#utility.yul\":4978:4984   */\n      dup5\n        /* \"#utility.yul\":4938:5005   */\n      tag_87\n      jump\t// in\n    tag_145:\n        /* \"#utility.yul\":4798:5012   */\n      swap3\n      swap2\n      pop\n      pop\n      jump\t// out\n        /* \"#utility.yul\":5018:5107   */\n    tag_88:\n        /* \"#utility.yul\":5052:5059   */\n      0x00\n        /* \"#utility.yul\":5095:5100   */\n      dup2\n        /* \"#utility.yul\":5092:5093   */\n      0x00\n        /* \"#utility.yul\":5081:5101   */\n      signextend\n        /* \"#utility.yul\":5070:5101   */\n      swap1\n      pop\n        /* \"#utility.yul\":5018:5107   */\n      swap2\n      swap1\n      pop\n      jump\t// out\n        /* \"#utility.yul\":5113:5222   */\n    tag_89:\n        /* \"#utility.yul\":5194:5215   */\n      tag_148\n        /* \"#utility.yul\":5209:5214   */\n      dup2\n        /* \"#utility.yul\":5194:5215   */\n      tag_88\n      jump\t// in\n    tag_148:\n        /* \"#utility.yul\":5189:5192   */\n      dup3\n        /* \"#utility.yul\":5182:5216   */\n      mstore\n        /* \"#utility.yul\":5113:5222   */\n      pop\n      pop\n      jump\t// out\n        /* \"#utility.yul\":5228:5438   */\n    tag_56:\n        /* \"#utility.yul\":5315:5319   */\n      0x00\n        /* \"#utility.yul\":5353:5355   */\n      0x20\n        /* \"#utility.yul\":5342:5351   */\n      dup3\n        /* \"#utility.yul\":5338:5356   */\n      add\n        /* \"#utility.yul\":5330:5356   */\n      swap1\n      pop\n        /* \"#utility.yul\":5366:5431   */\n      tag_150\n        /* \"#utility.yul\":5428:5429   */\n      0x00\n        /* \"#utility.yul\":5417:5426   */\n      dup4\n        /* \"#utility.yul\":5413:5430   */\n      add\n        /* \"#utility.yul\":5404:5410   */\n      dup5\n        /* \"#utility.yul\":5366:5431   */\n      tag_89\n      jump\t// in\n    tag_150:\n        /* \"#utility.yul\":5228:5438   */\n      swap3\n      swap2\n      pop\n      pop\n      jump\t// out\n        /* \"#utility.yul\":5444:5624   */\n    tag_90:\n        /* \"#utility.yul\":5492:5569   */\n      0x4e487b7100000000000000000000000000000000000000000000000000000000\n        /* \"#utility.yul\":5489:5490   */\n      0x00\n        /* \"#utility.yul\":5482:5570   */\n      mstore\n        /* \"#utility.yul\":5589:5593   */\n      0x22\n        /* \"#utility.yul\":5586:5587   */\n      0x04\n        /* \"#utility.yul\":5579:5594   */\n      mstore\n        /* \"#utility.yul\":5613:5617   */\n      0x24\n        /* \"#utility.yul\":5610:5611   */\n      0x00\n        /* \"#utility.yul\":5603:5618   */\n      revert\n        /* \"#utility.yul\":5630:5950   */\n    tag_58:\n        /* \"#utility.yul\":5674:5680   */\n      0x00\n        /* \"#utility.yul\":5711:5712   */\n      0x02\n        /* \"#utility.yul\":5705:5709   */\n      dup3\n        /* \"#utility.yul\":5701:5713   */\n      div\n        /* \"#utility.yul\":5691:5713   */\n      swap1\n      pop\n        /* \"#utility.yul\":5758:5759   */\n      0x01\n        /* \"#utility.yul\":5752:5756   */\n      dup3\n        /* \"#utility.yul\":5748:5760   */\n      and\n        /* \"#utility.yul\":5779:5797   */\n      dup1\n        /* \"#utility.yul\":5769:5850   */\n      tag_153\n      jumpi\n        /* \"#utility.yul\":5835:5839   */\n      0x7f\n        /* \"#utility.yul\":5827:5833   */\n      dup3\n        /* \"#utility.yul\":5823:5840   */\n      and\n        /* \"#utility.yul\":5813:5840   */\n      swap2\n      pop\n        /* \"#utility.yul\":5769:5850   */\n    tag_153:\n        /* \"#utility.yul\":5897:5899   */\n      0x20\n        /* \"#utility.yul\":5889:5895   */\n      dup3\n        /* \"#utility.yul\":5886:5900   */\n      lt\n        /* \"#utility.yul\":5866:5884   */\n      dup2\n        /* \"#utility.yul\":5863:5901   */\n      eq\n        /* \"#utility.yul\":5860:5944   */\n      iszero\n      tag_154\n      jumpi\n        /* \"#utility.yul\":5916:5934   */\n      tag_155\n      tag_90\n      jump\t// in\n    tag_155:\n        /* \"#utility.yul\":5860:5944   */\n    tag_154:\n        /* \"#utility.yul\":5681:5950   */\n      pop\n        /* \"#utility.yul\":5630:5950   */\n      swap2\n      swap1\n      pop\n      jump\t// out\n\n    auxdata: 0xa26469706673582212204244394ffde227424ead83c88c9700ec4c27ae4402c150e47459386a3d6cf8ae64736f6c634300080c0033\n}\n",
				"bytecode": {
					"linkReferences": {},
					"object": "608060405260016000806101000a81548160ff0219169083151502179055507ffffffffffffffffffffffffffffffffffffffffffffffffffffffffffffffff6600155600a60025568056bc75e2d631000006003557ffffffffffffffffffffffffffffffffffffffffffffffffa9438a1d29cf000006004556064600560006101000a81548160ff021916908360ff1602179055507fffffffffffffffffffffffffffffffffffffffffffffffffffffffffffffff9c600560016101000a81548160ff021916908360000b60ff1602179055506040518060400160405280600b81526020017f206661737463616d7075730000000000000000000000000000000000000000008152506006908051906020019061011d9291906101ee565b506040518060400160405280600a81526020017f6661737463616d7075730000000000000000000000000000000000000000000081525060079080519060200190610169929190610274565b507f6865787e7e000000000000000000000000000000000000000000000000000000600860006101000a81548173ffffffffffffffffffffffffffffffffffffffff021916908360601c02179055507f6865787e7e0000000000000000000000000000000000000000000000000000006009553480156101e857600080fd5b50610378565b8280546101fa90610346565b90600052602060002090601f01602090048101928261021c5760008555610263565b82601f1061023557805160ff1916838001178555610263565b82800160010185558215610263579182015b82811115610262578251825591602001919060010190610247565b5b50905061027091906102fa565b5090565b82805461028090610346565b90600052602060002090601f0160209004810192826102a257600085556102e9565b82601f106102bb57805160ff19168380011785556102e9565b828001600101855582156102e9579182015b828111156102e85782518255916020019190600101906102cd565b5b5090506102f691906102fa565b5090565b5b808211156103135760008160009055506001016102fb565b5090565b7f4e487b7100000000000000000000000000000000000000000000000000000000600052602260045260246000fd5b6000600282049050600182168061035e57607f821691505b6020821081141561037257610371610317565b5b50919050565b6106db806103876000396000f3fe608060405234801561001057600080fd5b50600436106100a95760003560e01c8063c35887a711610071578063c35887a714610144578063e3a7fd7514610162578063f80b56c914610180578063fab29b451461019e578063fc26b0ab146101bc578063fdcc663f146101da576100a9565b8063279b95c4146100ae5780632c79b1a9146100cc5780635c9fef08146100ea57806361d9e726146101085780639ffd85c414610126575b600080fd5b6100b66101f8565b6040516100c391906103b7565b60405180910390f35b6100d461020b565b6040516100e191906103eb565b60405180910390f35b6100f2610211565b6040516100ff919061049f565b60405180910390f35b61011061029f565b60405161011d91906104da565b60405180910390f35b61012e6102a5565b60405161013b9190610510565b60405180910390f35b61014c6102b6565b6040516101599190610544565b60405180910390f35b61016a6102bc565b6040516101779190610544565b60405180910390f35b6101886102c2565b60405161019591906105b4565b60405180910390f35b6101a6610350565b6040516101b391906105f2565b60405180910390f35b6101c4610363565b6040516101d191906104da565b60405180910390f35b6101e2610369565b6040516101ef9190610629565b60405180910390f35b600860009054906101000a900460601b81565b60095481565b6007805461021e90610673565b80601f016020809104026020016040519081016040528092919081815260200182805461024a90610673565b80156102975780601f1061026c57610100808354040283529160200191610297565b820191906000526020600020905b81548152906001019060200180831161027a57829003601f168201915b505050505081565b60035481565b60008054906101000a900460ff1681565b60045481565b60015481565b600680546102cf90610673565b80601f01602080910402602001604051908101604052809291908181526020018280546102fb90610673565b80156103485780601f1061031d57610100808354040283529160200191610348565b820191906000526020600020905b81548152906001019060200180831161032b57829003601f168201915b505050505081565b600560009054906101000a900460ff1681565b60025481565b600560019054906101000a900460000b81565b60007fffffffffffffffffffffffffffffffffffffffff00000000000000000000000082169050919050565b6103b18161037c565b82525050565b60006020820190506103cc60008301846103a8565b92915050565b6000819050919050565b6103e5816103d2565b82525050565b600060208201905061040060008301846103dc565b92915050565b600081519050919050565b600082825260208201905092915050565b60005b83811015610440578082015181840152602081019050610425565b8381111561044f576000848401525b50505050565b6000601f19601f8301169050919050565b600061047182610406565b61047b8185610411565b935061048b818560208601610422565b61049481610455565b840191505092915050565b600060208201905081810360008301526104b98184610466565b905092915050565b6000819050919050565b6104d4816104c1565b82525050565b60006020820190506104ef60008301846104cb565b92915050565b60008115159050919050565b61050a816104f5565b82525050565b60006020820190506105256000830184610501565b92915050565b6000819050919050565b61053e8161052b565b82525050565b60006020820190506105596000830184610535565b92915050565b600081519050919050565b600082825260208201905092915050565b60006105868261055f565b610590818561056a565b93506105a0818560208601610422565b6105a981610455565b840191505092915050565b600060208201905081810360008301526105ce818461057b565b905092915050565b600060ff82169050919050565b6105ec816105d6565b82525050565b600060208201905061060760008301846105e3565b92915050565b60008160000b9050919050565b6106238161060d565b82525050565b600060208201905061063e600083018461061a565b92915050565b7f4e487b7100000000000000000000000000000000000000000000000000000000600052602260045260246000fd5b6000600282049050600182168061068b57607f821691505b6020821081141561069f5761069e610644565b5b5091905056fea26469706673582212204244394ffde227424ead83c88c9700ec4c27ae4402c150e47459386a3d6cf8ae64736f6c634300080c0033",
					"opcodes": "PUSH1 0x80 PUSH1 0x40 MSTORE PUSH1 0x1 PUSH1 0x0 DUP1 PUSH2 0x100 EXP DUP2 SLOAD DUP2 PUSH1 0xFF MUL NOT AND SWAP1 DUP4 ISZERO ISZERO MUL OR SWAP1 SSTORE POP PUSH32 0xFFFFFFFFFFFFFFFFFFFFFFFFFFFFFFFFFFFFFFFFFFFFFFFFFFFFFFFFFFFFFFF6 PUSH1 0x1 SSTORE PUSH1 0xA PUSH1 0x2 SSTORE PUSH9 0x56BC75E2D63100000 PUSH1 0x3 SSTORE PUSH32 0xFFFFFFFFFFFFFFFFFFFFFFFFFFFFFFFFFFFFFFFFFFFFFFFA9438A1D29CF00000 PUSH1 0x4 SSTORE PUSH1 0x64 PUSH1 0x5 PUSH1 0x0 PUSH2 0x100 EXP DUP2 SLOAD DUP2 PUSH1 0xFF MUL NOT AND SWAP1 DUP4 PUSH1 0xFF AND MUL OR SWAP1 SSTORE POP PUSH32 0xFFFFFFFFFFFFFFFFFFFFFFFFFFFFFFFFFFFFFFFFFFFFFFFFFFFFFFFFFFFFFF9C PUSH1 0x5 PUSH1 0x1 PUSH2 0x100 EXP DUP2 SLOAD DUP2 PUSH1 0xFF MUL NOT AND SWAP1 DUP4 PUSH1 0x0 SIGNEXTEND PUSH1 0xFF AND MUL OR SWAP1 SSTORE POP PUSH1 0x40 MLOAD DUP1 PUSH1 0x40 ADD PUSH1 0x40 MSTORE DUP1 PUSH1 0xB DUP2 MSTORE PUSH1 0x20 ADD PUSH32 0x206661737463616D707573000000000000000000000000000000000000000000 DUP2 MSTORE POP PUSH1 0x6 SWAP1 DUP1 MLOAD SWAP1 PUSH1 0x20 ADD SWAP1 PUSH2 0x11D SWAP3 SWAP2 SWAP1 PUSH2 0x1EE JUMP JUMPDEST POP PUSH1 0x40 MLOAD DUP1 PUSH1 0x40 ADD PUSH1 0x40 MSTORE DUP1 PUSH1 0xA DUP2 MSTORE PUSH1 0x20 ADD PUSH32 0x6661737463616D70757300000000000000000000000000000000000000000000 DUP2 MSTORE POP PUSH1 0x7 SWAP1 DUP1 MLOAD SWAP1 PUSH1 0x20 ADD SWAP1 PUSH2 0x169 SWAP3 SWAP2 SWAP1 PUSH2 0x274 JUMP JUMPDEST POP PUSH32 0x6865787E7E000000000000000000000000000000000000000000000000000000 PUSH1 0x8 PUSH1 0x0 PUSH2 0x100 EXP DUP2 SLOAD DUP2 PUSH20 0xFFFFFFFFFFFFFFFFFFFFFFFFFFFFFFFFFFFFFFFF MUL NOT AND SWAP1 DUP4 PUSH1 0x60 SHR MUL OR SWAP1 SSTORE POP PUSH32 0x6865787E7E000000000000000000000000000000000000000000000000000000 PUSH1 0x9 SSTORE CALLVALUE DUP1 ISZERO PUSH2 0x1E8 JUMPI PUSH1 0x0 DUP1 REVERT JUMPDEST POP PUSH2 0x378 JUMP JUMPDEST DUP3 DUP1 SLOAD PUSH2 0x1FA SWAP1 PUSH2 0x346 JUMP JUMPDEST SWAP1 PUSH1 0x0 MSTORE PUSH1 0x20 PUSH1 0x0 KECCAK256 SWAP1 PUSH1 0x1F ADD PUSH1 0x20 SWAP1 DIV DUP2 ADD SWAP3 DUP3 PUSH2 0x21C JUMPI PUSH1 0x0 DUP6 SSTORE PUSH2 0x263 JUMP JUMPDEST DUP3 PUSH1 0x1F LT PUSH2 0x235 JUMPI DUP1 MLOAD PUSH1 0xFF NOT AND DUP4 DUP1 ADD OR DUP6 SSTORE PUSH2 0x263 JUMP JUMPDEST DUP3 DUP1 ADD PUSH1 0x1 ADD DUP6 SSTORE DUP3 ISZERO PUSH2 0x263 JUMPI SWAP2 DUP3 ADD JUMPDEST DUP3 DUP2 GT ISZERO PUSH2 0x262 JUMPI DUP3 MLOAD DUP3 SSTORE SWAP2 PUSH1 0x20 ADD SWAP2 SWAP1 PUSH1 0x1 ADD SWAP1 PUSH2 0x247 JUMP JUMPDEST JUMPDEST POP SWAP1 POP PUSH2 0x270 SWAP2 SWAP1 PUSH2 0x2FA JUMP JUMPDEST POP SWAP1 JUMP JUMPDEST DUP3 DUP1 SLOAD PUSH2 0x280 SWAP1 PUSH2 0x346 JUMP JUMPDEST SWAP1 PUSH1 0x0 MSTORE PUSH1 0x20 PUSH1 0x0 KECCAK256 SWAP1 PUSH1 0x1F ADD PUSH1 0x20 SWAP1 DIV DUP2 ADD SWAP3 DUP3 PUSH2 0x2A2 JUMPI PUSH1 0x0 DUP6 SSTORE PUSH2 0x2E9 JUMP JUMPDEST DUP3 PUSH1 0x1F LT PUSH2 0x2BB JUMPI DUP1 MLOAD PUSH1 0xFF NOT AND DUP4 DUP1 ADD OR DUP6 SSTORE PUSH2 0x2E9 JUMP JUMPDEST DUP3 DUP1 ADD PUSH1 0x1 ADD DUP6 SSTORE DUP3 ISZERO PUSH2 0x2E9 JUMPI SWAP2 DUP3 ADD JUMPDEST DUP3 DUP2 GT ISZERO PUSH2 0x2E8 JUMPI DUP3 MLOAD DUP3 SSTORE SWAP2 PUSH1 0x20 ADD SWAP2 SWAP1 PUSH1 0x1 ADD SWAP1 PUSH2 0x2CD JUMP JUMPDEST JUMPDEST POP SWAP1 POP PUSH2 0x2F6 SWAP2 SWAP1 PUSH2 0x2FA JUMP JUMPDEST POP SWAP1 JUMP JUMPDEST JUMPDEST DUP1 DUP3 GT ISZERO PUSH2 0x313 JUMPI PUSH1 0x0 DUP2 PUSH1 0x0 SWAP1 SSTORE POP PUSH1 0x1 ADD PUSH2 0x2FB JUMP JUMPDEST POP SWAP1 JUMP JUMPDEST PUSH32 0x4E487B7100000000000000000000000000000000000000000000000000000000 PUSH1 0x0 MSTORE PUSH1 0x22 PUSH1 0x4 MSTORE PUSH1 0x24 PUSH1 0x0 REVERT JUMPDEST PUSH1 0x0 PUSH1 0x2 DUP3 DIV SWAP1 POP PUSH1 0x1 DUP3 AND DUP1 PUSH2 0x35E JUMPI PUSH1 0x7F DUP3 AND SWAP2 POP JUMPDEST PUSH1 0x20 DUP3 LT DUP2 EQ ISZERO PUSH2 0x372 JUMPI PUSH2 0x371 PUSH2 0x317 JUMP JUMPDEST JUMPDEST POP SWAP2 SWAP1 POP JUMP JUMPDEST PUSH2 0x6DB DUP1 PUSH2 0x387 PUSH1 0x0 CODECOPY PUSH1 0x0 RETURN INVALID PUSH1 0x80 PUSH1 0x40 MSTORE CALLVALUE DUP1 ISZERO PUSH2 0x10 JUMPI PUSH1 0x0 DUP1 REVERT JUMPDEST POP PUSH1 0x4 CALLDATASIZE LT PUSH2 0xA9 JUMPI PUSH1 0x0 CALLDATALOAD PUSH1 0xE0 SHR DUP1 PUSH4 0xC35887A7 GT PUSH2 0x71 JUMPI DUP1 PUSH4 0xC35887A7 EQ PUSH2 0x144 JUMPI DUP1 PUSH4 0xE3A7FD75 EQ PUSH2 0x162 JUMPI DUP1 PUSH4 0xF80B56C9 EQ PUSH2 0x180 JUMPI DUP1 PUSH4 0xFAB29B45 EQ PUSH2 0x19E JUMPI DUP1 PUSH4 0xFC26B0AB EQ PUSH2 0x1BC JUMPI DUP1 PUSH4 0xFDCC663F EQ PUSH2 0x1DA JUMPI PUSH2 0xA9 JUMP JUMPDEST DUP1 PUSH4 0x279B95C4 EQ PUSH2 0xAE JUMPI DUP1 PUSH4 0x2C79B1A9 EQ PUSH2 0xCC JUMPI DUP1 PUSH4 0x5C9FEF08 EQ PUSH2 0xEA JUMPI DUP1 PUSH4 0x61D9E726 EQ PUSH2 0x108 JUMPI DUP1 PUSH4 0x9FFD85C4 EQ PUSH2 0x126 JUMPI JUMPDEST PUSH1 0x0 DUP1 REVERT JUMPDEST PUSH2 0xB6 PUSH2 0x1F8 JUMP JUMPDEST PUSH1 0x40 MLOAD PUSH2 0xC3 SWAP2 SWAP1 PUSH2 0x3B7 JUMP JUMPDEST PUSH1 0x40 MLOAD DUP1 SWAP2 SUB SWAP1 RETURN JUMPDEST PUSH2 0xD4 PUSH2 0x20B JUMP JUMPDEST PUSH1 0x40 MLOAD PUSH2 0xE1 SWAP2 SWAP1 PUSH2 0x3EB JUMP JUMPDEST PUSH1 0x40 MLOAD DUP1 SWAP2 SUB SWAP1 RETURN JUMPDEST PUSH2 0xF2 PUSH2 0x211 JUMP JUMPDEST PUSH1 0x40 MLOAD PUSH2 0xFF SWAP2 SWAP1 PUSH2 0x49F JUMP JUMPDEST PUSH1 0x40 MLOAD DUP1 SWAP2 SUB SWAP1 RETURN JUMPDEST PUSH2 0x110 PUSH2 0x29F JUMP JUMPDEST PUSH1 0x40 MLOAD PUSH2 0x11D SWAP2 SWAP1 PUSH2 0x4DA JUMP JUMPDEST PUSH1 0x40 MLOAD DUP1 SWAP2 SUB SWAP1 RETURN JUMPDEST PUSH2 0x12E PUSH2 0x2A5 JUMP JUMPDEST PUSH1 0x40 MLOAD PUSH2 0x13B SWAP2 SWAP1 PUSH2 0x510 JUMP JUMPDEST PUSH1 0x40 MLOAD DUP1 SWAP2 SUB SWAP1 RETURN JUMPDEST PUSH2 0x14C PUSH2 0x2B6 JUMP JUMPDEST PUSH1 0x40 MLOAD PUSH2 0x159 SWAP2 SWAP1 PUSH2 0x544 JUMP JUMPDEST PUSH1 0x40 MLOAD DUP1 SWAP2 SUB SWAP1 RETURN JUMPDEST PUSH2 0x16A PUSH2 0x2BC JUMP JUMPDEST PUSH1 0x40 MLOAD PUSH2 0x177 SWAP2 SWAP1 PUSH2 0x544 JUMP JUMPDEST PUSH1 0x40 MLOAD DUP1 SWAP2 SUB SWAP1 RETURN JUMPDEST PUSH2 0x188 PUSH2 0x2C2 JUMP JUMPDEST PUSH1 0x40 MLOAD PUSH2 0x195 SWAP2 SWAP1 PUSH2 0x5B4 JUMP JUMPDEST PUSH1 0x40 MLOAD DUP1 SWAP2 SUB SWAP1 RETURN JUMPDEST PUSH2 0x1A6 PUSH2 0x350 JUMP JUMPDEST PUSH1 0x40 MLOAD PUSH2 0x1B3 SWAP2 SWAP1 PUSH2 0x5F2 JUMP JUMPDEST PUSH1 0x40 MLOAD DUP1 SWAP2 SUB SWAP1 RETURN JUMPDEST PUSH2 0x1C4 PUSH2 0x363 JUMP JUMPDEST PUSH1 0x40 MLOAD PUSH2 0x1D1 SWAP2 SWAP1 PUSH2 0x4DA JUMP JUMPDEST PUSH1 0x40 MLOAD DUP1 SWAP2 SUB SWAP1 RETURN JUMPDEST PUSH2 0x1E2 PUSH2 0x369 JUMP JUMPDEST PUSH1 0x40 MLOAD PUSH2 0x1EF SWAP2 SWAP1 PUSH2 0x629 JUMP JUMPDEST PUSH1 0x40 MLOAD DUP1 SWAP2 SUB SWAP1 RETURN JUMPDEST PUSH1 0x8 PUSH1 0x0 SWAP1 SLOAD SWAP1 PUSH2 0x100 EXP SWAP1 DIV PUSH1 0x60 SHL DUP2 JUMP JUMPDEST PUSH1 0x9 SLOAD DUP2 JUMP JUMPDEST PUSH1 0x7 DUP1 SLOAD PUSH2 0x21E SWAP1 PUSH2 0x673 JUMP JUMPDEST DUP1 PUSH1 0x1F ADD PUSH1 0x20 DUP1 SWAP2 DIV MUL PUSH1 0x20 ADD PUSH1 0x40 MLOAD SWAP1 DUP2 ADD PUSH1 0x40 MSTORE DUP1 SWAP3 SWAP2 SWAP1 DUP2 DUP2 MSTORE PUSH1 0x20 ADD DUP3 DUP1 SLOAD PUSH2 0x24A SWAP1 PUSH2 0x673 JUMP JUMPDEST DUP1 ISZERO PUSH2 0x297 JUMPI DUP1 PUSH1 0x1F LT PUSH2 0x26C JUMPI PUSH2 0x100 DUP1 DUP4 SLOAD DIV MUL DUP4 MSTORE SWAP2 PUSH1 0x20 ADD SWAP2 PUSH2 0x297 JUMP JUMPDEST DUP3 ADD SWAP2 SWAP1 PUSH1 0x0 MSTORE PUSH1 0x20 PUSH1 0x0 KECCAK256 SWAP1 JUMPDEST DUP2 SLOAD DUP2 MSTORE SWAP1 PUSH1 0x1 ADD SWAP1 PUSH1 0x20 ADD DUP1 DUP4 GT PUSH2 0x27A JUMPI DUP3 SWAP1 SUB PUSH1 0x1F AND DUP3 ADD SWAP2 JUMPDEST POP POP POP POP POP DUP2 JUMP JUMPDEST PUSH1 0x3 SLOAD DUP2 JUMP JUMPDEST PUSH1 0x0 DUP1 SLOAD SWAP1 PUSH2 0x100 EXP SWAP1 DIV PUSH1 0xFF AND DUP2 JUMP JUMPDEST PUSH1 0x4 SLOAD DUP2 JUMP JUMPDEST PUSH1 0x1 SLOAD DUP2 JUMP JUMPDEST PUSH1 0x6 DUP1 SLOAD PUSH2 0x2CF SWAP1 PUSH2 0x673 JUMP JUMPDEST DUP1 PUSH1 0x1F ADD PUSH1 0x20 DUP1 SWAP2 DIV MUL PUSH1 0x20 ADD PUSH1 0x40 MLOAD SWAP1 DUP2 ADD PUSH1 0x40 MSTORE DUP1 SWAP3 SWAP2 SWAP1 DUP2 DUP2 MSTORE PUSH1 0x20 ADD DUP3 DUP1 SLOAD PUSH2 0x2FB SWAP1 PUSH2 0x673 JUMP JUMPDEST DUP1 ISZERO PUSH2 0x348 JUMPI DUP1 PUSH1 0x1F LT PUSH2 0x31D JUMPI PUSH2 0x100 DUP1 DUP4 SLOAD DIV MUL DUP4 MSTORE SWAP2 PUSH1 0x20 ADD SWAP2 PUSH2 0x348 JUMP JUMPDEST DUP3 ADD SWAP2 SWAP1 PUSH1 0x0 MSTORE PUSH1 0x20 PUSH1 0x0 KECCAK256 SWAP1 JUMPDEST DUP2 SLOAD DUP2 MSTORE SWAP1 PUSH1 0x1 ADD SWAP1 PUSH1 0x20 ADD DUP1 DUP4 GT PUSH2 0x32B JUMPI DUP3 SWAP1 SUB PUSH1 0x1F AND DUP3 ADD SWAP2 JUMPDEST POP POP POP POP POP DUP2 JUMP JUMPDEST PUSH1 0x5 PUSH1 0x0 SWAP1 SLOAD SWAP1 PUSH2 0x100 EXP SWAP1 DIV PUSH1 0xFF AND DUP2 JUMP JUMPDEST PUSH1 0x2 SLOAD DUP2 JUMP JUMPDEST PUSH1 0x5 PUSH1 0x1 SWAP1 SLOAD SWAP1 PUSH2 0x100 EXP SWAP1 DIV PUSH1 0x0 SIGNEXTEND DUP2 JUMP JUMPDEST PUSH1 0x0 PUSH32 0xFFFFFFFFFFFFFFFFFFFFFFFFFFFFFFFFFFFFFFFF000000000000000000000000 DUP3 AND SWAP1 POP SWAP2 SWAP1 POP JUMP JUMPDEST PUSH2 0x3B1 DUP2 PUSH2 0x37C JUMP JUMPDEST DUP3 MSTORE POP POP JUMP JUMPDEST PUSH1 0x0 PUSH1 0x20 DUP3 ADD SWAP1 POP PUSH2 0x3CC PUSH1 0x0 DUP4 ADD DUP5 PUSH2 0x3A8 JUMP JUMPDEST SWAP3 SWAP2 POP POP JUMP JUMPDEST PUSH1 0x0 DUP2 SWAP1 POP SWAP2 SWAP1 POP JUMP JUMPDEST PUSH2 0x3E5 DUP2 PUSH2 0x3D2 JUMP JUMPDEST DUP3 MSTORE POP POP JUMP JUMPDEST PUSH1 0x0 PUSH1 0x20 DUP3 ADD SWAP1 POP PUSH2 0x400 PUSH1 0x0 DUP4 ADD DUP5 PUSH2 0x3DC JUMP JUMPDEST SWAP3 SWAP2 POP POP JUMP JUMPDEST PUSH1 0x0 DUP2 MLOAD SWAP1 POP SWAP2 SWAP1 POP JUMP JUMPDEST PUSH1 0x0 DUP3 DUP3 MSTORE PUSH1 0x20 DUP3 ADD SWAP1 POP SWAP3 SWAP2 POP POP JUMP JUMPDEST PUSH1 0x0 JUMPDEST DUP4 DUP2 LT ISZERO PUSH2 0x440 JUMPI DUP1 DUP3 ADD MLOAD DUP2 DUP5 ADD MSTORE PUSH1 0x20 DUP2 ADD SWAP1 POP PUSH2 0x425 JUMP JUMPDEST DUP4 DUP2 GT ISZERO PUSH2 0x44F JUMPI PUSH1 0x0 DUP5 DUP5 ADD MSTORE JUMPDEST POP POP POP POP JUMP JUMPDEST PUSH1 0x0 PUSH1 0x1F NOT PUSH1 0x1F DUP4 ADD AND SWAP1 POP SWAP2 SWAP1 POP JUMP JUMPDEST PUSH1 0x0 PUSH2 0x471 DUP3 PUSH2 0x406 JUMP JUMPDEST PUSH2 0x47B DUP2 DUP6 PUSH2 0x411 JUMP JUMPDEST SWAP4 POP PUSH2 0x48B DUP2 DUP6 PUSH1 0x20 DUP7 ADD PUSH2 0x422 JUMP JUMPDEST PUSH2 0x494 DUP2 PUSH2 0x455 JUMP JUMPDEST DUP5 ADD SWAP2 POP POP SWAP3 SWAP2 POP POP JUMP JUMPDEST PUSH1 0x0 PUSH1 0x20 DUP3 ADD SWAP1 POP DUP2 DUP2 SUB PUSH1 0x0 DUP4 ADD MSTORE PUSH2 0x4B9 DUP2 DUP5 PUSH2 0x466 JUMP JUMPDEST SWAP1 POP SWAP3 SWAP2 POP POP JUMP JUMPDEST PUSH1 0x0 DUP2 SWAP1 POP SWAP2 SWAP1 POP JUMP JUMPDEST PUSH2 0x4D4 DUP2 PUSH2 0x4C1 JUMP JUMPDEST DUP3 MSTORE POP POP JUMP JUMPDEST PUSH1 0x0 PUSH1 0x20 DUP3 ADD SWAP1 POP PUSH2 0x4EF PUSH1 0x0 DUP4 ADD DUP5 PUSH2 0x4CB JUMP JUMPDEST SWAP3 SWAP2 POP POP JUMP JUMPDEST PUSH1 0x0 DUP2 ISZERO ISZERO SWAP1 POP SWAP2 SWAP1 POP JUMP JUMPDEST PUSH2 0x50A DUP2 PUSH2 0x4F5 JUMP JUMPDEST DUP3 MSTORE POP POP JUMP JUMPDEST PUSH1 0x0 PUSH1 0x20 DUP3 ADD SWAP1 POP PUSH2 0x525 PUSH1 0x0 DUP4 ADD DUP5 PUSH2 0x501 JUMP JUMPDEST SWAP3 SWAP2 POP POP JUMP JUMPDEST PUSH1 0x0 DUP2 SWAP1 POP SWAP2 SWAP1 POP JUMP JUMPDEST PUSH2 0x53E DUP2 PUSH2 0x52B JUMP JUMPDEST DUP3 MSTORE POP POP JUMP JUMPDEST PUSH1 0x0 PUSH1 0x20 DUP3 ADD SWAP1 POP PUSH2 0x559 PUSH1 0x0 DUP4 ADD DUP5 PUSH2 0x535 JUMP JUMPDEST SWAP3 SWAP2 POP POP JUMP JUMPDEST PUSH1 0x0 DUP2 MLOAD SWAP1 POP SWAP2 SWAP1 POP JUMP JUMPDEST PUSH1 0x0 DUP3 DUP3 MSTORE PUSH1 0x20 DUP3 ADD SWAP1 POP SWAP3 SWAP2 POP POP JUMP JUMPDEST PUSH1 0x0 PUSH2 0x586 DUP3 PUSH2 0x55F JUMP JUMPDEST PUSH2 0x590 DUP2 DUP6 PUSH2 0x56A JUMP JUMPDEST SWAP4 POP PUSH2 0x5A0 DUP2 DUP6 PUSH1 0x20 DUP7 ADD PUSH2 0x422 JUMP JUMPDEST PUSH2 0x5A9 DUP2 PUSH2 0x455 JUMP JUMPDEST DUP5 ADD SWAP2 POP POP SWAP3 SWAP2 POP POP JUMP JUMPDEST PUSH1 0x0 PUSH1 0x20 DUP3 ADD SWAP1 POP DUP2 DUP2 SUB PUSH1 0x0 DUP4 ADD MSTORE PUSH2 0x5CE DUP2 DUP5 PUSH2 0x57B JUMP JUMPDEST SWAP1 POP SWAP3 SWAP2 POP POP JUMP JUMPDEST PUSH1 0x0 PUSH1 0xFF DUP3 AND SWAP1 POP SWAP2 SWAP1 POP JUMP JUMPDEST PUSH2 0x5EC DUP2 PUSH2 0x5D6 JUMP JUMPDEST DUP3 MSTORE POP POP JUMP JUMPDEST PUSH1 0x0 PUSH1 0x20 DUP3 ADD SWAP1 POP PUSH2 0x607 PUSH1 0x0 DUP4 ADD DUP5 PUSH2 0x5E3 JUMP JUMPDEST SWAP3 SWAP2 POP POP JUMP JUMPDEST PUSH1 0x0 DUP2 PUSH1 0x0 SIGNEXTEND SWAP1 POP SWAP2 SWAP1 POP JUMP JUMPDEST PUSH2 0x623 DUP2 PUSH2 0x60D JUMP JUMPDEST DUP3 MSTORE POP POP JUMP JUMPDEST PUSH1 0x0 PUSH1 0x20 DUP3 ADD SWAP1 POP PUSH2 0x63E PUSH1 0x0 DUP4 ADD DUP5 PUSH2 0x61A JUMP JUMPDEST SWAP3 SWAP2 POP POP JUMP JUMPDEST PUSH32 0x4E487B7100000000000000000000000000000000000000000000000000000000 PUSH1 0x0 MSTORE PUSH1 0x22 PUSH1 0x4 MSTORE PUSH1 0x24 PUSH1 0x0 REVERT JUMPDEST PUSH1 0x0 PUSH1 0x2 DUP3 DIV SWAP1 POP PUSH1 0x1 DUP3 AND DUP1 PUSH2 0x68B JUMPI PUSH1 0x7F DUP3 AND SWAP2 POP JUMPDEST PUSH1 0x20 DUP3 LT DUP2 EQ ISZERO PUSH2 0x69F JUMPI PUSH2 0x69E PUSH2 0x644 JUMP JUMPDEST JUMPDEST POP SWAP2 SWAP1 POP JUMP INVALID LOG2 PUSH5 0x6970667358 0x22 SLT KECCAK256 TIMESTAMP DIFFICULTY CODECOPY 0x4F REVERT 0xE2 0x27 TIMESTAMP 0x4E 0xAD DUP4 0xC8 DUP13 SWAP8 STOP 0xEC 0x4C 0x27 0xAE DIFFICULTY MUL 0xC1 POP 0xE4 PUSH21 0x59386A3D6CF8AE64736F6C634300080C0033000000 "
				},
				"gasEstimates": {
					"creation": {
						"codeDepositCost": "351000",
						"executionCost": "infinite",
						"totalCost": "infinite"
					},
					"external": {
						"data1()": "2557",
						"data10()": "2472",
						"data11()": "2452",
						"data2()": "2451",
						"data3()": "2517",
						"data4()": "2496",
						"data5()": "2429",
						"data6()": "2537",
						"data7()": "2635",
						"data8()": "infinite",
						"data9()": "infinite"
					}
				},
				"methodIdentifiers": {
					"data1()": "9ffd85c4",
					"data10()": "279b95c4",
					"data11()": "2c79b1a9",
					"data2()": "e3a7fd75",
					"data3()": "fc26b0ab",
					"data4()": "61d9e726",
					"data5()": "c35887a7",
					"data6()": "fab29b45",
					"data7()": "fdcc663f",
					"data8()": "f80b56c9",
					"data9()": "5c9fef08"
				}
			},
			"storageLayout": {
				"storage": [
					{
						"astId": 4,
						"contract": "contracts/Data.sol:DataType",
						"label": "data1",
						"offset": 0,
						"slot": "0",
						"type": "t_bool"
					},
					{
						"astId": 8,
						"contract": "contracts/Data.sol:DataType",
						"label": "data2",
						"offset": 0,
						"slot": "1",
						"type": "t_int256"
					},
					{
						"astId": 11,
						"contract": "contracts/Data.sol:DataType",
						"label": "data3",
						"offset": 0,
						"slot": "2",
						"type": "t_uint256"
					},
					{
						"astId": 14,
						"contract": "contracts/Data.sol:DataType",
						"label": "data4",
						"offset": 0,
						"slot": "3",
						"type": "t_uint256"
					},
					{
						"astId": 18,
						"contract": "contracts/Data.sol:DataType",
						"label": "data5",
						"offset": 0,
						"slot": "4",
						"type": "t_int256"
					},
					{
						"astId": 21,
						"contract": "contracts/Data.sol:DataType",
						"label": "data6",
						"offset": 0,
						"slot": "5",
						"type": "t_uint8"
					},
					{
						"astId": 25,
						"contract": "contracts/Data.sol:DataType",
						"label": "data7",
						"offset": 1,
						"slot": "5",
						"type": "t_int8"
					},
					{
						"astId": 28,
						"contract": "contracts/Data.sol:DataType",
						"label": "data8",
						"offset": 0,
						"slot": "6",
						"type": "t_string_storage"
					},
					{
						"astId": 31,
						"contract": "contracts/Data.sol:DataType",
						"label": "data9",
						"offset": 0,
						"slot": "7",
						"type": "t_bytes_storage"
					},
					{
						"astId": 34,
						"contract": "contracts/Data.sol:DataType",
						"label": "data10",
						"offset": 0,
						"slot": "8",
						"type": "t_bytes20"
					},
					{
						"astId": 37,
						"contract": "contracts/Data.sol:DataType",
						"label": "data11",
						"offset": 0,
						"slot": "9",
						"type": "t_bytes32"
					}
				],
				"types": {
					"t_bool": {
						"encoding": "inplace",
						"label": "bool",
						"numberOfBytes": "1"
					},
					"t_bytes20": {
						"encoding": "inplace",
						"label": "bytes20",
						"numberOfBytes": "20"
					},
					"t_bytes32": {
						"encoding": "inplace",
						"label": "bytes32",
						"numberOfBytes": "32"
					},
					"t_bytes_storage": {
						"encoding": "bytes",
						"label": "bytes",
						"numberOfBytes": "32"
					},
					"t_int256": {
						"encoding": "inplace",
						"label": "int256",
						"numberOfBytes": "32"
					},
					"t_int8": {
						"encoding": "inplace",
						"label": "int8",
						"numberOfBytes": "1"
					},
					"t_string_storage": {
						"encoding": "bytes",
						"label": "string",
						"numberOfBytes": "32"
					},
					"t_uint256": {
						"encoding": "inplace",
						"label": "uint256",
						"numberOfBytes": "32"
					},
					"t_uint8": {
						"encoding": "inplace",
						"label": "uint8",
						"numberOfBytes": "1"
					}
				}
			},
			"userdoc": {
				"kind": "user",
				"methods": {},
				"version": 1
			}
		}
	}
}