{
	"contracts/Data.sol": {
		"DataType": {
			"abi": [
				{
					"inputs": [],
					"name": "data1",
					"outputs": [
						{
							"internalType": "bool",
							"name": "",
							"type": "bool"
						}
					],
					"stateMutability": "view",
					"type": "function"
				},
				{
					"inputs": [],
					"name": "data2",
					"outputs": [
						{
							"internalType": "int256",
							"name": "",
							"type": "int256"
						}
					],
					"stateMutability": "view",
					"type": "function"
				}
			],
			"devdoc": {
				"kind": "dev",
				"methods": {},
				"version": 1
			},
			"evm": {
				"assembly": "    /* \"contracts/Data.sol\":70:152  contract DataType {... */\n  mstore(0x40, 0x80)\n    /* \"contracts/Data.sol\":117:121  true */\n  0x01\n    /* \"contracts/Data.sol\":97:121  bool public data1 = true */\n  0x00\n  dup1\n  0x0100\n  exp\n  dup2\n  sload\n  dup2\n  0xff\n  mul\n  not\n  and\n  swap1\n  dup4\n  iszero\n  iszero\n  mul\n  or\n  swap1\n  sstore\n  pop\n    /* \"contracts/Data.sol\":147:148  0 */\n  0x00\n    /* \"contracts/Data.sol\":128:148  int public data2 = 0 */\n  0x01\n  sstore\n    /* \"contracts/Data.sol\":70:152  contract DataType {... */\n  callvalue\n  dup1\n  iszero\n  tag_1\n  jumpi\n  0x00\n  dup1\n  revert\ntag_1:\n  pop\n  dataSize(sub_0)\n  dup1\n  dataOffset(sub_0)\n  0x00\n  codecopy\n  0x00\n  return\nstop\n\nsub_0: assembly {\n        /* \"contracts/Data.sol\":70:152  contract DataType {... */\n      mstore(0x40, 0x80)\n      callvalue\n      dup1\n      iszero\n      tag_1\n      jumpi\n      0x00\n      dup1\n      revert\n    tag_1:\n      pop\n      jumpi(tag_2, lt(calldatasize, 0x04))\n      shr(0xe0, calldataload(0x00))\n      dup1\n      0x9ffd85c4\n      eq\n      tag_3\n      jumpi\n      dup1\n      0xe3a7fd75\n      eq\n      tag_4\n      jumpi\n    tag_2:\n      0x00\n      dup1\n      revert\n        /* \"contracts/Data.sol\":97:121  bool public data1 = true */\n    tag_3:\n      tag_5\n      tag_6\n      jump\t// in\n    tag_5:\n      mload(0x40)\n      tag_7\n      swap2\n      swap1\n      tag_8\n      jump\t// in\n    tag_7:\n      mload(0x40)\n      dup1\n      swap2\n      sub\n      swap1\n      return\n        /* \"contracts/Data.sol\":128:148  int public data2 = 0 */\n    tag_4:\n      tag_9\n      tag_10\n      jump\t// in\n    tag_9:\n      mload(0x40)\n      tag_11\n      swap2\n      swap1\n      tag_12\n      jump\t// in\n    tag_11:\n      mload(0x40)\n      dup1\n      swap2\n      sub\n      swap1\n      return\n        /* \"contracts/Data.sol\":97:121  bool public data1 = true */\n    tag_6:\n      0x00\n      dup1\n      sload\n      swap1\n      0x0100\n      exp\n      swap1\n      div\n      0xff\n      and\n      dup2\n      jump\t// out\n        /* \"contracts/Data.sol\":128:148  int public data2 = 0 */\n    tag_10:\n      sload(0x01)\n      dup2\n      jump\t// out\n        /* \"#utility.yul\":7:97   */\n    tag_13:\n        /* \"#utility.yul\":41:48   */\n      0x00\n        /* \"#utility.yul\":84:89   */\n      dup2\n        /* \"#utility.yul\":77:90   */\n      iszero\n        /* \"#utility.yul\":70:91   */\n      iszero\n        /* \"#utility.yul\":59:91   */\n      swap1\n      pop\n        /* \"#utility.yul\":7:97   */\n      swap2\n      swap1\n      pop\n      jump\t// out\n        /* \"#utility.yul\":103:212   */\n    tag_14:\n        /* \"#utility.yul\":184:205   */\n      tag_20\n        /* \"#utility.yul\":199:204   */\n      dup2\n        /* \"#utility.yul\":184:205   */\n      tag_13\n      jump\t// in\n    tag_20:\n        /* \"#utility.yul\":179:182   */\n      dup3\n        /* \"#utility.yul\":172:206   */\n      mstore\n        /* \"#utility.yul\":103:212   */\n      pop\n      pop\n      jump\t// out\n        /* \"#utility.yul\":218:428   */\n    tag_8:\n        /* \"#utility.yul\":305:309   */\n      0x00\n        /* \"#utility.yul\":343:345   */\n      0x20\n        /* \"#utility.yul\":332:341   */\n      dup3\n        /* \"#utility.yul\":328:346   */\n      add\n        /* \"#utility.yul\":320:346   */\n      swap1\n      pop\n        /* \"#utility.yul\":356:421   */\n      tag_22\n        /* \"#utility.yul\":418:419   */\n      0x00\n        /* \"#utility.yul\":407:416   */\n      dup4\n        /* \"#utility.yul\":403:420   */\n      add\n        /* \"#utility.yul\":394:400   */\n      dup5\n        /* \"#utility.yul\":356:421   */\n      tag_14\n      jump\t// in\n    tag_22:\n        /* \"#utility.yul\":218:428   */\n      swap3\n      swap2\n      pop\n      pop\n      jump\t// out\n        /* \"#utility.yul\":434:510   */\n    tag_15:\n        /* \"#utility.yul\":470:477   */\n      0x00\n        /* \"#utility.yul\":499:504   */\n      dup2\n        /* \"#utility.yul\":488:504   */\n      swap1\n      pop\n        /* \"#utility.yul\":434:510   */\n      swap2\n      swap1\n      pop\n      jump\t// out\n        /* \"#utility.yul\":516:631   */\n    tag_16:\n        /* \"#utility.yul\":601:624   */\n      tag_25\n        /* \"#utility.yul\":618:623   */\n      dup2\n        /* \"#utility.yul\":601:624   */\n      tag_15\n      jump\t// in\n    tag_25:\n        /* \"#utility.yul\":596:599   */\n      dup3\n        /* \"#utility.yul\":589:625   */\n      mstore\n        /* \"#utility.yul\":516:631   */\n      pop\n      pop\n      jump\t// out\n        /* \"#utility.yul\":637:855   */\n    tag_12:\n        /* \"#utility.yul\":728:732   */\n      0x00\n        /* \"#utility.yul\":766:768   */\n      0x20\n        /* \"#utility.yul\":755:764   */\n      dup3\n        /* \"#utility.yul\":751:769   */\n      add\n        /* \"#utility.yul\":743:769   */\n      swap1\n      pop\n        /* \"#utility.yul\":779:848   */\n      tag_27\n        /* \"#utility.yul\":845:846   */\n      0x00\n        /* \"#utility.yul\":834:843   */\n      dup4\n        /* \"#utility.yul\":830:847   */\n      add\n        /* \"#utility.yul\":821:827   */\n      dup5\n        /* \"#utility.yul\":779:848   */\n      tag_16\n      jump\t// in\n    tag_27:\n        /* \"#utility.yul\":637:855   */\n      swap3\n      swap2\n      pop\n      pop\n      jump\t// out\n\n    auxdata: 0xa2646970667358221220b2df58e4e34e8e3f110c0ebc5d6c2ec1a7d6ad5663079870af909b0fb405e1b864736f6c634300080c0033\n}\n",
				"bytecode": {
					"linkReferences": {},
					"object": "608060405260016000806101000a81548160ff021916908315150217905550600060015534801561002f57600080fd5b5061011a8061003f6000396000f3fe6080604052348015600f57600080fd5b506004361060325760003560e01c80639ffd85c4146037578063e3a7fd75146051575b600080fd5b603d606b565b60405160489190609b565b60405180910390f35b6057607c565b6040516062919060cb565b60405180910390f35b60008054906101000a900460ff1681565b60015481565b60008115159050919050565b6095816082565b82525050565b600060208201905060ae6000830184608e565b92915050565b6000819050919050565b60c58160b4565b82525050565b600060208201905060de600083018460be565b9291505056fea2646970667358221220b2df58e4e34e8e3f110c0ebc5d6c2ec1a7d6ad5663079870af909b0fb405e1b864736f6c634300080c0033",
					"opcodes": "PUSH1 0x80 PUSH1 0x40 MSTORE PUSH1 0x1 PUSH1 0x0 DUP1 PUSH2 0x100 EXP DUP2 SLOAD DUP2 PUSH1 0xFF MUL NOT AND SWAP1 DUP4 ISZERO ISZERO MUL OR SWAP1 SSTORE POP PUSH1 0x0 PUSH1 0x1 SSTORE CALLVALUE DUP1 ISZERO PUSH2 0x2F JUMPI PUSH1 0x0 DUP1 REVERT JUMPDEST POP PUSH2 0x11A DUP1 PUSH2 0x3F PUSH1 0x0 CODECOPY PUSH1 0x0 RETURN INVALID PUSH1 0x80 PUSH1 0x40 MSTORE CALLVALUE DUP1 ISZERO PUSH1 0xF JUMPI PUSH1 0x0 DUP1 REVERT JUMPDEST POP PUSH1 0x4 CALLDATASIZE LT PUSH1 0x32 JUMPI PUSH1 0x0 CALLDATALOAD PUSH1 0xE0 SHR DUP1 PUSH4 0x9FFD85C4 EQ PUSH1 0x37 JUMPI DUP1 PUSH4 0xE3A7FD75 EQ PUSH1 0x51 JUMPI JUMPDEST PUSH1 0x0 DUP1 REVERT JUMPDEST PUSH1 0x3D PUSH1 0x6B JUMP JUMPDEST PUSH1 0x40 MLOAD PUSH1 0x48 SWAP2 SWAP1 PUSH1 0x9B JUMP JUMPDEST PUSH1 0x40 MLOAD DUP1 SWAP2 SUB SWAP1 RETURN JUMPDEST PUSH1 0x57 PUSH1 0x7C JUMP JUMPDEST PUSH1 0x40 MLOAD PUSH1 0x62 SWAP2 SWAP1 PUSH1 0xCB JUMP JUMPDEST PUSH1 0x40 MLOAD DUP1 SWAP2 SUB SWAP1 RETURN JUMPDEST PUSH1 0x0 DUP1 SLOAD SWAP1 PUSH2 0x100 EXP SWAP1 DIV PUSH1 0xFF AND DUP2 JUMP JUMPDEST PUSH1 0x1 SLOAD DUP2 JUMP JUMPDEST PUSH1 0x0 DUP2 ISZERO ISZERO SWAP1 POP SWAP2 SWAP1 POP JUMP JUMPDEST PUSH1 0x95 DUP2 PUSH1 0x82 JUMP JUMPDEST DUP3 MSTORE POP POP JUMP JUMPDEST PUSH1 0x0 PUSH1 0x20 DUP3 ADD SWAP1 POP PUSH1 0xAE PUSH1 0x0 DUP4 ADD DUP5 PUSH1 0x8E JUMP JUMPDEST SWAP3 SWAP2 POP POP JUMP JUMPDEST PUSH1 0x0 DUP2 SWAP1 POP SWAP2 SWAP1 POP JUMP JUMPDEST PUSH1 0xC5 DUP2 PUSH1 0xB4 JUMP JUMPDEST DUP3 MSTORE POP POP JUMP JUMPDEST PUSH1 0x0 PUSH1 0x20 DUP3 ADD SWAP1 POP PUSH1 0xDE PUSH1 0x0 DUP4 ADD DUP5 PUSH1 0xBE JUMP JUMPDEST SWAP3 SWAP2 POP POP JUMP INVALID LOG2 PUSH5 0x6970667358 0x22 SLT KECCAK256 0xB2 0xDF PC 0xE4 0xE3 0x4E DUP15 EXTCODEHASH GT 0xC 0xE 0xBC 0x5D PUSH13 0x2EC1A7D6AD5663079870AF909B 0xF 0xB4 SDIV 0xE1 0xB8 PUSH5 0x736F6C6343 STOP ADDMOD 0xC STOP CALLER "
				},
				"gasEstimates": {
					"creation": {
						"codeDepositCost": "56400",
						"executionCost": "29378",
						"totalCost": "85778"
					},
					"external": {
						"data1()": "2446",
						"data2()": "2429"
					}
				},
				"methodIdentifiers": {
					"data1()": "9ffd85c4",
					"data2()": "e3a7fd75"
				}
			},
			"storageLayout": {
				"storage": [
					{
						"astId": 4,
						"contract": "contracts/Data.sol:DataType",
						"label": "data1",
						"offset": 0,
						"slot": "0",
						"type": "t_bool"
					},
					{
						"astId": 7,
						"contract": "contracts/Data.sol:DataType",
						"label": "data2",
						"offset": 0,
						"slot": "1",
						"type": "t_int256"
					}
				],
				"types": {
					"t_bool": {
						"encoding": "inplace",
						"label": "bool",
						"numberOfBytes": "1"
					},
					"t_int256": {
						"encoding": "inplace",
						"label": "int256",
						"numberOfBytes": "32"
					}
				}
			},
			"userdoc": {
				"kind": "user",
				"methods": {},
				"version": 1
			}
		}
	}
}