{
	"contracts/Data.sol": {
		"DataType": {
			"abi": [
				{
					"inputs": [],
					"name": "data1",
					"outputs": [
						{
							"internalType": "bool",
							"name": "",
							"type": "bool"
						}
					],
					"stateMutability": "view",
					"type": "function"
				},
				{
					"inputs": [],
					"name": "data2",
					"outputs": [
						{
							"internalType": "int256",
							"name": "",
							"type": "int256"
						}
					],
					"stateMutability": "view",
					"type": "function"
				},
				{
					"inputs": [],
					"name": "data3",
					"outputs": [
						{
							"internalType": "uint256",
							"name": "",
							"type": "uint256"
						}
					],
					"stateMutability": "view",
					"type": "function"
				}
			],
			"devdoc": {
				"kind": "dev",
				"methods": {},
				"version": 1
			},
			"evm": {
				"assembly": "    /* \"contracts/Data.sol\":70:249  contract DataType {... */\n  mstore(0x40, 0x80)\n    /* \"contracts/Data.sol\":117:121  true */\n  0x01\n    /* \"contracts/Data.sol\":97:121  bool public data1 = true */\n  0x00\n  dup1\n  0x0100\n  exp\n  dup2\n  sload\n  dup2\n  0xff\n  mul\n  not\n  and\n  swap1\n  dup4\n  iszero\n  iszero\n  mul\n  or\n  swap1\n  sstore\n  pop\n    /* \"contracts/Data.sol\":147:150  -10 */\n  0xfffffffffffffffffffffffffffffffffffffffffffffffffffffffffffffff6\n    /* \"contracts/Data.sol\":128:150  int public data2 = -10 */\n  0x01\n  sstore\n    /* \"contracts/Data.sol\":177:179  10 */\n  0x0a\n    /* \"contracts/Data.sol\":157:179  uint public data3 = 10 */\n  0x02\n  sstore\n    /* \"contracts/Data.sol\":70:249  contract DataType {... */\n  callvalue\n  dup1\n  iszero\n  tag_1\n  jumpi\n  0x00\n  dup1\n  revert\ntag_1:\n  pop\n  dataSize(sub_0)\n  dup1\n  dataOffset(sub_0)\n  0x00\n  codecopy\n  0x00\n  return\nstop\n\nsub_0: assembly {\n        /* \"contracts/Data.sol\":70:249  contract DataType {... */\n      mstore(0x40, 0x80)\n      callvalue\n      dup1\n      iszero\n      tag_1\n      jumpi\n      0x00\n      dup1\n      revert\n    tag_1:\n      pop\n      jumpi(tag_2, lt(calldatasize, 0x04))\n      shr(0xe0, calldataload(0x00))\n      dup1\n      0x9ffd85c4\n      eq\n      tag_3\n      jumpi\n      dup1\n      0xe3a7fd75\n      eq\n      tag_4\n      jumpi\n      dup1\n      0xfc26b0ab\n      eq\n      tag_5\n      jumpi\n    tag_2:\n      0x00\n      dup1\n      revert\n        /* \"contracts/Data.sol\":97:121  bool public data1 = true */\n    tag_3:\n      tag_6\n      tag_7\n      jump\t// in\n    tag_6:\n      mload(0x40)\n      tag_8\n      swap2\n      swap1\n      tag_9\n      jump\t// in\n    tag_8:\n      mload(0x40)\n      dup1\n      swap2\n      sub\n      swap1\n      return\n        /* \"contracts/Data.sol\":128:150  int public data2 = -10 */\n    tag_4:\n      tag_10\n      tag_11\n      jump\t// in\n    tag_10:\n      mload(0x40)\n      tag_12\n      swap2\n      swap1\n      tag_13\n      jump\t// in\n    tag_12:\n      mload(0x40)\n      dup1\n      swap2\n      sub\n      swap1\n      return\n        /* \"contracts/Data.sol\":157:179  uint public data3 = 10 */\n    tag_5:\n      tag_14\n      tag_15\n      jump\t// in\n    tag_14:\n      mload(0x40)\n      tag_16\n      swap2\n      swap1\n      tag_17\n      jump\t// in\n    tag_16:\n      mload(0x40)\n      dup1\n      swap2\n      sub\n      swap1\n      return\n        /* \"contracts/Data.sol\":97:121  bool public data1 = true */\n    tag_7:\n      0x00\n      dup1\n      sload\n      swap1\n      0x0100\n      exp\n      swap1\n      div\n      0xff\n      and\n      dup2\n      jump\t// out\n        /* \"contracts/Data.sol\":128:150  int public data2 = -10 */\n    tag_11:\n      sload(0x01)\n      dup2\n      jump\t// out\n        /* \"contracts/Data.sol\":157:179  uint public data3 = 10 */\n    tag_15:\n      sload(0x02)\n      dup2\n      jump\t// out\n        /* \"#utility.yul\":7:97   */\n    tag_18:\n        /* \"#utility.yul\":41:48   */\n      0x00\n        /* \"#utility.yul\":84:89   */\n      dup2\n        /* \"#utility.yul\":77:90   */\n      iszero\n        /* \"#utility.yul\":70:91   */\n      iszero\n        /* \"#utility.yul\":59:91   */\n      swap1\n      pop\n        /* \"#utility.yul\":7:97   */\n      swap2\n      swap1\n      pop\n      jump\t// out\n        /* \"#utility.yul\":103:212   */\n    tag_19:\n        /* \"#utility.yul\":184:205   */\n      tag_27\n        /* \"#utility.yul\":199:204   */\n      dup2\n        /* \"#utility.yul\":184:205   */\n      tag_18\n      jump\t// in\n    tag_27:\n        /* \"#utility.yul\":179:182   */\n      dup3\n        /* \"#utility.yul\":172:206   */\n      mstore\n        /* \"#utility.yul\":103:212   */\n      pop\n      pop\n      jump\t// out\n        /* \"#utility.yul\":218:428   */\n    tag_9:\n        /* \"#utility.yul\":305:309   */\n      0x00\n        /* \"#utility.yul\":343:345   */\n      0x20\n        /* \"#utility.yul\":332:341   */\n      dup3\n        /* \"#utility.yul\":328:346   */\n      add\n        /* \"#utility.yul\":320:346   */\n      swap1\n      pop\n        /* \"#utility.yul\":356:421   */\n      tag_29\n        /* \"#utility.yul\":418:419   */\n      0x00\n        /* \"#utility.yul\":407:416   */\n      dup4\n        /* \"#utility.yul\":403:420   */\n      add\n        /* \"#utility.yul\":394:400   */\n      dup5\n        /* \"#utility.yul\":356:421   */\n      tag_19\n      jump\t// in\n    tag_29:\n        /* \"#utility.yul\":218:428   */\n      swap3\n      swap2\n      pop\n      pop\n      jump\t// out\n        /* \"#utility.yul\":434:510   */\n    tag_20:\n        /* \"#utility.yul\":470:477   */\n      0x00\n        /* \"#utility.yul\":499:504   */\n      dup2\n        /* \"#utility.yul\":488:504   */\n      swap1\n      pop\n        /* \"#utility.yul\":434:510   */\n      swap2\n      swap1\n      pop\n      jump\t// out\n        /* \"#utility.yul\":516:631   */\n    tag_21:\n        /* \"#utility.yul\":601:624   */\n      tag_32\n        /* \"#utility.yul\":618:623   */\n      dup2\n        /* \"#utility.yul\":601:624   */\n      tag_20\n      jump\t// in\n    tag_32:\n        /* \"#utility.yul\":596:599   */\n      dup3\n        /* \"#utility.yul\":589:625   */\n      mstore\n        /* \"#utility.yul\":516:631   */\n      pop\n      pop\n      jump\t// out\n        /* \"#utility.yul\":637:855   */\n    tag_13:\n        /* \"#utility.yul\":728:732   */\n      0x00\n        /* \"#utility.yul\":766:768   */\n      0x20\n        /* \"#utility.yul\":755:764   */\n      dup3\n        /* \"#utility.yul\":751:769   */\n      add\n        /* \"#utility.yul\":743:769   */\n      swap1\n      pop\n        /* \"#utility.yul\":779:848   */\n      tag_34\n        /* \"#utility.yul\":845:846   */\n      0x00\n        /* \"#utility.yul\":834:843   */\n      dup4\n        /* \"#utility.yul\":830:847   */\n      add\n        /* \"#utility.yul\":821:827   */\n      dup5\n        /* \"#utility.yul\":779:848   */\n      tag_21\n      jump\t// in\n    tag_34:\n        /* \"#utility.yul\":637:855   */\n      swap3\n      swap2\n      pop\n      pop\n      jump\t// out\n        /* \"#utility.yul\":861:938   */\n    tag_22:\n        /* \"#utility.yul\":898:905   */\n      0x00\n        /* \"#utility.yul\":927:932   */\n      dup2\n        /* \"#utility.yul\":916:932   */\n      swap1\n      pop\n        /* \"#utility.yul\":861:938   */\n      swap2\n      swap1\n      pop\n      jump\t// out\n        /* \"#utility.yul\":944:1062   */\n    tag_23:\n        /* \"#utility.yul\":1031:1055   */\n      tag_37\n        /* \"#utility.yul\":1049:1054   */\n      dup2\n        /* \"#utility.yul\":1031:1055   */\n      tag_22\n      jump\t// in\n    tag_37:\n        /* \"#utility.yul\":1026:1029   */\n      dup3\n        /* \"#utility.yul\":1019:1056   */\n      mstore\n        /* \"#utility.yul\":944:1062   */\n      pop\n      pop\n      jump\t// out\n        /* \"#utility.yul\":1068:1290   */\n    tag_17:\n        /* \"#utility.yul\":1161:1165   */\n      0x00\n        /* \"#utility.yul\":1199:1201   */\n      0x20\n        /* \"#utility.yul\":1188:1197   */\n      dup3\n        /* \"#utility.yul\":1184:1202   */\n      add\n        /* \"#utility.yul\":1176:1202   */\n      swap1\n      pop\n        /* \"#utility.yul\":1212:1283   */\n      tag_39\n        /* \"#utility.yul\":1280:1281   */\n      0x00\n        /* \"#utility.yul\":1269:1278   */\n      dup4\n        /* \"#utility.yul\":1265:1282   */\n      add\n        /* \"#utility.yul\":1256:1262   */\n      dup5\n        /* \"#utility.yul\":1212:1283   */\n      tag_23\n      jump\t// in\n    tag_39:\n        /* \"#utility.yul\":1068:1290   */\n      swap3\n      swap2\n      pop\n      pop\n      jump\t// out\n\n    auxdata: 0xa26469706673582212208c054407f2e5a36c569e7929142b3ef46f72460280917bd5bb89d18eaf9ef98d64736f6c634300080c0033\n}\n",
				"bytecode": {
					"linkReferences": {},
					"object": "608060405260016000806101000a81548160ff0219169083151502179055507ffffffffffffffffffffffffffffffffffffffffffffffffffffffffffffffff6600155600a60025534801561005357600080fd5b50610191806100636000396000f3fe608060405234801561001057600080fd5b50600436106100415760003560e01c80639ffd85c414610046578063e3a7fd7514610064578063fc26b0ab14610082575b600080fd5b61004e6100a0565b60405161005b91906100d8565b60405180910390f35b61006c6100b1565b604051610079919061010c565b60405180910390f35b61008a6100b7565b6040516100979190610140565b60405180910390f35b60008054906101000a900460ff1681565b60015481565b60025481565b60008115159050919050565b6100d2816100bd565b82525050565b60006020820190506100ed60008301846100c9565b92915050565b6000819050919050565b610106816100f3565b82525050565b600060208201905061012160008301846100fd565b92915050565b6000819050919050565b61013a81610127565b82525050565b60006020820190506101556000830184610131565b9291505056fea26469706673582212208c054407f2e5a36c569e7929142b3ef46f72460280917bd5bb89d18eaf9ef98d64736f6c634300080c0033",
					"opcodes": "PUSH1 0x80 PUSH1 0x40 MSTORE PUSH1 0x1 PUSH1 0x0 DUP1 PUSH2 0x100 EXP DUP2 SLOAD DUP2 PUSH1 0xFF MUL NOT AND SWAP1 DUP4 ISZERO ISZERO MUL OR SWAP1 SSTORE POP PUSH32 0xFFFFFFFFFFFFFFFFFFFFFFFFFFFFFFFFFFFFFFFFFFFFFFFFFFFFFFFFFFFFFFF6 PUSH1 0x1 SSTORE PUSH1 0xA PUSH1 0x2 SSTORE CALLVALUE DUP1 ISZERO PUSH2 0x53 JUMPI PUSH1 0x0 DUP1 REVERT JUMPDEST POP PUSH2 0x191 DUP1 PUSH2 0x63 PUSH1 0x0 CODECOPY PUSH1 0x0 RETURN INVALID PUSH1 0x80 PUSH1 0x40 MSTORE CALLVALUE DUP1 ISZERO PUSH2 0x10 JUMPI PUSH1 0x0 DUP1 REVERT JUMPDEST POP PUSH1 0x4 CALLDATASIZE LT PUSH2 0x41 JUMPI PUSH1 0x0 CALLDATALOAD PUSH1 0xE0 SHR DUP1 PUSH4 0x9FFD85C4 EQ PUSH2 0x46 JUMPI DUP1 PUSH4 0xE3A7FD75 EQ PUSH2 0x64 JUMPI DUP1 PUSH4 0xFC26B0AB EQ PUSH2 0x82 JUMPI JUMPDEST PUSH1 0x0 DUP1 REVERT JUMPDEST PUSH2 0x4E PUSH2 0xA0 JUMP JUMPDEST PUSH1 0x40 MLOAD PUSH2 0x5B SWAP2 SWAP1 PUSH2 0xD8 JUMP JUMPDEST PUSH1 0x40 MLOAD DUP1 SWAP2 SUB SWAP1 RETURN JUMPDEST PUSH2 0x6C PUSH2 0xB1 JUMP JUMPDEST PUSH1 0x40 MLOAD PUSH2 0x79 SWAP2 SWAP1 PUSH2 0x10C JUMP JUMPDEST PUSH1 0x40 MLOAD DUP1 SWAP2 SUB SWAP1 RETURN JUMPDEST PUSH2 0x8A PUSH2 0xB7 JUMP JUMPDEST PUSH1 0x40 MLOAD PUSH2 0x97 SWAP2 SWAP1 PUSH2 0x140 JUMP JUMPDEST PUSH1 0x40 MLOAD DUP1 SWAP2 SUB SWAP1 RETURN JUMPDEST PUSH1 0x0 DUP1 SLOAD SWAP1 PUSH2 0x100 EXP SWAP1 DIV PUSH1 0xFF AND DUP2 JUMP JUMPDEST PUSH1 0x1 SLOAD DUP2 JUMP JUMPDEST PUSH1 0x2 SLOAD DUP2 JUMP JUMPDEST PUSH1 0x0 DUP2 ISZERO ISZERO SWAP1 POP SWAP2 SWAP1 POP JUMP JUMPDEST PUSH2 0xD2 DUP2 PUSH2 0xBD JUMP JUMPDEST DUP3 MSTORE POP POP JUMP JUMPDEST PUSH1 0x0 PUSH1 0x20 DUP3 ADD SWAP1 POP PUSH2 0xED PUSH1 0x0 DUP4 ADD DUP5 PUSH2 0xC9 JUMP JUMPDEST SWAP3 SWAP2 POP POP JUMP JUMPDEST PUSH1 0x0 DUP2 SWAP1 POP SWAP2 SWAP1 POP JUMP JUMPDEST PUSH2 0x106 DUP2 PUSH2 0xF3 JUMP JUMPDEST DUP3 MSTORE POP POP JUMP JUMPDEST PUSH1 0x0 PUSH1 0x20 DUP3 ADD SWAP1 POP PUSH2 0x121 PUSH1 0x0 DUP4 ADD DUP5 PUSH2 0xFD JUMP JUMPDEST SWAP3 SWAP2 POP POP JUMP JUMPDEST PUSH1 0x0 DUP2 SWAP1 POP SWAP2 SWAP1 POP JUMP JUMPDEST PUSH2 0x13A DUP2 PUSH2 0x127 JUMP JUMPDEST DUP3 MSTORE POP POP JUMP JUMPDEST PUSH1 0x0 PUSH1 0x20 DUP3 ADD SWAP1 POP PUSH2 0x155 PUSH1 0x0 DUP4 ADD DUP5 PUSH2 0x131 JUMP JUMPDEST SWAP3 SWAP2 POP POP JUMP INVALID LOG2 PUSH5 0x6970667358 0x22 SLT KECCAK256 DUP13 SDIV DIFFICULTY SMOD CALLCODE 0xE5 LOG3 PUSH13 0x569E7929142B3EF46F72460280 SWAP2 PUSH28 0xD5BB89D18EAF9EF98D64736F6C634300080C00330000000000000000 "
				},
				"gasEstimates": {
					"creation": {
						"codeDepositCost": "80200",
						"executionCost": "68608",
						"totalCost": "148808"
					},
					"external": {
						"data1()": "2446",
						"data2()": "2429",
						"data3()": "2451"
					}
				},
				"methodIdentifiers": {
					"data1()": "9ffd85c4",
					"data2()": "e3a7fd75",
					"data3()": "fc26b0ab"
				}
			},
			"storageLayout": {
				"storage": [
					{
						"astId": 4,
						"contract": "contracts/Data.sol:DataType",
						"label": "data1",
						"offset": 0,
						"slot": "0",
						"type": "t_bool"
					},
					{
						"astId": 8,
						"contract": "contracts/Data.sol:DataType",
						"label": "data2",
						"offset": 0,
						"slot": "1",
						"type": "t_int256"
					},
					{
						"astId": 11,
						"contract": "contracts/Data.sol:DataType",
						"label": "data3",
						"offset": 0,
						"slot": "2",
						"type": "t_uint256"
					}
				],
				"types": {
					"t_bool": {
						"encoding": "inplace",
						"label": "bool",
						"numberOfBytes": "1"
					},
					"t_int256": {
						"encoding": "inplace",
						"label": "int256",
						"numberOfBytes": "32"
					},
					"t_uint256": {
						"encoding": "inplace",
						"label": "uint256",
						"numberOfBytes": "32"
					}
				}
			},
			"userdoc": {
				"kind": "user",
				"methods": {},
				"version": 1
			}
		}
	}
}