{
	"contracts/Version4.sol": {
		"Function": {
			"abi": [
				{
					"constant": false,
					"inputs": [],
					"name": "getData",
					"outputs": [
						{
							"name": "",
							"type": "uint8"
						}
					],
					"payable": false,
					"type": "function",
					"stateMutability": "nonpayable"
				},
				{
					"constant": false,
					"inputs": [],
					"name": "setData",
					"outputs": [],
					"payable": false,
					"type": "function",
					"stateMutability": "nonpayable"
				}
			],
			"devdoc": {
				"methods": {}
			},
			"evm": {
				"assembly": "    /* \"contracts/Version4.sol\":70:264  contract Function {\r... */\n  mstore(0x40, 0x60)\n    /* \"contracts/Version4.sol\":116:119  255 */\n  0xff\n    /* \"contracts/Version4.sol\":95:119  uint8 private data = 255 */\n  0x0\n  dup1\n  0x100\n  exp\n  dup2\n  sload\n  dup2\n  0xff\n  mul\n  not\n  and\n  swap1\n  dup4\n  0xff\n  and\n  mul\n  or\n  swap1\n  sstore\n  pop\n    /* \"contracts/Version4.sol\":70:264  contract Function {\r... */\n  jumpi(tag_1, iszero(callvalue))\n  0x0\n  dup1\n  revert\ntag_1:\ntag_2:\n  dataSize(sub_0)\n  dup1\n  dataOffset(sub_0)\n  0x0\n  codecopy\n  0x0\n  return\nstop\n\nsub_0: assembly {\n        /* \"contracts/Version4.sol\":70:264  contract Function {\r... */\n      mstore(0x40, 0x60)\n      calldataload(0x0)\n      0x100000000000000000000000000000000000000000000000000000000\n      swap1\n      div\n      0xffffffff\n      and\n      dup1\n      0x3bc5de30\n      eq\n      tag_2\n      jumpi\n      dup1\n      0xf31604c7\n      eq\n      tag_3\n      jumpi\n    tag_1:\n      0x0\n      dup1\n      revert\n        /* \"contracts/Version4.sol\":190:261  function getData() public returns(uint8) {\r... */\n    tag_2:\n      jumpi(tag_4, iszero(callvalue))\n      0x0\n      dup1\n      revert\n    tag_4:\n      tag_5\n      jump(tag_6)\n    tag_5:\n      mload(0x40)\n      dup1\n      dup3\n      0xff\n      and\n      0xff\n      and\n      dup2\n      mstore\n      0x20\n      add\n      swap2\n      pop\n      pop\n      mload(0x40)\n      dup1\n      swap2\n      sub\n      swap1\n      return\n        /* \"contracts/Version4.sol\":128:182  function setData() public {\r... */\n    tag_3:\n      jumpi(tag_7, iszero(callvalue))\n      0x0\n      dup1\n      revert\n    tag_7:\n      tag_8\n      jump(tag_9)\n    tag_8:\n      stop\n        /* \"contracts/Version4.sol\":190:261  function getData() public returns(uint8) {\r... */\n    tag_6:\n        /* \"contracts/Version4.sol\":224:229  uint8 */\n      0x0\n        /* \"contracts/Version4.sol\":249:253  data */\n      dup1\n      0x0\n      swap1\n      sload\n      swap1\n      0x100\n      exp\n      swap1\n      div\n      0xff\n      and\n        /* \"contracts/Version4.sol\":242:253  return data */\n      swap1\n      pop\n        /* \"contracts/Version4.sol\":190:261  function getData() public returns(uint8) {\r... */\n    tag_10:\n      swap1\n      jump\t// out\n        /* \"contracts/Version4.sol\":128:182  function setData() public {\r... */\n    tag_9:\n        /* \"contracts/Version4.sol\":173:174  1 */\n      0x1\n        /* \"contracts/Version4.sol\":165:169  data */\n      0x0\n      dup1\n        /* \"contracts/Version4.sol\":165:174  data += 1 */\n      dup3\n      dup3\n      dup3\n      swap1\n      sload\n      swap1\n      0x100\n      exp\n      swap1\n      div\n      0xff\n      and\n      add\n      swap3\n      pop\n      0x100\n      exp\n      dup2\n      sload\n      dup2\n      0xff\n      mul\n      not\n      and\n      swap1\n      dup4\n      0xff\n      and\n      mul\n      or\n      swap1\n      sstore\n      pop\n        /* \"contracts/Version4.sol\":128:182  function setData() public {\r... */\n    tag_11:\n      jump\t// out\n\n    auxdata: 0xa165627a7a723058209495cfc3ce3004659c7386f78f349fb190c10f8898a74f4137e7856ebdf817830029\n}\n",
				"bytecode": {
					"linkReferences": {},
					"object": "606060405260ff6000806101000a81548160ff021916908360ff160217905550341561002a57600080fd5b5b60f8806100396000396000f30060606040526000357c0100000000000000000000000000000000000000000000000000000000900463ffffffff1680633bc5de30146047578063f31604c7146073575b600080fd5b3415605157600080fd5b60576085565b604051808260ff1660ff16815260200191505060405180910390f35b3415607d57600080fd5b6083609c565b005b60008060009054906101000a900460ff1690505b90565b60016000808282829054906101000a900460ff160192506101000a81548160ff021916908360ff1602179055505b5600a165627a7a723058209495cfc3ce3004659c7386f78f349fb190c10f8898a74f4137e7856ebdf817830029",
					"opcodes": "PUSH1 0x60 PUSH1 0x40 MSTORE PUSH1 0xFF PUSH1 0x0 DUP1 PUSH2 0x100 EXP DUP2 SLOAD DUP2 PUSH1 0xFF MUL NOT AND SWAP1 DUP4 PUSH1 0xFF AND MUL OR SWAP1 SSTORE POP CALLVALUE ISZERO PUSH2 0x2A JUMPI PUSH1 0x0 DUP1 REVERT JUMPDEST JUMPDEST PUSH1 0xF8 DUP1 PUSH2 0x39 PUSH1 0x0 CODECOPY PUSH1 0x0 RETURN STOP PUSH1 0x60 PUSH1 0x40 MSTORE PUSH1 0x0 CALLDATALOAD PUSH29 0x100000000000000000000000000000000000000000000000000000000 SWAP1 DIV PUSH4 0xFFFFFFFF AND DUP1 PUSH4 0x3BC5DE30 EQ PUSH1 0x47 JUMPI DUP1 PUSH4 0xF31604C7 EQ PUSH1 0x73 JUMPI JUMPDEST PUSH1 0x0 DUP1 REVERT JUMPDEST CALLVALUE ISZERO PUSH1 0x51 JUMPI PUSH1 0x0 DUP1 REVERT JUMPDEST PUSH1 0x57 PUSH1 0x85 JUMP JUMPDEST PUSH1 0x40 MLOAD DUP1 DUP3 PUSH1 0xFF AND PUSH1 0xFF AND DUP2 MSTORE PUSH1 0x20 ADD SWAP2 POP POP PUSH1 0x40 MLOAD DUP1 SWAP2 SUB SWAP1 RETURN JUMPDEST CALLVALUE ISZERO PUSH1 0x7D JUMPI PUSH1 0x0 DUP1 REVERT JUMPDEST PUSH1 0x83 PUSH1 0x9C JUMP JUMPDEST STOP JUMPDEST PUSH1 0x0 DUP1 PUSH1 0x0 SWAP1 SLOAD SWAP1 PUSH2 0x100 EXP SWAP1 DIV PUSH1 0xFF AND SWAP1 POP JUMPDEST SWAP1 JUMP JUMPDEST PUSH1 0x1 PUSH1 0x0 DUP1 DUP3 DUP3 DUP3 SWAP1 SLOAD SWAP1 PUSH2 0x100 EXP SWAP1 DIV PUSH1 0xFF AND ADD SWAP3 POP PUSH2 0x100 EXP DUP2 SLOAD DUP2 PUSH1 0xFF MUL NOT AND SWAP1 DUP4 PUSH1 0xFF AND MUL OR SWAP1 SSTORE POP JUMPDEST JUMP STOP LOG1 PUSH6 0x627A7A723058 KECCAK256 SWAP5 SWAP6 0xcf 0xc3 0xce ADDRESS DIV PUSH6 0x9C7386F78F34 SWAP16 0xb1 SWAP1 0xc1 0xf DUP9 SWAP9 0xa7 0x4f COINBASE CALLDATACOPY 0xe7 DUP6 PUSH15 0xBDF817830029000000000000000000 "
				},
				"gasEstimates": {
					"creation": {
						"codeDepositCost": "49600",
						"executionCost": "20362",
						"totalCost": "69962"
					},
					"external": {
						"getData()": "422",
						"setData()": "20647"
					}
				},
				"methodIdentifiers": {
					"getData()": "3bc5de30",
					"setData()": "f31604c7"
				}
			},
			"userdoc": {
				"methods": {}
			}
		}
	}
}