{
	"contracts/Modifier.sol": {
		"Modifier": {
			"abi": [
				{
					"inputs": [],
					"name": "test1",
					"outputs": [],
					"stateMutability": "payable",
					"type": "function"
				},
				{
					"inputs": [],
					"name": "test2",
					"outputs": [],
					"stateMutability": "payable",
					"type": "function"
				}
			],
			"devdoc": {
				"kind": "dev",
				"methods": {},
				"version": 1
			},
			"evm": {
				"assembly": "    /* \"contracts/Modifier.sol\":72:209  contract Modifier{\r... */\n  mstore(0x40, 0x80)\n  callvalue\n  dup1\n  iszero\n  tag_1\n  jumpi\n  0x00\n  dup1\n  revert\ntag_1:\n  pop\n  dataSize(sub_0)\n  dup1\n  dataOffset(sub_0)\n  0x00\n  codecopy\n  0x00\n  return\nstop\n\nsub_0: assembly {\n        /* \"contracts/Modifier.sol\":72:209  contract Modifier{\r... */\n      mstore(0x40, 0x80)\n      jumpi(tag_1, lt(calldatasize, 0x04))\n      shr(0xe0, calldataload(0x00))\n      dup1\n      0x66e41cb7\n      eq\n      tag_2\n      jumpi\n      dup1\n      0x6b59084d\n      eq\n      tag_3\n      jumpi\n    tag_1:\n      0x00\n      dup1\n      revert\n        /* \"contracts/Modifier.sol\":156:206  function test2() public payable {\r... */\n    tag_2:\n      tag_4\n      tag_5\n      jump\t// in\n    tag_4:\n      stop\n        /* \"contracts/Modifier.sol\":108:150  function test1() public payable {\r... */\n    tag_3:\n      tag_6\n      tag_7\n      jump\t// in\n    tag_6:\n      stop\n        /* \"contracts/Modifier.sol\":156:206  function test2() public payable {\r... */\n    tag_5:\n      jump\t// out\n        /* \"contracts/Modifier.sol\":108:150  function test1() public payable {\r... */\n    tag_7:\n      jump\t// out\n\n    auxdata: 0xa26469706673582212201a7337d5b3d5c3fc34a27848548996c60df4bd05f73eb873e3230b877fbd967f64736f6c63430008070033\n}\n",
				"bytecode": {
					"linkReferences": {},
					"object": "6080604052348015600f57600080fd5b5060758061001e6000396000f3fe60806040526004361060265760003560e01c806366e41cb714602b5780636b59084d146033575b600080fd5b6031603b565b005b6039603d565b005b565b56fea26469706673582212201a7337d5b3d5c3fc34a27848548996c60df4bd05f73eb873e3230b877fbd967f64736f6c63430008070033",
					"opcodes": "PUSH1 0x80 PUSH1 0x40 MSTORE CALLVALUE DUP1 ISZERO PUSH1 0xF JUMPI PUSH1 0x0 DUP1 REVERT JUMPDEST POP PUSH1 0x75 DUP1 PUSH2 0x1E PUSH1 0x0 CODECOPY PUSH1 0x0 RETURN INVALID PUSH1 0x80 PUSH1 0x40 MSTORE PUSH1 0x4 CALLDATASIZE LT PUSH1 0x26 JUMPI PUSH1 0x0 CALLDATALOAD PUSH1 0xE0 SHR DUP1 PUSH4 0x66E41CB7 EQ PUSH1 0x2B JUMPI DUP1 PUSH4 0x6B59084D EQ PUSH1 0x33 JUMPI JUMPDEST PUSH1 0x0 DUP1 REVERT JUMPDEST PUSH1 0x31 PUSH1 0x3B JUMP JUMPDEST STOP JUMPDEST PUSH1 0x39 PUSH1 0x3D JUMP JUMPDEST STOP JUMPDEST JUMP JUMPDEST JUMP INVALID LOG2 PUSH5 0x6970667358 0x22 SLT KECCAK256 BYTE PUSH20 0x37D5B3D5C3FC34A27848548996C60DF4BD05F73E 0xB8 PUSH20 0xE3230B877FBD967F64736F6C6343000807003300 "
				},
				"gasEstimates": {
					"creation": {
						"codeDepositCost": "23400",
						"executionCost": "75",
						"totalCost": "23475"
					},
					"external": {
						"test1()": "120",
						"test2()": "98"
					}
				},
				"methodIdentifiers": {
					"test1()": "6b59084d",
					"test2()": "66e41cb7"
				}
			},
			"storageLayout": {
				"storage": [],
				"types": null
			},
			"userdoc": {
				"kind": "user",
				"methods": {},
				"version": 1
			}
		}
	}
}