{
	"data": {
		"bytecode": {
			"linkReferences": {},
			"object": "606060405260ff6000806101000a81548160ff021916908360ff160217905550341561002a57600080fd5b5b60f8806100396000396000f30060606040526000357c0100000000000000000000000000000000000000000000000000000000900463ffffffff1680633bc5de30146047578063f31604c7146073575b600080fd5b3415605157600080fd5b60576085565b604051808260ff1660ff16815260200191505060405180910390f35b3415607d57600080fd5b6083609c565b005b60008060009054906101000a900460ff1690505b90565b60016000808282829054906101000a900460ff160192506101000a81548160ff021916908360ff1602179055505b5600a165627a7a72305820b74ea3d89da8499a0af6a2cbb3f08421b3333446ec4d3caf23e70b9a2f48a2e80029",
			"opcodes": "PUSH1 0x60 PUSH1 0x40 MSTORE PUSH1 0xFF PUSH1 0x0 DUP1 PUSH2 0x100 EXP DUP2 SLOAD DUP2 PUSH1 0xFF MUL NOT AND SWAP1 DUP4 PUSH1 0xFF AND MUL OR SWAP1 SSTORE POP CALLVALUE ISZERO PUSH2 0x2A JUMPI PUSH1 0x0 DUP1 REVERT JUMPDEST JUMPDEST PUSH1 0xF8 DUP1 PUSH2 0x39 PUSH1 0x0 CODECOPY PUSH1 0x0 RETURN STOP PUSH1 0x60 PUSH1 0x40 MSTORE PUSH1 0x0 CALLDATALOAD PUSH29 0x100000000000000000000000000000000000000000000000000000000 SWAP1 DIV PUSH4 0xFFFFFFFF AND DUP1 PUSH4 0x3BC5DE30 EQ PUSH1 0x47 JUMPI DUP1 PUSH4 0xF31604C7 EQ PUSH1 0x73 JUMPI JUMPDEST PUSH1 0x0 DUP1 REVERT JUMPDEST CALLVALUE ISZERO PUSH1 0x51 JUMPI PUSH1 0x0 DUP1 REVERT JUMPDEST PUSH1 0x57 PUSH1 0x85 JUMP JUMPDEST PUSH1 0x40 MLOAD DUP1 DUP3 PUSH1 0xFF AND PUSH1 0xFF AND DUP2 MSTORE PUSH1 0x20 ADD SWAP2 POP POP PUSH1 0x40 MLOAD DUP1 SWAP2 SUB SWAP1 RETURN JUMPDEST CALLVALUE ISZERO PUSH1 0x7D JUMPI PUSH1 0x0 DUP1 REVERT JUMPDEST PUSH1 0x83 PUSH1 0x9C JUMP JUMPDEST STOP JUMPDEST PUSH1 0x0 DUP1 PUSH1 0x0 SWAP1 SLOAD SWAP1 PUSH2 0x100 EXP SWAP1 DIV PUSH1 0xFF AND SWAP1 POP JUMPDEST SWAP1 JUMP JUMPDEST PUSH1 0x1 PUSH1 0x0 DUP1 DUP3 DUP3 DUP3 SWAP1 SLOAD SWAP1 PUSH2 0x100 EXP SWAP1 DIV PUSH1 0xFF AND ADD SWAP3 POP PUSH2 0x100 EXP DUP2 SLOAD DUP2 PUSH1 0xFF MUL NOT AND SWAP1 DUP4 PUSH1 0xFF AND MUL OR SWAP1 SSTORE POP JUMPDEST JUMP STOP LOG1 PUSH6 0x627A7A723058 KECCAK256 0xb7 0x4e LOG3 0xd8 SWAP14 0xa8 0x49 SWAP11 EXP 0xf6 LOG2 0xcb 0xb3 CREATE DUP5 0x21 0xb3 CALLER CALLVALUE 0x46 0xec 0x4d EXTCODECOPY 0xaf 0x23 0xe7 SIGNEXTEND SWAP11 0x2f 0x48 LOG2 0xe8 STOP 0x29 "
		},
		"gasEstimates": {
			"creation": {
				"codeDepositCost": "49600",
				"executionCost": "20362",
				"totalCost": "69962"
			},
			"external": {
				"getData()": "422",
				"setData()": "20647"
			}
		},
		"methodIdentifiers": {
			"getData()": "3bc5de30",
			"setData()": "f31604c7"
		}
	},
	"abi": [
		{
			"constant": false,
			"inputs": [],
			"name": "getData",
			"outputs": [
				{
					"name": "",
					"type": "uint8"
				}
			],
			"payable": false,
			"type": "function",
			"stateMutability": "nonpayable"
		},
		{
			"constant": false,
			"inputs": [],
			"name": "setData",
			"outputs": [],
			"payable": false,
			"type": "function",
			"stateMutability": "nonpayable"
		}
	]
}