{
	"data": {
		"bytecode": {
			"linkReferences": {},
			"object": "608060405261271060005534801561001657600080fd5b5061021e806100266000396000f3fe60806040526004361061003f5760003560e01c806366e41cb7146100445780636b59084d1461004e5780637b98960714610058578063e45be8eb14610095575b600080fd5b61004c6100c0565b005b6100566100c2565b005b34801561006457600080fd5b5061007f600480360381019061007a9190610105565b6100d2565b60405161008c9190610150565b60405180910390f35b3480156100a157600080fd5b506100aa6100ea565b6040516100b7919061016b565b60405180910390f35b565b60005434116100d057600080fd5b565b60016020528060005260406000206000915090505481565b60005481565b6000813590506100ff816101d1565b92915050565b60006020828403121561011b5761011a6101cc565b5b6000610129848285016100f0565b91505092915050565b61013b81610198565b82525050565b61014a816101c2565b82525050565b60006020820190506101656000830184610132565b92915050565b60006020820190506101806000830184610141565b92915050565b6000610191826101a2565b9050919050565b6000819050919050565b600073ffffffffffffffffffffffffffffffffffffffff82169050919050565b6000819050919050565b600080fd5b6101da81610186565b81146101e557600080fd5b5056fea26469706673582212201809b2da53513bd9f5a7f66507f380d2cd86b941b7541e0d6b305d0c463a616164736f6c63430008070033",
			"opcodes": "PUSH1 0x80 PUSH1 0x40 MSTORE PUSH2 0x2710 PUSH1 0x0 SSTORE CALLVALUE DUP1 ISZERO PUSH2 0x16 JUMPI PUSH1 0x0 DUP1 REVERT JUMPDEST POP PUSH2 0x21E DUP1 PUSH2 0x26 PUSH1 0x0 CODECOPY PUSH1 0x0 RETURN INVALID PUSH1 0x80 PUSH1 0x40 MSTORE PUSH1 0x4 CALLDATASIZE LT PUSH2 0x3F JUMPI PUSH1 0x0 CALLDATALOAD PUSH1 0xE0 SHR DUP1 PUSH4 0x66E41CB7 EQ PUSH2 0x44 JUMPI DUP1 PUSH4 0x6B59084D EQ PUSH2 0x4E JUMPI DUP1 PUSH4 0x7B989607 EQ PUSH2 0x58 JUMPI DUP1 PUSH4 0xE45BE8EB EQ PUSH2 0x95 JUMPI JUMPDEST PUSH1 0x0 DUP1 REVERT JUMPDEST PUSH2 0x4C PUSH2 0xC0 JUMP JUMPDEST STOP JUMPDEST PUSH2 0x56 PUSH2 0xC2 JUMP JUMPDEST STOP JUMPDEST CALLVALUE DUP1 ISZERO PUSH2 0x64 JUMPI PUSH1 0x0 DUP1 REVERT JUMPDEST POP PUSH2 0x7F PUSH1 0x4 DUP1 CALLDATASIZE SUB DUP2 ADD SWAP1 PUSH2 0x7A SWAP2 SWAP1 PUSH2 0x105 JUMP JUMPDEST PUSH2 0xD2 JUMP JUMPDEST PUSH1 0x40 MLOAD PUSH2 0x8C SWAP2 SWAP1 PUSH2 0x150 JUMP JUMPDEST PUSH1 0x40 MLOAD DUP1 SWAP2 SUB SWAP1 RETURN JUMPDEST CALLVALUE DUP1 ISZERO PUSH2 0xA1 JUMPI PUSH1 0x0 DUP1 REVERT JUMPDEST POP PUSH2 0xAA PUSH2 0xEA JUMP JUMPDEST PUSH1 0x40 MLOAD PUSH2 0xB7 SWAP2 SWAP1 PUSH2 0x16B JUMP JUMPDEST PUSH1 0x40 MLOAD DUP1 SWAP2 SUB SWAP1 RETURN JUMPDEST JUMP JUMPDEST PUSH1 0x0 SLOAD CALLVALUE GT PUSH2 0xD0 JUMPI PUSH1 0x0 DUP1 REVERT JUMPDEST JUMP JUMPDEST PUSH1 0x1 PUSH1 0x20 MSTORE DUP1 PUSH1 0x0 MSTORE PUSH1 0x40 PUSH1 0x0 KECCAK256 PUSH1 0x0 SWAP2 POP SWAP1 POP SLOAD DUP2 JUMP JUMPDEST PUSH1 0x0 SLOAD DUP2 JUMP JUMPDEST PUSH1 0x0 DUP2 CALLDATALOAD SWAP1 POP PUSH2 0xFF DUP2 PUSH2 0x1D1 JUMP JUMPDEST SWAP3 SWAP2 POP POP JUMP JUMPDEST PUSH1 0x0 PUSH1 0x20 DUP3 DUP5 SUB SLT ISZERO PUSH2 0x11B JUMPI PUSH2 0x11A PUSH2 0x1CC JUMP JUMPDEST JUMPDEST PUSH1 0x0 PUSH2 0x129 DUP5 DUP3 DUP6 ADD PUSH2 0xF0 JUMP JUMPDEST SWAP2 POP POP SWAP3 SWAP2 POP POP JUMP JUMPDEST PUSH2 0x13B DUP2 PUSH2 0x198 JUMP JUMPDEST DUP3 MSTORE POP POP JUMP JUMPDEST PUSH2 0x14A DUP2 PUSH2 0x1C2 JUMP JUMPDEST DUP3 MSTORE POP POP JUMP JUMPDEST PUSH1 0x0 PUSH1 0x20 DUP3 ADD SWAP1 POP PUSH2 0x165 PUSH1 0x0 DUP4 ADD DUP5 PUSH2 0x132 JUMP JUMPDEST SWAP3 SWAP2 POP POP JUMP JUMPDEST PUSH1 0x0 PUSH1 0x20 DUP3 ADD SWAP1 POP PUSH2 0x180 PUSH1 0x0 DUP4 ADD DUP5 PUSH2 0x141 JUMP JUMPDEST SWAP3 SWAP2 POP POP JUMP JUMPDEST PUSH1 0x0 PUSH2 0x191 DUP3 PUSH2 0x1A2 JUMP JUMPDEST SWAP1 POP SWAP2 SWAP1 POP JUMP JUMPDEST PUSH1 0x0 DUP2 SWAP1 POP SWAP2 SWAP1 POP JUMP JUMPDEST PUSH1 0x0 PUSH20 0xFFFFFFFFFFFFFFFFFFFFFFFFFFFFFFFFFFFFFFFF DUP3 AND SWAP1 POP SWAP2 SWAP1 POP JUMP JUMPDEST PUSH1 0x0 DUP2 SWAP1 POP SWAP2 SWAP1 POP JUMP JUMPDEST PUSH1 0x0 DUP1 REVERT JUMPDEST PUSH2 0x1DA DUP2 PUSH2 0x186 JUMP JUMPDEST DUP2 EQ PUSH2 0x1E5 JUMPI PUSH1 0x0 DUP1 REVERT JUMPDEST POP JUMP INVALID LOG2 PUSH5 0x6970667358 0x22 SLT KECCAK256 XOR MULMOD 0xB2 0xDA MSTORE8 MLOAD EXTCODESIZE 0xD9 CREATE2 0xA7 0xF6 PUSH6 0x7F380D2CD86 0xB9 COINBASE 0xB7 SLOAD 0x1E 0xD PUSH12 0x305D0C463A616164736F6C63 NUMBER STOP ADDMOD SMOD STOP CALLER "
		},
		"gasEstimates": {
			"creation": {
				"codeDepositCost": "108400",
				"executionCost": "22259",
				"totalCost": "130659"
			},
			"external": {
				"minPrice()": "2473",
				"orderList(address)": "2836",
				"test1()": "2242",
				"test2()": "98"
			}
		},
		"methodIdentifiers": {
			"minPrice()": "e45be8eb",
			"orderList(address)": "7b989607",
			"test1()": "6b59084d",
			"test2()": "66e41cb7"
		}
	},
	"abi": [
		{
			"inputs": [],
			"name": "minPrice",
			"outputs": [
				{
					"internalType": "uint256",
					"name": "",
					"type": "uint256"
				}
			],
			"stateMutability": "view",
			"type": "function"
		},
		{
			"inputs": [
				{
					"internalType": "address",
					"name": "",
					"type": "address"
				}
			],
			"name": "orderList",
			"outputs": [
				{
					"internalType": "int256",
					"name": "",
					"type": "int256"
				}
			],
			"stateMutability": "view",
			"type": "function"
		},
		{
			"inputs": [],
			"name": "test1",
			"outputs": [],
			"stateMutability": "payable",
			"type": "function"
		},
		{
			"inputs": [],
			"name": "test2",
			"outputs": [],
			"stateMutability": "payable",
			"type": "function"
		}
	]
}