{
	"data": {
		"bytecode": {
			"linkReferences": {},
			"object": "60806040526000805534801561001457600080fd5b50610534806100246000396000f3fe608060405234801561001057600080fd5b506004361061004c5760003560e01c806344f5c17e14610051578063656687001461006f578063addf38041461008d578063b1b9347114610097575b600080fd5b6100596100a1565b604051610066919061020b565b60405180910390f35b6100776100a7565b60405161008491906102bf565b60405180910390f35b610095610135565b005b61009f6101bb565b005b60005481565b600180546100b490610310565b80601f01602080910402602001604051908101604052809291908181526020018280546100e090610310565b801561012d5780601f106101025761010080835404028352916020019161012d565b820191906000526020600020905b81548152906001019060200180831161011057829003601f168201915b505050505081565b60016000546101449190610371565b600081905550600160008082825461015c9190610371565b92505081905550600080815480929190610175906103c7565b919050555060016000546101899190610410565b600081905550600160005461019e9190610444565b60008190555060016000546101b391906104cd565b600081905550565b6000600190506000670de0b6b3a7640000826101d79190610444565b90506000633b9aca00836101eb9190610444565b9050505050565b6000819050919050565b610205816101f2565b82525050565b600060208201905061022060008301846101fc565b92915050565b600081519050919050565b600082825260208201905092915050565b60005b83811015610260578082015181840152602081019050610245565b8381111561026f576000848401525b50505050565b6000601f19601f8301169050919050565b600061029182610226565b61029b8185610231565b93506102ab818560208601610242565b6102b481610275565b840191505092915050565b600060208201905081810360008301526102d98184610286565b905092915050565b7f4e487b7100000000000000000000000000000000000000000000000000000000600052602260045260246000fd5b6000600282049050600182168061032857607f821691505b6020821081141561033c5761033b6102e1565b5b50919050565b7f4e487b7100000000000000000000000000000000000000000000000000000000600052601160045260246000fd5b600061037c826101f2565b9150610387836101f2565b9250827fffffffffffffffffffffffffffffffffffffffffffffffffffffffffffffffff038211156103bc576103bb610342565b5b828201905092915050565b60006103d2826101f2565b91507fffffffffffffffffffffffffffffffffffffffffffffffffffffffffffffffff82141561040557610404610342565b5b600182019050919050565b600061041b826101f2565b9150610426836101f2565b92508282101561043957610438610342565b5b828203905092915050565b600061044f826101f2565b915061045a836101f2565b9250817fffffffffffffffffffffffffffffffffffffffffffffffffffffffffffffffff048311821515161561049357610492610342565b5b828202905092915050565b7f4e487b7100000000000000000000000000000000000000000000000000000000600052601260045260246000fd5b60006104d8826101f2565b91506104e3836101f2565b9250826104f3576104f261049e565b5b82820490509291505056fea26469706673582212204e8e176d5fd6556bdae0ca0e5f78018d0362780b81c28cb86b738c77697db23864736f6c634300080c0033",
			"opcodes": "PUSH1 0x80 PUSH1 0x40 MSTORE PUSH1 0x0 DUP1 SSTORE CALLVALUE DUP1 ISZERO PUSH2 0x14 JUMPI PUSH1 0x0 DUP1 REVERT JUMPDEST POP PUSH2 0x534 DUP1 PUSH2 0x24 PUSH1 0x0 CODECOPY PUSH1 0x0 RETURN INVALID PUSH1 0x80 PUSH1 0x40 MSTORE CALLVALUE DUP1 ISZERO PUSH2 0x10 JUMPI PUSH1 0x0 DUP1 REVERT JUMPDEST POP PUSH1 0x4 CALLDATASIZE LT PUSH2 0x4C JUMPI PUSH1 0x0 CALLDATALOAD PUSH1 0xE0 SHR DUP1 PUSH4 0x44F5C17E EQ PUSH2 0x51 JUMPI DUP1 PUSH4 0x65668700 EQ PUSH2 0x6F JUMPI DUP1 PUSH4 0xADDF3804 EQ PUSH2 0x8D JUMPI DUP1 PUSH4 0xB1B93471 EQ PUSH2 0x97 JUMPI JUMPDEST PUSH1 0x0 DUP1 REVERT JUMPDEST PUSH2 0x59 PUSH2 0xA1 JUMP JUMPDEST PUSH1 0x40 MLOAD PUSH2 0x66 SWAP2 SWAP1 PUSH2 0x20B JUMP JUMPDEST PUSH1 0x40 MLOAD DUP1 SWAP2 SUB SWAP1 RETURN JUMPDEST PUSH2 0x77 PUSH2 0xA7 JUMP JUMPDEST PUSH1 0x40 MLOAD PUSH2 0x84 SWAP2 SWAP1 PUSH2 0x2BF JUMP JUMPDEST PUSH1 0x40 MLOAD DUP1 SWAP2 SUB SWAP1 RETURN JUMPDEST PUSH2 0x95 PUSH2 0x135 JUMP JUMPDEST STOP JUMPDEST PUSH2 0x9F PUSH2 0x1BB JUMP JUMPDEST STOP JUMPDEST PUSH1 0x0 SLOAD DUP2 JUMP JUMPDEST PUSH1 0x1 DUP1 SLOAD PUSH2 0xB4 SWAP1 PUSH2 0x310 JUMP JUMPDEST DUP1 PUSH1 0x1F ADD PUSH1 0x20 DUP1 SWAP2 DIV MUL PUSH1 0x20 ADD PUSH1 0x40 MLOAD SWAP1 DUP2 ADD PUSH1 0x40 MSTORE DUP1 SWAP3 SWAP2 SWAP1 DUP2 DUP2 MSTORE PUSH1 0x20 ADD DUP3 DUP1 SLOAD PUSH2 0xE0 SWAP1 PUSH2 0x310 JUMP JUMPDEST DUP1 ISZERO PUSH2 0x12D JUMPI DUP1 PUSH1 0x1F LT PUSH2 0x102 JUMPI PUSH2 0x100 DUP1 DUP4 SLOAD DIV MUL DUP4 MSTORE SWAP2 PUSH1 0x20 ADD SWAP2 PUSH2 0x12D JUMP JUMPDEST DUP3 ADD SWAP2 SWAP1 PUSH1 0x0 MSTORE PUSH1 0x20 PUSH1 0x0 KECCAK256 SWAP1 JUMPDEST DUP2 SLOAD DUP2 MSTORE SWAP1 PUSH1 0x1 ADD SWAP1 PUSH1 0x20 ADD DUP1 DUP4 GT PUSH2 0x110 JUMPI DUP3 SWAP1 SUB PUSH1 0x1F AND DUP3 ADD SWAP2 JUMPDEST POP POP POP POP POP DUP2 JUMP JUMPDEST PUSH1 0x1 PUSH1 0x0 SLOAD PUSH2 0x144 SWAP2 SWAP1 PUSH2 0x371 JUMP JUMPDEST PUSH1 0x0 DUP2 SWAP1 SSTORE POP PUSH1 0x1 PUSH1 0x0 DUP1 DUP3 DUP3 SLOAD PUSH2 0x15C SWAP2 SWAP1 PUSH2 0x371 JUMP JUMPDEST SWAP3 POP POP DUP2 SWAP1 SSTORE POP PUSH1 0x0 DUP1 DUP2 SLOAD DUP1 SWAP3 SWAP2 SWAP1 PUSH2 0x175 SWAP1 PUSH2 0x3C7 JUMP JUMPDEST SWAP2 SWAP1 POP SSTORE POP PUSH1 0x1 PUSH1 0x0 SLOAD PUSH2 0x189 SWAP2 SWAP1 PUSH2 0x410 JUMP JUMPDEST PUSH1 0x0 DUP2 SWAP1 SSTORE POP PUSH1 0x1 PUSH1 0x0 SLOAD PUSH2 0x19E SWAP2 SWAP1 PUSH2 0x444 JUMP JUMPDEST PUSH1 0x0 DUP2 SWAP1 SSTORE POP PUSH1 0x1 PUSH1 0x0 SLOAD PUSH2 0x1B3 SWAP2 SWAP1 PUSH2 0x4CD JUMP JUMPDEST PUSH1 0x0 DUP2 SWAP1 SSTORE POP JUMP JUMPDEST PUSH1 0x0 PUSH1 0x1 SWAP1 POP PUSH1 0x0 PUSH8 0xDE0B6B3A7640000 DUP3 PUSH2 0x1D7 SWAP2 SWAP1 PUSH2 0x444 JUMP JUMPDEST SWAP1 POP PUSH1 0x0 PUSH4 0x3B9ACA00 DUP4 PUSH2 0x1EB SWAP2 SWAP1 PUSH2 0x444 JUMP JUMPDEST SWAP1 POP POP POP POP JUMP JUMPDEST PUSH1 0x0 DUP2 SWAP1 POP SWAP2 SWAP1 POP JUMP JUMPDEST PUSH2 0x205 DUP2 PUSH2 0x1F2 JUMP JUMPDEST DUP3 MSTORE POP POP JUMP JUMPDEST PUSH1 0x0 PUSH1 0x20 DUP3 ADD SWAP1 POP PUSH2 0x220 PUSH1 0x0 DUP4 ADD DUP5 PUSH2 0x1FC JUMP JUMPDEST SWAP3 SWAP2 POP POP JUMP JUMPDEST PUSH1 0x0 DUP2 MLOAD SWAP1 POP SWAP2 SWAP1 POP JUMP JUMPDEST PUSH1 0x0 DUP3 DUP3 MSTORE PUSH1 0x20 DUP3 ADD SWAP1 POP SWAP3 SWAP2 POP POP JUMP JUMPDEST PUSH1 0x0 JUMPDEST DUP4 DUP2 LT ISZERO PUSH2 0x260 JUMPI DUP1 DUP3 ADD MLOAD DUP2 DUP5 ADD MSTORE PUSH1 0x20 DUP2 ADD SWAP1 POP PUSH2 0x245 JUMP JUMPDEST DUP4 DUP2 GT ISZERO PUSH2 0x26F JUMPI PUSH1 0x0 DUP5 DUP5 ADD MSTORE JUMPDEST POP POP POP POP JUMP JUMPDEST PUSH1 0x0 PUSH1 0x1F NOT PUSH1 0x1F DUP4 ADD AND SWAP1 POP SWAP2 SWAP1 POP JUMP JUMPDEST PUSH1 0x0 PUSH2 0x291 DUP3 PUSH2 0x226 JUMP JUMPDEST PUSH2 0x29B DUP2 DUP6 PUSH2 0x231 JUMP JUMPDEST SWAP4 POP PUSH2 0x2AB DUP2 DUP6 PUSH1 0x20 DUP7 ADD PUSH2 0x242 JUMP JUMPDEST PUSH2 0x2B4 DUP2 PUSH2 0x275 JUMP JUMPDEST DUP5 ADD SWAP2 POP POP SWAP3 SWAP2 POP POP JUMP JUMPDEST PUSH1 0x0 PUSH1 0x20 DUP3 ADD SWAP1 POP DUP2 DUP2 SUB PUSH1 0x0 DUP4 ADD MSTORE PUSH2 0x2D9 DUP2 DUP5 PUSH2 0x286 JUMP JUMPDEST SWAP1 POP SWAP3 SWAP2 POP POP JUMP JUMPDEST PUSH32 0x4E487B7100000000000000000000000000000000000000000000000000000000 PUSH1 0x0 MSTORE PUSH1 0x22 PUSH1 0x4 MSTORE PUSH1 0x24 PUSH1 0x0 REVERT JUMPDEST PUSH1 0x0 PUSH1 0x2 DUP3 DIV SWAP1 POP PUSH1 0x1 DUP3 AND DUP1 PUSH2 0x328 JUMPI PUSH1 0x7F DUP3 AND SWAP2 POP JUMPDEST PUSH1 0x20 DUP3 LT DUP2 EQ ISZERO PUSH2 0x33C JUMPI PUSH2 0x33B PUSH2 0x2E1 JUMP JUMPDEST JUMPDEST POP SWAP2 SWAP1 POP JUMP JUMPDEST PUSH32 0x4E487B7100000000000000000000000000000000000000000000000000000000 PUSH1 0x0 MSTORE PUSH1 0x11 PUSH1 0x4 MSTORE PUSH1 0x24 PUSH1 0x0 REVERT JUMPDEST PUSH1 0x0 PUSH2 0x37C DUP3 PUSH2 0x1F2 JUMP JUMPDEST SWAP2 POP PUSH2 0x387 DUP4 PUSH2 0x1F2 JUMP JUMPDEST SWAP3 POP DUP3 PUSH32 0xFFFFFFFFFFFFFFFFFFFFFFFFFFFFFFFFFFFFFFFFFFFFFFFFFFFFFFFFFFFFFFFF SUB DUP3 GT ISZERO PUSH2 0x3BC JUMPI PUSH2 0x3BB PUSH2 0x342 JUMP JUMPDEST JUMPDEST DUP3 DUP3 ADD SWAP1 POP SWAP3 SWAP2 POP POP JUMP JUMPDEST PUSH1 0x0 PUSH2 0x3D2 DUP3 PUSH2 0x1F2 JUMP JUMPDEST SWAP2 POP PUSH32 0xFFFFFFFFFFFFFFFFFFFFFFFFFFFFFFFFFFFFFFFFFFFFFFFFFFFFFFFFFFFFFFFF DUP3 EQ ISZERO PUSH2 0x405 JUMPI PUSH2 0x404 PUSH2 0x342 JUMP JUMPDEST JUMPDEST PUSH1 0x1 DUP3 ADD SWAP1 POP SWAP2 SWAP1 POP JUMP JUMPDEST PUSH1 0x0 PUSH2 0x41B DUP3 PUSH2 0x1F2 JUMP JUMPDEST SWAP2 POP PUSH2 0x426 DUP4 PUSH2 0x1F2 JUMP JUMPDEST SWAP3 POP DUP3 DUP3 LT ISZERO PUSH2 0x439 JUMPI PUSH2 0x438 PUSH2 0x342 JUMP JUMPDEST JUMPDEST DUP3 DUP3 SUB SWAP1 POP SWAP3 SWAP2 POP POP JUMP JUMPDEST PUSH1 0x0 PUSH2 0x44F DUP3 PUSH2 0x1F2 JUMP JUMPDEST SWAP2 POP PUSH2 0x45A DUP4 PUSH2 0x1F2 JUMP JUMPDEST SWAP3 POP DUP2 PUSH32 0xFFFFFFFFFFFFFFFFFFFFFFFFFFFFFFFFFFFFFFFFFFFFFFFFFFFFFFFFFFFFFFFF DIV DUP4 GT DUP3 ISZERO ISZERO AND ISZERO PUSH2 0x493 JUMPI PUSH2 0x492 PUSH2 0x342 JUMP JUMPDEST JUMPDEST DUP3 DUP3 MUL SWAP1 POP SWAP3 SWAP2 POP POP JUMP JUMPDEST PUSH32 0x4E487B7100000000000000000000000000000000000000000000000000000000 PUSH1 0x0 MSTORE PUSH1 0x12 PUSH1 0x4 MSTORE PUSH1 0x24 PUSH1 0x0 REVERT JUMPDEST PUSH1 0x0 PUSH2 0x4D8 DUP3 PUSH2 0x1F2 JUMP JUMPDEST SWAP2 POP PUSH2 0x4E3 DUP4 PUSH2 0x1F2 JUMP JUMPDEST SWAP3 POP DUP3 PUSH2 0x4F3 JUMPI PUSH2 0x4F2 PUSH2 0x49E JUMP JUMPDEST JUMPDEST DUP3 DUP3 DIV SWAP1 POP SWAP3 SWAP2 POP POP JUMP INVALID LOG2 PUSH5 0x6970667358 0x22 SLT KECCAK256 0x4E DUP15 OR PUSH14 0x5FD6556BDAE0CA0E5F78018D0362 PUSH25 0xB81C28CB86B738C77697DB23864736F6C634300080C003300 "
		},
		"gasEstimates": {
			"creation": {
				"codeDepositCost": "266400",
				"executionCost": "5312",
				"totalCost": "271712"
			},
			"external": {
				"intData()": "2407",
				"math()": "infinite",
				"stringData()": "infinite",
				"weiToEth()": "infinite"
			}
		},
		"methodIdentifiers": {
			"intData()": "44f5c17e",
			"math()": "addf3804",
			"stringData()": "65668700",
			"weiToEth()": "b1b93471"
		}
	},
	"abi": [
		{
			"inputs": [],
			"name": "intData",
			"outputs": [
				{
					"internalType": "uint256",
					"name": "",
					"type": "uint256"
				}
			],
			"stateMutability": "view",
			"type": "function"
		},
		{
			"inputs": [],
			"name": "math",
			"outputs": [],
			"stateMutability": "nonpayable",
			"type": "function"
		},
		{
			"inputs": [],
			"name": "stringData",
			"outputs": [
				{
					"internalType": "string",
					"name": "",
					"type": "string"
				}
			],
			"stateMutability": "view",
			"type": "function"
		},
		{
			"inputs": [],
			"name": "weiToEth",
			"outputs": [],
			"stateMutability": "nonpayable",
			"type": "function"
		}
	]
}