{
	"contracts/exception_Handling/Fallback.sol": {
		"Fallback": {
			"abi": [
				{
					"inputs": [],
					"stateMutability": "nonpayable",
					"type": "constructor"
				},
				{
					"stateMutability": "payable",
					"type": "fallback"
				},
				{
					"inputs": [],
					"name": "data",
					"outputs": [
						{
							"internalType": "uint256",
							"name": "",
							"type": "uint256"
						}
					],
					"stateMutability": "view",
					"type": "function"
				},
				{
					"inputs": [],
					"name": "order",
					"outputs": [],
					"stateMutability": "payable",
					"type": "function"
				},
				{
					"stateMutability": "payable",
					"type": "receive"
				}
			],
			"devdoc": {
				"kind": "dev",
				"methods": {},
				"version": 1
			},
			"evm": {
				"assembly": "    /* \"contracts/exception_Handling/Fallback.sol\":70:651  contract Fallback{\r... */\n  mstore(0x40, 0x80)\n    /* \"contracts/exception_Handling/Fallback.sol\":114:115  0 */\n  0x00\n    /* \"contracts/exception_Handling/Fallback.sol\":96:115  uint public data =0 */\n  dup1\n  sstore\n    /* \"contracts/exception_Handling/Fallback.sol\":124:165  constructor() {\r... */\n  callvalue\n  dup1\n  iszero\n  tag_1\n  jumpi\n  0x00\n  dup1\n  revert\ntag_1:\n  pop\n    /* \"contracts/exception_Handling/Fallback.sol\":156:157  5 */\n  0x05\n    /* \"contracts/exception_Handling/Fallback.sol\":149:153  data */\n  0x00\n    /* \"contracts/exception_Handling/Fallback.sol\":149:157  data = 5 */\n  dup2\n  swap1\n  sstore\n  pop\n    /* \"contracts/exception_Handling/Fallback.sol\":70:651  contract Fallback{\r... */\n  dataSize(sub_0)\n  dup1\n  dataOffset(sub_0)\n  0x00\n  codecopy\n  0x00\n  return\nstop\n\nsub_0: assembly {\n        /* \"contracts/exception_Handling/Fallback.sol\":70:651  contract Fallback{\r... */\n      mstore(0x40, 0x80)\n      jumpi(tag_1, lt(calldatasize, 0x04))\n      shr(0xe0, calldataload(0x00))\n      dup1\n      0x73d4a13a\n      eq\n      tag_3\n      jumpi\n      dup1\n      0xbf15071d\n      eq\n      tag_4\n      jumpi\n      jump(tag_2)\n    tag_1:\n      jumpi(tag_2, calldatasize)\n      stop\n    tag_2:\n        /* \"contracts/exception_Handling/Fallback.sol\":479:487  revert() */\n      0x00\n      dup1\n      revert\n        /* \"contracts/exception_Handling/Fallback.sol\":96:115  uint public data =0 */\n    tag_3:\n      callvalue\n      dup1\n      iszero\n      tag_9\n      jumpi\n      0x00\n      dup1\n      revert\n    tag_9:\n      pop\n      tag_10\n      tag_11\n      jump\t// in\n    tag_10:\n      mload(0x40)\n      tag_12\n      swap2\n      swap1\n      tag_13\n      jump\t// in\n    tag_12:\n      mload(0x40)\n      dup1\n      swap2\n      sub\n      swap1\n      return\n        /* \"contracts/exception_Handling/Fallback.sol\":173:245  function order() external payable{\r... */\n    tag_4:\n      tag_14\n      tag_15\n      jump\t// in\n    tag_14:\n      stop\n        /* \"contracts/exception_Handling/Fallback.sol\":96:115  uint public data =0 */\n    tag_11:\n      sload(0x00)\n      dup2\n      jump\t// out\n        /* \"contracts/exception_Handling/Fallback.sol\":173:245  function order() external payable{\r... */\n    tag_15:\n        /* \"contracts/exception_Handling/Fallback.sol\":234:235  9 */\n      0x09\n        /* \"contracts/exception_Handling/Fallback.sol\":227:231  data */\n      0x00\n        /* \"contracts/exception_Handling/Fallback.sol\":227:235  data = 9 */\n      dup2\n      swap1\n      sstore\n      pop\n        /* \"contracts/exception_Handling/Fallback.sol\":173:245  function order() external payable{\r... */\n      jump\t// out\n        /* \"#utility.yul\":7:125   */\n    tag_18:\n        /* \"#utility.yul\":94:118   */\n      tag_20\n        /* \"#utility.yul\":112:117   */\n      dup2\n        /* \"#utility.yul\":94:118   */\n      tag_21\n      jump\t// in\n    tag_20:\n        /* \"#utility.yul\":89:92   */\n      dup3\n        /* \"#utility.yul\":82:119   */\n      mstore\n        /* \"#utility.yul\":7:125   */\n      pop\n      pop\n      jump\t// out\n        /* \"#utility.yul\":131:353   */\n    tag_13:\n        /* \"#utility.yul\":224:228   */\n      0x00\n        /* \"#utility.yul\":262:264   */\n      0x20\n        /* \"#utility.yul\":251:260   */\n      dup3\n        /* \"#utility.yul\":247:265   */\n      add\n        /* \"#utility.yul\":239:265   */\n      swap1\n      pop\n        /* \"#utility.yul\":275:346   */\n      tag_23\n        /* \"#utility.yul\":343:344   */\n      0x00\n        /* \"#utility.yul\":332:341   */\n      dup4\n        /* \"#utility.yul\":328:345   */\n      add\n        /* \"#utility.yul\":319:325   */\n      dup5\n        /* \"#utility.yul\":275:346   */\n      tag_18\n      jump\t// in\n    tag_23:\n        /* \"#utility.yul\":131:353   */\n      swap3\n      swap2\n      pop\n      pop\n      jump\t// out\n        /* \"#utility.yul\":359:436   */\n    tag_21:\n        /* \"#utility.yul\":396:403   */\n      0x00\n        /* \"#utility.yul\":425:430   */\n      dup2\n        /* \"#utility.yul\":414:430   */\n      swap1\n      pop\n        /* \"#utility.yul\":359:436   */\n      swap2\n      swap1\n      pop\n      jump\t// out\n\n    auxdata: 0xa2646970667358221220bc47872afaea992cdd8ea7557e145191ec2e06269a0c0c2cd7727e44a737dee164736f6c63430008070033\n}\n",
				"bytecode": {
					"linkReferences": {},
					"object": "60806040526000805534801561001457600080fd5b50600560008190555060d88061002b6000396000f3fe60806040526004361060295760003560e01c806373d4a13a146034578063bf15071d14605a57602f565b36602f57005b600080fd5b348015603f57600080fd5b5060466062565b60405160519190607f565b60405180910390f35b60606068565b005b60005481565b6009600081905550565b6079816098565b82525050565b6000602082019050609260008301846072565b92915050565b600081905091905056fea2646970667358221220bc47872afaea992cdd8ea7557e145191ec2e06269a0c0c2cd7727e44a737dee164736f6c63430008070033",
					"opcodes": "PUSH1 0x80 PUSH1 0x40 MSTORE PUSH1 0x0 DUP1 SSTORE CALLVALUE DUP1 ISZERO PUSH2 0x14 JUMPI PUSH1 0x0 DUP1 REVERT JUMPDEST POP PUSH1 0x5 PUSH1 0x0 DUP2 SWAP1 SSTORE POP PUSH1 0xD8 DUP1 PUSH2 0x2B PUSH1 0x0 CODECOPY PUSH1 0x0 RETURN INVALID PUSH1 0x80 PUSH1 0x40 MSTORE PUSH1 0x4 CALLDATASIZE LT PUSH1 0x29 JUMPI PUSH1 0x0 CALLDATALOAD PUSH1 0xE0 SHR DUP1 PUSH4 0x73D4A13A EQ PUSH1 0x34 JUMPI DUP1 PUSH4 0xBF15071D EQ PUSH1 0x5A JUMPI PUSH1 0x2F JUMP JUMPDEST CALLDATASIZE PUSH1 0x2F JUMPI STOP JUMPDEST PUSH1 0x0 DUP1 REVERT JUMPDEST CALLVALUE DUP1 ISZERO PUSH1 0x3F JUMPI PUSH1 0x0 DUP1 REVERT JUMPDEST POP PUSH1 0x46 PUSH1 0x62 JUMP JUMPDEST PUSH1 0x40 MLOAD PUSH1 0x51 SWAP2 SWAP1 PUSH1 0x7F JUMP JUMPDEST PUSH1 0x40 MLOAD DUP1 SWAP2 SUB SWAP1 RETURN JUMPDEST PUSH1 0x60 PUSH1 0x68 JUMP JUMPDEST STOP JUMPDEST PUSH1 0x0 SLOAD DUP2 JUMP JUMPDEST PUSH1 0x9 PUSH1 0x0 DUP2 SWAP1 SSTORE POP JUMP JUMPDEST PUSH1 0x79 DUP2 PUSH1 0x98 JUMP JUMPDEST DUP3 MSTORE POP POP JUMP JUMPDEST PUSH1 0x0 PUSH1 0x20 DUP3 ADD SWAP1 POP PUSH1 0x92 PUSH1 0x0 DUP4 ADD DUP5 PUSH1 0x72 JUMP JUMPDEST SWAP3 SWAP2 POP POP JUMP JUMPDEST PUSH1 0x0 DUP2 SWAP1 POP SWAP2 SWAP1 POP JUMP INVALID LOG2 PUSH5 0x6970667358 0x22 SLT KECCAK256 0xBC SELFBALANCE DUP8 0x2A STATICCALL 0xEA SWAP10 0x2C 0xDD DUP15 0xA7 SSTORE PUSH31 0x145191EC2E06269A0C0C2CD7727E44A737DEE164736F6C6343000807003300 "
				},
				"gasEstimates": {
					"creation": {
						"codeDepositCost": "43200",
						"executionCost": "27213",
						"totalCost": "70413"
					},
					"external": {
						"": "113",
						"data()": "2407",
						"order()": "22234"
					}
				},
				"methodIdentifiers": {
					"data()": "73d4a13a",
					"order()": "bf15071d"
				}
			},
			"storageLayout": {
				"storage": [
					{
						"astId": 4,
						"contract": "contracts/exception_Handling/Fallback.sol:Fallback",
						"label": "data",
						"offset": 0,
						"slot": "0",
						"type": "t_uint256"
					}
				],
				"types": {
					"t_uint256": {
						"encoding": "inplace",
						"label": "uint256",
						"numberOfBytes": "32"
					}
				}
			},
			"userdoc": {
				"kind": "user",
				"methods": {},
				"version": 1
			}
		}
	}
}