{
	"contracts/conditional statement/Loop.sol": {
		"Loop": {
			"abi": [
				{
					"inputs": [],
					"name": "forLoop",
					"outputs": [],
					"stateMutability": "nonpayable",
					"type": "function"
				}
			],
			"devdoc": {
				"kind": "dev",
				"methods": {},
				"version": 1
			},
			"evm": {
				"assembly": "    /* \"contracts/conditional statement/Loop.sol\":69:275  contract Loop {... */\n  mstore(0x40, 0x80)\n  callvalue\n  dup1\n  iszero\n  tag_1\n  jumpi\n  0x00\n  dup1\n  revert\ntag_1:\n  pop\n  dataSize(sub_0)\n  dup1\n  dataOffset(sub_0)\n  0x00\n  codecopy\n  0x00\n  return\nstop\n\nsub_0: assembly {\n        /* \"contracts/conditional statement/Loop.sol\":69:275  contract Loop {... */\n      mstore(0x40, 0x80)\n      callvalue\n      dup1\n      iszero\n      tag_1\n      jumpi\n      0x00\n      dup1\n      revert\n    tag_1:\n      pop\n      jumpi(tag_2, lt(calldatasize, 0x04))\n      shr(0xe0, calldataload(0x00))\n      dup1\n      0xfc0e6008\n      eq\n      tag_3\n      jumpi\n    tag_2:\n      0x00\n      dup1\n      revert\n        /* \"contracts/conditional statement/Loop.sol\":150:270  function forLoop() public {... */\n    tag_3:\n      tag_4\n      tag_5\n      jump\t// in\n    tag_4:\n      stop\n    tag_5:\n        /* \"contracts/conditional statement/Loop.sol\":187:196  uint8 sum */\n      0x00\n        /* \"contracts/conditional statement/Loop.sol\":215:222  uint8 i */\n      dup1\n        /* \"contracts/conditional statement/Loop.sol\":223:224  1 */\n      0x01\n        /* \"contracts/conditional statement/Loop.sol\":215:224  uint8 i=1 */\n      swap1\n      pop\n        /* \"contracts/conditional statement/Loop.sol\":211:263  for(uint8 i=1; i<11; i++) {... */\n    tag_7:\n        /* \"contracts/conditional statement/Loop.sol\":228:230  11 */\n      0x0b\n        /* \"contracts/conditional statement/Loop.sol\":226:227  i */\n      dup2\n        /* \"contracts/conditional statement/Loop.sol\":226:230  i<11 */\n      0xff\n      and\n      lt\n        /* \"contracts/conditional statement/Loop.sol\":211:263  for(uint8 i=1; i<11; i++) {... */\n      iszero\n      tag_8\n      jumpi\n        /* \"contracts/conditional statement/Loop.sol\":232:235  i++ */\n      dup1\n      dup1\n      tag_10\n      swap1\n      tag_11\n      jump\t// in\n    tag_10:\n      swap2\n      pop\n      pop\n        /* \"contracts/conditional statement/Loop.sol\":211:263  for(uint8 i=1; i<11; i++) {... */\n      jump(tag_7)\n    tag_8:\n      pop\n        /* \"contracts/conditional statement/Loop.sol\":176:270  {... */\n      pop\n        /* \"contracts/conditional statement/Loop.sol\":150:270  function forLoop() public {... */\n      jump\t// out\n        /* \"#utility.yul\":7:187   */\n    tag_12:\n        /* \"#utility.yul\":55:132   */\n      0x4e487b7100000000000000000000000000000000000000000000000000000000\n        /* \"#utility.yul\":52:53   */\n      0x00\n        /* \"#utility.yul\":45:133   */\n      mstore\n        /* \"#utility.yul\":152:156   */\n      0x11\n        /* \"#utility.yul\":149:150   */\n      0x04\n        /* \"#utility.yul\":142:157   */\n      mstore\n        /* \"#utility.yul\":176:180   */\n      0x24\n        /* \"#utility.yul\":173:174   */\n      0x00\n        /* \"#utility.yul\":166:181   */\n      revert\n        /* \"#utility.yul\":193:279   */\n    tag_13:\n        /* \"#utility.yul\":228:235   */\n      0x00\n        /* \"#utility.yul\":268:272   */\n      0xff\n        /* \"#utility.yul\":261:266   */\n      dup3\n        /* \"#utility.yul\":257:273   */\n      and\n        /* \"#utility.yul\":246:273   */\n      swap1\n      pop\n        /* \"#utility.yul\":193:279   */\n      swap2\n      swap1\n      pop\n      jump\t// out\n        /* \"#utility.yul\":285:452   */\n    tag_11:\n        /* \"#utility.yul\":322:325   */\n      0x00\n        /* \"#utility.yul\":345:367   */\n      tag_18\n        /* \"#utility.yul\":361:366   */\n      dup3\n        /* \"#utility.yul\":345:367   */\n      tag_13\n      jump\t// in\n    tag_18:\n        /* \"#utility.yul\":336:367   */\n      swap2\n      pop\n        /* \"#utility.yul\":389:393   */\n      0xff\n        /* \"#utility.yul\":382:387   */\n      dup3\n        /* \"#utility.yul\":379:394   */\n      sub\n        /* \"#utility.yul\":376:417   */\n      tag_19\n      jumpi\n        /* \"#utility.yul\":397:415   */\n      tag_20\n      tag_12\n      jump\t// in\n    tag_20:\n        /* \"#utility.yul\":376:417   */\n    tag_19:\n        /* \"#utility.yul\":444:445   */\n      0x01\n        /* \"#utility.yul\":437:442   */\n      dup3\n        /* \"#utility.yul\":433:446   */\n      add\n        /* \"#utility.yul\":426:446   */\n      swap1\n      pop\n        /* \"#utility.yul\":285:452   */\n      swap2\n      swap1\n      pop\n      jump\t// out\n\n    auxdata: 0xa2646970667358221220c3b43f0943a5c42a752e71d290aa9341586124d101fef17f72894170ca36e55964736f6c63430008110033\n}\n",
				"bytecode": {
					"linkReferences": {},
					"object": "608060405234801561001057600080fd5b5060f28061001f6000396000f3fe6080604052348015600f57600080fd5b506004361060285760003560e01c8063fc0e600814602d575b600080fd5b60336035565b005b600080600190505b600b8160ff16101560585780806051906098565b915050603d565b5050565b7f4e487b7100000000000000000000000000000000000000000000000000000000600052601160045260246000fd5b600060ff82169050919050565b600060a182608b565b915060ff820360b15760b0605c565b5b60018201905091905056fea2646970667358221220c3b43f0943a5c42a752e71d290aa9341586124d101fef17f72894170ca36e55964736f6c63430008110033",
					"opcodes": "PUSH1 0x80 PUSH1 0x40 MSTORE CALLVALUE DUP1 ISZERO PUSH2 0x10 JUMPI PUSH1 0x0 DUP1 REVERT JUMPDEST POP PUSH1 0xF2 DUP1 PUSH2 0x1F PUSH1 0x0 CODECOPY PUSH1 0x0 RETURN INVALID PUSH1 0x80 PUSH1 0x40 MSTORE CALLVALUE DUP1 ISZERO PUSH1 0xF JUMPI PUSH1 0x0 DUP1 REVERT JUMPDEST POP PUSH1 0x4 CALLDATASIZE LT PUSH1 0x28 JUMPI PUSH1 0x0 CALLDATALOAD PUSH1 0xE0 SHR DUP1 PUSH4 0xFC0E6008 EQ PUSH1 0x2D JUMPI JUMPDEST PUSH1 0x0 DUP1 REVERT JUMPDEST PUSH1 0x33 PUSH1 0x35 JUMP JUMPDEST STOP JUMPDEST PUSH1 0x0 DUP1 PUSH1 0x1 SWAP1 POP JUMPDEST PUSH1 0xB DUP2 PUSH1 0xFF AND LT ISZERO PUSH1 0x58 JUMPI DUP1 DUP1 PUSH1 0x51 SWAP1 PUSH1 0x98 JUMP JUMPDEST SWAP2 POP POP PUSH1 0x3D JUMP JUMPDEST POP POP JUMP JUMPDEST PUSH32 0x4E487B7100000000000000000000000000000000000000000000000000000000 PUSH1 0x0 MSTORE PUSH1 0x11 PUSH1 0x4 MSTORE PUSH1 0x24 PUSH1 0x0 REVERT JUMPDEST PUSH1 0x0 PUSH1 0xFF DUP3 AND SWAP1 POP SWAP2 SWAP1 POP JUMP JUMPDEST PUSH1 0x0 PUSH1 0xA1 DUP3 PUSH1 0x8B JUMP JUMPDEST SWAP2 POP PUSH1 0xFF DUP3 SUB PUSH1 0xB1 JUMPI PUSH1 0xB0 PUSH1 0x5C JUMP JUMPDEST JUMPDEST PUSH1 0x1 DUP3 ADD SWAP1 POP SWAP2 SWAP1 POP JUMP INVALID LOG2 PUSH5 0x6970667358 0x22 SLT KECCAK256 0xC3 0xB4 EXTCODEHASH MULMOD NUMBER 0xA5 0xC4 0x2A PUSH22 0x2E71D290AA9341586124D101FEF17F72894170CA36E5 MSIZE PUSH5 0x736F6C6343 STOP ADDMOD GT STOP CALLER "
				},
				"gasEstimates": {
					"creation": {
						"codeDepositCost": "48400",
						"executionCost": "99",
						"totalCost": "48499"
					},
					"external": {
						"forLoop()": "infinite"
					}
				},
				"methodIdentifiers": {
					"forLoop()": "fc0e6008"
				}
			},
			"storageLayout": {
				"storage": [],
				"types": null
			},
			"userdoc": {
				"kind": "user",
				"methods": {},
				"version": 1
			}
		}
	}
}