{
	"contracts/conditional statement/Loop.sol": {
		"Loop": {
			"abi": [
				{
					"inputs": [],
					"name": "forLoop",
					"outputs": [],
					"stateMutability": "nonpayable",
					"type": "function"
				}
			],
			"devdoc": {
				"kind": "dev",
				"methods": {},
				"version": 1
			},
			"evm": {
				"assembly": "    /* \"contracts/conditional statement/Loop.sol\":69:283  contract Loop {... */\n  mstore(0x40, 0x80)\n  callvalue\n  dup1\n  iszero\n  tag_1\n  jumpi\n  0x00\n  dup1\n  revert\ntag_1:\n  pop\n  dataSize(sub_0)\n  dup1\n  dataOffset(sub_0)\n  0x00\n  codecopy\n  0x00\n  return\nstop\n\nsub_0: assembly {\n        /* \"contracts/conditional statement/Loop.sol\":69:283  contract Loop {... */\n      mstore(0x40, 0x80)\n      callvalue\n      dup1\n      iszero\n      tag_1\n      jumpi\n      0x00\n      dup1\n      revert\n    tag_1:\n      pop\n      jumpi(tag_2, lt(calldatasize, 0x04))\n      shr(0xe0, calldataload(0x00))\n      dup1\n      0xfc0e6008\n      eq\n      tag_3\n      jumpi\n    tag_2:\n      0x00\n      dup1\n      revert\n        /* \"contracts/conditional statement/Loop.sol\":150:278  function forLoop() public {... */\n    tag_3:\n      tag_4\n      tag_5\n      jump\t// in\n    tag_4:\n      stop\n    tag_5:\n        /* \"contracts/conditional statement/Loop.sol\":187:196  uint8 sum */\n      0x00\n        /* \"contracts/conditional statement/Loop.sol\":215:222  uint8 i */\n      dup1\n        /* \"contracts/conditional statement/Loop.sol\":223:224  1 */\n      0x01\n        /* \"contracts/conditional statement/Loop.sol\":215:224  uint8 i=1 */\n      swap1\n      pop\n        /* \"contracts/conditional statement/Loop.sol\":211:271  for(uint8 i=1; i<11; i++) {... */\n    tag_7:\n        /* \"contracts/conditional statement/Loop.sol\":228:230  11 */\n      0x0b\n        /* \"contracts/conditional statement/Loop.sol\":226:227  i */\n      dup2\n        /* \"contracts/conditional statement/Loop.sol\":226:230  i<11 */\n      0xff\n      and\n      lt\n        /* \"contracts/conditional statement/Loop.sol\":211:271  for(uint8 i=1; i<11; i++) {... */\n      iszero\n      tag_8\n      jumpi\n        /* \"contracts/conditional statement/Loop.sol\":258:259  1 */\n      0x01\n        /* \"contracts/conditional statement/Loop.sol\":252:259  sum+= 1 */\n      dup3\n      tag_10\n      swap2\n      swap1\n      tag_11\n      jump\t// in\n    tag_10:\n      swap2\n      pop\n        /* \"contracts/conditional statement/Loop.sol\":232:235  i++ */\n      dup1\n      dup1\n      tag_12\n      swap1\n      tag_13\n      jump\t// in\n    tag_12:\n      swap2\n      pop\n      pop\n        /* \"contracts/conditional statement/Loop.sol\":211:271  for(uint8 i=1; i<11; i++) {... */\n      jump(tag_7)\n    tag_8:\n      pop\n        /* \"contracts/conditional statement/Loop.sol\":176:278  {... */\n      pop\n        /* \"contracts/conditional statement/Loop.sol\":150:278  function forLoop() public {... */\n      jump\t// out\n        /* \"#utility.yul\":7:93   */\n    tag_14:\n        /* \"#utility.yul\":42:49   */\n      0x00\n        /* \"#utility.yul\":82:86   */\n      0xff\n        /* \"#utility.yul\":75:80   */\n      dup3\n        /* \"#utility.yul\":71:87   */\n      and\n        /* \"#utility.yul\":60:87   */\n      swap1\n      pop\n        /* \"#utility.yul\":7:93   */\n      swap2\n      swap1\n      pop\n      jump\t// out\n        /* \"#utility.yul\":99:279   */\n    tag_15:\n        /* \"#utility.yul\":147:224   */\n      0x4e487b7100000000000000000000000000000000000000000000000000000000\n        /* \"#utility.yul\":144:145   */\n      0x00\n        /* \"#utility.yul\":137:225   */\n      mstore\n        /* \"#utility.yul\":244:248   */\n      0x11\n        /* \"#utility.yul\":241:242   */\n      0x04\n        /* \"#utility.yul\":234:249   */\n      mstore\n        /* \"#utility.yul\":268:272   */\n      0x24\n        /* \"#utility.yul\":265:266   */\n      0x00\n        /* \"#utility.yul\":258:273   */\n      revert\n        /* \"#utility.yul\":285:473   */\n    tag_11:\n        /* \"#utility.yul\":323:326   */\n      0x00\n        /* \"#utility.yul\":342:360   */\n      tag_20\n        /* \"#utility.yul\":358:359   */\n      dup3\n        /* \"#utility.yul\":342:360   */\n      tag_14\n      jump\t// in\n    tag_20:\n        /* \"#utility.yul\":337:360   */\n      swap2\n      pop\n        /* \"#utility.yul\":374:392   */\n      tag_21\n        /* \"#utility.yul\":390:391   */\n      dup4\n        /* \"#utility.yul\":374:392   */\n      tag_14\n      jump\t// in\n    tag_21:\n        /* \"#utility.yul\":369:392   */\n      swap3\n      pop\n        /* \"#utility.yul\":415:416   */\n      dup3\n        /* \"#utility.yul\":412:413   */\n      dup3\n        /* \"#utility.yul\":408:417   */\n      add\n        /* \"#utility.yul\":401:417   */\n      swap1\n      pop\n        /* \"#utility.yul\":438:442   */\n      0xff\n        /* \"#utility.yul\":433:436   */\n      dup2\n        /* \"#utility.yul\":430:443   */\n      gt\n        /* \"#utility.yul\":427:466   */\n      iszero\n      tag_22\n      jumpi\n        /* \"#utility.yul\":446:464   */\n      tag_23\n      tag_15\n      jump\t// in\n    tag_23:\n        /* \"#utility.yul\":427:466   */\n    tag_22:\n        /* \"#utility.yul\":285:473   */\n      swap3\n      swap2\n      pop\n      pop\n      jump\t// out\n        /* \"#utility.yul\":479:646   */\n    tag_13:\n        /* \"#utility.yul\":516:519   */\n      0x00\n        /* \"#utility.yul\":539:561   */\n      tag_25\n        /* \"#utility.yul\":555:560   */\n      dup3\n        /* \"#utility.yul\":539:561   */\n      tag_14\n      jump\t// in\n    tag_25:\n        /* \"#utility.yul\":530:561   */\n      swap2\n      pop\n        /* \"#utility.yul\":583:587   */\n      0xff\n        /* \"#utility.yul\":576:581   */\n      dup3\n        /* \"#utility.yul\":573:588   */\n      sub\n        /* \"#utility.yul\":570:611   */\n      tag_26\n      jumpi\n        /* \"#utility.yul\":591:609   */\n      tag_27\n      tag_15\n      jump\t// in\n    tag_27:\n        /* \"#utility.yul\":570:611   */\n    tag_26:\n        /* \"#utility.yul\":638:639   */\n      0x01\n        /* \"#utility.yul\":631:636   */\n      dup3\n        /* \"#utility.yul\":627:640   */\n      add\n        /* \"#utility.yul\":620:640   */\n      swap1\n      pop\n        /* \"#utility.yul\":479:646   */\n      swap2\n      swap1\n      pop\n      jump\t// out\n\n    auxdata: 0xa2646970667358221220ca233742568c4e28a315df8d13aa3c8eb9bdfa78104a5ecdbccd0d796332e95264736f6c63430008110033\n}\n",
				"bytecode": {
					"linkReferences": {},
					"object": "608060405234801561001057600080fd5b5061012d806100206000396000f3fe6080604052348015600f57600080fd5b506004361060285760003560e01c8063fc0e600814602d575b600080fd5b60336035565b005b600080600190505b600b8160ff1610156065576001826053919060a5565b91508080605e9060d3565b915050603d565b5050565b600060ff82169050919050565b7f4e487b7100000000000000000000000000000000000000000000000000000000600052601160045260246000fd5b600060ae826069565b915060b7836069565b9250828201905060ff81111560cd5760cc6076565b5b92915050565b600060dc826069565b915060ff820360ec5760eb6076565b5b60018201905091905056fea2646970667358221220ca233742568c4e28a315df8d13aa3c8eb9bdfa78104a5ecdbccd0d796332e95264736f6c63430008110033",
					"opcodes": "PUSH1 0x80 PUSH1 0x40 MSTORE CALLVALUE DUP1 ISZERO PUSH2 0x10 JUMPI PUSH1 0x0 DUP1 REVERT JUMPDEST POP PUSH2 0x12D DUP1 PUSH2 0x20 PUSH1 0x0 CODECOPY PUSH1 0x0 RETURN INVALID PUSH1 0x80 PUSH1 0x40 MSTORE CALLVALUE DUP1 ISZERO PUSH1 0xF JUMPI PUSH1 0x0 DUP1 REVERT JUMPDEST POP PUSH1 0x4 CALLDATASIZE LT PUSH1 0x28 JUMPI PUSH1 0x0 CALLDATALOAD PUSH1 0xE0 SHR DUP1 PUSH4 0xFC0E6008 EQ PUSH1 0x2D JUMPI JUMPDEST PUSH1 0x0 DUP1 REVERT JUMPDEST PUSH1 0x33 PUSH1 0x35 JUMP JUMPDEST STOP JUMPDEST PUSH1 0x0 DUP1 PUSH1 0x1 SWAP1 POP JUMPDEST PUSH1 0xB DUP2 PUSH1 0xFF AND LT ISZERO PUSH1 0x65 JUMPI PUSH1 0x1 DUP3 PUSH1 0x53 SWAP2 SWAP1 PUSH1 0xA5 JUMP JUMPDEST SWAP2 POP DUP1 DUP1 PUSH1 0x5E SWAP1 PUSH1 0xD3 JUMP JUMPDEST SWAP2 POP POP PUSH1 0x3D JUMP JUMPDEST POP POP JUMP JUMPDEST PUSH1 0x0 PUSH1 0xFF DUP3 AND SWAP1 POP SWAP2 SWAP1 POP JUMP JUMPDEST PUSH32 0x4E487B7100000000000000000000000000000000000000000000000000000000 PUSH1 0x0 MSTORE PUSH1 0x11 PUSH1 0x4 MSTORE PUSH1 0x24 PUSH1 0x0 REVERT JUMPDEST PUSH1 0x0 PUSH1 0xAE DUP3 PUSH1 0x69 JUMP JUMPDEST SWAP2 POP PUSH1 0xB7 DUP4 PUSH1 0x69 JUMP JUMPDEST SWAP3 POP DUP3 DUP3 ADD SWAP1 POP PUSH1 0xFF DUP2 GT ISZERO PUSH1 0xCD JUMPI PUSH1 0xCC PUSH1 0x76 JUMP JUMPDEST JUMPDEST SWAP3 SWAP2 POP POP JUMP JUMPDEST PUSH1 0x0 PUSH1 0xDC DUP3 PUSH1 0x69 JUMP JUMPDEST SWAP2 POP PUSH1 0xFF DUP3 SUB PUSH1 0xEC JUMPI PUSH1 0xEB PUSH1 0x76 JUMP JUMPDEST JUMPDEST PUSH1 0x1 DUP3 ADD SWAP1 POP SWAP2 SWAP1 POP JUMP INVALID LOG2 PUSH5 0x6970667358 0x22 SLT KECCAK256 0xCA 0x23 CALLDATACOPY TIMESTAMP JUMP DUP13 0x4E 0x28 LOG3 ISZERO 0xDF DUP14 SGT 0xAA EXTCODECOPY DUP15 0xB9 0xBD STATICCALL PUSH25 0x104A5ECDBCCD0D796332E95264736F6C634300081100330000 "
				},
				"gasEstimates": {
					"creation": {
						"codeDepositCost": "60200",
						"executionCost": "111",
						"totalCost": "60311"
					},
					"external": {
						"forLoop()": "infinite"
					}
				},
				"methodIdentifiers": {
					"forLoop()": "fc0e6008"
				}
			},
			"storageLayout": {
				"storage": [],
				"types": null
			},
			"userdoc": {
				"kind": "user",
				"methods": {},
				"version": 1
			}
		}
	}
}