{
	"contracts/conditional statement/Loop.sol": {
		"Loop": {
			"abi": [
				{
					"inputs": [],
					"name": "dowhileLoop",
					"outputs": [],
					"stateMutability": "nonpayable",
					"type": "function"
				},
				{
					"inputs": [],
					"name": "forLoop",
					"outputs": [],
					"stateMutability": "nonpayable",
					"type": "function"
				},
				{
					"inputs": [],
					"name": "whileLoop",
					"outputs": [],
					"stateMutability": "nonpayable",
					"type": "function"
				}
			],
			"devdoc": {
				"kind": "dev",
				"methods": {},
				"version": 1
			},
			"evm": {
				"assembly": "    /* \"contracts/conditional statement/Loop.sol\":69:647  contract Loop {... */\n  mstore(0x40, 0x80)\n  callvalue\n  dup1\n  iszero\n  tag_1\n  jumpi\n  0x00\n  dup1\n  revert\ntag_1:\n  pop\n  dataSize(sub_0)\n  dup1\n  dataOffset(sub_0)\n  0x00\n  codecopy\n  0x00\n  return\nstop\n\nsub_0: assembly {\n        /* \"contracts/conditional statement/Loop.sol\":69:647  contract Loop {... */\n      mstore(0x40, 0x80)\n      callvalue\n      dup1\n      iszero\n      tag_1\n      jumpi\n      0x00\n      dup1\n      revert\n    tag_1:\n      pop\n      jumpi(tag_2, lt(calldatasize, 0x04))\n      shr(0xe0, calldataload(0x00))\n      dup1\n      0x28eb7ef3\n      eq\n      tag_3\n      jumpi\n      dup1\n      0xe7c898ef\n      eq\n      tag_4\n      jumpi\n      dup1\n      0xfc0e6008\n      eq\n      tag_5\n      jumpi\n    tag_2:\n      0x00\n      dup1\n      revert\n        /* \"contracts/conditional statement/Loop.sol\":484:644  function dowhileLoop() public {... */\n    tag_3:\n      tag_6\n      tag_7\n      jump\t// in\n    tag_6:\n      stop\n        /* \"contracts/conditional statement/Loop.sol\":305:476  function whileLoop() public {... */\n    tag_4:\n      tag_8\n      tag_9\n      jump\t// in\n    tag_8:\n      stop\n        /* \"contracts/conditional statement/Loop.sol\":150:297  function forLoop() public {... */\n    tag_5:\n      tag_10\n      tag_11\n      jump\t// in\n    tag_10:\n      stop\n        /* \"contracts/conditional statement/Loop.sol\":484:644  function dowhileLoop() public {... */\n    tag_7:\n        /* \"contracts/conditional statement/Loop.sol\":525:534  uint8 sum */\n      0x00\n        /* \"contracts/conditional statement/Loop.sol\":548:555  uint8 i */\n      dup1\n        /* \"contracts/conditional statement/Loop.sol\":558:559  1 */\n      0x01\n        /* \"contracts/conditional statement/Loop.sol\":548:559  uint8 i = 1 */\n      swap1\n      pop\n        /* \"contracts/conditional statement/Loop.sol\":570:637  do{... */\n    tag_13:\n        /* \"contracts/conditional statement/Loop.sol\":594:595  1 */\n      0x01\n        /* \"contracts/conditional statement/Loop.sol\":587:595  sum += 1 */\n      dup3\n      tag_16\n      swap2\n      swap1\n      tag_17\n      jump\t// in\n    tag_16:\n      swap2\n      pop\n        /* \"contracts/conditional statement/Loop.sol\":610:613  i++ */\n      dup1\n      dup1\n      tag_18\n      swap1\n      tag_19\n      jump\t// in\n    tag_18:\n      swap2\n      pop\n      pop\n        /* \"contracts/conditional statement/Loop.sol\":633:635  11 */\n      0x0b\n        /* \"contracts/conditional statement/Loop.sol\":631:632  i */\n      dup2\n        /* \"contracts/conditional statement/Loop.sol\":631:635  i<11 */\n      0xff\n      and\n      lt\n        /* \"contracts/conditional statement/Loop.sol\":570:637  do{... */\n      tag_13\n      jumpi\n        /* \"contracts/conditional statement/Loop.sol\":514:644  {... */\n      pop\n      pop\n        /* \"contracts/conditional statement/Loop.sol\":484:644  function dowhileLoop() public {... */\n      jump\t// out\n        /* \"contracts/conditional statement/Loop.sol\":305:476  function whileLoop() public {... */\n    tag_9:\n        /* \"contracts/conditional statement/Loop.sol\":344:353  uint8 sum */\n      0x00\n        /* \"contracts/conditional statement/Loop.sol\":367:374  uint8 i */\n      dup1\n        /* \"contracts/conditional statement/Loop.sol\":377:378  1 */\n      0x01\n        /* \"contracts/conditional statement/Loop.sol\":367:378  uint8 i = 1 */\n      swap1\n      pop\n        /* \"contracts/conditional statement/Loop.sol\":389:469  while(i<11){... */\n    tag_21:\n        /* \"contracts/conditional statement/Loop.sol\":397:399  11 */\n      0x0b\n        /* \"contracts/conditional statement/Loop.sol\":395:396  i */\n      dup2\n        /* \"contracts/conditional statement/Loop.sol\":395:399  i<11 */\n      0xff\n      and\n      lt\n        /* \"contracts/conditional statement/Loop.sol\":389:469  while(i<11){... */\n      iszero\n      tag_22\n      jumpi\n        /* \"contracts/conditional statement/Loop.sol\":420:421  1 */\n      0x01\n        /* \"contracts/conditional statement/Loop.sol\":415:421  sum+=1 */\n      dup3\n      tag_23\n      swap2\n      swap1\n      tag_17\n      jump\t// in\n    tag_23:\n      swap2\n      pop\n        /* \"contracts/conditional statement/Loop.sol\":454:457  i++ */\n      dup1\n      dup1\n      tag_24\n      swap1\n      tag_19\n      jump\t// in\n    tag_24:\n      swap2\n      pop\n      pop\n        /* \"contracts/conditional statement/Loop.sol\":389:469  while(i<11){... */\n      jump(tag_21)\n    tag_22:\n        /* \"contracts/conditional statement/Loop.sol\":333:476  {... */\n      pop\n      pop\n        /* \"contracts/conditional statement/Loop.sol\":305:476  function whileLoop() public {... */\n      jump\t// out\n        /* \"contracts/conditional statement/Loop.sol\":150:297  function forLoop() public {... */\n    tag_11:\n        /* \"contracts/conditional statement/Loop.sol\":187:196  uint8 sum */\n      0x00\n        /* \"contracts/conditional statement/Loop.sol\":215:222  uint8 i */\n      dup1\n        /* \"contracts/conditional statement/Loop.sol\":223:224  1 */\n      0x01\n        /* \"contracts/conditional statement/Loop.sol\":215:224  uint8 i=1 */\n      swap1\n      pop\n        /* \"contracts/conditional statement/Loop.sol\":211:290  for(uint8 i=1; i<11; i++) {... */\n    tag_26:\n        /* \"contracts/conditional statement/Loop.sol\":228:230  11 */\n      0x0b\n        /* \"contracts/conditional statement/Loop.sol\":226:227  i */\n      dup2\n        /* \"contracts/conditional statement/Loop.sol\":226:230  i<11 */\n      0xff\n      and\n      lt\n        /* \"contracts/conditional statement/Loop.sol\":211:290  for(uint8 i=1; i<11; i++) {... */\n      iszero\n      tag_27\n      jumpi\n        /* \"contracts/conditional statement/Loop.sol\":258:259  1 */\n      0x01\n        /* \"contracts/conditional statement/Loop.sol\":252:259  sum+= 1 */\n      dup3\n      tag_29\n      swap2\n      swap1\n      tag_17\n      jump\t// in\n    tag_29:\n      swap2\n      pop\n        /* \"contracts/conditional statement/Loop.sol\":232:235  i++ */\n      dup1\n      dup1\n      tag_30\n      swap1\n      tag_19\n      jump\t// in\n    tag_30:\n      swap2\n      pop\n      pop\n        /* \"contracts/conditional statement/Loop.sol\":211:290  for(uint8 i=1; i<11; i++) {... */\n      jump(tag_26)\n    tag_27:\n      pop\n        /* \"contracts/conditional statement/Loop.sol\":176:297  {... */\n      pop\n        /* \"contracts/conditional statement/Loop.sol\":150:297  function forLoop() public {... */\n      jump\t// out\n        /* \"#utility.yul\":7:93   */\n    tag_31:\n        /* \"#utility.yul\":42:49   */\n      0x00\n        /* \"#utility.yul\":82:86   */\n      0xff\n        /* \"#utility.yul\":75:80   */\n      dup3\n        /* \"#utility.yul\":71:87   */\n      and\n        /* \"#utility.yul\":60:87   */\n      swap1\n      pop\n        /* \"#utility.yul\":7:93   */\n      swap2\n      swap1\n      pop\n      jump\t// out\n        /* \"#utility.yul\":99:279   */\n    tag_32:\n        /* \"#utility.yul\":147:224   */\n      0x4e487b7100000000000000000000000000000000000000000000000000000000\n        /* \"#utility.yul\":144:145   */\n      0x00\n        /* \"#utility.yul\":137:225   */\n      mstore\n        /* \"#utility.yul\":244:248   */\n      0x11\n        /* \"#utility.yul\":241:242   */\n      0x04\n        /* \"#utility.yul\":234:249   */\n      mstore\n        /* \"#utility.yul\":268:272   */\n      0x24\n        /* \"#utility.yul\":265:266   */\n      0x00\n        /* \"#utility.yul\":258:273   */\n      revert\n        /* \"#utility.yul\":285:473   */\n    tag_17:\n        /* \"#utility.yul\":323:326   */\n      0x00\n        /* \"#utility.yul\":342:360   */\n      tag_37\n        /* \"#utility.yul\":358:359   */\n      dup3\n        /* \"#utility.yul\":342:360   */\n      tag_31\n      jump\t// in\n    tag_37:\n        /* \"#utility.yul\":337:360   */\n      swap2\n      pop\n        /* \"#utility.yul\":374:392   */\n      tag_38\n        /* \"#utility.yul\":390:391   */\n      dup4\n        /* \"#utility.yul\":374:392   */\n      tag_31\n      jump\t// in\n    tag_38:\n        /* \"#utility.yul\":369:392   */\n      swap3\n      pop\n        /* \"#utility.yul\":415:416   */\n      dup3\n        /* \"#utility.yul\":412:413   */\n      dup3\n        /* \"#utility.yul\":408:417   */\n      add\n        /* \"#utility.yul\":401:417   */\n      swap1\n      pop\n        /* \"#utility.yul\":438:442   */\n      0xff\n        /* \"#utility.yul\":433:436   */\n      dup2\n        /* \"#utility.yul\":430:443   */\n      gt\n        /* \"#utility.yul\":427:466   */\n      iszero\n      tag_39\n      jumpi\n        /* \"#utility.yul\":446:464   */\n      tag_40\n      tag_32\n      jump\t// in\n    tag_40:\n        /* \"#utility.yul\":427:466   */\n    tag_39:\n        /* \"#utility.yul\":285:473   */\n      swap3\n      swap2\n      pop\n      pop\n      jump\t// out\n        /* \"#utility.yul\":479:646   */\n    tag_19:\n        /* \"#utility.yul\":516:519   */\n      0x00\n        /* \"#utility.yul\":539:561   */\n      tag_42\n        /* \"#utility.yul\":555:560   */\n      dup3\n        /* \"#utility.yul\":539:561   */\n      tag_31\n      jump\t// in\n    tag_42:\n        /* \"#utility.yul\":530:561   */\n      swap2\n      pop\n        /* \"#utility.yul\":583:587   */\n      0xff\n        /* \"#utility.yul\":576:581   */\n      dup3\n        /* \"#utility.yul\":573:588   */\n      sub\n        /* \"#utility.yul\":570:611   */\n      tag_43\n      jumpi\n        /* \"#utility.yul\":591:609   */\n      tag_44\n      tag_32\n      jump\t// in\n    tag_44:\n        /* \"#utility.yul\":570:611   */\n    tag_43:\n        /* \"#utility.yul\":638:639   */\n      0x01\n        /* \"#utility.yul\":631:636   */\n      dup3\n        /* \"#utility.yul\":627:640   */\n      add\n        /* \"#utility.yul\":620:640   */\n      swap1\n      pop\n        /* \"#utility.yul\":479:646   */\n      swap2\n      swap1\n      pop\n      jump\t// out\n\n    auxdata: 0xa2646970667358221220d5fc267a5eba9fa3a58f6c7d2df71840106eebcb757d2c0857c8c42dbab1962e64736f6c63430008110033\n}\n",
				"bytecode": {
					"linkReferences": {},
					"object": "608060405234801561001057600080fd5b506101dc806100206000396000f3fe608060405234801561001057600080fd5b50600436106100415760003560e01c806328eb7ef314610046578063e7c898ef14610050578063fc0e60081461005a575b600080fd5b61004e610064565b005b610058610098565b005b6100626100d2565b005b600080600190505b6001826100799190610148565b915080806100869061017d565b915050600b8160ff161061006c575050565b600080600190505b600b8160ff1610156100ce576001826100b99190610148565b915080806100c69061017d565b9150506100a0565b5050565b600080600190505b600b8160ff161015610108576001826100f39190610148565b915080806101009061017d565b9150506100da565b5050565b600060ff82169050919050565b7f4e487b7100000000000000000000000000000000000000000000000000000000600052601160045260246000fd5b60006101538261010c565b915061015e8361010c565b9250828201905060ff81111561017757610176610119565b5b92915050565b60006101888261010c565b915060ff820361019b5761019a610119565b5b60018201905091905056fea2646970667358221220d5fc267a5eba9fa3a58f6c7d2df71840106eebcb757d2c0857c8c42dbab1962e64736f6c63430008110033",
					"opcodes": "PUSH1 0x80 PUSH1 0x40 MSTORE CALLVALUE DUP1 ISZERO PUSH2 0x10 JUMPI PUSH1 0x0 DUP1 REVERT JUMPDEST POP PUSH2 0x1DC DUP1 PUSH2 0x20 PUSH1 0x0 CODECOPY PUSH1 0x0 RETURN INVALID PUSH1 0x80 PUSH1 0x40 MSTORE CALLVALUE DUP1 ISZERO PUSH2 0x10 JUMPI PUSH1 0x0 DUP1 REVERT JUMPDEST POP PUSH1 0x4 CALLDATASIZE LT PUSH2 0x41 JUMPI PUSH1 0x0 CALLDATALOAD PUSH1 0xE0 SHR DUP1 PUSH4 0x28EB7EF3 EQ PUSH2 0x46 JUMPI DUP1 PUSH4 0xE7C898EF EQ PUSH2 0x50 JUMPI DUP1 PUSH4 0xFC0E6008 EQ PUSH2 0x5A JUMPI JUMPDEST PUSH1 0x0 DUP1 REVERT JUMPDEST PUSH2 0x4E PUSH2 0x64 JUMP JUMPDEST STOP JUMPDEST PUSH2 0x58 PUSH2 0x98 JUMP JUMPDEST STOP JUMPDEST PUSH2 0x62 PUSH2 0xD2 JUMP JUMPDEST STOP JUMPDEST PUSH1 0x0 DUP1 PUSH1 0x1 SWAP1 POP JUMPDEST PUSH1 0x1 DUP3 PUSH2 0x79 SWAP2 SWAP1 PUSH2 0x148 JUMP JUMPDEST SWAP2 POP DUP1 DUP1 PUSH2 0x86 SWAP1 PUSH2 0x17D JUMP JUMPDEST SWAP2 POP POP PUSH1 0xB DUP2 PUSH1 0xFF AND LT PUSH2 0x6C JUMPI POP POP JUMP JUMPDEST PUSH1 0x0 DUP1 PUSH1 0x1 SWAP1 POP JUMPDEST PUSH1 0xB DUP2 PUSH1 0xFF AND LT ISZERO PUSH2 0xCE JUMPI PUSH1 0x1 DUP3 PUSH2 0xB9 SWAP2 SWAP1 PUSH2 0x148 JUMP JUMPDEST SWAP2 POP DUP1 DUP1 PUSH2 0xC6 SWAP1 PUSH2 0x17D JUMP JUMPDEST SWAP2 POP POP PUSH2 0xA0 JUMP JUMPDEST POP POP JUMP JUMPDEST PUSH1 0x0 DUP1 PUSH1 0x1 SWAP1 POP JUMPDEST PUSH1 0xB DUP2 PUSH1 0xFF AND LT ISZERO PUSH2 0x108 JUMPI PUSH1 0x1 DUP3 PUSH2 0xF3 SWAP2 SWAP1 PUSH2 0x148 JUMP JUMPDEST SWAP2 POP DUP1 DUP1 PUSH2 0x100 SWAP1 PUSH2 0x17D JUMP JUMPDEST SWAP2 POP POP PUSH2 0xDA JUMP JUMPDEST POP POP JUMP JUMPDEST PUSH1 0x0 PUSH1 0xFF DUP3 AND SWAP1 POP SWAP2 SWAP1 POP JUMP JUMPDEST PUSH32 0x4E487B7100000000000000000000000000000000000000000000000000000000 PUSH1 0x0 MSTORE PUSH1 0x11 PUSH1 0x4 MSTORE PUSH1 0x24 PUSH1 0x0 REVERT JUMPDEST PUSH1 0x0 PUSH2 0x153 DUP3 PUSH2 0x10C JUMP JUMPDEST SWAP2 POP PUSH2 0x15E DUP4 PUSH2 0x10C JUMP JUMPDEST SWAP3 POP DUP3 DUP3 ADD SWAP1 POP PUSH1 0xFF DUP2 GT ISZERO PUSH2 0x177 JUMPI PUSH2 0x176 PUSH2 0x119 JUMP JUMPDEST JUMPDEST SWAP3 SWAP2 POP POP JUMP JUMPDEST PUSH1 0x0 PUSH2 0x188 DUP3 PUSH2 0x10C JUMP JUMPDEST SWAP2 POP PUSH1 0xFF DUP3 SUB PUSH2 0x19B JUMPI PUSH2 0x19A PUSH2 0x119 JUMP JUMPDEST JUMPDEST PUSH1 0x1 DUP3 ADD SWAP1 POP SWAP2 SWAP1 POP JUMP INVALID LOG2 PUSH5 0x6970667358 0x22 SLT KECCAK256 0xD5 0xFC 0x26 PUSH27 0x5EBA9FA3A58F6C7D2DF71840106EEBCB757D2C0857C8C42DBAB196 0x2E PUSH5 0x736F6C6343 STOP ADDMOD GT STOP CALLER "
				},
				"gasEstimates": {
					"creation": {
						"codeDepositCost": "95200",
						"executionCost": "141",
						"totalCost": "95341"
					},
					"external": {
						"dowhileLoop()": "infinite",
						"forLoop()": "infinite",
						"whileLoop()": "infinite"
					}
				},
				"methodIdentifiers": {
					"dowhileLoop()": "28eb7ef3",
					"forLoop()": "fc0e6008",
					"whileLoop()": "e7c898ef"
				}
			},
			"storageLayout": {
				"storage": [],
				"types": null
			},
			"userdoc": {
				"kind": "user",
				"methods": {},
				"version": 1
			}
		}
	}
}