{
	"contracts/conditional statement/BlockProperty2.sol": {
		"BlockPropertyNew": {
			"abi": [
				{
					"inputs": [],
					"name": "generateRandom",
					"outputs": [
						{
							"internalType": "uint8",
							"name": "",
							"type": "uint8"
						}
					],
					"stateMutability": "view",
					"type": "function"
				}
			],
			"devdoc": {
				"kind": "dev",
				"methods": {},
				"version": 1
			},
			"evm": {
				"assembly": "    /* \"contracts/conditional statement/BlockProperty2.sol\":69:395  contract BlockPropertyNew {... */\n  mstore(0x40, 0x80)\n  callvalue\n  dup1\n  iszero\n  tag_1\n  jumpi\n  0x00\n  dup1\n  revert\ntag_1:\n  pop\n  dataSize(sub_0)\n  dup1\n  dataOffset(sub_0)\n  0x00\n  codecopy\n  0x00\n  return\nstop\n\nsub_0: assembly {\n        /* \"contracts/conditional statement/BlockProperty2.sol\":69:395  contract BlockPropertyNew {... */\n      mstore(0x40, 0x80)\n      callvalue\n      dup1\n      iszero\n      tag_1\n      jumpi\n      0x00\n      dup1\n      revert\n    tag_1:\n      pop\n      jumpi(tag_2, lt(calldatasize, 0x04))\n      shr(0xe0, calldataload(0x00))\n      dup1\n      0x02e4af01\n      eq\n      tag_3\n      jumpi\n    tag_2:\n      0x00\n      dup1\n      revert\n        /* \"contracts/conditional statement/BlockProperty2.sol\":116:392  function generateRandom() public view returns(uint8) {... */\n    tag_3:\n      tag_4\n      tag_5\n      jump\t// in\n    tag_4:\n      mload(0x40)\n      tag_6\n      swap2\n      swap1\n      tag_7\n      jump\t// in\n    tag_6:\n      mload(0x40)\n      dup1\n      swap2\n      sub\n      swap1\n      return\n    tag_5:\n        /* \"contracts/conditional statement/BlockProperty2.sol\":162:167  uint8 */\n      0x00\n        /* \"contracts/conditional statement/BlockProperty2.sol\":184:196  uint8 number */\n      dup1\n        /* \"contracts/conditional statement/BlockProperty2.sol\":277:280  251 */\n      0xfb\n        /* \"contracts/conditional statement/BlockProperty2.sol\":240:255  block.timestamp */\n      timestamp\n        /* \"contracts/conditional statement/BlockProperty2.sol\":257:273  block.difficulty */\n      difficulty\n        /* \"contracts/conditional statement/BlockProperty2.sol\":223:274  abi.encodePacked(block.timestamp, block.difficulty) */\n      add(0x20, mload(0x40))\n      tag_9\n      swap3\n      swap2\n      swap1\n      tag_10\n      jump\t// in\n    tag_9:\n      mload(0x40)\n      0x20\n      dup2\n      dup4\n      sub\n      sub\n      dup2\n      mstore\n      swap1\n      0x40\n      mstore\n        /* \"contracts/conditional statement/BlockProperty2.sol\":213:275  keccak256(abi.encodePacked(block.timestamp, block.difficulty)) */\n      dup1\n      mload\n      swap1\n      0x20\n      add\n      keccak256\n        /* \"contracts/conditional statement/BlockProperty2.sol\":205:276  uint256(keccak256(abi.encodePacked(block.timestamp, block.difficulty))) */\n      0x00\n      shr\n        /* \"contracts/conditional statement/BlockProperty2.sol\":205:280  uint256(keccak256(abi.encodePacked(block.timestamp, block.difficulty)))%251 */\n      tag_11\n      swap2\n      swap1\n      tag_12\n      jump\t// in\n    tag_11:\n        /* \"contracts/conditional statement/BlockProperty2.sol\":184:281  uint8 number = uint8(uint256(keccak256(abi.encodePacked(block.timestamp, block.difficulty)))%251) */\n      swap1\n      pop\n        /* \"contracts/conditional statement/BlockProperty2.sol\":374:380  number */\n      dup1\n        /* \"contracts/conditional statement/BlockProperty2.sol\":367:380  return number */\n      swap2\n      pop\n      pop\n        /* \"contracts/conditional statement/BlockProperty2.sol\":116:392  function generateRandom() public view returns(uint8) {... */\n      swap1\n      jump\t// out\n        /* \"#utility.yul\":7:93   */\n    tag_13:\n        /* \"#utility.yul\":42:49   */\n      0x00\n        /* \"#utility.yul\":82:86   */\n      0xff\n        /* \"#utility.yul\":75:80   */\n      dup3\n        /* \"#utility.yul\":71:87   */\n      and\n        /* \"#utility.yul\":60:87   */\n      swap1\n      pop\n        /* \"#utility.yul\":7:93   */\n      swap2\n      swap1\n      pop\n      jump\t// out\n        /* \"#utility.yul\":99:211   */\n    tag_14:\n        /* \"#utility.yul\":182:204   */\n      tag_22\n        /* \"#utility.yul\":198:203   */\n      dup2\n        /* \"#utility.yul\":182:204   */\n      tag_13\n      jump\t// in\n    tag_22:\n        /* \"#utility.yul\":177:180   */\n      dup3\n        /* \"#utility.yul\":170:205   */\n      mstore\n        /* \"#utility.yul\":99:211   */\n      pop\n      pop\n      jump\t// out\n        /* \"#utility.yul\":217:431   */\n    tag_7:\n        /* \"#utility.yul\":306:310   */\n      0x00\n        /* \"#utility.yul\":344:346   */\n      0x20\n        /* \"#utility.yul\":333:342   */\n      dup3\n        /* \"#utility.yul\":329:347   */\n      add\n        /* \"#utility.yul\":321:347   */\n      swap1\n      pop\n        /* \"#utility.yul\":357:424   */\n      tag_24\n        /* \"#utility.yul\":421:422   */\n      0x00\n        /* \"#utility.yul\":410:419   */\n      dup4\n        /* \"#utility.yul\":406:423   */\n      add\n        /* \"#utility.yul\":397:403   */\n      dup5\n        /* \"#utility.yul\":357:424   */\n      tag_14\n      jump\t// in\n    tag_24:\n        /* \"#utility.yul\":217:431   */\n      swap3\n      swap2\n      pop\n      pop\n      jump\t// out\n        /* \"#utility.yul\":437:514   */\n    tag_15:\n        /* \"#utility.yul\":474:481   */\n      0x00\n        /* \"#utility.yul\":503:508   */\n      dup2\n        /* \"#utility.yul\":492:508   */\n      swap1\n      pop\n        /* \"#utility.yul\":437:514   */\n      swap2\n      swap1\n      pop\n      jump\t// out\n        /* \"#utility.yul\":520:599   */\n    tag_16:\n        /* \"#utility.yul\":559:566   */\n      0x00\n        /* \"#utility.yul\":588:593   */\n      dup2\n        /* \"#utility.yul\":577:593   */\n      swap1\n      pop\n        /* \"#utility.yul\":520:599   */\n      swap2\n      swap1\n      pop\n      jump\t// out\n        /* \"#utility.yul\":605:762   */\n    tag_17:\n        /* \"#utility.yul\":710:755   */\n      tag_28\n        /* \"#utility.yul\":730:754   */\n      tag_29\n        /* \"#utility.yul\":748:753   */\n      dup3\n        /* \"#utility.yul\":730:754   */\n      tag_15\n      jump\t// in\n    tag_29:\n        /* \"#utility.yul\":710:755   */\n      tag_16\n      jump\t// in\n    tag_28:\n        /* \"#utility.yul\":705:708   */\n      dup3\n        /* \"#utility.yul\":698:756   */\n      mstore\n        /* \"#utility.yul\":605:762   */\n      pop\n      pop\n      jump\t// out\n        /* \"#utility.yul\":768:1165   */\n    tag_10:\n        /* \"#utility.yul\":908:911   */\n      0x00\n        /* \"#utility.yul\":923:998   */\n      tag_31\n        /* \"#utility.yul\":994:997   */\n      dup3\n        /* \"#utility.yul\":985:991   */\n      dup6\n        /* \"#utility.yul\":923:998   */\n      tag_17\n      jump\t// in\n    tag_31:\n        /* \"#utility.yul\":1023:1025   */\n      0x20\n        /* \"#utility.yul\":1018:1021   */\n      dup3\n        /* \"#utility.yul\":1014:1026   */\n      add\n        /* \"#utility.yul\":1007:1026   */\n      swap2\n      pop\n        /* \"#utility.yul\":1036:1111   */\n      tag_32\n        /* \"#utility.yul\":1107:1110   */\n      dup3\n        /* \"#utility.yul\":1098:1104   */\n      dup5\n        /* \"#utility.yul\":1036:1111   */\n      tag_17\n      jump\t// in\n    tag_32:\n        /* \"#utility.yul\":1136:1138   */\n      0x20\n        /* \"#utility.yul\":1131:1134   */\n      dup3\n        /* \"#utility.yul\":1127:1139   */\n      add\n        /* \"#utility.yul\":1120:1139   */\n      swap2\n      pop\n        /* \"#utility.yul\":1156:1159   */\n      dup2\n        /* \"#utility.yul\":1149:1159   */\n      swap1\n      pop\n        /* \"#utility.yul\":768:1165   */\n      swap4\n      swap3\n      pop\n      pop\n      pop\n      jump\t// out\n        /* \"#utility.yul\":1171:1351   */\n    tag_18:\n        /* \"#utility.yul\":1219:1296   */\n      0x4e487b7100000000000000000000000000000000000000000000000000000000\n        /* \"#utility.yul\":1216:1217   */\n      0x00\n        /* \"#utility.yul\":1209:1297   */\n      mstore\n        /* \"#utility.yul\":1316:1320   */\n      0x12\n        /* \"#utility.yul\":1313:1314   */\n      0x04\n        /* \"#utility.yul\":1306:1321   */\n      mstore\n        /* \"#utility.yul\":1340:1344   */\n      0x24\n        /* \"#utility.yul\":1337:1338   */\n      0x00\n        /* \"#utility.yul\":1330:1345   */\n      revert\n        /* \"#utility.yul\":1357:1533   */\n    tag_12:\n        /* \"#utility.yul\":1389:1390   */\n      0x00\n        /* \"#utility.yul\":1406:1426   */\n      tag_35\n        /* \"#utility.yul\":1424:1425   */\n      dup3\n        /* \"#utility.yul\":1406:1426   */\n      tag_15\n      jump\t// in\n    tag_35:\n        /* \"#utility.yul\":1401:1426   */\n      swap2\n      pop\n        /* \"#utility.yul\":1440:1460   */\n      tag_36\n        /* \"#utility.yul\":1458:1459   */\n      dup4\n        /* \"#utility.yul\":1440:1460   */\n      tag_15\n      jump\t// in\n    tag_36:\n        /* \"#utility.yul\":1435:1460   */\n      swap3\n      pop\n        /* \"#utility.yul\":1479:1480   */\n      dup3\n        /* \"#utility.yul\":1469:1504   */\n      tag_37\n      jumpi\n        /* \"#utility.yul\":1484:1502   */\n      tag_38\n      tag_18\n      jump\t// in\n    tag_38:\n        /* \"#utility.yul\":1469:1504   */\n    tag_37:\n        /* \"#utility.yul\":1525:1526   */\n      dup3\n        /* \"#utility.yul\":1522:1523   */\n      dup3\n        /* \"#utility.yul\":1518:1527   */\n      mod\n        /* \"#utility.yul\":1513:1527   */\n      swap1\n      pop\n        /* \"#utility.yul\":1357:1533   */\n      swap3\n      swap2\n      pop\n      pop\n      jump\t// out\n\n    auxdata: 0xa2646970667358221220051f92e7ad51f57fa703f0e284b9da06b6787d72ab64dcfc82c9434459589bac64736f6c63430008110033\n}\n",
				"bytecode": {
					"linkReferences": {},
					"object": "608060405234801561001057600080fd5b506101b6806100206000396000f3fe608060405234801561001057600080fd5b506004361061002b5760003560e01c806302e4af0114610030575b600080fd5b61003861004e565b60405161004591906100ae565b60405180910390f35b60008060fb42446040516020016100669291906100f4565b6040516020818303038152906040528051906020012060001c610089919061014f565b90508091505090565b600060ff82169050919050565b6100a881610092565b82525050565b60006020820190506100c3600083018461009f565b92915050565b6000819050919050565b6000819050919050565b6100ee6100e9826100c9565b6100d3565b82525050565b600061010082856100dd565b60208201915061011082846100dd565b6020820191508190509392505050565b7f4e487b7100000000000000000000000000000000000000000000000000000000600052601260045260246000fd5b600061015a826100c9565b9150610165836100c9565b92508261017557610174610120565b5b82820690509291505056fea2646970667358221220051f92e7ad51f57fa703f0e284b9da06b6787d72ab64dcfc82c9434459589bac64736f6c63430008110033",
					"opcodes": "PUSH1 0x80 PUSH1 0x40 MSTORE CALLVALUE DUP1 ISZERO PUSH2 0x10 JUMPI PUSH1 0x0 DUP1 REVERT JUMPDEST POP PUSH2 0x1B6 DUP1 PUSH2 0x20 PUSH1 0x0 CODECOPY PUSH1 0x0 RETURN INVALID PUSH1 0x80 PUSH1 0x40 MSTORE CALLVALUE DUP1 ISZERO PUSH2 0x10 JUMPI PUSH1 0x0 DUP1 REVERT JUMPDEST POP PUSH1 0x4 CALLDATASIZE LT PUSH2 0x2B JUMPI PUSH1 0x0 CALLDATALOAD PUSH1 0xE0 SHR DUP1 PUSH4 0x2E4AF01 EQ PUSH2 0x30 JUMPI JUMPDEST PUSH1 0x0 DUP1 REVERT JUMPDEST PUSH2 0x38 PUSH2 0x4E JUMP JUMPDEST PUSH1 0x40 MLOAD PUSH2 0x45 SWAP2 SWAP1 PUSH2 0xAE JUMP JUMPDEST PUSH1 0x40 MLOAD DUP1 SWAP2 SUB SWAP1 RETURN JUMPDEST PUSH1 0x0 DUP1 PUSH1 0xFB TIMESTAMP DIFFICULTY PUSH1 0x40 MLOAD PUSH1 0x20 ADD PUSH2 0x66 SWAP3 SWAP2 SWAP1 PUSH2 0xF4 JUMP JUMPDEST PUSH1 0x40 MLOAD PUSH1 0x20 DUP2 DUP4 SUB SUB DUP2 MSTORE SWAP1 PUSH1 0x40 MSTORE DUP1 MLOAD SWAP1 PUSH1 0x20 ADD KECCAK256 PUSH1 0x0 SHR PUSH2 0x89 SWAP2 SWAP1 PUSH2 0x14F JUMP JUMPDEST SWAP1 POP DUP1 SWAP2 POP POP SWAP1 JUMP JUMPDEST PUSH1 0x0 PUSH1 0xFF DUP3 AND SWAP1 POP SWAP2 SWAP1 POP JUMP JUMPDEST PUSH2 0xA8 DUP2 PUSH2 0x92 JUMP JUMPDEST DUP3 MSTORE POP POP JUMP JUMPDEST PUSH1 0x0 PUSH1 0x20 DUP3 ADD SWAP1 POP PUSH2 0xC3 PUSH1 0x0 DUP4 ADD DUP5 PUSH2 0x9F JUMP JUMPDEST SWAP3 SWAP2 POP POP JUMP JUMPDEST PUSH1 0x0 DUP2 SWAP1 POP SWAP2 SWAP1 POP JUMP JUMPDEST PUSH1 0x0 DUP2 SWAP1 POP SWAP2 SWAP1 POP JUMP JUMPDEST PUSH2 0xEE PUSH2 0xE9 DUP3 PUSH2 0xC9 JUMP JUMPDEST PUSH2 0xD3 JUMP JUMPDEST DUP3 MSTORE POP POP JUMP JUMPDEST PUSH1 0x0 PUSH2 0x100 DUP3 DUP6 PUSH2 0xDD JUMP JUMPDEST PUSH1 0x20 DUP3 ADD SWAP2 POP PUSH2 0x110 DUP3 DUP5 PUSH2 0xDD JUMP JUMPDEST PUSH1 0x20 DUP3 ADD SWAP2 POP DUP2 SWAP1 POP SWAP4 SWAP3 POP POP POP JUMP JUMPDEST PUSH32 0x4E487B7100000000000000000000000000000000000000000000000000000000 PUSH1 0x0 MSTORE PUSH1 0x12 PUSH1 0x4 MSTORE PUSH1 0x24 PUSH1 0x0 REVERT JUMPDEST PUSH1 0x0 PUSH2 0x15A DUP3 PUSH2 0xC9 JUMP JUMPDEST SWAP2 POP PUSH2 0x165 DUP4 PUSH2 0xC9 JUMP JUMPDEST SWAP3 POP DUP3 PUSH2 0x175 JUMPI PUSH2 0x174 PUSH2 0x120 JUMP JUMPDEST JUMPDEST DUP3 DUP3 MOD SWAP1 POP SWAP3 SWAP2 POP POP JUMP INVALID LOG2 PUSH5 0x6970667358 0x22 SLT KECCAK256 SDIV 0x1F SWAP3 0xE7 0xAD MLOAD CREATE2 PUSH32 0xA703F0E284B9DA06B6787D72AB64DCFC82C9434459589BAC64736F6C63430008 GT STOP CALLER "
				},
				"gasEstimates": {
					"creation": {
						"codeDepositCost": "87600",
						"executionCost": "135",
						"totalCost": "87735"
					},
					"external": {
						"generateRandom()": "infinite"
					}
				},
				"methodIdentifiers": {
					"generateRandom()": "02e4af01"
				}
			},
			"storageLayout": {
				"storage": [],
				"types": null
			},
			"userdoc": {
				"kind": "user",
				"methods": {},
				"version": 1
			}
		}
	}
}