{
	"contracts/conditional statement/Loop.sol": {
		"Loop": {
			"abi": [
				{
					"inputs": [],
					"name": "forLoop",
					"outputs": [],
					"stateMutability": "nonpayable",
					"type": "function"
				},
				{
					"inputs": [],
					"name": "whileLoop",
					"outputs": [],
					"stateMutability": "nonpayable",
					"type": "function"
				}
			],
			"devdoc": {
				"kind": "dev",
				"methods": {},
				"version": 1
			},
			"evm": {
				"assembly": "    /* \"contracts/conditional statement/Loop.sol\":69:487  contract Loop {... */\n  mstore(0x40, 0x80)\n  callvalue\n  dup1\n  iszero\n  tag_1\n  jumpi\n  0x00\n  dup1\n  revert\ntag_1:\n  pop\n  dataSize(sub_0)\n  dup1\n  dataOffset(sub_0)\n  0x00\n  codecopy\n  0x00\n  return\nstop\n\nsub_0: assembly {\n        /* \"contracts/conditional statement/Loop.sol\":69:487  contract Loop {... */\n      mstore(0x40, 0x80)\n      callvalue\n      dup1\n      iszero\n      tag_1\n      jumpi\n      0x00\n      dup1\n      revert\n    tag_1:\n      pop\n      jumpi(tag_2, lt(calldatasize, 0x04))\n      shr(0xe0, calldataload(0x00))\n      dup1\n      0xe7c898ef\n      eq\n      tag_3\n      jumpi\n      dup1\n      0xfc0e6008\n      eq\n      tag_4\n      jumpi\n    tag_2:\n      0x00\n      dup1\n      revert\n        /* \"contracts/conditional statement/Loop.sol\":305:476  function whileLoop() public {... */\n    tag_3:\n      tag_5\n      tag_6\n      jump\t// in\n    tag_5:\n      stop\n        /* \"contracts/conditional statement/Loop.sol\":150:297  function forLoop() public {... */\n    tag_4:\n      tag_7\n      tag_8\n      jump\t// in\n    tag_7:\n      stop\n        /* \"contracts/conditional statement/Loop.sol\":305:476  function whileLoop() public {... */\n    tag_6:\n        /* \"contracts/conditional statement/Loop.sol\":344:353  uint8 sum */\n      0x00\n        /* \"contracts/conditional statement/Loop.sol\":367:374  uint8 i */\n      dup1\n        /* \"contracts/conditional statement/Loop.sol\":377:378  1 */\n      0x01\n        /* \"contracts/conditional statement/Loop.sol\":367:378  uint8 i = 1 */\n      swap1\n      pop\n        /* \"contracts/conditional statement/Loop.sol\":389:469  while(i<11){... */\n    tag_10:\n        /* \"contracts/conditional statement/Loop.sol\":397:399  11 */\n      0x0b\n        /* \"contracts/conditional statement/Loop.sol\":395:396  i */\n      dup2\n        /* \"contracts/conditional statement/Loop.sol\":395:399  i<11 */\n      0xff\n      and\n      lt\n        /* \"contracts/conditional statement/Loop.sol\":389:469  while(i<11){... */\n      iszero\n      tag_11\n      jumpi\n        /* \"contracts/conditional statement/Loop.sol\":420:421  1 */\n      0x01\n        /* \"contracts/conditional statement/Loop.sol\":415:421  sum+=1 */\n      dup3\n      tag_12\n      swap2\n      swap1\n      tag_13\n      jump\t// in\n    tag_12:\n      swap2\n      pop\n        /* \"contracts/conditional statement/Loop.sol\":454:457  i++ */\n      dup1\n      dup1\n      tag_14\n      swap1\n      tag_15\n      jump\t// in\n    tag_14:\n      swap2\n      pop\n      pop\n        /* \"contracts/conditional statement/Loop.sol\":389:469  while(i<11){... */\n      jump(tag_10)\n    tag_11:\n        /* \"contracts/conditional statement/Loop.sol\":333:476  {... */\n      pop\n      pop\n        /* \"contracts/conditional statement/Loop.sol\":305:476  function whileLoop() public {... */\n      jump\t// out\n        /* \"contracts/conditional statement/Loop.sol\":150:297  function forLoop() public {... */\n    tag_8:\n        /* \"contracts/conditional statement/Loop.sol\":187:196  uint8 sum */\n      0x00\n        /* \"contracts/conditional statement/Loop.sol\":215:222  uint8 i */\n      dup1\n        /* \"contracts/conditional statement/Loop.sol\":223:224  1 */\n      0x01\n        /* \"contracts/conditional statement/Loop.sol\":215:224  uint8 i=1 */\n      swap1\n      pop\n        /* \"contracts/conditional statement/Loop.sol\":211:290  for(uint8 i=1; i<11; i++) {... */\n    tag_17:\n        /* \"contracts/conditional statement/Loop.sol\":228:230  11 */\n      0x0b\n        /* \"contracts/conditional statement/Loop.sol\":226:227  i */\n      dup2\n        /* \"contracts/conditional statement/Loop.sol\":226:230  i<11 */\n      0xff\n      and\n      lt\n        /* \"contracts/conditional statement/Loop.sol\":211:290  for(uint8 i=1; i<11; i++) {... */\n      iszero\n      tag_18\n      jumpi\n        /* \"contracts/conditional statement/Loop.sol\":258:259  1 */\n      0x01\n        /* \"contracts/conditional statement/Loop.sol\":252:259  sum+= 1 */\n      dup3\n      tag_20\n      swap2\n      swap1\n      tag_13\n      jump\t// in\n    tag_20:\n      swap2\n      pop\n        /* \"contracts/conditional statement/Loop.sol\":232:235  i++ */\n      dup1\n      dup1\n      tag_21\n      swap1\n      tag_15\n      jump\t// in\n    tag_21:\n      swap2\n      pop\n      pop\n        /* \"contracts/conditional statement/Loop.sol\":211:290  for(uint8 i=1; i<11; i++) {... */\n      jump(tag_17)\n    tag_18:\n      pop\n        /* \"contracts/conditional statement/Loop.sol\":176:297  {... */\n      pop\n        /* \"contracts/conditional statement/Loop.sol\":150:297  function forLoop() public {... */\n      jump\t// out\n        /* \"#utility.yul\":7:93   */\n    tag_22:\n        /* \"#utility.yul\":42:49   */\n      0x00\n        /* \"#utility.yul\":82:86   */\n      0xff\n        /* \"#utility.yul\":75:80   */\n      dup3\n        /* \"#utility.yul\":71:87   */\n      and\n        /* \"#utility.yul\":60:87   */\n      swap1\n      pop\n        /* \"#utility.yul\":7:93   */\n      swap2\n      swap1\n      pop\n      jump\t// out\n        /* \"#utility.yul\":99:279   */\n    tag_23:\n        /* \"#utility.yul\":147:224   */\n      0x4e487b7100000000000000000000000000000000000000000000000000000000\n        /* \"#utility.yul\":144:145   */\n      0x00\n        /* \"#utility.yul\":137:225   */\n      mstore\n        /* \"#utility.yul\":244:248   */\n      0x11\n        /* \"#utility.yul\":241:242   */\n      0x04\n        /* \"#utility.yul\":234:249   */\n      mstore\n        /* \"#utility.yul\":268:272   */\n      0x24\n        /* \"#utility.yul\":265:266   */\n      0x00\n        /* \"#utility.yul\":258:273   */\n      revert\n        /* \"#utility.yul\":285:473   */\n    tag_13:\n        /* \"#utility.yul\":323:326   */\n      0x00\n        /* \"#utility.yul\":342:360   */\n      tag_28\n        /* \"#utility.yul\":358:359   */\n      dup3\n        /* \"#utility.yul\":342:360   */\n      tag_22\n      jump\t// in\n    tag_28:\n        /* \"#utility.yul\":337:360   */\n      swap2\n      pop\n        /* \"#utility.yul\":374:392   */\n      tag_29\n        /* \"#utility.yul\":390:391   */\n      dup4\n        /* \"#utility.yul\":374:392   */\n      tag_22\n      jump\t// in\n    tag_29:\n        /* \"#utility.yul\":369:392   */\n      swap3\n      pop\n        /* \"#utility.yul\":415:416   */\n      dup3\n        /* \"#utility.yul\":412:413   */\n      dup3\n        /* \"#utility.yul\":408:417   */\n      add\n        /* \"#utility.yul\":401:417   */\n      swap1\n      pop\n        /* \"#utility.yul\":438:442   */\n      0xff\n        /* \"#utility.yul\":433:436   */\n      dup2\n        /* \"#utility.yul\":430:443   */\n      gt\n        /* \"#utility.yul\":427:466   */\n      iszero\n      tag_30\n      jumpi\n        /* \"#utility.yul\":446:464   */\n      tag_31\n      tag_23\n      jump\t// in\n    tag_31:\n        /* \"#utility.yul\":427:466   */\n    tag_30:\n        /* \"#utility.yul\":285:473   */\n      swap3\n      swap2\n      pop\n      pop\n      jump\t// out\n        /* \"#utility.yul\":479:646   */\n    tag_15:\n        /* \"#utility.yul\":516:519   */\n      0x00\n        /* \"#utility.yul\":539:561   */\n      tag_33\n        /* \"#utility.yul\":555:560   */\n      dup3\n        /* \"#utility.yul\":539:561   */\n      tag_22\n      jump\t// in\n    tag_33:\n        /* \"#utility.yul\":530:561   */\n      swap2\n      pop\n        /* \"#utility.yul\":583:587   */\n      0xff\n        /* \"#utility.yul\":576:581   */\n      dup3\n        /* \"#utility.yul\":573:588   */\n      sub\n        /* \"#utility.yul\":570:611   */\n      tag_34\n      jumpi\n        /* \"#utility.yul\":591:609   */\n      tag_35\n      tag_23\n      jump\t// in\n    tag_35:\n        /* \"#utility.yul\":570:611   */\n    tag_34:\n        /* \"#utility.yul\":638:639   */\n      0x01\n        /* \"#utility.yul\":631:636   */\n      dup3\n        /* \"#utility.yul\":627:640   */\n      add\n        /* \"#utility.yul\":620:640   */\n      swap1\n      pop\n        /* \"#utility.yul\":479:646   */\n      swap2\n      swap1\n      pop\n      jump\t// out\n\n    auxdata: 0xa2646970667358221220b6c263cd4043df64827a8c08a919803786a47f4f3a43791faa165f9f26475e7b64736f6c63430008110033\n}\n",
				"bytecode": {
					"linkReferences": {},
					"object": "608060405234801561001057600080fd5b50610193806100206000396000f3fe608060405234801561001057600080fd5b50600436106100365760003560e01c8063e7c898ef1461003b578063fc0e600814610045575b600080fd5b61004361004f565b005b61004d610089565b005b600080600190505b600b8160ff1610156100855760018261007091906100ff565b9150808061007d90610134565b915050610057565b5050565b600080600190505b600b8160ff1610156100bf576001826100aa91906100ff565b915080806100b790610134565b915050610091565b5050565b600060ff82169050919050565b7f4e487b7100000000000000000000000000000000000000000000000000000000600052601160045260246000fd5b600061010a826100c3565b9150610115836100c3565b9250828201905060ff81111561012e5761012d6100d0565b5b92915050565b600061013f826100c3565b915060ff8203610152576101516100d0565b5b60018201905091905056fea2646970667358221220b6c263cd4043df64827a8c08a919803786a47f4f3a43791faa165f9f26475e7b64736f6c63430008110033",
					"opcodes": "PUSH1 0x80 PUSH1 0x40 MSTORE CALLVALUE DUP1 ISZERO PUSH2 0x10 JUMPI PUSH1 0x0 DUP1 REVERT JUMPDEST POP PUSH2 0x193 DUP1 PUSH2 0x20 PUSH1 0x0 CODECOPY PUSH1 0x0 RETURN INVALID PUSH1 0x80 PUSH1 0x40 MSTORE CALLVALUE DUP1 ISZERO PUSH2 0x10 JUMPI PUSH1 0x0 DUP1 REVERT JUMPDEST POP PUSH1 0x4 CALLDATASIZE LT PUSH2 0x36 JUMPI PUSH1 0x0 CALLDATALOAD PUSH1 0xE0 SHR DUP1 PUSH4 0xE7C898EF EQ PUSH2 0x3B JUMPI DUP1 PUSH4 0xFC0E6008 EQ PUSH2 0x45 JUMPI JUMPDEST PUSH1 0x0 DUP1 REVERT JUMPDEST PUSH2 0x43 PUSH2 0x4F JUMP JUMPDEST STOP JUMPDEST PUSH2 0x4D PUSH2 0x89 JUMP JUMPDEST STOP JUMPDEST PUSH1 0x0 DUP1 PUSH1 0x1 SWAP1 POP JUMPDEST PUSH1 0xB DUP2 PUSH1 0xFF AND LT ISZERO PUSH2 0x85 JUMPI PUSH1 0x1 DUP3 PUSH2 0x70 SWAP2 SWAP1 PUSH2 0xFF JUMP JUMPDEST SWAP2 POP DUP1 DUP1 PUSH2 0x7D SWAP1 PUSH2 0x134 JUMP JUMPDEST SWAP2 POP POP PUSH2 0x57 JUMP JUMPDEST POP POP JUMP JUMPDEST PUSH1 0x0 DUP1 PUSH1 0x1 SWAP1 POP JUMPDEST PUSH1 0xB DUP2 PUSH1 0xFF AND LT ISZERO PUSH2 0xBF JUMPI PUSH1 0x1 DUP3 PUSH2 0xAA SWAP2 SWAP1 PUSH2 0xFF JUMP JUMPDEST SWAP2 POP DUP1 DUP1 PUSH2 0xB7 SWAP1 PUSH2 0x134 JUMP JUMPDEST SWAP2 POP POP PUSH2 0x91 JUMP JUMPDEST POP POP JUMP JUMPDEST PUSH1 0x0 PUSH1 0xFF DUP3 AND SWAP1 POP SWAP2 SWAP1 POP JUMP JUMPDEST PUSH32 0x4E487B7100000000000000000000000000000000000000000000000000000000 PUSH1 0x0 MSTORE PUSH1 0x11 PUSH1 0x4 MSTORE PUSH1 0x24 PUSH1 0x0 REVERT JUMPDEST PUSH1 0x0 PUSH2 0x10A DUP3 PUSH2 0xC3 JUMP JUMPDEST SWAP2 POP PUSH2 0x115 DUP4 PUSH2 0xC3 JUMP JUMPDEST SWAP3 POP DUP3 DUP3 ADD SWAP1 POP PUSH1 0xFF DUP2 GT ISZERO PUSH2 0x12E JUMPI PUSH2 0x12D PUSH2 0xD0 JUMP JUMPDEST JUMPDEST SWAP3 SWAP2 POP POP JUMP JUMPDEST PUSH1 0x0 PUSH2 0x13F DUP3 PUSH2 0xC3 JUMP JUMPDEST SWAP2 POP PUSH1 0xFF DUP3 SUB PUSH2 0x152 JUMPI PUSH2 0x151 PUSH2 0xD0 JUMP JUMPDEST JUMPDEST PUSH1 0x1 DUP3 ADD SWAP1 POP SWAP2 SWAP1 POP JUMP INVALID LOG2 PUSH5 0x6970667358 0x22 SLT KECCAK256 0xB6 0xC2 PUSH4 0xCD4043DF PUSH5 0x827A8C08A9 NOT DUP1 CALLDATACOPY DUP7 LOG4 PUSH32 0x4F3A43791FAA165F9F26475E7B64736F6C634300081100330000000000000000 "
				},
				"gasEstimates": {
					"creation": {
						"codeDepositCost": "80600",
						"executionCost": "129",
						"totalCost": "80729"
					},
					"external": {
						"forLoop()": "infinite",
						"whileLoop()": "infinite"
					}
				},
				"methodIdentifiers": {
					"forLoop()": "fc0e6008",
					"whileLoop()": "e7c898ef"
				}
			},
			"storageLayout": {
				"storage": [],
				"types": null
			},
			"userdoc": {
				"kind": "user",
				"methods": {},
				"version": 1
			}
		}
	}
}