{
	"contracts/conditional statement/Loop.sol": {
		"Loop": {
			"abi": [
				{
					"inputs": [],
					"name": "dowhileLoop",
					"outputs": [],
					"stateMutability": "nonpayable",
					"type": "function"
				},
				{
					"inputs": [],
					"name": "forLoop",
					"outputs": [],
					"stateMutability": "nonpayable",
					"type": "function"
				},
				{
					"inputs": [],
					"name": "loopBreak",
					"outputs": [],
					"stateMutability": "nonpayable",
					"type": "function"
				},
				{
					"inputs": [],
					"name": "loopContinue",
					"outputs": [],
					"stateMutability": "nonpayable",
					"type": "function"
				},
				{
					"inputs": [],
					"name": "whileLoop",
					"outputs": [],
					"stateMutability": "nonpayable",
					"type": "function"
				}
			],
			"devdoc": {
				"kind": "dev",
				"methods": {},
				"version": 1
			},
			"evm": {
				"assembly": "    /* \"contracts/conditional statement/Loop.sol\":69:1081  contract Loop {... */\n  mstore(0x40, 0x80)\n  callvalue\n  dup1\n  iszero\n  tag_1\n  jumpi\n  0x00\n  dup1\n  revert\ntag_1:\n  pop\n  dataSize(sub_0)\n  dup1\n  dataOffset(sub_0)\n  0x00\n  codecopy\n  0x00\n  return\nstop\n\nsub_0: assembly {\n        /* \"contracts/conditional statement/Loop.sol\":69:1081  contract Loop {... */\n      mstore(0x40, 0x80)\n      callvalue\n      dup1\n      iszero\n      tag_1\n      jumpi\n      0x00\n      dup1\n      revert\n    tag_1:\n      pop\n      jumpi(tag_2, lt(calldatasize, 0x04))\n      shr(0xe0, calldataload(0x00))\n      dup1\n      0x28eb7ef3\n      eq\n      tag_3\n      jumpi\n      dup1\n      0xa94fb035\n      eq\n      tag_4\n      jumpi\n      dup1\n      0xe7c898ef\n      eq\n      tag_5\n      jumpi\n      dup1\n      0xed62931a\n      eq\n      tag_6\n      jumpi\n      dup1\n      0xfc0e6008\n      eq\n      tag_7\n      jumpi\n    tag_2:\n      0x00\n      dup1\n      revert\n        /* \"contracts/conditional statement/Loop.sol\":484:661  function dowhileLoop() public {... */\n    tag_3:\n      tag_8\n      tag_9\n      jump\t// in\n    tag_8:\n      stop\n        /* \"contracts/conditional statement/Loop.sol\":908:1076  function loopContinue() public {... */\n    tag_4:\n      tag_10\n      tag_11\n      jump\t// in\n    tag_10:\n      stop\n        /* \"contracts/conditional statement/Loop.sol\":305:476  function whileLoop() public {... */\n    tag_5:\n      tag_12\n      tag_13\n      jump\t// in\n    tag_12:\n      stop\n        /* \"contracts/conditional statement/Loop.sol\":669:900  function loopBreak() public {... */\n    tag_6:\n      tag_14\n      tag_15\n      jump\t// in\n    tag_14:\n      stop\n        /* \"contracts/conditional statement/Loop.sol\":150:297  function forLoop() public {... */\n    tag_7:\n      tag_16\n      tag_17\n      jump\t// in\n    tag_16:\n      stop\n        /* \"contracts/conditional statement/Loop.sol\":484:661  function dowhileLoop() public {... */\n    tag_9:\n        /* \"contracts/conditional statement/Loop.sol\":525:534  uint8 sum */\n      0x00\n        /* \"contracts/conditional statement/Loop.sol\":548:555  uint8 i */\n      dup1\n        /* \"contracts/conditional statement/Loop.sol\":558:559  1 */\n      0x01\n        /* \"contracts/conditional statement/Loop.sol\":548:559  uint8 i = 1 */\n      swap1\n      pop\n        /* \"contracts/conditional statement/Loop.sol\":570:654  do{... */\n    tag_19:\n        /* \"contracts/conditional statement/Loop.sol\":594:595  1 */\n      0x01\n        /* \"contracts/conditional statement/Loop.sol\":587:595  sum += 1 */\n      dup3\n      tag_22\n      swap2\n      swap1\n      tag_23\n      jump\t// in\n    tag_22:\n      swap2\n      pop\n        /* \"contracts/conditional statement/Loop.sol\":627:630  i++ */\n      dup1\n      dup1\n      tag_24\n      swap1\n      tag_25\n      jump\t// in\n    tag_24:\n      swap2\n      pop\n      pop\n        /* \"contracts/conditional statement/Loop.sol\":650:652  11 */\n      0x0b\n        /* \"contracts/conditional statement/Loop.sol\":648:649  i */\n      dup2\n        /* \"contracts/conditional statement/Loop.sol\":648:652  i<11 */\n      0xff\n      and\n      lt\n        /* \"contracts/conditional statement/Loop.sol\":570:654  do{... */\n      tag_19\n      jumpi\n        /* \"contracts/conditional statement/Loop.sol\":514:661  {... */\n      pop\n      pop\n        /* \"contracts/conditional statement/Loop.sol\":484:661  function dowhileLoop() public {... */\n      jump\t// out\n        /* \"contracts/conditional statement/Loop.sol\":908:1076  function loopContinue() public {... */\n    tag_11:\n        /* \"contracts/conditional statement/Loop.sol\":950:959  uint8 sum */\n      0x00\n        /* \"contracts/conditional statement/Loop.sol\":977:984  uint8 i */\n      dup1\n        /* \"contracts/conditional statement/Loop.sol\":985:986  1 */\n      0x01\n        /* \"contracts/conditional statement/Loop.sol\":977:986  uint8 i=1 */\n      swap1\n      pop\n        /* \"contracts/conditional statement/Loop.sol\":973:1049  for(uint8 i=1; i<11; i++) {... */\n    tag_27:\n        /* \"contracts/conditional statement/Loop.sol\":990:992  11 */\n      0x0b\n        /* \"contracts/conditional statement/Loop.sol\":988:989  i */\n      dup2\n        /* \"contracts/conditional statement/Loop.sol\":988:992  i<11 */\n      0xff\n      and\n      lt\n        /* \"contracts/conditional statement/Loop.sol\":973:1049  for(uint8 i=1; i<11; i++) {... */\n      iszero\n      tag_28\n      jumpi\n        /* \"contracts/conditional statement/Loop.sol\":1021:1022  1 */\n      0x01\n        /* \"contracts/conditional statement/Loop.sol\":1014:1022  sum += 1 */\n      dup3\n      tag_30\n      swap2\n      swap1\n      tag_23\n      jump\t// in\n    tag_30:\n      swap2\n      pop\n        /* \"contracts/conditional statement/Loop.sol\":994:997  i++ */\n      dup1\n      dup1\n      tag_31\n      swap1\n      tag_25\n      jump\t// in\n    tag_31:\n      swap2\n      pop\n      pop\n        /* \"contracts/conditional statement/Loop.sol\":973:1049  for(uint8 i=1; i<11; i++) {... */\n      jump(tag_27)\n    tag_28:\n      pop\n        /* \"contracts/conditional statement/Loop.sol\":939:1076  {... */\n      pop\n        /* \"contracts/conditional statement/Loop.sol\":908:1076  function loopContinue() public {... */\n      jump\t// out\n        /* \"contracts/conditional statement/Loop.sol\":305:476  function whileLoop() public {... */\n    tag_13:\n        /* \"contracts/conditional statement/Loop.sol\":344:353  uint8 sum */\n      0x00\n        /* \"contracts/conditional statement/Loop.sol\":367:374  uint8 i */\n      dup1\n        /* \"contracts/conditional statement/Loop.sol\":377:378  1 */\n      0x01\n        /* \"contracts/conditional statement/Loop.sol\":367:378  uint8 i = 1 */\n      swap1\n      pop\n        /* \"contracts/conditional statement/Loop.sol\":389:469  while(i<11){... */\n    tag_33:\n        /* \"contracts/conditional statement/Loop.sol\":397:399  11 */\n      0x0b\n        /* \"contracts/conditional statement/Loop.sol\":395:396  i */\n      dup2\n        /* \"contracts/conditional statement/Loop.sol\":395:399  i<11 */\n      0xff\n      and\n      lt\n        /* \"contracts/conditional statement/Loop.sol\":389:469  while(i<11){... */\n      iszero\n      tag_34\n      jumpi\n        /* \"contracts/conditional statement/Loop.sol\":420:421  1 */\n      0x01\n        /* \"contracts/conditional statement/Loop.sol\":415:421  sum+=1 */\n      dup3\n      tag_35\n      swap2\n      swap1\n      tag_23\n      jump\t// in\n    tag_35:\n      swap2\n      pop\n        /* \"contracts/conditional statement/Loop.sol\":454:457  i++ */\n      dup1\n      dup1\n      tag_36\n      swap1\n      tag_25\n      jump\t// in\n    tag_36:\n      swap2\n      pop\n      pop\n        /* \"contracts/conditional statement/Loop.sol\":389:469  while(i<11){... */\n      jump(tag_33)\n    tag_34:\n        /* \"contracts/conditional statement/Loop.sol\":333:476  {... */\n      pop\n      pop\n        /* \"contracts/conditional statement/Loop.sol\":305:476  function whileLoop() public {... */\n      jump\t// out\n        /* \"contracts/conditional statement/Loop.sol\":669:900  function loopBreak() public {... */\n    tag_15:\n        /* \"contracts/conditional statement/Loop.sol\":708:717  uint8 sum */\n      0x00\n        /* \"contracts/conditional statement/Loop.sol\":735:742  uint8 i */\n      dup1\n        /* \"contracts/conditional statement/Loop.sol\":743:744  1 */\n      0x01\n        /* \"contracts/conditional statement/Loop.sol\":735:744  uint8 i=1 */\n      swap1\n      pop\n        /* \"contracts/conditional statement/Loop.sol\":731:873  for(uint8 i=1; i<11; i++) {... */\n    tag_38:\n        /* \"contracts/conditional statement/Loop.sol\":748:750  11 */\n      0x0b\n        /* \"contracts/conditional statement/Loop.sol\":746:747  i */\n      dup2\n        /* \"contracts/conditional statement/Loop.sol\":746:750  i<11 */\n      0xff\n      and\n      lt\n        /* \"contracts/conditional statement/Loop.sol\":731:873  for(uint8 i=1; i<11; i++) {... */\n      iszero\n      tag_39\n      jumpi\n        /* \"contracts/conditional statement/Loop.sol\":779:780  1 */\n      0x01\n        /* \"contracts/conditional statement/Loop.sol\":772:780  sum += 1 */\n      dup3\n      tag_41\n      swap2\n      swap1\n      tag_23\n      jump\t// in\n    tag_41:\n      swap2\n      pop\n        /* \"contracts/conditional statement/Loop.sol\":818:820  10 */\n      0x0a\n        /* \"contracts/conditional statement/Loop.sol\":814:817  sum */\n      dup3\n        /* \"contracts/conditional statement/Loop.sol\":814:820  sum>10 */\n      0xff\n      and\n      gt\n        /* \"contracts/conditional statement/Loop.sol\":841:846  break */\n      tag_39\n        /* \"contracts/conditional statement/Loop.sol\":810:862  if (sum>10) {... */\n      jumpi\n        /* \"contracts/conditional statement/Loop.sol\":752:755  i++ */\n      dup1\n      dup1\n      tag_43\n      swap1\n      tag_25\n      jump\t// in\n    tag_43:\n      swap2\n      pop\n      pop\n        /* \"contracts/conditional statement/Loop.sol\":731:873  for(uint8 i=1; i<11; i++) {... */\n      jump(tag_38)\n    tag_39:\n      pop\n        /* \"contracts/conditional statement/Loop.sol\":697:900  {... */\n      pop\n        /* \"contracts/conditional statement/Loop.sol\":669:900  function loopBreak() public {... */\n      jump\t// out\n        /* \"contracts/conditional statement/Loop.sol\":150:297  function forLoop() public {... */\n    tag_17:\n        /* \"contracts/conditional statement/Loop.sol\":187:196  uint8 sum */\n      0x00\n        /* \"contracts/conditional statement/Loop.sol\":215:222  uint8 i */\n      dup1\n        /* \"contracts/conditional statement/Loop.sol\":223:224  1 */\n      0x01\n        /* \"contracts/conditional statement/Loop.sol\":215:224  uint8 i=1 */\n      swap1\n      pop\n        /* \"contracts/conditional statement/Loop.sol\":211:290  for(uint8 i=1; i<11; i++) {... */\n    tag_45:\n        /* \"contracts/conditional statement/Loop.sol\":228:230  11 */\n      0x0b\n        /* \"contracts/conditional statement/Loop.sol\":226:227  i */\n      dup2\n        /* \"contracts/conditional statement/Loop.sol\":226:230  i<11 */\n      0xff\n      and\n      lt\n        /* \"contracts/conditional statement/Loop.sol\":211:290  for(uint8 i=1; i<11; i++) {... */\n      iszero\n      tag_46\n      jumpi\n        /* \"contracts/conditional statement/Loop.sol\":258:259  1 */\n      0x01\n        /* \"contracts/conditional statement/Loop.sol\":252:259  sum+= 1 */\n      dup3\n      tag_48\n      swap2\n      swap1\n      tag_23\n      jump\t// in\n    tag_48:\n      swap2\n      pop\n        /* \"contracts/conditional statement/Loop.sol\":232:235  i++ */\n      dup1\n      dup1\n      tag_49\n      swap1\n      tag_25\n      jump\t// in\n    tag_49:\n      swap2\n      pop\n      pop\n        /* \"contracts/conditional statement/Loop.sol\":211:290  for(uint8 i=1; i<11; i++) {... */\n      jump(tag_45)\n    tag_46:\n      pop\n        /* \"contracts/conditional statement/Loop.sol\":176:297  {... */\n      pop\n        /* \"contracts/conditional statement/Loop.sol\":150:297  function forLoop() public {... */\n      jump\t// out\n        /* \"#utility.yul\":7:93   */\n    tag_50:\n        /* \"#utility.yul\":42:49   */\n      0x00\n        /* \"#utility.yul\":82:86   */\n      0xff\n        /* \"#utility.yul\":75:80   */\n      dup3\n        /* \"#utility.yul\":71:87   */\n      and\n        /* \"#utility.yul\":60:87   */\n      swap1\n      pop\n        /* \"#utility.yul\":7:93   */\n      swap2\n      swap1\n      pop\n      jump\t// out\n        /* \"#utility.yul\":99:279   */\n    tag_51:\n        /* \"#utility.yul\":147:224   */\n      0x4e487b7100000000000000000000000000000000000000000000000000000000\n        /* \"#utility.yul\":144:145   */\n      0x00\n        /* \"#utility.yul\":137:225   */\n      mstore\n        /* \"#utility.yul\":244:248   */\n      0x11\n        /* \"#utility.yul\":241:242   */\n      0x04\n        /* \"#utility.yul\":234:249   */\n      mstore\n        /* \"#utility.yul\":268:272   */\n      0x24\n        /* \"#utility.yul\":265:266   */\n      0x00\n        /* \"#utility.yul\":258:273   */\n      revert\n        /* \"#utility.yul\":285:473   */\n    tag_23:\n        /* \"#utility.yul\":323:326   */\n      0x00\n        /* \"#utility.yul\":342:360   */\n      tag_56\n        /* \"#utility.yul\":358:359   */\n      dup3\n        /* \"#utility.yul\":342:360   */\n      tag_50\n      jump\t// in\n    tag_56:\n        /* \"#utility.yul\":337:360   */\n      swap2\n      pop\n        /* \"#utility.yul\":374:392   */\n      tag_57\n        /* \"#utility.yul\":390:391   */\n      dup4\n        /* \"#utility.yul\":374:392   */\n      tag_50\n      jump\t// in\n    tag_57:\n        /* \"#utility.yul\":369:392   */\n      swap3\n      pop\n        /* \"#utility.yul\":415:416   */\n      dup3\n        /* \"#utility.yul\":412:413   */\n      dup3\n        /* \"#utility.yul\":408:417   */\n      add\n        /* \"#utility.yul\":401:417   */\n      swap1\n      pop\n        /* \"#utility.yul\":438:442   */\n      0xff\n        /* \"#utility.yul\":433:436   */\n      dup2\n        /* \"#utility.yul\":430:443   */\n      gt\n        /* \"#utility.yul\":427:466   */\n      iszero\n      tag_58\n      jumpi\n        /* \"#utility.yul\":446:464   */\n      tag_59\n      tag_51\n      jump\t// in\n    tag_59:\n        /* \"#utility.yul\":427:466   */\n    tag_58:\n        /* \"#utility.yul\":285:473   */\n      swap3\n      swap2\n      pop\n      pop\n      jump\t// out\n        /* \"#utility.yul\":479:646   */\n    tag_25:\n        /* \"#utility.yul\":516:519   */\n      0x00\n        /* \"#utility.yul\":539:561   */\n      tag_61\n        /* \"#utility.yul\":555:560   */\n      dup3\n        /* \"#utility.yul\":539:561   */\n      tag_50\n      jump\t// in\n    tag_61:\n        /* \"#utility.yul\":530:561   */\n      swap2\n      pop\n        /* \"#utility.yul\":583:587   */\n      0xff\n        /* \"#utility.yul\":576:581   */\n      dup3\n        /* \"#utility.yul\":573:588   */\n      sub\n        /* \"#utility.yul\":570:611   */\n      tag_62\n      jumpi\n        /* \"#utility.yul\":591:609   */\n      tag_63\n      tag_51\n      jump\t// in\n    tag_63:\n        /* \"#utility.yul\":570:611   */\n    tag_62:\n        /* \"#utility.yul\":638:639   */\n      0x01\n        /* \"#utility.yul\":631:636   */\n      dup3\n        /* \"#utility.yul\":627:640   */\n      add\n        /* \"#utility.yul\":620:640   */\n      swap1\n      pop\n        /* \"#utility.yul\":479:646   */\n      swap2\n      swap1\n      pop\n      jump\t// out\n\n    auxdata: 0xa2646970667358221220f000a7023a4319b42b42970e34372fec9849f7e8c16bd1e045c86e8c07ae21e264736f6c63430008110033\n}\n",
				"bytecode": {
					"linkReferences": {},
					"object": "608060405234801561001057600080fd5b50610285806100206000396000f3fe608060405234801561001057600080fd5b50600436106100575760003560e01c806328eb7ef31461005c578063a94fb03514610066578063e7c898ef14610070578063ed62931a1461007a578063fc0e600814610084575b600080fd5b61006461008e565b005b61006e6100c2565b005b6100786100fc565b005b610082610136565b005b61008c61017b565b005b600080600190505b6001826100a391906101f1565b915080806100b090610226565b915050600b8160ff1610610096575050565b600080600190505b600b8160ff1610156100f8576001826100e391906101f1565b915080806100f090610226565b9150506100ca565b5050565b600080600190505b600b8160ff1610156101325760018261011d91906101f1565b9150808061012a90610226565b915050610104565b5050565b600080600190505b600b8160ff1610156101775760018261015791906101f1565b9150600a8260ff161161017757808061016f90610226565b91505061013e565b5050565b600080600190505b600b8160ff1610156101b15760018261019c91906101f1565b915080806101a990610226565b915050610183565b5050565b600060ff82169050919050565b7f4e487b7100000000000000000000000000000000000000000000000000000000600052601160045260246000fd5b60006101fc826101b5565b9150610207836101b5565b9250828201905060ff8111156102205761021f6101c2565b5b92915050565b6000610231826101b5565b915060ff8203610244576102436101c2565b5b60018201905091905056fea2646970667358221220f000a7023a4319b42b42970e34372fec9849f7e8c16bd1e045c86e8c07ae21e264736f6c63430008110033",
					"opcodes": "PUSH1 0x80 PUSH1 0x40 MSTORE CALLVALUE DUP1 ISZERO PUSH2 0x10 JUMPI PUSH1 0x0 DUP1 REVERT JUMPDEST POP PUSH2 0x285 DUP1 PUSH2 0x20 PUSH1 0x0 CODECOPY PUSH1 0x0 RETURN INVALID PUSH1 0x80 PUSH1 0x40 MSTORE CALLVALUE DUP1 ISZERO PUSH2 0x10 JUMPI PUSH1 0x0 DUP1 REVERT JUMPDEST POP PUSH1 0x4 CALLDATASIZE LT PUSH2 0x57 JUMPI PUSH1 0x0 CALLDATALOAD PUSH1 0xE0 SHR DUP1 PUSH4 0x28EB7EF3 EQ PUSH2 0x5C JUMPI DUP1 PUSH4 0xA94FB035 EQ PUSH2 0x66 JUMPI DUP1 PUSH4 0xE7C898EF EQ PUSH2 0x70 JUMPI DUP1 PUSH4 0xED62931A EQ PUSH2 0x7A JUMPI DUP1 PUSH4 0xFC0E6008 EQ PUSH2 0x84 JUMPI JUMPDEST PUSH1 0x0 DUP1 REVERT JUMPDEST PUSH2 0x64 PUSH2 0x8E JUMP JUMPDEST STOP JUMPDEST PUSH2 0x6E PUSH2 0xC2 JUMP JUMPDEST STOP JUMPDEST PUSH2 0x78 PUSH2 0xFC JUMP JUMPDEST STOP JUMPDEST PUSH2 0x82 PUSH2 0x136 JUMP JUMPDEST STOP JUMPDEST PUSH2 0x8C PUSH2 0x17B JUMP JUMPDEST STOP JUMPDEST PUSH1 0x0 DUP1 PUSH1 0x1 SWAP1 POP JUMPDEST PUSH1 0x1 DUP3 PUSH2 0xA3 SWAP2 SWAP1 PUSH2 0x1F1 JUMP JUMPDEST SWAP2 POP DUP1 DUP1 PUSH2 0xB0 SWAP1 PUSH2 0x226 JUMP JUMPDEST SWAP2 POP POP PUSH1 0xB DUP2 PUSH1 0xFF AND LT PUSH2 0x96 JUMPI POP POP JUMP JUMPDEST PUSH1 0x0 DUP1 PUSH1 0x1 SWAP1 POP JUMPDEST PUSH1 0xB DUP2 PUSH1 0xFF AND LT ISZERO PUSH2 0xF8 JUMPI PUSH1 0x1 DUP3 PUSH2 0xE3 SWAP2 SWAP1 PUSH2 0x1F1 JUMP JUMPDEST SWAP2 POP DUP1 DUP1 PUSH2 0xF0 SWAP1 PUSH2 0x226 JUMP JUMPDEST SWAP2 POP POP PUSH2 0xCA JUMP JUMPDEST POP POP JUMP JUMPDEST PUSH1 0x0 DUP1 PUSH1 0x1 SWAP1 POP JUMPDEST PUSH1 0xB DUP2 PUSH1 0xFF AND LT ISZERO PUSH2 0x132 JUMPI PUSH1 0x1 DUP3 PUSH2 0x11D SWAP2 SWAP1 PUSH2 0x1F1 JUMP JUMPDEST SWAP2 POP DUP1 DUP1 PUSH2 0x12A SWAP1 PUSH2 0x226 JUMP JUMPDEST SWAP2 POP POP PUSH2 0x104 JUMP JUMPDEST POP POP JUMP JUMPDEST PUSH1 0x0 DUP1 PUSH1 0x1 SWAP1 POP JUMPDEST PUSH1 0xB DUP2 PUSH1 0xFF AND LT ISZERO PUSH2 0x177 JUMPI PUSH1 0x1 DUP3 PUSH2 0x157 SWAP2 SWAP1 PUSH2 0x1F1 JUMP JUMPDEST SWAP2 POP PUSH1 0xA DUP3 PUSH1 0xFF AND GT PUSH2 0x177 JUMPI DUP1 DUP1 PUSH2 0x16F SWAP1 PUSH2 0x226 JUMP JUMPDEST SWAP2 POP POP PUSH2 0x13E JUMP JUMPDEST POP POP JUMP JUMPDEST PUSH1 0x0 DUP1 PUSH1 0x1 SWAP1 POP JUMPDEST PUSH1 0xB DUP2 PUSH1 0xFF AND LT ISZERO PUSH2 0x1B1 JUMPI PUSH1 0x1 DUP3 PUSH2 0x19C SWAP2 SWAP1 PUSH2 0x1F1 JUMP JUMPDEST SWAP2 POP DUP1 DUP1 PUSH2 0x1A9 SWAP1 PUSH2 0x226 JUMP JUMPDEST SWAP2 POP POP PUSH2 0x183 JUMP JUMPDEST POP POP JUMP JUMPDEST PUSH1 0x0 PUSH1 0xFF DUP3 AND SWAP1 POP SWAP2 SWAP1 POP JUMP JUMPDEST PUSH32 0x4E487B7100000000000000000000000000000000000000000000000000000000 PUSH1 0x0 MSTORE PUSH1 0x11 PUSH1 0x4 MSTORE PUSH1 0x24 PUSH1 0x0 REVERT JUMPDEST PUSH1 0x0 PUSH2 0x1FC DUP3 PUSH2 0x1B5 JUMP JUMPDEST SWAP2 POP PUSH2 0x207 DUP4 PUSH2 0x1B5 JUMP JUMPDEST SWAP3 POP DUP3 DUP3 ADD SWAP1 POP PUSH1 0xFF DUP2 GT ISZERO PUSH2 0x220 JUMPI PUSH2 0x21F PUSH2 0x1C2 JUMP JUMPDEST JUMPDEST SWAP3 SWAP2 POP POP JUMP JUMPDEST PUSH1 0x0 PUSH2 0x231 DUP3 PUSH2 0x1B5 JUMP JUMPDEST SWAP2 POP PUSH1 0xFF DUP3 SUB PUSH2 0x244 JUMPI PUSH2 0x243 PUSH2 0x1C2 JUMP JUMPDEST JUMPDEST PUSH1 0x1 DUP3 ADD SWAP1 POP SWAP2 SWAP1 POP JUMP INVALID LOG2 PUSH5 0x6970667358 0x22 SLT KECCAK256 CREATE STOP 0xA7 MUL GASPRICE NUMBER NOT 0xB4 0x2B TIMESTAMP SWAP8 0xE CALLVALUE CALLDATACOPY 0x2F 0xEC SWAP9 0x49 0xF7 0xE8 0xC1 PUSH12 0xD1E045C86E8C07AE21E26473 PUSH16 0x6C634300081100330000000000000000 "
				},
				"gasEstimates": {
					"creation": {
						"codeDepositCost": "129000",
						"executionCost": "177",
						"totalCost": "129177"
					},
					"external": {
						"dowhileLoop()": "infinite",
						"forLoop()": "infinite",
						"loopBreak()": "infinite",
						"loopContinue()": "infinite",
						"whileLoop()": "infinite"
					}
				},
				"methodIdentifiers": {
					"dowhileLoop()": "28eb7ef3",
					"forLoop()": "fc0e6008",
					"loopBreak()": "ed62931a",
					"loopContinue()": "a94fb035",
					"whileLoop()": "e7c898ef"
				}
			},
			"storageLayout": {
				"storage": [],
				"types": null
			},
			"userdoc": {
				"kind": "user",
				"methods": {},
				"version": 1
			}
		}
	}
}