{
	"contracts/conditional statement/Loop.sol": {
		"Loop": {
			"abi": [
				{
					"inputs": [],
					"name": "dowhileLoop",
					"outputs": [],
					"stateMutability": "nonpayable",
					"type": "function"
				},
				{
					"inputs": [],
					"name": "forLoop",
					"outputs": [],
					"stateMutability": "nonpayable",
					"type": "function"
				},
				{
					"inputs": [],
					"name": "loopbreak",
					"outputs": [],
					"stateMutability": "nonpayable",
					"type": "function"
				},
				{
					"inputs": [],
					"name": "whileLoop",
					"outputs": [],
					"stateMutability": "nonpayable",
					"type": "function"
				}
			],
			"devdoc": {
				"kind": "dev",
				"methods": {},
				"version": 1
			},
			"evm": {
				"assembly": "    /* \"contracts/conditional statement/Loop.sol\":69:819  contract Loop {... */\n  mstore(0x40, 0x80)\n  callvalue\n  dup1\n  iszero\n  tag_1\n  jumpi\n  0x00\n  dup1\n  revert\ntag_1:\n  pop\n  dataSize(sub_0)\n  dup1\n  dataOffset(sub_0)\n  0x00\n  codecopy\n  0x00\n  return\nstop\n\nsub_0: assembly {\n        /* \"contracts/conditional statement/Loop.sol\":69:819  contract Loop {... */\n      mstore(0x40, 0x80)\n      callvalue\n      dup1\n      iszero\n      tag_1\n      jumpi\n      0x00\n      dup1\n      revert\n    tag_1:\n      pop\n      jumpi(tag_2, lt(calldatasize, 0x04))\n      shr(0xe0, calldataload(0x00))\n      dup1\n      0x091da0cf\n      eq\n      tag_3\n      jumpi\n      dup1\n      0x28eb7ef3\n      eq\n      tag_4\n      jumpi\n      dup1\n      0xe7c898ef\n      eq\n      tag_5\n      jumpi\n      dup1\n      0xfc0e6008\n      eq\n      tag_6\n      jumpi\n    tag_2:\n      0x00\n      dup1\n      revert\n        /* \"contracts/conditional statement/Loop.sol\":669:816  function loopbreak() public {... */\n    tag_3:\n      tag_7\n      tag_8\n      jump\t// in\n    tag_7:\n      stop\n        /* \"contracts/conditional statement/Loop.sol\":484:661  function dowhileLoop() public {... */\n    tag_4:\n      tag_9\n      tag_10\n      jump\t// in\n    tag_9:\n      stop\n        /* \"contracts/conditional statement/Loop.sol\":305:476  function whileLoop() public {... */\n    tag_5:\n      tag_11\n      tag_12\n      jump\t// in\n    tag_11:\n      stop\n        /* \"contracts/conditional statement/Loop.sol\":150:297  function forLoop() public {... */\n    tag_6:\n      tag_13\n      tag_14\n      jump\t// in\n    tag_13:\n      stop\n        /* \"contracts/conditional statement/Loop.sol\":669:816  function loopbreak() public {... */\n    tag_8:\n        /* \"contracts/conditional statement/Loop.sol\":708:717  uint8 sum */\n      0x00\n        /* \"contracts/conditional statement/Loop.sol\":735:742  uint8 i */\n      dup1\n        /* \"contracts/conditional statement/Loop.sol\":743:744  1 */\n      0x01\n        /* \"contracts/conditional statement/Loop.sol\":735:744  uint8 i=1 */\n      swap1\n      pop\n        /* \"contracts/conditional statement/Loop.sol\":731:809  for(uint8 i=1; i<11; i++) {... */\n    tag_16:\n        /* \"contracts/conditional statement/Loop.sol\":748:750  11 */\n      0x0b\n        /* \"contracts/conditional statement/Loop.sol\":746:747  i */\n      dup2\n        /* \"contracts/conditional statement/Loop.sol\":746:750  i<11 */\n      0xff\n      and\n      lt\n        /* \"contracts/conditional statement/Loop.sol\":731:809  for(uint8 i=1; i<11; i++) {... */\n      iszero\n      tag_17\n      jumpi\n        /* \"contracts/conditional statement/Loop.sol\":779:780  1 */\n      0x01\n        /* \"contracts/conditional statement/Loop.sol\":772:780  sum += 1 */\n      dup3\n      tag_19\n      swap2\n      swap1\n      tag_20\n      jump\t// in\n    tag_19:\n      swap2\n      pop\n        /* \"contracts/conditional statement/Loop.sol\":752:755  i++ */\n      dup1\n      dup1\n      tag_21\n      swap1\n      tag_22\n      jump\t// in\n    tag_21:\n      swap2\n      pop\n      pop\n        /* \"contracts/conditional statement/Loop.sol\":731:809  for(uint8 i=1; i<11; i++) {... */\n      jump(tag_16)\n    tag_17:\n      pop\n        /* \"contracts/conditional statement/Loop.sol\":697:816  {... */\n      pop\n        /* \"contracts/conditional statement/Loop.sol\":669:816  function loopbreak() public {... */\n      jump\t// out\n        /* \"contracts/conditional statement/Loop.sol\":484:661  function dowhileLoop() public {... */\n    tag_10:\n        /* \"contracts/conditional statement/Loop.sol\":525:534  uint8 sum */\n      0x00\n        /* \"contracts/conditional statement/Loop.sol\":548:555  uint8 i */\n      dup1\n        /* \"contracts/conditional statement/Loop.sol\":558:559  1 */\n      0x01\n        /* \"contracts/conditional statement/Loop.sol\":548:559  uint8 i = 1 */\n      swap1\n      pop\n        /* \"contracts/conditional statement/Loop.sol\":570:654  do{... */\n    tag_24:\n        /* \"contracts/conditional statement/Loop.sol\":594:595  1 */\n      0x01\n        /* \"contracts/conditional statement/Loop.sol\":587:595  sum += 1 */\n      dup3\n      tag_27\n      swap2\n      swap1\n      tag_20\n      jump\t// in\n    tag_27:\n      swap2\n      pop\n        /* \"contracts/conditional statement/Loop.sol\":627:630  i++ */\n      dup1\n      dup1\n      tag_28\n      swap1\n      tag_22\n      jump\t// in\n    tag_28:\n      swap2\n      pop\n      pop\n        /* \"contracts/conditional statement/Loop.sol\":650:652  11 */\n      0x0b\n        /* \"contracts/conditional statement/Loop.sol\":648:649  i */\n      dup2\n        /* \"contracts/conditional statement/Loop.sol\":648:652  i<11 */\n      0xff\n      and\n      lt\n        /* \"contracts/conditional statement/Loop.sol\":570:654  do{... */\n      tag_24\n      jumpi\n        /* \"contracts/conditional statement/Loop.sol\":514:661  {... */\n      pop\n      pop\n        /* \"contracts/conditional statement/Loop.sol\":484:661  function dowhileLoop() public {... */\n      jump\t// out\n        /* \"contracts/conditional statement/Loop.sol\":305:476  function whileLoop() public {... */\n    tag_12:\n        /* \"contracts/conditional statement/Loop.sol\":344:353  uint8 sum */\n      0x00\n        /* \"contracts/conditional statement/Loop.sol\":367:374  uint8 i */\n      dup1\n        /* \"contracts/conditional statement/Loop.sol\":377:378  1 */\n      0x01\n        /* \"contracts/conditional statement/Loop.sol\":367:378  uint8 i = 1 */\n      swap1\n      pop\n        /* \"contracts/conditional statement/Loop.sol\":389:469  while(i<11){... */\n    tag_30:\n        /* \"contracts/conditional statement/Loop.sol\":397:399  11 */\n      0x0b\n        /* \"contracts/conditional statement/Loop.sol\":395:396  i */\n      dup2\n        /* \"contracts/conditional statement/Loop.sol\":395:399  i<11 */\n      0xff\n      and\n      lt\n        /* \"contracts/conditional statement/Loop.sol\":389:469  while(i<11){... */\n      iszero\n      tag_31\n      jumpi\n        /* \"contracts/conditional statement/Loop.sol\":420:421  1 */\n      0x01\n        /* \"contracts/conditional statement/Loop.sol\":415:421  sum+=1 */\n      dup3\n      tag_32\n      swap2\n      swap1\n      tag_20\n      jump\t// in\n    tag_32:\n      swap2\n      pop\n        /* \"contracts/conditional statement/Loop.sol\":454:457  i++ */\n      dup1\n      dup1\n      tag_33\n      swap1\n      tag_22\n      jump\t// in\n    tag_33:\n      swap2\n      pop\n      pop\n        /* \"contracts/conditional statement/Loop.sol\":389:469  while(i<11){... */\n      jump(tag_30)\n    tag_31:\n        /* \"contracts/conditional statement/Loop.sol\":333:476  {... */\n      pop\n      pop\n        /* \"contracts/conditional statement/Loop.sol\":305:476  function whileLoop() public {... */\n      jump\t// out\n        /* \"contracts/conditional statement/Loop.sol\":150:297  function forLoop() public {... */\n    tag_14:\n        /* \"contracts/conditional statement/Loop.sol\":187:196  uint8 sum */\n      0x00\n        /* \"contracts/conditional statement/Loop.sol\":215:222  uint8 i */\n      dup1\n        /* \"contracts/conditional statement/Loop.sol\":223:224  1 */\n      0x01\n        /* \"contracts/conditional statement/Loop.sol\":215:224  uint8 i=1 */\n      swap1\n      pop\n        /* \"contracts/conditional statement/Loop.sol\":211:290  for(uint8 i=1; i<11; i++) {... */\n    tag_35:\n        /* \"contracts/conditional statement/Loop.sol\":228:230  11 */\n      0x0b\n        /* \"contracts/conditional statement/Loop.sol\":226:227  i */\n      dup2\n        /* \"contracts/conditional statement/Loop.sol\":226:230  i<11 */\n      0xff\n      and\n      lt\n        /* \"contracts/conditional statement/Loop.sol\":211:290  for(uint8 i=1; i<11; i++) {... */\n      iszero\n      tag_36\n      jumpi\n        /* \"contracts/conditional statement/Loop.sol\":258:259  1 */\n      0x01\n        /* \"contracts/conditional statement/Loop.sol\":252:259  sum+= 1 */\n      dup3\n      tag_38\n      swap2\n      swap1\n      tag_20\n      jump\t// in\n    tag_38:\n      swap2\n      pop\n        /* \"contracts/conditional statement/Loop.sol\":232:235  i++ */\n      dup1\n      dup1\n      tag_39\n      swap1\n      tag_22\n      jump\t// in\n    tag_39:\n      swap2\n      pop\n      pop\n        /* \"contracts/conditional statement/Loop.sol\":211:290  for(uint8 i=1; i<11; i++) {... */\n      jump(tag_35)\n    tag_36:\n      pop\n        /* \"contracts/conditional statement/Loop.sol\":176:297  {... */\n      pop\n        /* \"contracts/conditional statement/Loop.sol\":150:297  function forLoop() public {... */\n      jump\t// out\n        /* \"#utility.yul\":7:93   */\n    tag_40:\n        /* \"#utility.yul\":42:49   */\n      0x00\n        /* \"#utility.yul\":82:86   */\n      0xff\n        /* \"#utility.yul\":75:80   */\n      dup3\n        /* \"#utility.yul\":71:87   */\n      and\n        /* \"#utility.yul\":60:87   */\n      swap1\n      pop\n        /* \"#utility.yul\":7:93   */\n      swap2\n      swap1\n      pop\n      jump\t// out\n        /* \"#utility.yul\":99:279   */\n    tag_41:\n        /* \"#utility.yul\":147:224   */\n      0x4e487b7100000000000000000000000000000000000000000000000000000000\n        /* \"#utility.yul\":144:145   */\n      0x00\n        /* \"#utility.yul\":137:225   */\n      mstore\n        /* \"#utility.yul\":244:248   */\n      0x11\n        /* \"#utility.yul\":241:242   */\n      0x04\n        /* \"#utility.yul\":234:249   */\n      mstore\n        /* \"#utility.yul\":268:272   */\n      0x24\n        /* \"#utility.yul\":265:266   */\n      0x00\n        /* \"#utility.yul\":258:273   */\n      revert\n        /* \"#utility.yul\":285:473   */\n    tag_20:\n        /* \"#utility.yul\":323:326   */\n      0x00\n        /* \"#utility.yul\":342:360   */\n      tag_46\n        /* \"#utility.yul\":358:359   */\n      dup3\n        /* \"#utility.yul\":342:360   */\n      tag_40\n      jump\t// in\n    tag_46:\n        /* \"#utility.yul\":337:360   */\n      swap2\n      pop\n        /* \"#utility.yul\":374:392   */\n      tag_47\n        /* \"#utility.yul\":390:391   */\n      dup4\n        /* \"#utility.yul\":374:392   */\n      tag_40\n      jump\t// in\n    tag_47:\n        /* \"#utility.yul\":369:392   */\n      swap3\n      pop\n        /* \"#utility.yul\":415:416   */\n      dup3\n        /* \"#utility.yul\":412:413   */\n      dup3\n        /* \"#utility.yul\":408:417   */\n      add\n        /* \"#utility.yul\":401:417   */\n      swap1\n      pop\n        /* \"#utility.yul\":438:442   */\n      0xff\n        /* \"#utility.yul\":433:436   */\n      dup2\n        /* \"#utility.yul\":430:443   */\n      gt\n        /* \"#utility.yul\":427:466   */\n      iszero\n      tag_48\n      jumpi\n        /* \"#utility.yul\":446:464   */\n      tag_49\n      tag_41\n      jump\t// in\n    tag_49:\n        /* \"#utility.yul\":427:466   */\n    tag_48:\n        /* \"#utility.yul\":285:473   */\n      swap3\n      swap2\n      pop\n      pop\n      jump\t// out\n        /* \"#utility.yul\":479:646   */\n    tag_22:\n        /* \"#utility.yul\":516:519   */\n      0x00\n        /* \"#utility.yul\":539:561   */\n      tag_51\n        /* \"#utility.yul\":555:560   */\n      dup3\n        /* \"#utility.yul\":539:561   */\n      tag_40\n      jump\t// in\n    tag_51:\n        /* \"#utility.yul\":530:561   */\n      swap2\n      pop\n        /* \"#utility.yul\":583:587   */\n      0xff\n        /* \"#utility.yul\":576:581   */\n      dup3\n        /* \"#utility.yul\":573:588   */\n      sub\n        /* \"#utility.yul\":570:611   */\n      tag_52\n      jumpi\n        /* \"#utility.yul\":591:609   */\n      tag_53\n      tag_41\n      jump\t// in\n    tag_53:\n        /* \"#utility.yul\":570:611   */\n    tag_52:\n        /* \"#utility.yul\":638:639   */\n      0x01\n        /* \"#utility.yul\":631:636   */\n      dup3\n        /* \"#utility.yul\":627:640   */\n      add\n        /* \"#utility.yul\":620:640   */\n      swap1\n      pop\n        /* \"#utility.yul\":479:646   */\n      swap2\n      swap1\n      pop\n      jump\t// out\n\n    auxdata: 0xa26469706673582212209d9960428b2c70798cf6d301e7f6da9bb5199bdd4443bce141408a7c5842a37b64736f6c63430008110033\n}\n",
				"bytecode": {
					"linkReferences": {},
					"object": "608060405234801561001057600080fd5b5061022b806100206000396000f3fe608060405234801561001057600080fd5b506004361061004c5760003560e01c8063091da0cf1461005157806328eb7ef31461005b578063e7c898ef14610065578063fc0e60081461006f575b600080fd5b610059610079565b005b6100636100b3565b005b61006d6100e7565b005b610077610121565b005b600080600190505b600b8160ff1610156100af5760018261009a9190610197565b915080806100a7906101cc565b915050610081565b5050565b600080600190505b6001826100c89190610197565b915080806100d5906101cc565b915050600b8160ff16106100bb575050565b600080600190505b600b8160ff16101561011d576001826101089190610197565b91508080610115906101cc565b9150506100ef565b5050565b600080600190505b600b8160ff161015610157576001826101429190610197565b9150808061014f906101cc565b915050610129565b5050565b600060ff82169050919050565b7f4e487b7100000000000000000000000000000000000000000000000000000000600052601160045260246000fd5b60006101a28261015b565b91506101ad8361015b565b9250828201905060ff8111156101c6576101c5610168565b5b92915050565b60006101d78261015b565b915060ff82036101ea576101e9610168565b5b60018201905091905056fea26469706673582212209d9960428b2c70798cf6d301e7f6da9bb5199bdd4443bce141408a7c5842a37b64736f6c63430008110033",
					"opcodes": "PUSH1 0x80 PUSH1 0x40 MSTORE CALLVALUE DUP1 ISZERO PUSH2 0x10 JUMPI PUSH1 0x0 DUP1 REVERT JUMPDEST POP PUSH2 0x22B DUP1 PUSH2 0x20 PUSH1 0x0 CODECOPY PUSH1 0x0 RETURN INVALID PUSH1 0x80 PUSH1 0x40 MSTORE CALLVALUE DUP1 ISZERO PUSH2 0x10 JUMPI PUSH1 0x0 DUP1 REVERT JUMPDEST POP PUSH1 0x4 CALLDATASIZE LT PUSH2 0x4C JUMPI PUSH1 0x0 CALLDATALOAD PUSH1 0xE0 SHR DUP1 PUSH4 0x91DA0CF EQ PUSH2 0x51 JUMPI DUP1 PUSH4 0x28EB7EF3 EQ PUSH2 0x5B JUMPI DUP1 PUSH4 0xE7C898EF EQ PUSH2 0x65 JUMPI DUP1 PUSH4 0xFC0E6008 EQ PUSH2 0x6F JUMPI JUMPDEST PUSH1 0x0 DUP1 REVERT JUMPDEST PUSH2 0x59 PUSH2 0x79 JUMP JUMPDEST STOP JUMPDEST PUSH2 0x63 PUSH2 0xB3 JUMP JUMPDEST STOP JUMPDEST PUSH2 0x6D PUSH2 0xE7 JUMP JUMPDEST STOP JUMPDEST PUSH2 0x77 PUSH2 0x121 JUMP JUMPDEST STOP JUMPDEST PUSH1 0x0 DUP1 PUSH1 0x1 SWAP1 POP JUMPDEST PUSH1 0xB DUP2 PUSH1 0xFF AND LT ISZERO PUSH2 0xAF JUMPI PUSH1 0x1 DUP3 PUSH2 0x9A SWAP2 SWAP1 PUSH2 0x197 JUMP JUMPDEST SWAP2 POP DUP1 DUP1 PUSH2 0xA7 SWAP1 PUSH2 0x1CC JUMP JUMPDEST SWAP2 POP POP PUSH2 0x81 JUMP JUMPDEST POP POP JUMP JUMPDEST PUSH1 0x0 DUP1 PUSH1 0x1 SWAP1 POP JUMPDEST PUSH1 0x1 DUP3 PUSH2 0xC8 SWAP2 SWAP1 PUSH2 0x197 JUMP JUMPDEST SWAP2 POP DUP1 DUP1 PUSH2 0xD5 SWAP1 PUSH2 0x1CC JUMP JUMPDEST SWAP2 POP POP PUSH1 0xB DUP2 PUSH1 0xFF AND LT PUSH2 0xBB JUMPI POP POP JUMP JUMPDEST PUSH1 0x0 DUP1 PUSH1 0x1 SWAP1 POP JUMPDEST PUSH1 0xB DUP2 PUSH1 0xFF AND LT ISZERO PUSH2 0x11D JUMPI PUSH1 0x1 DUP3 PUSH2 0x108 SWAP2 SWAP1 PUSH2 0x197 JUMP JUMPDEST SWAP2 POP DUP1 DUP1 PUSH2 0x115 SWAP1 PUSH2 0x1CC JUMP JUMPDEST SWAP2 POP POP PUSH2 0xEF JUMP JUMPDEST POP POP JUMP JUMPDEST PUSH1 0x0 DUP1 PUSH1 0x1 SWAP1 POP JUMPDEST PUSH1 0xB DUP2 PUSH1 0xFF AND LT ISZERO PUSH2 0x157 JUMPI PUSH1 0x1 DUP3 PUSH2 0x142 SWAP2 SWAP1 PUSH2 0x197 JUMP JUMPDEST SWAP2 POP DUP1 DUP1 PUSH2 0x14F SWAP1 PUSH2 0x1CC JUMP JUMPDEST SWAP2 POP POP PUSH2 0x129 JUMP JUMPDEST POP POP JUMP JUMPDEST PUSH1 0x0 PUSH1 0xFF DUP3 AND SWAP1 POP SWAP2 SWAP1 POP JUMP JUMPDEST PUSH32 0x4E487B7100000000000000000000000000000000000000000000000000000000 PUSH1 0x0 MSTORE PUSH1 0x11 PUSH1 0x4 MSTORE PUSH1 0x24 PUSH1 0x0 REVERT JUMPDEST PUSH1 0x0 PUSH2 0x1A2 DUP3 PUSH2 0x15B JUMP JUMPDEST SWAP2 POP PUSH2 0x1AD DUP4 PUSH2 0x15B JUMP JUMPDEST SWAP3 POP DUP3 DUP3 ADD SWAP1 POP PUSH1 0xFF DUP2 GT ISZERO PUSH2 0x1C6 JUMPI PUSH2 0x1C5 PUSH2 0x168 JUMP JUMPDEST JUMPDEST SWAP3 SWAP2 POP POP JUMP JUMPDEST PUSH1 0x0 PUSH2 0x1D7 DUP3 PUSH2 0x15B JUMP JUMPDEST SWAP2 POP PUSH1 0xFF DUP3 SUB PUSH2 0x1EA JUMPI PUSH2 0x1E9 PUSH2 0x168 JUMP JUMPDEST JUMPDEST PUSH1 0x1 DUP3 ADD SWAP1 POP SWAP2 SWAP1 POP JUMP INVALID LOG2 PUSH5 0x6970667358 0x22 SLT KECCAK256 SWAP14 SWAP10 PUSH1 0x42 DUP12 0x2C PUSH17 0x798CF6D301E7F6DA9BB5199BDD4443BCE1 COINBASE BLOCKHASH DUP11 PUSH29 0x5842A37B64736F6C634300081100330000000000000000000000000000 "
				},
				"gasEstimates": {
					"creation": {
						"codeDepositCost": "111000",
						"executionCost": "159",
						"totalCost": "111159"
					},
					"external": {
						"dowhileLoop()": "infinite",
						"forLoop()": "infinite",
						"loopbreak()": "infinite",
						"whileLoop()": "infinite"
					}
				},
				"methodIdentifiers": {
					"dowhileLoop()": "28eb7ef3",
					"forLoop()": "fc0e6008",
					"loopbreak()": "091da0cf",
					"whileLoop()": "e7c898ef"
				}
			},
			"storageLayout": {
				"storage": [],
				"types": null
			},
			"userdoc": {
				"kind": "user",
				"methods": {},
				"version": 1
			}
		}
	}
}